:100000000C9455010C947D010C947D010C947D01A0
:100010000C947D010C947D010C947D010C947D0168
:100020000C947D010C947D010C94020B0C949109AD
:100030000C947D010C947D010C947D010C947D0148
:100040000C947D010C947D010C947D010C947D0138
:100050000C947D010C947D010C947D010C94A00BFB
:100060000C947D010C94C91F0C94FB1F0C947D0112
:100070000C947D010C947D010C947D010C947D0108
:100080000C947D010C947D010C947D010C947D01F8
:100090000C947D010C947D010C947D010C947D01E8
:1000A0000C947D010C947D010C947D0176616C753E
:1000B0006500080B000202020100090400000102B1
:1000C000020000052400100105240101010424029E
:1000D00006052406000107058103100040090401FC
:1000E00000020A0000000705020240000007058325
:1000F0000240000012010002EF0201404123418052
:10010000000101020301120100020000004041232E
:10011000418000010102030141726475696E6F2024
:100120004C4C430055534220494F20426F6172644A
:100130000004030904070605040100080A0B0C0D5E
:1001400009040802011040804010204080408008CF
:100150000204018040201002011080102040402045
:10016000040404040403040502020202040302025C
:100170000202060606060606040402020204040041
:10018000000000250028002B002E00310000000098
:1001900000240027002A002D0030002F76736D2FD9
:1001A000002F76736D2F00485F46494C4500485F2D
:1001B0005245534F555243450054494D4500414423
:1001C0004452455353004556454E540052454C4FFA
:1001D00041440065726173650073746F70007265ED
:1001E000636F7264007469746C6500536572766540
:1001F000722053746172746564002F76736D2F736F
:1002000065727665722E7079002D7500707974684C
:100210006F6E005374617274696E672053657276F5
:1002200065722050726F636573732E2E2E005365B6
:10023000726965734461746146696C6500636C65DD
:1002400061725365726965734461746100736574AA
:100250004461746100636C6561724461746100594A
:1002600052616E676500736572696573566973697B
:10027000626C6500736574446174610072756E2D03
:100280006272696467650A000A000A003203740436
:100290001405160E5C0E8C0F73124B1C011E0B1EE8
:1002A0002B207A036A0E9A0F051E11241FBECFEF72
:1002B000DAE0DEBFCDBF12E0A0E0B1E0E6EBFDE4A6
:1002C00002C005900D92A232B107D9F724E0A2E254
:1002D000B2E001C01D92AA3AB207E1F711E0C1E510
:1002E000D1E004C02197FE010E94CA22C634D10782
:1002F000C9F70E9420050C94CE260C9400000895A6
:10030000CB01089580912202909123029C012D7FC0
:100310002130310519F08530910539F481E090E004
:1003200090932302809322020895232B11F00497C7
:1003300021F4109223021092220208958091220249
:10034000909123029C012D7F2130310519F08530D9
:10035000910519F483E090E006C0232B11F0049777
:1003600031F482E090E0909323028093220208957A
:1003700080912202909123029C012D7F2130310532
:1003800019F08530910519F485E090E006C0232B23
:1003900011F0049731F484E090E09093230280936D
:1003A000220208952091220230912302C90162E0C5
:1003B00070E00E949422019731F42150310930936A
:1003C0002302209322020895809122029091230219
:1003D00080FD05C001969093230280932202089528
:1003E0009B01BC01665F7F4FC9010C94E40DCF9265
:1003F000DF92EF92FF926A017B014CEA50E0BC0170
:100400008FE393E00E949611B701A6010E947D0D33
:10041000DC01ED91FC910280F381E02DFF90EF90E3
:10042000DF90CF900994CF93DF93EC010E944E0FA1
:100430001B861A868CE791E099838883DF91CF91A0
:10044000089560E97FE18FE393E00E94AC0E8EE0B7
:1004500093E00E94490E61E070E084E792E00E9420
:10046000471284EE91E090935B0280935A0282EDF2
:1004700091E090934F0280934E0288EB91E090932D
:100480004302809342028EE991E090933702809379
:10049000360282E891E090932B0280932A0208951D
:1004A0008FE393E00C94351040E855E260E070E093
:1004B00083E992E00E946E0460E08EE00E94DE0C10
:1004C00060E08FE00E94DE0C60E080E10C94DE0CC6
:1004D000EF92FF920F931F93CF93DF938EE00E94D2
:1004E000AD0C8C018FE00E94AD0CD82FC92F80E19C
:1004F0000E94AD0C582F492F980117FF02C02150C0
:100500003C4F232F330F330B2595259588EE93E031
:10051000289F8001299F100D389F100D112402592A
:100520001F4F2D2F3C2F37FF02C021503C4F232F50
:10053000330F330B2595259588EE93E0289F7001A6
:10054000299FF00C389FF00C11248EE6E80EF11C68
:10055000252F342F37FF02C021503C4F232F330F5C
:10056000330B2595259588EE93E0289FE001299F80
:10057000D00D389FD00D1124C259DF4F8091220237
:1005800090912302892B79F4B801012E000C880B7D
:10059000990B0E946D21AB01BC0180916202909188
:1005A00063020E94F7018091220290912302029738
:1005B00079F4B7010F2C000C880B990B0E946D2168
:1005C000AB01BC0180916202909163020E94F7012D
:1005D0008091220290912302049779F4BE010D2E9E
:1005E000000C880B990B0E946D21AB01BC0180911E
:1005F0006202909163020E94F7014AE050E0B80164
:1006000083E992E00E94570683E992E00E94AE05DA
:100610004AE050E0B70183E992E00E94570683E97F
:1006200092E00E94AE054AE050E0BE0183E992E00C
:100630000E94570683E992E00E94AE0568EE73E0DF
:1006400080E090E0DF91CF911F910F91FF90EF90AC
:100650000C941B0C0E9421020C9454020E94500224
:100660000C9468020F93CF93DF9300E020E040E00A
:1006700060E08DE892E00E94D50468E271E084E7D2
:1006800092E00E941D1262E371E08AE692E00E940D
:100690004E0FC4E7D1E0D0936B02C0936A026DE3C2
:1006A00071E080E692E00E944E0FD0936102C09309
:1006B000600268E471E084E592E00E94130260E564
:1006C00071E088E492E00E94130268E571E08CE337
:1006D00092E00E94130260E671E080E392E00E94E3
:1006E000130268E671E084E292E0DF91CF910F910E
:1006F0000C94130284E792E00C943712CF93DF93AB
:100700001F92CDB7DEB76983DC01ED91FC910280C9
:10071000F381E02D41E050E0BE016F5F7F4F09950E
:100720000F90DF91CF910895CF93DF93EC018C85EB
:100730009D8597FF05C082E00E9465089D878C8794
:100740008C859D85DF91CF91089583E00C94F80A04
:10075000FC018485958597FD06C082E00E940F0804
:1007600090E00196089582E00E940F0890E00895BD
:10077000FC018485958597FD05C02FEF3FEF3587F8
:100780002487089582E00C946508CF93DF93EC01F1
:1007900080911101882331F083E00E949608181699
:1007A000190634F081E090E09B838A8380E090E03A
:1007B000DF91CF910895FC0190819E5F908342E488
:1007C00050E062EB70E080E80C943709FC01818115
:1007D0009081913A59F4813209F048C047E050E0E5
:1007E0006AE071E080E00E94370976C09132F1F54D
:1007F000833291F49381892F90E0982F882722816A
:10080000822BA0E0B0E08093060190930701A093B3
:100810000801B093090160C0803239F467E070E0EC
:100820008AE091E00E945E0906C0823209F054C05D
:100830008281809311018091E302882319F0EEEF09
:10084000FAE002C0E0E0F8E080910A0190910B012B
:10085000A0910C01B0910D01803B9440A105B10520
:1008600039F48091110180FF1FC002C080E008951B
:100870000FB6F894A895809160008861809360001D
:10088000109260000FBEA895EE3F8AE0F80739F09D
:100890008091FE0A9091FF0A918380831DC010927F
:1008A000FF0A1092FE0A18C0EE3F2AE0F20731F06C
:1008B000808191819093FF0A8093FE0A87E797E7F2
:1008C000918380839BE088E10FB6F894A89580938C
:1008D00060000FBE9093600081E008952FEF3FEF1E
:1008E000FC01358724870895E3E9F2E01382128240
:1008F00088EE93E0A0E0B0E084839583A683B7837D
:1009000084E891E0918380838FEF9FEF95878487C0
:1009100008958F929F92AF92BF92CF92DF92EF9203
:10092000FF920F931F93CF93DF937C018B016C0198
:1009300082E0C80ED11C4701E5E08E0E911CC0E09C
:10094000D0E0F60161916F014AE050E0C8010E94D9
:100950006B065C016EE2C8010E94A7058A0D9B1D13
:10096000C80FD91FC814D90461F74AE050E0F70155
:100970006581C8010E946B068C0F9D1FDF91CF918E
:100980001F910F91FF90EF90DF90CF90BF90AF90AD
:100990009F908F90089524E931E0FC0131832083FA
:1009A000128213821482158208950F93FC0184E948
:1009B00091E09183808362834383248305830F9135
:1009C0000895DC0190E020E030E08AE0FB014191F5
:1009D000BF01442309F150ED540F5A3088F4829F2F
:1009E000F001839FF00D11249F0120533109240F42
:1009F000311D47FD3A952F3F310541F338F312C0C1
:100A00004E3281F4933071F0FD01E90FF11D228324
:100A10009F5F20E030E0DACF933021F415962C93DD
:100A200081E0089580E00895E4EEF2E084E991E049
:100A3000918380831282138214821582089508950F
:100A40000E94570C0E941F058AEE92E00E94830BC1
:100A50000E942A03CCEAD2E10E942E032097E1F300
:100A60000E94AC12F9CFCF92DF92EF92FF920F93D8
:100A70001F93CF93DF936C017A018B01C0E0D0E02C
:100A8000CE15DF0589F0D8016D918D01D601ED916C
:100A9000FC910190F081E02DC6010995892B11F49C
:100AA0007E0102C02196ECCFC701DF91CF911F914B
:100AB0000F91FF90EF90DF90CF9008956115710531
:100AC00079F0FB0101900020E9F73197AF01461B57
:100AD000570BDC01ED91FC910280F381E02D09942C
:100AE00080E090E00895EF92FF920F931F93CF93D1
:100AF000DF938C017B01C0E0D0E0F701EC0FFD1F1C
:100B00006491662361F0D801ED91FC910190F08130
:100B1000E02DC8010995892B11F02196EECFCE0169
:100B2000DF91CF911F910F91FF90EF900895DC011D
:100B3000ED91FC91DB0114964D915C9115976D91AF
:100B40007C910280F381E02D09940C945E05DC0118
:100B5000ED91FC910190F081E02D099466E971E03E
:100B60000C945E050F931F93CF93DF93EC010E94CB
:100B700073058C01CE010E94AE05800F911FDF919D
:100B8000CF911F910F9108954F925F926F927F9234
:100B9000EF92FF920F931F93CF93DF93CDB7DEB702
:100BA000A1970FB6F894DEBF0FBECDBF7C01FA014E
:100BB000CB0119A2223008F42AE08E010F5D1F4FED
:100BC000422E512C612C712CBF01A30192010E9475
:100BD000A822F901CA01015011096A3014F4605DBC
:100BE00001C0695CD8016C93232B242B252B61F762
:100BF000B801C7010E945E05A1960FB6F894DEBF4A
:100C00000FBECDBFDF91CF911F910F91FF90EF905D
:100C10007F906F905F904F900895CF92DF92EF9208
:100C2000FF920F931F93CF93DF93EC016A017B0137
:100C30002115310579F4E881F9810190F081E02DE9
:100C4000642FDF91CF911F910F91FF90EF90DF9074
:100C5000CF9009942A303105E9F477FF1AC06DE28C
:100C60000E94A7058C0144275527BA014C195D093C
:100C70006E097F092AE0CE010E94C405800F911FF2
:100C8000DF91CF911F910F91FF90EF90DF90CF9068
:100C900008952AE0B701A601CE01DF91CF911F91FF
:100CA0000F91FF90EF90DF90CF900C94C4059A01C4
:100CB000AB01770F660B770B0C940D0621153105F0
:100CC00041F4DC01ED91FC910190F081E02D642F65
:100CD00009940C94C4059A01462F50E060E070E03E
:100CE0000C945E064F925F926F927F928F929F92CA
:100CF000AF92BF92CF92DF92EF92FF92CF93DF93AA
:100D0000EC016A017B01B22E9A01AB01C701B60169
:100D10000E948F22882319F069E971E027C026011B
:100D20003701E89477F82FEF3FEF4FE75FE7C30114
:100D3000B2010E948F2281110DC02FEF3FEF4FE7CC
:100D40005FE7C301B2010E94C52018161CF46DE9CB
:100D500071E00CC02FEF3FEF4FE75FE4C701B60132
:100D60000E941D2218169CF461EA71E0CE01DF9109
:100D7000CF91FF90EF90DF90CF90BF90AF909F907A
:100D80008F907F906F905F904F900C945E052FEF47
:100D90003FEF4FE75FECC701B6010E94C52087FD1A
:100DA000E3CF20E030E0A901C701B6010E94C520D1
:100DB00087FF0AC06DE2CE010E94A7054C01F7FA39
:100DC000F094F7F8F09402C0812C912CA12C60E0F3
:100DD00070E080E09FE3AB1441F020E030E040E2BF
:100DE00051E40E94CA20A394F6CF9B01AC01C70135
:100DF000B6010E9459202B013C010E943C216B014D
:100E00007C010E946B219B01AC01C301B2010E94D5
:100E100058202B013C012AE0B701A601CE010E9417
:100E2000C4057C01E80CF91CBB2031F06EE2CE0158
:100E30000E94A705E80EF91EDB2CDD2029F120E039
:100E400030E040E251E4C301B2010E9422222B01B2
:100E50003C010E943C214B01A12CB12C2AE0B501A0
:100E6000A401CE010E94C405E80EF91EC501B4011B
:100E70000E946B219B01AC01C301B2010E9458206A
:100E80002B013C01DA94D9CFC701DF91CF91FF90BC
:100E9000EF90DF90CF90BF90AF909F908F907F901A
:100EA0006F905F904F9008950C947206615030F0EF
:100EB0002091F100FC0120830196F8CF289884E668
:100EC0008093F30208954091EE025091EF02209139
:100ED000EC023091ED0242175307B4F49091E80010
:100EE0009570E1F39091E80092FD19C08093F100B4
:100EF0008091EE029091EF0201968F739927892BD2
:100F000019F48EEF8093E8008091EE029091EF0249
:100F100001969093EF028093EE0281E0089580E0C5
:100F20000895CF92DF92EF92FF920F931F93CF938A
:100F3000DF931F92CDB7DEB7182F062FE42E862F32
:100F4000880F8E5F99830E94630783E00E94630786
:100F5000F12EC12E9981D92E8C2D8F19801798F4DE
:100F6000F601E7FE02C0849101C080810E94630700
:100F7000182F80E00E9463078123FFEFCF1ADF0A5A
:100F80008111EACF01C081E00F90DF91CF911F91D5
:100F90000F91FF90EF90DF90CF9008958091D70050
:100FA00081608093D70080EA8093D80089B5806102
:100FB00089BD89B5826089BD09B400FEFDCF61E0BD
:100FC00070E080E090E00E941B0C8091D8008F7C44
:100FD00080618093D8008091E000807F8093E00062
:100FE0000895CF93DF931F92CDB7DEB71982CE015C
:100FF00001960E94DB030E943714BE016F5F7F4F92
:101000000E94B21389810F90DF91CF9108952FB77D
:10101000FC012083F89467706093E9000895CF93F2
:10102000DF931F92CDB7DEB7682FCE0101960E94E5
:1010300007088091F20099819FBF0F90DF91CF91B7
:101040000895EF92FF920F931F93CF93DF931F9218
:10105000CDB7DEB79091F202992311F057FF03C08C
:101060008FEF9FEF2AC08A017B01682FCE01019686
:101070000E9407088091F20090E0A8018017910774
:101080000CF4AC01842FF70194E6815038F02898D5
:101090009093F3022091F1002193F7CF4115510570
:1010A00021F08091F200882321F089818FBFCA014D
:1010B00004C08BE68093E800F8CF0F90DF91CF91CA
:1010C0001F910F91FF90EF900895CF93DF931F92A0
:1010D000CDB7DEB741E050E0BE016F5F7F4F0E94A9
:1010E0002108019719F4898190E002C08FEF9FEFEA
:1010F0000F90DF91CF910895CF93DF931F92CDB7DB
:10110000DEB7682FCE0101960E9407089091E80093
:10111000892F807295FF04C09091F2008FE3891BA4
:1011200099819FBF0F90DF91CF9108956F927F9229
:101130008F929F92AF92BF92CF92DF92EF92FF92E7
:101140000F931F93CF93DF931F92CDB7DEB7A82ED7
:101150006B01B42E052F8091F202811103C08FEF35
:101160009FEF6AC08091F00280FF05C08091E0008F
:1011700082608093E000EB2CF02E8AEF982E8A2D6F
:101180008072782E9AE3892E8A2D8074682EE1145D
:10119000F10409F447C08A2D0E947C08182F8111A0
:1011A0000AC09A949920D9F261E070E080E090E062
:1011B0000E941B0CECCF90E0E816F9060CF41E2DF3
:1011C0006A2DCE0101960E9407088091E80085FFF4
:1011D00026C0812F90E0E81AF90A772029F01150F3
:1011E000A8F01092F100FBCFF601A7FE07C0115046
:1011F00058F024912093F1003196F9CF115020F04E
:1012000021912093F100FACFC80ED91E8091E800F9
:1012100085FF0FC0E114F10411F461100AC0898147
:101220008FBFB5CF5D9884E68093F4028B2D902F0D
:1012300003C08092E800F3CF0F90DF91CF911F9110
:101240000F91FF90EF90DF90CF90BF90AF909F9065
:101250008F907F906F9008951092E9001092EF02A6
:101260001092EE029093ED028093EC020895DF92CB
:10127000EF92FF920F931F93CF93DF93D82E8A01A3
:101280007B01E40EF51EEB01CE15DF0571F0D7FEF4
:1012900003C0FE01849101C088810E9463072196EA
:1012A0008111F2CF8FEF9FEF01C0C801DF91CF9185
:1012B0001F910F91FF90EF90DF900895BF92CF9212
:1012C000DF92EF92FF920F931F93CF93DF936C0106
:1012D0008B01EB019BEFB92E2097C1F07E01C13449
:1012E000D1051CF080E4E82EF12C8091E80082FF0B
:1012F000FCCFC8018C1B9D0B6E2D8C0D9D1D0E947B
:101300005607B092E800CE19DF09E6CFC801DF9199
:10131000CF911F910F91FF90EF90DF90CF90BF90F2
:1013200008951F920F920FB60F921124CF92DF9261
:10133000EF92FF920F931F932F933F934F935F93DF
:101340006F937F938F939F93AF93BF93EF93FF938D
:10135000CF93DF93CDB7DEB76C97DEBFCDBF1092D2
:10136000E9008091E80083FF24C168E0CE01459642
:101370000E94560782EF8093E8008D8987FF05C0A1
:101380009091E80090FFFCCF03C09EEF9093E8009F
:10139000982F907609F0F1C09E892F89188D9111B0
:1013A0000CC0803829F48091F1028093F10002C0D2
:1013B0001092F1001092F100F5C0422F50E0512B35
:1013C000913051F48111EEC04130510509F0EAC06D
:1013D0008091F1028D7F0BC0933061F48111E2C0E6
:1013E0004130510509F0DEC08091F10282608093A6
:1013F000F102D8C0953041F48091E80080FFFCCF25
:1014000020682093E300CEC0963009F08CC0EB8CAE
:10141000FC8C123069F580E090E00E942C090E945B
:10142000F10799E09E012F5F3F4F6901F901292FD4
:1014300011922A95E9F799831A8391E09E8390EAA5
:1014400098879AEF99872091EE023091EF02275FFB
:101450003F4F3C832B838D83C7010E942C0949E0B9
:1014600050E0B60180E00E9437090E94F1079AC05F
:10147000C7010E942C090E943714BE016B5E7F4F8A
:101480000E94DB13009719F00CF08CC08FC0113054
:1014900071F48B8D9C8D089719F481E08093EB0299
:1014A0008091EB0281112FC066E071E031C01330F2
:1014B00009F07CC08F89882349F1823029F440E803
:1014C0006CE084E291E006C0813039F440E86BE0E2
:1014D00088E191E00E94910763C0833009F066C003
:1014E0000E9437148E010F5F1F4FB8010E94FA133C
:1014F000F80101900020E9F73197BF01601B710BE3
:1015000040E0C801E7CF64EF70E002C061E371E042
:101510006115710509F44AC0FB01449150E080E86F
:101520000E9437093FC0973009F440C0983021F439
:1015300081E08093F10036C09930A1F58370B1F558
:10154000E3E1F1E081E021E036E39081992361F06D
:101550008093E9002093EB0091919093EC003093FD
:10156000ED008F5F873089F78EE78093EA00109255
:10157000EA008F898093F20215C08B8D9C8D0E94AA
:101580002C09898D811105C0CE0145960E94E60384
:1015900007C00E943714BE016B5E7F4F0E94191472
:1015A000882321F08EEF8093E80003C081E28093CE
:1015B000EB006C960FB6F894DEBF0FBECDBFDF9187
:1015C000CF91FF91EF91BF91AF919F918F917F91BB
:1015D0006F915F914F913F912F911F910F91FF90CC
:1015E000EF90DF90CF900F900FBE0F901F90189547
:1015F0008093E9008091F200882319F08AE38093B8
:10160000E80008951F920F920FB60F9211242F93A6
:101610003F934F935F936F937F938F939F93AF937A
:10162000BF93CF93EF93FF93C091E1008091E100CE
:10163000837F8093E100C3FF0FC01092E90081E037
:101640008093EB001092EC0082E38093ED00109207
:10165000F20288E08093F000C2FF19C083E00E948C
:10166000F80A8091F402882339F08091F4028150C5
:101670008093F402882389F18091F302882339F062
:101680008091F30281508093F302882341F1C4FFDB
:1016900010C08091E2008E7E81608093E200809194
:1016A000E1008F7E8093E1008091F0028E7E806168
:1016B00011C0C0FF16C08091E2008E7E80618093D1
:1016C000E2008091E1008E7E8093E1008091F00243
:1016D0008E7E81608093F00204C05D9ACDCF289AFF
:1016E000D6CFFF91EF91CF91BF91AF919F918F9105
:1016F0007F916F915F914F913F912F910F900FBE0E
:101700000F901F9018951092F2021092F102109211
:10171000F0020E94CE078091E1008E7E8093E1006E
:101720008DE08093E200559A209AEEEFFFE78591D5
:1017300094918B3F9C4D19F481E08093E3020895CE
:101740001F920F920FB60F9211242F933F938F93F6
:101750009F93AF93BF938091F6029091F702A0916F
:10176000F802B091F9023091F50223E0230F2D37F2
:1017700020F40196A11DB11D05C026E8230F029695
:10178000A11DB11D2093F5028093F6029093F702FC
:10179000A093F802B093F9028091FA029091FB02B3
:1017A000A091FC02B091FD020196A11DB11D809394
:1017B000FA029093FB02A093FC02B093FD02BF914A
:1017C000AF919F918F913F912F910F900FBE0F90EE
:1017D0001F9018952FB7F8946091F6027091F70258
:1017E0008091F8029091F9022FBF08953FB7F894C5
:1017F0008091FA029091FB02A091FC02B091FD024F
:1018000026B5A89B05C02F3F19F00196A11DB11D5B
:101810003FBFBA2FA92F982F8827820F911DA11D96
:10182000B11DBC01CD0142E0660F771F881F991FD3
:101830004A95D1F708958F929F92AF92BF92CF921F
:10184000DF92EF92FF926B017C010E94F60B4B013D
:101850005C01C114D104E104F10401F10E94A91357
:101860000E94F60BDC01CB0188199909AA09BB0972
:10187000883E9340A105B10560F321E0C21AD1086A
:10188000E108F10888EE880E83E0981EA11CB11CC7
:10189000C114D104E104F10419F7DBCFFF90EF90FC
:1018A000DF90CF90BF90AF909F908F9008957894E5
:1018B00084B5826084BD84B5816084BD85B5826055
:1018C00085BD85B5816085BDEEE6F0E080818160F3
:1018D0008083E1E8F0E010828081826080838081F3
:1018E00081608083E0E8F0E0808181608083E1E9CD
:1018F000F0E0808182608083808181608083E0E984
:10190000F0E0808181608083E1ECF0E080818460A0
:101910008083808182608083808181608083E3EC2A
:10192000F0E0808181608083E0ECF0E08081826083
:101930008083E2ECF0E0808181608083EAE7F0E080
:1019400080818460808380818260808380818160E7
:1019500080838081806880830895823108F082517D
:10196000E82FF0E0EB5CFE4FE49180917B00E3FB1D
:10197000222720F930E095E0220F331F9A95E1F7F6
:101980008F7D282B20937B00E7708091190120E444
:10199000829FC0011124E82BE0937C0080917A00A3
:1019A000806480937A0080917A0086FDFCCF8091DC
:1019B00078002091790090E0922B0895CF93DF93E7
:1019C00090E0FC01EF5BFE4F2491FC01E05AFE4FDA
:1019D0008491882361F190E0880F991FFC01E357FF
:1019E000FE4FC591D491FC01E158FE4FA591B491F1
:1019F000611109C09FB7F89488812095822388835C
:101A0000EC912E230BC0623061F49FB7F8943881BB
:101A1000822F809583238883EC912E2B2C939FBF5C
:101A200006C08FB7F894E8812E2B28838FBFDF91F3
:101A3000CF910895FC0153834283648315820895F6
:101A4000CF93DF93EC018A819B81009769F06F81CE
:101A500061110E94A7058C81882331F08A819B81C6
:101A6000DF91CF910C94AE05DF91CF910895FC01E9
:101A700089EA91E091838083138212821482158215
:101A80001682178282E090E0918780878AE090E05A
:101A9000938782870895FC016681662351F08581D2
:101AA00091E0980F9583882321F0828193810C9493
:101AB000A70508950F931F93CF93DF9300D0CDB761
:101AC000DEB78C01FC0182819381892B71F0C80102
:101AD00069837A830E944B0DF801428553856981A1
:101AE0007A81828193810E945706C8010F900F90DE
:101AF000DF91CF911F910F9108950F931F93CF9373
:101B0000DF9300D000D0CDB7DEB78C01FC0182811D
:101B10009381892B91F0C80149835A836B837C831D
:101B20000E944B0DF8012085318549815A816B81D6
:101B30007C81828193810E945407C8010F900F908D
:101B40000F900F90DF91CF911F910F9108950895FD
:101B5000FC01738362830895FC0181EB91E0918322
:101B600080831382128214828AE0858308950F9302
:101B70001F93CF93DF931F92CDB7DEB7FC01228175
:101B80003381232BD9F08C01198241E050E0BE0152
:101B90006F5F7F4FF801828193810E946215892BCC
:101BA00049F09981F8018481981721F081E025811D
:101BB000921301C080E089838111E7CF0F90DF91FC
:101BC000CF911F910F9108950F931F93CF93DF93A0
:101BD000EC018B018A819B81009749F0DC01ED913A
:101BE000FC910480F581E02D0995892B21F4F80101
:101BF000118210820DC041E062E070E08A819B8119
:101C00000E94E914D8016D937C93CE010E94B70D18
:101C1000CE01DF91CF911F910F910895EFEFF0E08A
:101C200083E08083608381E090E0089582E093E028
:101C30000E94370DEEEFF2E01382128289EB91E001
:101C40009183808308950F931F93CF93DF93EC01CB
:101C50008C010F5F1F4F68E971E0C8010E94E31615
:101C6000CE0107960E94AC0DCE010D960E94370D55
:101C7000CE0149960E94370D61EA71E0C8010E94C9
:101C8000C5178CE28B878B8BDF91CF911F910F91C2
:101C9000089526E040E950ED63E070E08091EC03A8
:101CA0009091ED030E94441383EE93E00E94421B47
:101CB00085E094E00C94091E0F9300E020E040E0E2
:101CC00060E083E393E00E94D5048EE093E00F91FF
:101CD0000C94230E8FE093E00C947516CF93DF9352
:101CE000EC010E94CB041986188688EE93E0A0E0F0
:101CF000B0E08A879B87AC87BD8786E192E09F83AF
:101D00008E8383EE93E09B8B8A8B1F8A188E198EAD
:101D100068E971E0CE01865A9F4F0E94E316CE011A
:101D2000805A9F4F0E94AC0DCE018A599F4F0E944E
:101D3000370DCE018E589F4F0E94370DFE01E4599A
:101D4000FF4F8CE2808338978083CB59DF4F8AE244
:101D50008883DF91CF910895EF92FF920F931F93A5
:101D6000CF93DF9300D000D000D0CDB7DEB78C0189
:101D70007B0126E040E950ED63E070E08091EC03E8
:101D80009091ED030E94441383EE93E00E94421B66
:101D90008EEE93E00E94EE1D63E172E08EEE93E022
:101DA0000E94B2050A5F1F4F6CE072E0CE010196FF
:101DB0000E94E617BE016F5F7F4FC8010E94A61FF9
:101DC000CE0101960E94751669E072E0CE0101967F
:101DD0000E94E617BE016F5F7F4FC8010E94D91EA7
:101DE000CE0101960E9475166AEF71E0CE01019650
:101DF0000E94E617BE016F5F7F4FC8010E94D91E87
:101E0000CE0101960E9475164AE0B701CE010196F7
:101E10000E949917BE016F5F7F4FC8010E94D91EB3
:101E2000CE0101960E947516C8010E94EE1E68EB55
:101E30007BE080E090E00E941B0CC8010E944D1FD7
:101E4000882309F4B1CF6BEE71E08EEE93E00E942F
:101E5000B20526960FB6F894DEBF0FBECDBFDF9158
:101E6000CF911F910F91FF90EF900895E09139036A
:101E7000F0913A03309741F490933A0380933903F9
:101E8000FC011186108608952085318521153105C4
:101E900011F0F901F9CF91878087089520ED31E0A5
:101EA000FC0131832083738362831582148217823D
:101EB00016820C94360F0F931F93CF93DF938C01F0
:101EC000C0913903D0913A03209759F0E881F98104
:101ED0000190F081E02DCE0109950884D985C02DAF
:101EE000F3CF80913D0390913E03892B81F060E018
:101EF00070E0C801865A9F4F0E948217E0913D030F
:101F0000F0913E03DF91CF911F910F910994DF91E2
:101F1000CF911F910F9108950F9300E020E040E0D2
:101F200060E08DEB93E00E94D5048FE393E00F9186
:101F30000C946E0E89E993E00E94751685E493E097
:101F40000C949F1FAF92BF92CF92DF92EF92FF92BD
:101F50000F931F93CF93DF93CDB7DEB72C970FB6B8
:101F6000F894DEBF0FBECDBF7C015C0126E0A20E5F
:101F7000B11C4DE3B501CE0107960E9488156EE2B3
:101F8000CE0107960E94C218D701A65ABF4F6D0115
:101F90008F3FBFEF9B07A9F09C0140E050E0BE01DE
:101FA000695F7F4FCE0101960E94C618BE016F5F28
:101FB0007F4FC6010E947617CE0101960E947516CA
:101FC00006C0BE01695F7F4FC6010E94561700918F
:101FD000390310913A03E0E6EE0EF11C01151105EC
:101FE00019F1D80112966D917C911397C6010E9448
:101FF00087188823A9F0B501C7010E94A80DD80150
:10200000ED91FC910280F381E02DB701C8010995A3
:10201000D8011696ED91FC911797309709F0099524
:10202000F80100851185DACFE0913B03F0913C0384
:10203000309709F0099560E070E0C6010E948217B0
:10204000CE0107960E9475162C960FB6F894DEBF47
:102050000FBECDBFDF91CF911F910F91FF90EF90F9
:10206000DF90CF90BF90AF9008958F929F92AF92E4
:10207000BF92DF92EF92FF920F931F93CF93DF9364
:10208000CDB7DEB763970FB6F894DEBF0FBECDBFF6
:102090007C018C010A5F1F4F8AE0D82EC8010E9484
:1020A000A41E181619060CF09EC04AE3B801CE0112
:1020B0000D960E94881568E971E0CE0107960E948E
:1020C000E3166CEC71E0CE0101960E94E617BE01AA
:1020D0006F5F7F4FCE010D960E947618B82ECE010D
:1020E00001960E947516BB2021F0C7010E945B0F6C
:1020F00068C066EC71E0CE0101960E94E617BE0151
:102100006F5F7F4FCE010D960E947618B82ECE01DC
:1021100001960E947516BB2021F0C7010E94A20FF4
:1021200050C06EEB71E0CE0101960E94E617BE0131
:102130006F5F7F4FCE010D960E947618B82ECE01AC
:1021400001960E947516BB2081F04AE2B801CE01CB
:1021500001960E94881569817A81C7010E94E10475
:10216000CE0101960E9475162CC069EB71E0CE017C
:1021700001960E94E617BE016F5F7F4FCE010D965C
:102180000E947618B82ECE0101960E947516BB20CB
:10219000C1F04AE2B801CE0101960E9488154AE0DA
:1021A00050E060E070E089819A810E94F5244B0143
:1021B0005C01CE0101960E947516C501B4010E9412
:1021C0000C19DB8A41E050E0BE016D5E7F4FC80113
:1021D0000E947216CE0107960E947516CE010D96CA
:1021E0000E9475165BCF63960FB6F894DEBF0FBEE4
:1021F000CDBFDF91CF911F910F91FF90EF90DF90B6
:10220000BF90AF909F908F900895EF92FF920F93A1
:102210001F93CF93DF938C017A01EC012696CE01B8
:102220000E9497056EE2CE010E94A705B701CE017C
:102230000E9497056DEB71E0CE010E94A505F801A3
:10224000E359FF4F89E28083AE0161E0C8018A59FA
:102250009F4FDF91CF911F910F91FF90EF900C94C2
:102260001A0DEF92FF920F931F93CF93DF93CDB789
:10227000DEB72C970FB6F894DEBF0FBECDBF8C0132
:102280007B01BA01CE0107960E94E617B701CE0185
:1022900001960E94E316AE01495F5F4FBE016F5F7A
:1022A0007F4FC8010E9405118C01CE0101960E944A
:1022B0007516CE0107960E947516C8012C960FB6AA
:1022C000F894DEBF0FBECDBFDF91CF911F910F916C
:1022D000FF90EF900895EF92FF920F931F93CF938B
:1022E000DF938C017A01EC012696CE010E949705BE
:1022F0006EE2CE010E94A705B701CE010E949705AC
:102300006FEB71E0CE010E94A505F801E359FF4F84
:102310001082AE0161E0C8018A599F4FDF91CF91D1
:102320001F910F91FF90EF900C941A0DEF92FF9276
:102330000F931F93CF93DF93CDB7DEB72C970FB6D4
:10234000F894DEBF0FBECDBF8C017B01BA01CE0178
:1023500007960E94E617B701CE0101960E94E31688
:10236000AE01495F5F4FBE016F5F7F4FC8010E94A2
:102370006B118C01CE0101960E947516CE01079655
:102380000E947516C8012C960FB6F894DEBF0FBEDA
:10239000CDBFDF91CF911F910F91FF90EF900895E6
:1023A0008F929F92AF92BF92FF920F931F93CF9302
:1023B000DF938C01F12CCF2DD0E0F801208D022E7F
:1023C000000C330BC217D30774F5CE01880F991F89
:1023D000880F991FD8015696ED91FC915797E80FF9
:1023E000F91F80809180A280B38012966D917C91BC
:1023F000139744E752E08FE393E00E94311160E0CD
:1024000070E00E945A0DBE010E945A0DB501A40150
:102410000E947D0DDC01ED91FC910280F381E02DA5
:102420000995F394C8CFDF91CF911F910F91FF9041
:10243000BF90AF909F908F900895CF93DF93EC0162
:102440000E944E0FCE010A960E94370D88ED91E052
:102450009983888380EE91E09B878A871F8A1E8AF2
:102460008FEF888F8CE2888BDF91CF910895FC01EC
:1024700088ED91E09183808380EE91E0938782875D
:1024800086899789009711F00C94932308950F93F0
:102490001F93CF938C01C62FFC01608FCB01880F57
:1024A000991F880F991F0E94FE22BC01F801978B8B
:1024B000868B90E04C2FCC0F550B292F30E0241742
:1024C00035076CF4220F331F220F331FFB01E20F7D
:1024D000F31F10821182128213829F5FEECFCF9181
:1024E0001F910F9108950F9300E020E040E060E01D
:1024F00083EC93E00E94D5040F910895FC01918D27
:10250000228D892F90E0805C9F4F821B91098F73F1
:1025100099270895FC01918D828D981731F0828D55
:10252000E80FF11D858D90E008958FEF9FEF0895DE
:10253000FC01918D828D981761F0828DDF01A80FCB
:10254000B11D5D968C91928D9F5F9F73928F90E0ED
:1025500008958FEF9FEF089581E290E2892B49F073
:1025600080E090E0892B29F00E94212081110C94B9
:1025700000000895FC01848DDF01A80FB11DA35A4E
:10258000BF4F2C91848D90E001968F739927848F93
:10259000A689B7892C93A089B1898C9180648C938A
:1025A000938D848D981306C00288F389E02D808175
:1025B0008F7D80830895CF93DF93EC01888D8823EE
:1025C000C9F0EA89FB89808185FD05C0A889B989A0
:1025D0008C9186FD0FC00FB607FCF5CF808185FF7B
:1025E000F2CFA889B9898C9185FFEDCFCE010E94E9
:1025F000BA12E7CFDF91CF910895EF92FF920F9338
:102600001F93CF93DF93EC0181E0888F9B8D8C8D9E
:10261000981305C0E889F989808185FD24C0F62ECC
:102620000B8D10E00F5F1F4F0F731127E02E8C8D65
:10263000E8120CC00FB607FCFACFE889F98980814F
:1026400085FFF5CFCE010E94BA12F1CF8B8DFE012E
:10265000E80FF11DE35AFF4FF0820B8FEA89FB89E7
:102660008081806207C0EE89FF896083E889F989EB
:1026700080818064808381E090E0DF91CF911F9121
:102680000F91FF90EF900895CF92DF92EF92FF921B
:102690001F93CF93DF93EC016A017B01122FE8892E
:1026A000F98982E080834115514E61057105B1F0D1
:1026B00060E079E08DE390E0A70196010E94A822F6
:1026C000DA01C9010197A109B109B695A7959795B6
:1026D0008795AC01411580E15807A8F0E889F98990
:1026E000108260E874E88EE190E0A70196010E94F4
:1026F000A822BA01A90141505109610971097695D1
:10270000679557954795EC85FD855083EE85FF8548
:102710004083188EEC89FD891083EA89FB898081CA
:1027200080618083EA89FB89808188608083EA896F
:10273000FB89808180688083EA89FB8980818F7D25
:102740008083DF91CF911F91FF90EF90DF90CF902A
:10275000089508950C94FE220C94FE220C94932369
:102760000C949323EF92FF920F931F93CF93DF93D9
:102770007B01FC01C281D38100E010E0209781F051
:10278000E881F9810280F381E02DB701CE0109953E
:1027900097FD08C0080F191F0884D985C02DEECFFA
:1027A000C80102C08FEF9FEFDF91CF911F910F9172
:1027B000FF90EF9008950F931F93CF93DF938B01BA
:1027C000FC01C281D381209771F0E881F9810480F6
:1027D000F581E02DB801CE010995009731F4088408
:1027E000D985C02DF0CF80E090E0DF91CF911F918F
:1027F0000F9108950F931F93CF93DF938B01FC01EB
:10280000C281D381209771F0E881F9810680F78138
:10281000E02DB801CE010995080F111D0884D98556
:10282000C02DF0CFF8011082DF91CF911F910F9151
:1028300008950F931F93CF93DF938B01FC01C28107
:10284000D381209771F0E881F9810190F081E02D2A
:10285000B801CE010995811105C00884D985C02D24
:10286000F0CF80E0DF91CF911F910F91089580917B
:10287000CD0381110DC082E08093C90384E0809371
:10288000CA031092CC031092CB0381E08093CD0356
:1028900089EC93E008950F931F93CF93DF93EC019E
:1028A0000E94EA0B688779878A879B87E881F9818C
:1028B0000680F781E02DCE01099597FF17C00E9491
:1028C000EA0B088519852A853B85DC01CB01801B35
:1028D000910BA20BB30B0C811D812E813F818017C0
:1028E0009107A207B30710F38FEF9FEFDF91CF910E
:1028F0001F910F9108950F931F93CF93DF93EC01D6
:102900000E94EA0B688779878A879B87E881F9812B
:102910000084F185E02DCE01099597FF17C00E9434
:10292000EA0B088519852A853B85DC01CB01801BD4
:10293000910BA20BB30B0C811D812E813F8180175F
:102940009107A207B30710F38FEF9FEFDF91CF91AD
:102950001F910F910895FF920F931F93CF93DF93D1
:10296000EC018B01F42ECE010E947B149C0197FD9B
:102970000BC08D32910541F0C0970A9728F0FF20D7
:1029800029F02E32310511F4C9011DC001301105A5
:10299000C1F00230110569F42D30310551F034F4E5
:1029A000295031092230310520F00BC02032310589
:1029B00041F4E881F9810680F781E02DCE01099587
:1029C000D2CF8FEF9FEFDF91CF911F910F91FF90AB
:1029D00008958F929F92AF92BF92CF92DF92FF9213
:1029E0000F931F93CF93DF9300D000D0CDB7DEB706
:1029F0008C01B42E40E00E94AB14FC0197FD4CC04A
:102A000020E030E0A901F12CCB2CBB0CDD08EC154B
:102A1000FD05F1F0ED32F105C9F0CF01C0970A973D
:102A2000B8F4AAE0B0E00E94DF224F01FF0FAA082D
:102A3000BB08DC01CB01880D991DAA1DBB1D9C01A3
:102A4000AD01205331094109510902C0FF24F3941B
:102A5000D801ED91FC910680F781E02DC801298312
:102A60003A834B835C830995C8010E947B14FC0167
:102A7000C09729813A814B815C810A9740F2EC151D
:102A8000FD0529F2FF2061F066277727CB01621B45
:102A9000730B840B950B06C060E070E0CB0102C0A5
:102AA000CA01B9010F900F900F900F90DF91CF9155
:102AB0001F910F91FF90DF90CF90BF90AF909F90AC
:102AC0008F900895CF92DF92EF92FF920F931F9312
:102AD000CF93DF936C017A018B01C0E0D0E0CE157B
:102AE000DF0561F0C6010E944B1497FF02C07E0112
:102AF00005C0F80181938F012196F1CFC701DF91C5
:102B0000CF911F910F91FF90EF90DF90CF9008959C
:102B1000EF92FF920F931F93CF93DF93EC017B0112
:102B2000042F68E971E00E94E316C7010E944B146C
:102B3000002E000C110B97FD0BC08017910741F080
:102B4000682FCE010E943318C7010E944B14F3CFA7
:102B5000CE01DF91CF911F910F91FF90EF900895DB
:102B60004F925F926F927F928F929F92AF92BF929D
:102B7000CF92DF92EF92FF920F931F93CF93DF9349
:102B80008C01EB0186E0849F4001859F900C11240D
:102B9000860E971EFB01E815F90508F582819381E1
:102BA000892B21F13696F7CF60817181448155815F
:102BB000DB01A40FB51F2C91022E000C330B8217E2
:102BC000930711F54F5F5F4F558344832281338113
:102BD0004217530759F03696E815F90528F3C8014E
:102BE0000E944B1497FD46C0FE01F6CFEC1BFD0B77
:102BF000F595E7952BEA3AEAE29FC001E39F900D35
:102C0000F29F900D112438C04115510521F3C48065
:102C1000D58096012150310935832483DB01A20F31
:102C2000B31FAC910A2E000CBB0B8A179B07F9F45B
:102C300021153105C9F05B017A01E21AF30AE60EAB
:102C4000F71E412C512CD5016D905D01D7017D906F
:102C50007D01671006C0BFEF4B1A5B0A4216530690
:102C600090F34216530699F6D582C482B4CF232B33
:102C700071F6B1CF8FEF9FEFDF91CF911F910F9141
:102C8000FF90EF90DF90CF90BF90AF909F908F908C
:102C90007F906F905F904F900895CF93DF9300D017
:102CA00000D000D0CDB7DEB7FE01319626E0DF01BF
:102CB0001D922A95E9F77A8369835C834B8341E00F
:102CC00050E0BF010E94B01521E0892B09F020E0FF
:102CD000822F26960FB6F894DEBF0FBECDBFDF91D0
:102CE000CF9108950C944D160895FC018081918137
:102CF0000C949323CF93DF93EC0188819981009703
:102D000011F00E949323198218821D821C821B825B
:102D10001A82DF91CF9108950F931F93CF93DF9382
:102D2000EC018B016F5F7F4F888199810E942B247A
:102D3000009731F0998388831B830A8381E001C067
:102D400080E0DF91CF911F910F910895CF93DF9392
:102D5000EC0188819981892B29F08A819B818617D2
:102D6000970760F4CE010E948C16882341F08C8175
:102D70009D81892B19F4E881F981108281E0DF912E
:102D8000CF910895EF92FF920F931F93CF93DF930C
:102D9000EC017B018A01BA010E94A616811104C0D0
:102DA000CE010E947A1607C01D830C83B70188816B
:102DB00099810E943D26CE01DF91CF911F910F9105
:102DC000FF90EF900895FC0111821082138212820D
:102DD000158214826115710551F0FB0101900020EC
:102DE000E9F73197AF01461B570B0C94C2160895B3
:102DF000EF92FF920F931F93CF93DF93EC017B0130
:102E00008A01BA010E94A616811104C0CE010E9457
:102E10007A1607C01D830C83B701888199810E94AF
:102E20001026CE01DF91CF911F910F91FF90EF906F
:102E300008950F931F93CF93DF938C01EB01FC0157
:102E4000808191810097D1F0688179816115710548
:102E500099F024E736E1232B79F0428153812C81CC
:102E60003D814217530740F00E943D268C819D8191
:102E7000F8019583848313C00E94932388819981EC
:102E8000F801918380838A819B81938382838C81E3
:102E90009D8195838483198218821B821A821D82E8
:102EA0001C82DF91CF911F910F910895CF93DF93F3
:102EB000EC01FB018617970761F060817181611554
:102EC000710529F0448155810E94C21602C00E94FA
:102ED0007A16CE01DF91CF910895FC011182108204
:102EE00013821282158214820C945617CF93DF93AB
:102EF000EC018617970711F00E941917CE01DF9198
:102F0000CF910895CF93DF93EC016115710559F0CE
:102F1000FB0101900020E9F73197AF01461B570BE9
:102F20000E94C21602C00E947A16CE01DF91CF9194
:102F300008950F931F93CF93DF93CDB7DEB76297BA
:102F40000FB6F894DEBF0FBECDBF8C01CB01F801E8
:102F500011821082138212821582148250E0BE0107
:102F60006F5F7F4F0E944426BE016F5F7F4FC80195
:102F70000E94821762960FB6F894DEBF0FBECDBFD7
:102F8000DF91CF911F910F9108950F931F93CF93CE
:102F9000DF9300D0CDB7DEB78C016115710561F00C
:102FA000CB0169837A830E941726AC0169817A81FB
:102FB000C8010E94F81602C00E947A16C8010F903C
:102FC0000F90DF91CF911F910F910895FC01118215
:102FD000108213821282158214820C94C517EF920C
:102FE000FF920F931F93CF93DF93FC0124813581D0
:102FF0006115710511F480E019C041155105A9F062
:103000007B01EC018A01020F131FB8010E94A61672
:10301000882389F3288139818C819D81B701820FB2
:10302000931F0E943D261D830C8381E0DF91CF9189
:103030001F910F91FF90EF900895FB0144815581FE
:10304000608171810C94EF176115710551F0FB01DE
:1030500001900020E9F73197AF01461B570B0C9404
:10306000EF1780E00895CF93DF9300D0CDB7DEB7A0
:1030700069831A8241E050E0BE016F5F7F4F0E947A
:10308000EF170F900F90DF91CF910895CF93DF93BB
:10309000DC01ED91FC91EB01A881B981309711F031
:1030A0001097C9F4109759F0EB012C813D81232B27
:1030B00031F08C9190E091958195910914C03097F1
:1030C00081F0DC0114968D919C911597892B49F024
:1030D000808190E008C0BD01CF01DF91CF910C94B9
:1030E000342680E090E0DF91CF910895FC01448187
:1030F0005581FB01248135814217530729F40E9431
:10310000461821E0892B09F020E0822F0895FC0168
:1031100024813581232B31F421E061157105A1F063
:10312000FB0108C0FC01808191816115710531F4BA
:1031300021E0FC018081882339F005C00E943426FB
:1031400021E0892B09F020E0822F0895CF93DF93AF
:10315000FC01248135814217530778F4C081D18165
:10316000062E000C770BCE01840F951F0E94292696
:10317000009719F08C1B9D0B02C08FEF9FEFDF9122
:10318000CF91089540E050E00C94A618BF92CF92E2
:10319000DF92EF92FF920F931F93CF93DF937C0107
:1031A0006B018A01E9012417350720F4812F890179
:1031B000C42FD82F68E971E0C7010E94E316D60139
:1031C00014968D919C91159708171907D0F48C17B8
:1031D0009D0708F4EC01D601ED91FC911197EC0FDD
:1031E000FD1FB08010824D915C91BA01600F711F7C
:1031F000C7010E948217D601ED91FC91EC0FFD1FD3
:10320000B082C701DF91CF911F910F91FF90EF9096
:10321000DF90CF90BF9008950F931F936093DF03CB
:103220007093E0038093E1039093E20300911A010D
:1032300010911B0120911C0130911D01DC01CB017B
:10324000800F911FA21FB31F8093D7039093D803C1
:10325000A093D903B093DA0382E090E09093D60371
:103260008093D5030E94EA0B6093DB037093DC0329
:103270008093DD039093DE031F910F910895FC016D
:10328000238134812627022E2295207F2025032E9C
:10329000322F22952F700226269532272327220FC0
:1032A000220F220F2025348323830895CF93DF93A9
:1032B000EC018D819E81DC01ED91FC916C8101908E
:1032C000F081E02D09958D819E81DC01ED91FC91CD
:1032D0000190F081E02D6B81DF91CF9109948F9265
:1032E0009F92AF92BF92CF92DF92EF92FF92CF93D5
:1032F000DF93EC016B010E94EA0B4B015C01E12CB6
:10330000F12C8D819E81DC01ED91FC910680F7818D
:10331000E02D099597FF0FC00E94EA0BDC01CB015D
:1033200088199909AA09BB098C159D05AE05BF0529
:1033300040F38FEF9FEFDF91CF91FF90EF90DF9001
:10334000CF90BF90AF909F908F900895CF93DF93D1
:10335000EC018D819E81DC01ED91FC910480F58171
:10336000E02D09951816190654F48D819E81DC0113
:10337000ED91FC910680F781E02D0995EACFDF9170
:10338000CF9108952F923F924F925F926F927F92CA
:103390008F929F92AF92BF92CF92DF92EF92FF9265
:1033A0000F931F93CF93DF93CDB7DEB72D970FB653
:1033B000F894DEBF0FBECDBF3C012B013C832B83B5
:1033C000BF82AE82C8018C0D9D1D1C01240E351ECE
:1033D0003D82A32CB12CCB01840F951F9987888740
:1033E000D901A00FB11FBB87AA87F701EC0DFD1D06
:1033F000FD87EC87F3018085B81608F028C1EFEF50
:10340000FFEFD3011496FC93EE93139715968D91CD
:103410009C911697DC01ED91FC910190F081E02DDB
:103420006FEF09956FEFC3010E943F19F30185818A
:103430009681DC01ED91FC910190F081E02DD301AA
:103440006C910995F3016081C3010E943F19D3017A
:1034500015968D919C911697DC01ED91FC91019050
:10346000F081E02D6D8109956A2DC3010E943F19FD
:10347000F30185819681DC01ED91FC910190F08151
:10348000E02D622D0995622DC3010E943F19620152
:1034900088859985C816D906A1F0F30185819681A2
:1034A0008601DC01ED91FC910190F081E02DD601C7
:1034B0006D916D010995F8016081C3010E943F196A
:1034C000E7CFCB80DC808A859B85C816D906B1F012
:1034D000D30115968D919C9116978601DC01ED9193
:1034E000FC910190F081E02DD6016D916D0109955F
:1034F000F8016081C3010E943F19E5CF67018C8507
:103500009D85C816D906B1F0D30115968D919C9171
:1035100016978601DC01ED91FC910190F081E02D80
:10352000D6016D916D010995F8016081C3010E947A
:103530003F19E5CFC3010E94561964E670E0C3014C
:103540000E946F198F3F910509F076C0EFEFFFEFF2
:10355000D3011496FC93EE9313976FEFC3010E946F
:103560003F1965E070E0C3010E946F19D3016C91AF
:10357000262F30E08217930709F05EC0C3010E9436
:103580003F196AE070E0C3010E946F196C0197FD5A
:1035900053C0682FC3010E943F196AE070E0C30165
:1035A0000E946F198C0197FD47C0682FC3010E94CC
:1035B0003F19CA821982E981FA810E0F1F1FC12C9F
:1035C000D12C65E070E0C301C016D106A1F0C8148B
:1035D000D90489F00E946F1997FD09C0EE81FF811F
:1035E000EC0DFD1D8083682FC3010E943F19FFEF82
:1035F000CF1ADF0AE6CF0E946F196C0197FD1CC03D
:1036000065E070E0C3010E946F1997FD15C0DC2CC6
:10361000CC248C0D9D1DD30113962D913C911497B4
:103620002817390749F48C918F5F8C93C801801655
:10363000910678F4C4010DC0B39464E670E080E0B4
:1036400090E00E941B0CC3010E94A619D3CE8FEFFD
:103650009FEF2D960FB6F894DEBF0FBECDBFDF9162
:10366000CF911F910F91FF90EF90DF90CF90BF907F
:10367000AF909F908F907F906F905F904F903F9012
:103680002F9008953F924F925F926F927F928F9208
:103690009F92AF92BF92CF92DF92EF92FF920F93E1
:1036A0001F93CF93DF93CDB7DEB72E970FB6F89465
:1036B000DEBF0FBECDBFDC0117962C9117972111ED
:1036C000D2C03C0181E0FD018783C3010E94A6199D
:1036D00068EE73E080E090E00E941B0CD301159629
:1036E0008D919C911697DC01ED91FC910480F58100
:1036F000E02D09951816190644F395E0592E442437
:10370000439422E3322EEEE1F1E0DE011696852DA0
:1037100001900D928A95E1F7F3014086812C912C5E
:10372000A12CB12CC12CD12CE12CF12C00E010E00B
:1037300020E030E045E050E0BE016A5F7F4FC3010A
:103740000E94C21963E0D30115968D919C91169742
:103750000E94A7056AEF70E080E090E00E941B0CD9
:103760006AE872E0F301858196810E9473056AEF31
:1037700070E080E090E00E941B0C68E872E0D301EA
:1037800015968D919C9116970E94730564EF71E0D8
:1037900080E090E00E941B0C6CE772E0F3018581F1
:1037A00096810E94730564EF71E080E090E00E94D2
:1037B0001B0CC3010E94A619E3E2F1E0DE011196A1
:1037C000852D01900D928A95E1F7D30118963C92D0
:1037D00084E0882E912CFE013B965F0120E030E0D2
:1037E00045E050E0BE016F5F7F4FC3010E94C219E8
:1037F0008F3FFFEF9F0739F468EE73E080E090E0C1
:103800000E941B0C80CF2B852111FFCF049711F54F
:103810002C8530E02053310984E6829FA001839FEC
:10382000500D11242D8530E0205331096AE0629F4C
:10383000C001639F900D1124840F951F2E8530E0E9
:1038400020533109820F931FD30112969C938E93BC
:10385000119705C084E690E0F3019283818382E3AF
:10386000D30118968C932E960FB6F894DEBF0FBE38
:10387000CDBFDF91CF911F910F91FF90EF90DF901F
:10388000CF90BF90AF909F908F907F906F905F9000
:103890004F903F900895E3EEF3E0108287E094E0CC
:1038A00096838583178210869287818708954F9229
:1038B0005F926F927F928F929F92AF92BF92CF92C0
:1038C000DF92EF92FF920F931F93CF93DF931F929C
:1038D000CDB7DEB73C019B012A01DC0152968C91E9
:1038E000811105C08B017B01E40EF51E35C080E51A
:1038F0008983812C912CA12CB12CC12CD12CE12CB1
:10390000F12C8A0141E050E0BE016F5F7F4FF3016F
:10391000848595850E94C21922C0D3015596ED91E8
:10392000FC91569753968C91539791E0980F53962C
:103930009C93D8019D918D01E80FF11D9083F301B7
:1039400093898489981308C00190F081E02D028446
:10395000F385E02DC30109950E151F05F1F6C2018F
:103960000F90DF91CF911F910F91FF90EF90DF901B
:10397000CF90BF90AF909F908F907F906F905F900F
:103980004F9008958F929F92AF92BF92CF92DF9205
:10399000EF92FF920F931F9348015901C12CD12C34
:1039A000E12CF12C00E010E020E030E00E94C21990
:1039B0001F910F91FF90EF90DF90CF90BF90AF904D
:1039C0009F908F9008950F931F93CF93DF93FC01E7
:1039D000228921110FC0EC01438950E06589768965
:1039E00000E010E020E030E0848595850E94C21C54
:1039F00081E08B8BDF91CF911F910F9108950F93F1
:103A00001F93CF93DF9300D0CDB7DEB7DC01529682
:103A10008C915297882399F080E589836A8300E02E
:103A200010E020E030E042E050E0BE016F5F7F4FE9
:103A30001C968D919C911D970E94C21C1FC055968B
:103A4000ED91FC91569753968C91539791E0980F76
:103A500053969C935397E80FF11D608353969C9166
:103A6000539754968C915497981308C0ED91FC91FC
:103A700011970284F385E02DCD01099581E090E056
:103A80000F900F90DF91CF911F910F910895FC013E
:103A90001382128288EE93E0A0E0B0E084839583E5
:103AA000A683B78388EF91E09183808383EE93E0D0
:103AB0009587848716861786118A108A81E0828B03
:103AC0000895CF93DF93FC012289211109C0EC01F5
:103AD00085899689009711F00E94B01381E08A8B46
:103AE000DF91CF910895EF92FF920F931F93CF93A1
:103AF000DF9300D0CDB7DEB7FC012685211115C0BC
:103B00007C01178680E7898380E28A832089318956
:103B100000E210E042E050E0BE016F5F7F4F84851D
:103B200095850E94C21CF70186870F900F90DF9148
:103B3000CF911F910F91FF90EF900895CF93DF9356
:103B4000EC010E94731D8E8590E0DF91CF91089566
:103B5000CF93DF93EC010E94731D8E85882369F05B
:103B600081508E87E889F9898F8591E0980F9F872A
:103B7000E80FF11D808190E002C08FEF9FEFDF9191
:103B8000CF910895CF93DF93EC010E94731D8E8532
:103B9000882341F08F85E889F989E80FF11D80813C
:103BA00090E002C08FEF9FEFDF91CF910895CF9308
:103BB000DF93EC010E94611D88899989009721F0AB
:103BC0000E94B013198A188ADF91CF91089528EFC7
:103BD00031E0FC01318320830C94D71DCF93DF9318
:103BE000EC018C859D850E94421BCE010E94D71D51
:103BF00080E290E00E94AC13998B888BDF91CF918B
:103C000008958EEE93E00C94471D8EEE93E00C9495
:103C1000E71D81E0089583EE93E09093060480937E
:103C20000504089508956F927F928F929F92AF92AC
:103C3000BF92CF92DF92EF92FF920F931F93CF9399
:103C4000DF9300D0CDB7DEB79B013A0149E4498349
:103C5000FC0146854A83812C912CA12CB12CC12CCE
:103C6000D12CE12CF12C830142E050E0BE016F5FCA
:103C70007F4F848595850E94C219C3010F900F90D4
:103C8000DF91CF911F910F91FF90EF90DF90CF9038
:103C9000BF90AF909F908F907F906F9008950F93FB
:103CA0001F93CF93DF9300D01F92CDB7DEB729E4E7
:103CB0002983FC0126852A836B8300E010E020E045
:103CC00030E043E050E0BE016F5F7F4F8485958513
:103CD0000E94C21C81E090E00F900F900F90DF9146
:103CE000CF911F910F910895EF92FF920F931F9321
:103CF000CF93DF9300D01F92CDB7DEB7FC012289AE
:103D0000211118C07C01138A8FE4898380E48B839E
:103D100086858A839F012C5E3F4F00E410E043E0DC
:103D200050E0BE016F5F7F4F848595850E94C21C65
:103D3000F701828B0F900F900F90DF91CF911F9121
:103D40000F91FF90EF900895CF93DF93EC010E94C5
:103D5000741E8A8990E0DF91CF910895CF93DF930D
:103D6000EC010E94741E8A89882359F081508A8B45
:103D70008B8991E0980F9B8BC80FD11D8C8990E0A7
:103D800002C08FEF9FEFDF91CF910895CF93DF9324
:103D9000EC010E94741E8A89882331F08B89C80F38
:103DA000D11D8C8990E002C08FEF9FEFDF91CF9102
:103DB00008950F931F93CF93DF93EC018B0164E081
:103DC00072E08F8598890E942418B8018F859889A0
:103DD000DF91CF911F910F910C941D186F927F92DC
:103DE0008F929F92AF92BF92CF92DF92EF92FF920B
:103DF0000F931F93CF93DF9300D01F92CDB7DEB701
:103E00003C0182E58B83D3011F96ED91FC91509785
:103E1000048115812081318182E0882E912CFE0160
:103E200031965F01C12CD12CE12CF12C41E050E006
:103E3000BE016D5F7F4F1C968D919C911D970E94D6
:103E4000C2198A81D3011E968C931E971F960D91DD
:103E50001C9150970115110531F0C8010E9475168B
:103E6000C8010E94AE13F301108A1786898181115F
:103E700002C081E0818B0F900F900F90DF91CF9166
:103E80001F910F91FF90EF90DF90CF90BF90AF9078
:103E90009F908F907F906F9008950F931F93CF9373
:103EA000DF9300D01F92CDB7DEB722E72983FC0154
:103EB00026852A8301E010E09E012D5F3F4F42E0FE
:103EC00050E0BE016F5F7F4F848595850E94C21CC4
:103ED00081E09B81913009F080E00F900F900F906E
:103EE000DF91CF911F910F910895EF92FF920F9361
:103EF0001F93CF93DF9300D0CDB7DEB77C01FC01D9
:103F00008189882389F087E7898386858A8300E011
:103F100010E020E030E042E050E0BE016F5F7F4FF4
:103F2000848595850E94C21CF701118A0F900F901D
:103F3000DF91CF911F910F91FF90EF90089526E1AF
:103F400032E0FC01318320830C94751FEF92FF92C5
:103F50000F931F93CF93DF9300D0CDB7DEB77C01D3
:103F600069837A830E94751F86E090E00E94AA13FD
:103F70008C0169817A810E946D17F701108B078788
:103F80000F900F90DF91CF911F910F91FF90EF90C5
:103F900008951F920F920FB60F9211242F938F93B3
:103FA0009F93EF93FF93E0911704F09118048081A1
:103FB000E0911D04F0911E0482FD12C09081809159
:103FC00020048F5F8F7320912104821751F0E091BC
:103FD0002004F0E0E95FFB4F958F8093200401C03F
:103FE0008081FF91EF919F918F912F910F900FBE44
:103FF0000F901F9018951F920F920FB60F921124D9
:104000002F933F934F935F936F937F938F939F93E0
:10401000AF93BF93EF93FF9387E094E00E94BA12AF
:10402000FF91EF91BF91AF919F918F917F916F9190
:104030005F914F913F912F910F900FBE0F901F9066
:10404000189587E094E00E947E1221E0892B09F404
:1040500020E0822F0895E7E0F4E01382128288EED8
:1040600093E0A0E0B0E084839583A683B78388EED5
:1040700091E0918380838DEC90E0958784878CEC30
:1040800090E09787868788EC90E0918B808B89EC15
:1040900090E0938B828B8AEC90E0958B848B8EECF6
:1040A00090E0978B868B118E128E138E148E08954E
:1040B0005058BB27AA270E9470200C94E3210E942D
:1040C000D52138F00E94DC2120F039F49F3F19F40B
:1040D00026F40C94D2210EF4E095E7FB0C94CC214D
:1040E000E92F0E94F42158F3BA1762077307840777
:1040F000950720F079F4A6F50C9416220EF4E095BD
:104100000B2EBA2FA02D0B01B90190010C01CA0191
:10411000A0011124FF27591B99F0593F50F4503E3C
:1041200068F11A16F040A22F232F342F4427585F2E
:10413000F3CF469537952795A795F0405395C9F746
:104140007EF41F16BA0B620B730B840BBAF09150FE
:10415000A1F0FF0FBB1F661F771F881FC2F70EC09D
:10416000BA0F621F731F841F48F487957795679570
:10417000B795F7959E3F08F0B0CF9395880F08F05C
:104180009927EE0F9795879508950E94A82108F426
:1041900081E008950E94DE200C94E3210E94DC213E
:1041A00058F00E94D52140F029F45F3F29F00C948B
:1041B000CC2151110C9417220C94D2210E94F4218D
:1041C00068F39923B1F3552391F3951B550BBB2746
:1041D000AA2762177307840738F09F5F5F4F220F8B
:1041E000331F441FAA1FA9F335D00E2E3AF0E0E882
:1041F00032D091505040E695001CCAF72BD0FE2FCC
:1042000029D0660F771F881FBB1F2617370748075F
:10421000AB07B0E809F0BB0B802DBF01FF27935817
:104220005F4F3AF09E3F510578F00C94CC210C94EE
:1042300017225F3FE4F3983ED4F386957795679510
:10424000B795F7959F5FC9F7880F911D969587954C
:1042500097F90895E1E0660F771F881FBB1F62176B
:1042600073078407BA0720F0621B730B840BBA0B29
:10427000EE1F88F7E09508950E94FC2188F09F5773
:1042800098F0B92F9927B751B0F0E1F0660F771F7A
:10429000881F991F1AF0BA95C9F714C0B13091F070
:1042A0000E941622B1E008950C941622672F782FF1
:1042B0008827B85F39F0B93FCCF386957795679535
:1042C000B395D9F73EF490958095709561957F4FA1
:1042D0008F4F9F4F0895E89409C097FB3EF4909547
:1042E0008095709561957F4F8F4F9F4F9923A9F0CF
:1042F000F92F96E9BB279395F6958795779567955E
:10430000B795F111F8CFFAF4BB0F11F460FF1BC0A1
:104310006F5F7F4F8F4F9F4F16C0882311F096E934
:1043200011C0772321F09EE8872F762F05C06623E2
:1043300071F096E8862F70E060E02AF09A95660F9B
:10434000771F881FDAF7880F9695879597F9089554
:10435000990F0008550FAA0BE0E8FEEF1616170696
:10436000E807F907C0F012161306E407F50798F0FE
:10437000621B730B840B950B39F40A2661F0232B17
:10438000242B252B21F408950A2609F4A140A69593
:104390008FEF811D811D089597F99F6780E870E078
:1043A00060E008959FEF80EC089500240A941616AB
:1043B000170618060906089500240A941216130613
:1043C000140605060895092E0394000C11F48823A1
:1043D00052F0BB0F40F4BF2B11F460FF04C06F5FBD
:1043E0007F4F8F4F9F4F089557FD9058440F551F93
:1043F00059F05F3F71F04795880F97FB991F61F067
:104400009F3F79F087950895121613061406551FDD
:10441000F2CF4695F1DF08C0161617061806991F49
:10442000F1CF86957105610508940895E894BB273E
:1044300066277727CB0197F908950E94A82108F4F1
:104440008FEF08950E9435220C94E3210E94D5211C
:1044500038F00E94DC2120F0952311F00C94CC213F
:104460000C94D22111240C9417220E94F42170F391
:10447000959FC1F3950F50E0551F629FF001729F09
:10448000BB27F00DB11D639FAA27F00DB11DAA1F18
:10449000649F6627B00DA11D661F829F2227B00D65
:1044A000A11D621F739FB00DA11D621F839FA00DF0
:1044B000611D221F749F3327A00D611D231F849F40
:1044C000600D211D822F762F6A2F11249F57504097
:1044D0009AF0F1F088234AF0EE0FFF1FBB1F661F12
:1044E000771F881F91505040A9F79E3F510580F0DB
:1044F0000C94CC210C9417225F3FE4F3983ED4F344
:10450000869577956795B795F795E7959F5FC1F77E
:10451000FE2B880F911D9695879597F908950E9417
:10452000A821880B990B089597FB072E16F4009489
:1045300007D077FD09D00E94EA2207FC05D03EF49F
:10454000909581959F4F0895709561957F4F08953F
:10455000A1E21A2EAA1BBB1BFD010DC0AA1FBB1F87
:10456000EE1FFF1FA217B307E407F50720F0A21BF9
:10457000B30BE40BF50B661F771F881F991F1A9466
:1045800069F760957095809590959B01AC01BD0190
:10459000CF010895EE0FFF1F0590F491E02D0994CF
:1045A000A29FB001B39FC001A39F700D811D112474
:1045B000911DB29F700D811D1124911D08950E94BF
:1045C000D022A59F900DB49F900DA49F800D911DAA
:1045D00011240895AA1BBB1B51E107C0AA1FBB1FD2
:1045E000A617B70710F0A61BB70B881F991F5A957F
:1045F000A9F780959095BC01CD010895CF93DF93E5
:104600008230910510F482E090E0E091A604F091F0
:10461000A70420E030E0C0E0D0E0309711F1408105
:10462000518148175907C0F04817590761F4828132
:104630009381209719F09B838A832BC09093A704C2
:104640008093A60426C02115310519F0421753079F
:1046500018F49A01BE01DF01EF010280F381E02D21
:10466000DCCF2115310509F1281B390B2430310528
:1046700090F412968D919C9113976115710521F01C
:10468000FB019383828304C09093A7048093A604C4
:10469000FD01329644C0FD01E20FF31F8193919317
:1046A000225031092D933C933AC02091A4043091BB
:1046B000A504232B41F42091020130910301309392
:1046C000A5042093A404209100013091010121153B
:1046D000310541F42DB73EB74091040150910501D9
:1046E000241B350BE091A404F091A504E217F30715
:1046F000A0F42E1B3F0B2817390778F0AC014E5F52
:104700005F4F2417350748F04E0F5F1F5093A504E5
:104710004093A4048193919302C0E0E0F0E0CF01C4
:10472000DF91CF9108950F931F93CF93DF9300975D
:1047300009F48CC0FC013297138212820091A60406
:104740001091A7040115110581F420813181820F98
:10475000931F2091A4043091A5042817390779F5F7
:10476000F093A504E093A40471C0D80140E050E0A8
:10477000AE17BF0750F412962D913C911397AD01DF
:104780002115310509F1D901F3CF9D01DA013383F8
:10479000228360817181860F971F8217930769F4C6
:1047A000EC0128813981260F371F2E5F3F4F31835F
:1047B00020838A819B8193838283452B29F4F09304
:1047C000A704E093A60442C01396FC93EE931297BD
:1047D000ED01499159919E01240F351FE217F3070E
:1047E00071F480819181840F951F029611969C939C
:1047F0008E938281938113969C938E931297E0E01F
:10480000F0E0D80112968D919C911397009719F0C2
:10481000F8018C01F6CF8D919C9198012E5F3F4F4E
:10482000820F931F2091A4043091A5042817390703
:1048300069F4309729F41092A7041092A60402C0DC
:10484000138212821093A5040093A404DF91CF91E8
:104850001F910F910895A0E0B0E0E1E3F4E20C9421
:104860009B26EC01009721F4CB010E94FE22B8C0E8
:10487000FC01E60FF71F9C0122503109E217F307F4
:1048800008F4ACC0D9010D911C91119706171707B8
:10489000B0F00530110508F49FC0C80104978617D1
:1048A000970708F499C002501109061B170B0193D2
:1048B00011936D937C93CF010E9493238DC05B0174
:1048C000A01AB10A4C01800E911EA091A604B091CD
:1048D000A70440E050E0E12CF12C109709F44AC005
:1048E000A815B905D1F56D907C901197630182E010
:1048F000C80ED11CCA14DB0480F1A3014A195B095C
:104900006A0182E0C80ED11C1296BC9012971396D1
:10491000AC91B5E0CB16D10440F0B282A3835183B1
:104920004083D9016D937C930AC00E5F1F4FC30172
:10493000800F911FF90191838083EB2DFA2FE114F1
:10494000F10431F0D7011396FC93EE93129744C013
:10495000F093A704E093A6043FC08D919C9111971A
:104960004817590708F4AC017D0112960D90BC91CF
:10497000A02DB3CF8091A4049091A504881599052A
:10498000E1F446175707C8F48091000190910101A6
:10499000009741F48DB79EB74091040150910501F5
:1049A000841B950BE817F907C8F4F093A504E0936E
:1049B000A404F901718360830FC0CB010E94FE2221
:1049C0007C01009759F0A801BE010E942026CE016B
:1049D0000E949323C70104C0CE0102C080E090E092
:1049E000CDB7DEB7EEE00C94B726A6E0B0E0EBEF73
:1049F000F4E20C9497265C016B017A016115710554
:104A000019F0DB018D939C93E114F10429F0C701A7
:104A10000297839708F0DCC03501BFEF6B1A7B0A61
:104A2000F5011081812F90E00E940726892B11F05B
:104A30005301F2CF1D3249F43501F2E06F0E711CC3
:104A4000D50111961C9101E009C01B3231F43501EA
:104A5000B2E06B0E711CF501118100E0E114F1046C
:104A600009F4C4C0F0E1EF16F10489F4103399F5AC
:104A7000D3018C918F7D883509F0B2C011961C91BD
:104A8000B2E06B0E711C026050E1E52EF12CEAE001
:104A9000EE16F10409F4B0C0F0E1EF16F104D9F01C
:104AA00028E0E216F10451F438E0E32EF12C8824DA
:104AB0008A94982CA82C4FE1B42E13C06FEF7FEF8F
:104AC000CB0197010F2C000C440B550B0E94A82220
:104AD00049015A0106C088248A94982CA82C2FE0FA
:104AE000B22E7E826D8260E020E030E0A9012701D5
:104AF0000F2C000C660877082D803E80E0EDE10F5A
:104B0000EA3060F08FEB810F8A3110F4E9EC05C0D8
:104B10008FE9810F8A3190F5E9EAE10F8E2F90E05D
:104B20008E159F055CF56F3F09F182169306A4066A
:104B3000B506D8F0C301B2010E9487262E2F30E0BF
:104B400040E050E029833A834B835C83260F371F74
:104B5000481F591F89819A81AB81BC812817390769
:104B60004A075B0710F061E001C06FEFED81FE8145
:104B70003196FE83ED83D1011C91BECFC114D104C7
:104B800089F0662339F08D819E810197F60191832A
:104B9000808308C001FF06C08D819E810297D601E7
:104BA0008D939C9300FF07C05095409530952195BB
:104BB0003F4F4F4F5F4F67FF10C082E290E09093EE
:104BC000A9048093A8046FEF7FEF8FEF9FEF1BC0C6
:104BD00060E070E080E090E016C0B901CA0113C047
:104BE00010E3E114F10409F45FCF51CF103309F45D
:104BF0003FCF9AE0E92EF12C89E9882E982CA82C39
:104C000089E1B82E6ECF2696E2E10C94B32691117D
:104C10000C947426803219F089508550C8F7089595
:104C2000FB01DC0105900D920020E1F70895FC01E5
:104C300005900020E9F7809590958E0F9F1F0895AD
:104C4000FB01DC0102C001900D9241505040D8F7A9
:104C50000895FC018191861721F08823D9F79927BF
:104C600008953197CF010895FB01DC018D910190EA
:104C700080190110D9F3990B0895FB01DC01019013
:104C80000D920020E1F708954532510520F442309D
:104C900010F00C944F26FB011082CB010895BB2726
:104CA0004A3031F4992322F4BDE2909581959F4FCB
:104CB0000C945B26BB27FB015527AA27880F991F59
:104CC000AA1FA41710F0A41B83955051B9F7A05D3B
:104CD000AA3308F0A95DA193009779F7B111B193B8
:104CE0001192CB010C947726992788270895DC012F
:104CF000FC01672F71917723E1F7329704C07C9113
:104D00006D9370836291AE17BF07C8F30895DB01FE
:104D10008F939F930E94DF22BF91AF91A29F800D3E
:104D2000911DA39F900DB29F900D112408952F9275
:104D30003F924F925F926F927F928F929F92AF922B
:104D4000BF92CF92DF92EF92FF920F931F93CF9378
:104D5000DF93CDB7DEB7CA1BDB0B0FB6F894DEBF0F
:104D60000FBECDBF09942A88398848885F846E8435
:104D70007D848C849B84AA84B984C884DF80EE807F
:104D8000FD800C811B81AA81B981CE0FD11D0FB688
:104D9000F894DEBF0FBECDBFED01089511E0C1E56F
:104DA000D1E004C0FE010E94CA222196C535D10778
:064DB000C9F7F894FFCFE3
:104DB6000000AA048000FFFFFFFF00E100000000E2
:104DC600000000C18081000000012C01000058583D
:104DD6005858585858313030496F74436861727466
:104DE6003200496F744C45444261723100496F7418
:104DF60053706565646F3100496F7442746E31009B
:104E0600496F7442746E3200496F7442746E330097
:104E1600496F7442746E3400496F7442746E350083
:104E2600000000007F018001000000007F01F0010A
:104E3600000000007E03C503A803B8039403A5037E
:104E46000000000089040D0A006E616E00696E663E
:104E5600006F766600000000001A0D200D000000AD
:104E660000A80DA70D000000000E0E330528003D1A
:104E7600002400242E637265617465000000000042
:104E86007F01800100000000D0118001F6FF0000C4
:104E96001A0D200D00000000FD1233057E12981237
:104EA6008A12DB1200000000FF1C571C9E1DA81D65
:104EB600C21DE31CFE002F62696E2F617368002D10
:104EC6006300000000004F1E131EA41EAE1EC61E69
:024ED600121EAA
:00000001FF
