:100000000C9452010C947A010C947A010C947A01AC
:100010000C947A010C947A010C947A010C947A0174
:100020000C947A010C947A010C94D1090C94600818
:100030000C947A010C947A010C947A010C947A0154
:100040000C947A010C947A010C947A010C947A0144
:100050000C947A010C947A010C947A010C946F0A36
:100060000C947A010C94D21C0C94041D0C947A010B
:100070000C947A010C947A010C947A010C947A0114
:100080000C947A010C947A010C947A010C947A0104
:100090000C947A010C947A010C947A010C947A01F4
:1000A0000C947A010C947A010C947A01080B0002EA
:1000B0000202010009040000010202000005240000
:1000C0001001052401010104240206052406000193
:1000D0000705810310004009040100020A00000026
:1000E00007050202400000070583024000001201DC
:1000F0000002EF020140412341800001010203019F
:100100001201000200000040412341800001010271
:10011000030141726475696E6F204C4C4300555366
:100120004220494F20426F617264000403090407B2
:100130000605040100080A0B0C0D09040802011051
:100140004080401020408040800802040180402010
:100150001002011080102040402004040404040315
:100160000405020202020403020202020606060657
:100170000606040402020204040000000025002810
:10018000002B002E00310000000000240027002A70
:10019000002D0030002F76736D2F002F76736D2F9A
:1001A00000485F46494C4500485F5245534F555201
:1001B00043450054494D4500414444524553530082
:1001C0004556454E540052454C4F414400657261BE
:1001D00073650073746F70007265636F726400748E
:1001E00069746C6500536572766572205374617230
:1001F000746564002F76736D2F7365727665722E49
:100200007079002D7500707974686F6E0053746199
:100210007274696E67205365727665722050726FD2
:10022000636573732E2E2E00536572696573446186
:10023000746146696C6500636C65617253657269CF
:100240006573446174610073657444617461006333
:100250006C65617244617461005952616E6765003A
:1002600073657269657356697369626C650073655D
:1002700074446174610072756E2D627269646765A1
:100280000A000A000A002F024303E303F10B370CB4
:100290006A0DEC0F54190A1B141B341D4502450C42
:1002A000780D0E1B11241FBECFEFDAE0DEBFCDBFED
:1002B00011E0A0E0B1E0E8E7F7E402C005900D929C
:1002C000AE3DB107D9F724E0AEEDB1E001C01D921B
:1002D000AD32B207E1F711E0CEE4D1E004C02197DE
:1002E000FE010E94BF1FC334D107C9F70E94EF036C
:1002F0000C94AF230C94000060E97FE182EC92E063
:100300000E948A0C81E992E00E94240C60E070E077
:1003100087EF91E00E94C00F61E070E08EED91E008
:100320000C94C00F82EC92E00C94130E40E855E25E
:1003300060E070E086E192E00E943D0360E08EE0C4
:100340000E94AD0B60E08FE00E94AD0B60E080E1A9
:100350000C94AD0BEF92FF920F931F93CF93DF930B
:100360008EE00E947C0B7C018FE00E947C0B8C0154
:1003700080E10E947C0BD82FC92F9701F7FE02C0A5
:1003800021503C4F232F330F330B2595259588EEB5
:1003900093E0289FB001299F700D389F700D1124A4
:1003A00062597F4F4AE050E086E192E00E942605C4
:1003B00086E192E00E947D04980117FF02C021505F
:1003C0003C4F232F330F330B2595259588EE93E073
:1003D000289FB001299F700D389F700D112462591C
:1003E0007F4F4AE050E086E192E00E94260586E1D8
:1003F00092E00E947D042D2F3C2F37FF02C0215038
:100400003C4F232F330F330B2595259588EE93E032
:10041000289FB001299F700D389F700D11246259DB
:100420007F4F4AE050E086E192E00E94260586E197
:1004300092E00E947D0468EE73E080E090E0DF913E
:10044000CF911F910F91FF90EF900C94EA0A0E94B8
:100450007C010C9496010E9492010C94AA010F93C6
:1004600000E020E040E060E080E192E00E94A40330
:1004700068E271E087EF91E00E94960F62E371E01D
:100480008EED91E00F910C94960F8EED91E00E940D
:10049000B00F87EF91E00C94B00FCF93DF931F92D2
:1004A000CDB7DEB76983DC01ED91FC910280F38169
:1004B000E02D41E050E0BE016F5F7F4F09950F9046
:1004C000DF91CF910895CF93DF93EC018C859D85CB
:1004D00097FF05C082E00E9434079D878C878C853A
:1004E0009D85DF91CF91089583E00C94C709FC01AD
:1004F0008485958597FD06C082E00E94DE0690E027
:100500000196089582E00E94DE0690E00895FC01C5
:100510008485958597FD05C02FEF3FEF35872487AC
:10052000089582E00C943407CF93DF93EC0180911F
:100530001101882331F083E00E946507181619061F
:1005400034F081E090E09B838A8380E090E0DF914B
:10055000CF910895FC0190819E5F908342E450E02A
:100560006CEA70E080E80C940608FC0181819081BF
:10057000913A59F4813209F048C047E050E06AE00E
:1005800071E080E00E94060876C09132F1F5833276
:1005900091F49381892F90E0982F88272281822BD4
:1005A000A0E0B0E08093060190930701A0930801BA
:1005B000B093090160C0803239F467E070E08AE0EE
:1005C00091E00E942D0806C0823209F054C0828159
:1005D0008093110180916602882319F0EEEFFAE012
:1005E00002C0E0E0F8E080910A0190910B01A09137
:1005F0000C01B0910D01803B9440A105B10539F487
:100600008091110180FF1FC002C080E008950FB6E5
:10061000F894A895809160008861809360001092A2
:1006200060000FBEA895EE3F8AE0F80739F0809190
:10063000FE0A9091FF0A918380831DC01092FF0AE9
:100640001092FE0A18C0EE3F2AE0F20731F08081D6
:1006500091819093FF0A8093FE0A87E797E7918341
:1006600080839BE088E10FB6F894A89580936000A2
:100670000FBE9093600081E008952FEF3FEFFC01E3
:10068000358724870895E6E1F2E01382128288EE2E
:1006900093E0A0E0B0E084839583A683B78380E4F1
:1006A00091E0918380838FEF9FEF958784870895F2
:1006B0008F929F92AF92BF92CF92DF92EF92FF9272
:1006C0000F931F93CF93DF937C018B016C0182E02A
:1006D000C80ED11C4701E5E08E0E911CC0E0D0E0B1
:1006E000F60161916F014AE050E0C8010E943A05AD
:1006F0005C016EE2C8010E9476048A0D9B1DC80F42
:10070000D91FC814D90461F74AE050E0F7016581A8
:10071000C8010E943A058C0F9D1FDF91CF911F9158
:100720000F91FF90EF90DF90CF90BF90AF909F9090
:100730008F90089520E531E0FC01318320831282FF
:1007400013821482158208950F93FC0180E591E0D5
:100750009183808362834383248305830F9108956B
:10076000DC0190E020E030E08AE0FB014191BF0134
:10077000442309F150ED540F5A3088F4829FF00160
:10078000839FF00D11249F0120533109240F311D47
:1007900047FD3A952F3F310541F338F312C04E32F1
:1007A00081F4933071F0FD01E90FF11D22839F5F09
:1007B00020E030E0DACF933021F415962C9381E0DD
:1007C000089580E00895E7E6F2E080E591E0918306
:1007D00080831282138214821582089508950E94E4
:1007E000260B0E94EE038DE692E00E94520A0E94C0
:1007F0002702C5E2D0E10E942B022097E1F30E947C
:100800002510F9CFCF92DF92EF92FF920F931F93B3
:10081000CF93DF936C017A018B01C0E0D0E0CE155D
:10082000DF0589F0D8016D918D01D601ED91FC9124
:100830000190F081E02DC6010995892B11F47E010C
:1008400002C02196ECCFC701DF91CF911F910F918C
:10085000FF90EF90DF90CF9008956115710579F0CA
:10086000FB0101900020E9F73197AF01461B570BC0
:10087000DC01ED91FC910280F381E02D099480E090
:1008800090E00895EF92FF920F931F93CF93DF9321
:100890008C017B01C0E0D0E0F701EC0FFD1F6491FB
:1008A000662361F0D801ED91FC910190F081E02D7B
:1008B000C8010995892B11F02196EECFCE01DF9169
:1008C000CF911F910F91FF90EF900895DC01ED9172
:1008D000FC91DB0114964D915C9115976D917C9183
:1008E0000280F381E02D09940C942D04DC01ED913C
:1008F000FC910190F081E02D099462E571E00C9487
:100900002D040F931F93CF93DF93EC010E944204B9
:100910008C01CE010E947D04800F911FDF91CF9149
:100920001F910F9108954F925F926F927F92EF9275
:10093000FF920F931F93CF93DF93CDB7DEB7A197AD
:100940000FB6F894DEBF0FBECDBF7C01FA01CB011C
:1009500019A2223008F42AE08E010F5D1F4F422EAB
:10096000512C612C712CBF01A30192010E949D1F8B
:10097000F901CA01015011096A3014F4605D01C027
:10098000695CD8016C93232B242B252B61F7B801CC
:10099000C7010E942D04A1960FB6F894DEBF0FBECA
:1009A000CDBFDF91CF911F910F91FF90EF907F907E
:1009B0006F905F904F900895CF92DF92EF92FF92E9
:1009C0000F931F93CF93DF93EC016A017B012115F5
:1009D000310579F4E881F9810190F081E02D642FEF
:1009E000DF91CF911F910F91FF90EF90DF90CF900B
:1009F00009942A303105E9F477FF1AC06DE20E94AC
:100A000076048C0144275527BA014C195D096E09FB
:100A10007F092AE0CE010E949304800F911FDF918D
:100A2000CF911F910F91FF90EF90DF90CF9008959D
:100A30002AE0B701A601CE01DF91CF911F910F915E
:100A4000FF90EF90DF90CF900C9493049A01AB014C
:100A5000770F660B770B0C94DC042115310541F4FC
:100A6000DC01ED91FC910190F081E02D642F09945F
:100A70000C9493049A01462F50E060E070E00C94CF
:100A80002D054F925F926F927F928F929F92AF92BD
:100A9000BF92CF92DF92EF92FF92CF93DF93EC0160
:100AA0006A017B01B22E9A01AB01C701B6010E9417
:100AB000981F882319F065E571E027C026013701EA
:100AC000E89477F82FEF3FEF4FE75FE7C301B201FC
:100AD0000E94981F81110DC02FEF3FEF4FE75FE796
:100AE000C301B2010E94CE1D18161CF469E571E025
:100AF0000CC02FEF3FEF4FE75FE4C701B6010E9444
:100B0000261F18169CF46DE571E0CE01DF91CF91A0
:100B1000FF90EF90DF90CF90BF90AF909F908F901D
:100B20007F906F905F904F900C942D042FEF3FEFCC
:100B30004FE75FECC701B6010E94CE1D87FDE3CFF2
:100B400020E030E0A901C701B6010E94CE1D87FF59
:100B50000AC06DE2CE010E9476044C01F7FAF094CF
:100B6000F7F8F09402C0812C912CA12C60E070E089
:100B700080E09FE3AB1441F020E030E040E251E43C
:100B80000E94D31DA394F6CF9B01AC01C701B6010F
:100B90000E94621D2B013C010E94451E6B017C01DD
:100BA0000E94741E9B01AC01C301B2010E94611D31
:100BB0002B013C012AE0B701A601CE010E9493045B
:100BC0007C01E80CF91CBB2031F06EE2CE010E94E2
:100BD0007604E80EF91EDB2CDD2029F120E030E060
:100BE00040E251E4C301B2010E942B1F2B013C01E2
:100BF0000E94451E4B01A12CB12C2AE0B501A40195
:100C0000CE010E949304E80EF91EC501B4010E94B2
:100C1000741E9B01AC01C301B2010E94611D2B0136
:100C20003C01DA94D9CFC701DF91CF91FF90EF90CB
:100C3000DF90CF90BF90AF909F908F907F906F90FC
:100C40005F904F9008950C944105615030F02091D1
:100C5000F100FC0120830196F8CF289884E6809368
:100C600076020895409171025091720220916F02B4
:100C70003091700242175307B4F49091E8009570D8
:100C8000E1F39091E80092FD19C08093F10080910A
:100C900071029091720201968F739927892B19F432
:100CA0008EEF8093E800809171029091720201961C
:100CB000909372028093710281E0089580E008951C
:100CC000CF92DF92EF92FF920F931F93CF93DF9318
:100CD0001F92CDB7DEB7182F062FE42E862F880F70
:100CE0008E5F99830E94320683E00E943206F12EC5
:100CF000C12E9981D92E8C2D8F19801798F4F60169
:100D0000E7FE02C0849101C080810E943206182F44
:100D100080E00E9432068123FFEFCF1ADF0A8111A3
:100D2000EACF01C081E00F90DF91CF911F910F9129
:100D3000FF90EF90DF90CF9008958091D700816071
:100D40008093D70080EA8093D80089B5806189BDFF
:100D500089B5826089BD09B400FEFDCF61E070E015
:100D600080E090E00E94EA0A8091D8008F7C806148
:100D70008093D8008091E000807F8093E000089508
:100D8000CF93DF931F92CDB7DEB71982CE010196C4
:100D90000E94AA020E94B011BE016F5F7F4F0E94A5
:100DA0002B1189810F90DF91CF9108952FB7FC010E
:100DB0002083F89467706093E9000895CF93DF93E0
:100DC0001F92CDB7DEB7682FCE0101960E94D606DE
:100DD0008091F20099819FBF0F90DF91CF9108958C
:100DE000EF92FF920F931F93CF93DF931F92CDB794
:100DF000DEB790917502992311F057FF03C08FEF72
:100E00009FEF2AC08A017B01682FCE0101960E94C4
:100E1000D6068091F20090E0A801801791070CF4AB
:100E2000AC01842FF70194E6815038F02898909314
:100E300076022091F1002193F7CF4115510521F061
:100E40008091F200882321F089818FBFCA0104C0FC
:100E50008BE68093E800F8CF0F90DF91CF911F9140
:100E60000F91FF90EF900895CF93DF931F92CDB72E
:100E7000DEB741E050E0BE016F5F7F4F0E94F00699
:100E8000019719F4898190E002C08FEF9FEF0F90D6
:100E9000DF91CF910895CF93DF931F92CDB7DEB747
:100EA000682FCE0101960E94D6069091E800892F06
:100EB000807295FF04C09091F2008FE3891B9981A5
:100EC0009FBF0F90DF91CF9108956F927F928F9285
:100ED0009F92AF92BF92CF92DF92EF92FF920F93C9
:100EE0001F93CF93DF931F92CDB7DEB7A82E6B0170
:100EF000B42E052F80917502811103C08FEF9FEFF3
:100F00006AC08091730280FF05C08091E00082601A
:100F10008093E000EB2CF02E8AEF982E8A2D8072C1
:100F2000782E9AE3892E8A2D8074682EE114F104BC
:100F300009F447C08A2D0E944B07182F81110AC05F
:100F40009A949920D9F261E070E080E090E00E94EC
:100F5000EA0AECCF90E0E816F9060CF41E2D6A2D93
:100F6000CE0101960E94D6068091E80085FF26C03A
:100F7000812F90E0E81AF90A772029F01150A8F0A3
:100F80001092F100FBCFF601A7FE07C0115058F0F8
:100F900024912093F1003196F9CF115020F0219146
:100FA0002093F100FACFC80ED91E8091E80085FF8A
:100FB0000FC0E114F10411F461100AC089818FBFE0
:100FC000B5CF5D9884E6809377028B2D902F03C078
:100FD0008092E800F3CF0F90DF91CF911F910F9196
:100FE000FF90EF90DF90CF90BF90AF909F908F9049
:100FF0007F906F9008951092E90010927202109203
:1010000071029093700280936F020895DF92EF92C5
:10101000FF920F931F93CF93DF93D82E8A017B010A
:10102000E40EF51EEB01CE15DF0571F0D7FE03C00F
:10103000FE01849101C088810E94320621968111AF
:10104000F2CF8FEF9FEF01C0C801DF91CF911F91C9
:101050000F91FF90EF90DF900895BF92CF92DF92B3
:10106000EF92FF920F931F93CF93DF936C018B014D
:10107000EB019BEFB92E2097C1F07E01C134D10561
:101080001CF080E4E82EF12C8091E80082FFFCCF78
:10109000C8018C1B9D0B6E2D8C0D9D1D0E9425067D
:1010A000B092E800CE19DF09E6CFC801DF91CF91F9
:1010B0001F910F91FF90EF90DF90CF90BF90089518
:1010C0001F920F920FB60F921124CF92DF92EF92E0
:1010D000FF920F931F932F933F934F935F936F93C1
:1010E0007F938F939F93AF93BF93EF93FF93CF9390
:1010F000DF93CDB7DEB76C97DEBFCDBF1092E900AE
:101100008091E80083FF24C168E0CE0145960E94EB
:10111000250682EF8093E8008D8987FF05C09091B6
:10112000E80090FFFCCF03C09EEF9093E800982F5B
:10113000907609F0F1C09E892F89188D91110CC00D
:10114000803829F4809174028093F10002C01092DB
:10115000F1001092F100F5C0422F50E0512B913078
:1011600051F48111EEC04130510509F0EAC080917F
:1011700074028D7F0BC0933061F48111E2C0413065
:10118000510509F0DEC08091740282608093740280
:10119000D8C0953041F48091E80080FFFCCF2068F2
:1011A0002093E300CEC0963009F08CC0EB8CFC8C11
:1011B000123069F580E090E00E94FB070E94C006B3
:1011C00099E09E012F5F3F4F6901F901292F11928C
:1011D0002A95E9F799831A8391E09E8390EA98878C
:1011E0009AEF99872091710230917202275F3F4FE9
:1011F0003C832B838D83C7010E94FB0749E050E0AD
:10120000B60180E00E9406080E94C0069AC0C7018D
:101210000E94FB070E94B011BE016B5E7F4F0E94CF
:101220005411009719F00CF08CC08FC0113071F47C
:101230008B8D9C8D089719F481E080936E028091CC
:101240006E0281112FC060E071E031C0133009F0EF
:101250007CC08F89882349F1823029F440E86CE012
:101260008EE191E006C0813039F440E86BE082E124
:1012700091E00E94600663C0833009F066C00E945E
:10128000B0118E010F5F1F4FB8010E947311F8015A
:1012900001900020E9F73197BF01601B710B40E01E
:1012A000C801E7CF6EEE70E002C06BE271E061153D
:1012B000710509F44AC0FB01449150E080E80E94A6
:1012C00006083FC0973009F440C0983021F481E00F
:1012D0008093F10036C09930A1F58370B1F5E3E158
:1012E000F1E081E021E036E39081992361F0809381
:1012F000E9002093EB0091919093EC003093ED0086
:101300008F5F873089F78EE78093EA001092EA00BA
:101310008F898093750215C08B8D9C8D0E94FB0771
:10132000898D811105C0CE0145960E94B50207C086
:101330000E94B011BE016B5E7F4F0E949211882304
:1013400021F08EEF8093E80003C081E28093EB00F0
:101350006C960FB6F894DEBF0FBECDBFDF91CF9174
:10136000FF91EF91BF91AF919F918F917F916F917D
:101370005F914F913F912F911F910F91FF90EF90AF
:10138000DF90CF900F900FBE0F901F901895809315
:10139000E9008091F200882319F08AE38093E80045
:1013A00008951F920F920FB60F9211242F933F931F
:1013B0004F935F936F937F938F939F93AF93BF935D
:1013C000CF93EF93FF93C091E1008091E100837F81
:1013D0008093E100C3FF0FC01092E90081E0809389
:1013E000EB001092EC0082E38093ED001092750206
:1013F00088E08093F000C2FF19C083E00E94C70913
:1014000080917702882339F0809177028150809310
:101410007702882389F180917602882339F08091C0
:101420007602815080937602882341F1C4FF10C078
:101430008091E2008E7E81608093E2008091E100E5
:101440008F7E8093E100809173028E7E806111C057
:10145000C0FF16C08091E2008E7E80618093E20022
:101460008091E1008E7E8093E100809173028E7EF8
:1014700081608093730204C05D9ACDCF289AD6CF45
:10148000FF91EF91CF91BF91AF919F918F917F91FC
:101490006F915F914F913F912F910F900FBE0F90E1
:1014A0001F90189510927502109274021092730298
:1014B0000E949D068091E1008E7E8093E1008DE088
:1014C0008093E200559A209AEEEFFFE78591949180
:1014D0008B3F9C4D19F481E08093660208951F9222
:1014E0000F920FB60F9211242F933F938F939F93D8
:1014F000AF93BF938091790290917A02A0917B0281
:10150000B0917C023091780223E0230F2D3720F434
:101510000196A11DB11D05C026E8230F0296A11D4D
:10152000B11D209378028093790290937A02A09360
:101530007B02B0937C0280917D0290917E02A0910B
:101540007F02B09180020196A11DB11D80937D02A2
:1015500090937E02A0937F02B0938002BF91AF91DF
:101560009F918F913F912F910F900FBE0F901F90E1
:1015700018952FB7F8946091790270917A02809152
:101580007B0290917C022FBF08953FB7F894809121
:101590007D0290917E02A0917F02B091800226B5DB
:1015A000A89B05C02F3F19F00196A11DB11D3FBF9B
:1015B000BA2FA92F982F8827820F911DA11DB11D29
:1015C000BC01CD0142E0660F771F881F991F4A9525
:1015D000D1F708958F929F92AF92BF92CF92DF92F0
:1015E000EF92FF926B017C010E94C50A4B015C01E6
:1015F000C114D104E104F10401F10E9422110E94FE
:10160000C50ADC01CB0188199909AA09BB09883EE2
:101610009340A105B10560F321E0C21AD108E108A9
:10162000F10888EE880E83E0981EA11CB11CC1143D
:10163000D104E104F10419F7DBCFFF90EF90DF90C4
:10164000CF90BF90AF909F908F900895789484B57D
:10165000826084BD84B5816084BD85B5826085BDAE
:1016600085B5816085BDEEE6F0E080818160808394
:10167000E1E8F0E010828081826080838081816077
:101680008083E0E8F0E0808181608083E1E9F0E040
:10169000808182608083808181608083E0E9F0E0E6
:1016A000808181608083E1ECF0E0808184608083D0
:1016B000808182608083808181608083E3ECF0E0C0
:1016C000808181608083E0ECF0E0808182608083B3
:1016D000E2ECF0E0808181608083EAE7F0E08081E5
:1016E0008460808380818260808380818160808348
:1016F0008081806880830895823108F08251E82FCC
:10170000F0E0E15DFE4FE49180917B00E3FB222756
:1017100020F930E095E0220F331F9A95E1F78F7D95
:10172000282B20937B00E7708091190120E4829F91
:10173000C0011124E82BE0937C0080917A00806442
:1017400080937A0080917A0086FDFCCF80917800AA
:101750002091790090E0922B0895CF93DF9390E051
:10176000FC01E55CFE4F2491FC01E65AFE4F84919A
:10177000882361F190E0880F991FFC01E957FE4F23
:10178000C591D491FC01E758FE4FA591B491611128
:1017900009C09FB7F8948881209582238883EC91B3
:1017A0002E230BC0623061F49FB7F8943881822FEA
:1017B000809583238883EC912E2B2C939FBF06C0AA
:1017C0008FB7F894E8812E2B28838FBFDF91CF91BC
:1017D0000895EFEFF0E083E08083608381E090E0A4
:1017E000089585E892E00E949515E1E8F2E0138201
:1017F000128285E691E09183808308950F931F9371
:10180000CF93DF93EC018C010F5F1F4F64E571E014
:10181000C8010E944F13CE0107960E940A16CE01FE
:101820000D960E949515CE0149960E9495156BE97B
:1018300071E0C8010E9431148CE28B878B8BDF91A1
:10184000CF911F910F91089526E040E950ED63E09C
:1018500070E080916F03909170030E94BD1086E646
:1018600093E00E944B1888E893E00C94121B0F93AE
:1018700000E020E040E060E086EB92E00E94A403FC
:1018800081E992E00F910C94FE0B82E992E00C94B6
:10189000E1120895CB010895CF93DF93EC010E94EC
:1018A0009A031986188688EE93E0A0E0B0E08A8754
:1018B0009B87AC87BD8782ED91E09F838E8386E610
:1018C00093E09B8B8A8B1F8A188E198E64E571E0DA
:1018D000CE01865A9F4F0E944F13CE01805A9F4FD0
:1018E0000E940A16CE018A599F4F0E949515CE017B
:1018F0008E589F4F0E949515FE01E459FF4F8CE2D0
:10190000808338978083CB59DF4F8AE28883DF91C9
:10191000CF910895EF92FF920F931F93CF93DF9390
:1019200000D000D000D0CDB7DEB78C017B0126E01F
:1019300040E950ED63E070E080916F039091700397
:101940000E94BD1086E693E00E944B1881E793E069
:101950000E94F71A6DE072E081E793E00E94810433
:101960000A5F1F4F66E072E0CE0101960E9452149A
:10197000BE016F5F7F4FC8010E94AF1CCE01019670
:101980000E94E11263E072E0CE0101960E945214BF
:10199000BE016F5F7F4FC8010E94E21BCE0101961E
:1019A0000E94E11264EF71E0CE0101960E94521490
:1019B000BE016F5F7F4FC8010E94E21BCE010196FE
:1019C0000E94E1124AE0B701CE0101960E9405147F
:1019D000BE016F5F7F4FC8010E94E21BCE010196DE
:1019E0000E94E112C8010E94F71B68EB7BE080E0D7
:1019F00090E00E94EA0AC8010E94561C882309F45C
:101A0000B1CF65EE71E081E793E00E9481042696F4
:101A10000FB6F894DEBF0FBECDBFDF91CF911F91FF
:101A20000F91FF90EF900895E091BC02F091BD02FC
:101A3000309741F49093BD028093BC02FC01118663
:101A400010860895208531852115310511F0F901A1
:101A5000F9CF9187808708952CE731E0FC0131832D
:101A600020837383628315821482178216820C94FA
:101A7000140D0F931F93CF93DF938C01C091BC0281
:101A8000D091BD02209759F0E881F9810190F08151
:101A9000E02DCE0109950884D985C02DF3CF809122
:101AA000C0029091C102892B81F060E070E0C80112
:101AB000865A9F4F0E94EE13E091C002F091C1023E
:101AC000DF91CF911F910F910994DF91CF911F91D9
:101AD0000F9108950F9300E020E040E060E080E483
:101AE00093E00E94A40382EC92E00F910C944C0CC2
:101AF0008CE193E00E94E11288EC92E00C94A81C27
:101B0000AF92BF92CF92DF92EF92FF920F931F930B
:101B1000CF93DF93CDB7DEB72C970FB6F894DEBF27
:101B20000FBECDBF7C015C0126E0A20EB11C4DE3CF
:101B3000B501CE0107960E94F4116EE2CE01079620
:101B40000E942E15D701A65ABF4F6D018F3FBFEFE0
:101B50009B07A9F09C0140E050E0BE01695F7F4F08
:101B6000CE0101960E943215BE016F5F7F4FC60104
:101B70000E94E213CE0101960E94E11206C0BE014E
:101B8000695F7F4FC6010E94C2130091BC02109191
:101B9000BD02E0E6EE0EF11C0115110519F1D801A8
:101BA00012966D917C911397C6010E94F3148823BD
:101BB000A9F0B501C7010E940616D801ED91FC916C
:101BC0000280F381E02DB701C8010995D80116966E
:101BD000ED91FC911797309709F00995F801008570
:101BE0001185DACFE091BE02F091BF02309709F083
:101BF000099560E070E0C6010E94EE13CE010796E1
:101C00000E94E1122C960FB6F894DEBF0FBECDBF36
:101C1000DF91CF911F910F91FF90EF90DF90CF90C8
:101C2000BF90AF9008958F929F92AF92BF92DF9234
:101C3000EF92FF920F931F93CF93DF93CDB7DEB751
:101C400063970FB6F894DEBF0FBECDBF7C018C0149
:101C50000A5F1F4F8AE0D82EC8010E94AD1B1816DC
:101C600019060CF09EC04AE3B801CE010D960E9401
:101C7000F41164E571E0CE0107960E944F1366EC03
:101C800071E0CE0101960E945214BE016F5F7F4F3A
:101C9000CE010D960E94E214B82ECE0101960E944C
:101CA000E112BB2021F0C7010E94390D68C060EC31
:101CB00071E0CE0101960E945214BE016F5F7F4F0A
:101CC000CE010D960E94E214B82ECE0101960E941C
:101CD000E112BB2021F0C7010E94800D50C068EBCB
:101CE00071E0CE0101960E945214BE016F5F7F4FDA
:101CF000CE010D960E94E214B82ECE0101960E94EC
:101D0000E112BB2081F04AE2B801CE0101960E94A7
:101D1000F41169817A81C7010E94B003CE01019656
:101D20000E94E1122CC063EB71E0CE0101960E948B
:101D30005214BE016F5F7F4FCE010D960E94E214D8
:101D4000B82ECE0101960E94E112BB20C1F04AE2FA
:101D5000B801CE0101960E94F4114AE050E060E023
:101D600070E089819A810E94D6214B015C01CE01ED
:101D700001960E94E112C501B4010E941516DB8A8A
:101D800041E050E0BE016D5E7F4FC8010E94DE124F
:101D9000CE0107960E94E112CE010D960E94E1123B
:101DA0005BCF63960FB6F894DEBF0FBECDBFDF9159
:101DB000CF911F910F91FF90EF90DF90BF90AF9068
:101DC0009F908F900895EF92FF920F931F93CF9360
:101DD000DF938C017A01EC012696CE010E94660405
:101DE0006EE2CE010E947604B701CE010E94660425
:101DF00069E671E0CE010E947404F801E359FF4FD7
:101E000089E28083AE0161E0C8018A599F4FDF916A
:101E1000CF911F910F91FF90EF900C947815EF9256
:101E2000FF920F931F93CF93DF93CDB7DEB72C971D
:101E30000FB6F894DEBF0FBECDBF8C017B01BA0197
:101E4000CE0107960E945214B701CE0101960E945E
:101E50004F13AE01495F5F4FBE016F5F7F4FC801F7
:101E60000E94E30E8C01CE0101960E94E112CE0188
:101E700007960E94E112C8012C960FB6F894DEBFB7
:101E80000FBECDBFDF91CF911F910F91FF90EF90CB
:101E900008958F929F92AF92BF92FF920F931F93DC
:101EA000CF93DF938C01F12CCF2DD0E0F801208D62
:101EB000022E000C330BC217D30774F5CE01880F26
:101EC000991F880F991FD8015696ED91FC9157974D
:101ED000E80FF91F80809180A280B38012966D91E7
:101EE0007C9113974EE652E082EC92E00E940F0F35
:101EF00060E070E00E94B815BE010E94B815B501FF
:101F0000A4010E94DB15DC01ED91FC910280F381BC
:101F1000E02D0995F394C8CFDF91CF911F910F91D8
:101F2000FF90BF90AF909F908F900895CF93DF93D5
:101F3000EC010E942C0DCE010A960E94951584E8B2
:101F400091E0998388838CE891E09B878A871F8A38
:101F50001E8A8FEF888F8CE2888BDF91CF91089556
:101F6000FC0184E891E0918380838CE891E0938781
:101F7000828786899789009711F00C9474200895C0
:101F80000F931F93CF938C01C62FFC01608FCB0161
:101F9000880F991F880F991F0E94DF1FBC01F8014D
:101FA000978B868B90E04C2FCC0F550B292F30E070
:101FB000241735076CF4220F331F220F331FFB0148
:101FC000E20FF31F10821182128213829F5FEECF05
:101FD000CF911F910F9108950F9300E020E040E012
:101FE00060E086E493E00E94A4030F910895FC0151
:101FF000918D228D892F90E0805C9F4F821B9109EB
:102000008F7399270895FC01918D828D981731F077
:10201000828DE80FF11D858D90E008958FEF9FEF81
:102020000895FC01918D828D981761F0828DDF01FA
:10203000A80FB11D5D968C91928D9F5F9F73928FBB
:1020400090E008958FEF9FEF08958AE29DE1892B3C
:1020500049F080E090E0892B29F00E942A1D81112F
:102060000C9400000895FC01848DDF01A80FB11DC0
:10207000A35ABF4F2C91848D90E001968F739927BE
:10208000848FA689B7892C93A089B1898C918064AB
:102090008C93938D848D981306C00288F389E02D6C
:1020A00080818F7D80830895CF93DF93EC01888DAD
:1020B0008823C9F0EA89FB89808185FD05C0A8894C
:1020C000B9898C9186FD0FC00FB607FCF5CF8081D2
:1020D00085FFF2CFA889B9898C9185FFEDCFCE011C
:1020E0000E943310E7CFDF91CF910895EF92FF92D6
:1020F0000F931F93CF93DF93EC0181E0888F9B8D2B
:102100008C8D981305C0E889F989808185FD24C0EC
:10211000F62E0B8D10E00F5F1F4F0F731127E02E6F
:102120008C8DE8120CC00FB607FCFACFE889F9894C
:10213000808185FFF5CFCE010E943310F1CF8B8DCA
:10214000FE01E80FF11DE35AFF4FF0820B8FEA8981
:10215000FB898081806207C0EE89FF896083E889FE
:10216000F98980818064808381E090E0DF91CF9164
:102170001F910F91FF90EF900895CF92DF92EF9211
:10218000FF921F93CF93DF93EC016A017B01122F23
:10219000E889F98982E080834115514E6105710516
:1021A000B1F060E079E08DE390E0A70196010E9434
:1021B0009D1FDA01C9010197A109B109B695A7953B
:1021C00097958795AC01411580E15807A8F0E889FB
:1021D000F989108260E874E88EE190E0A701960129
:1021E0000E949D1FBA01A90141505109610971095D
:1021F0007695679557954795EC85FD855083EE85D7
:10220000FF854083188EEC89FD891083EA89FB895C
:10221000808180618083EA89FB89808188608083F6
:10222000EA89FB89808180688083EA89FB898081D3
:102230008F7D8083DF91CF911F91FF90EF90DF9092
:10224000CF90089508950C94DF1F0C94DF1F0C9419
:1022500074200C947420EF92FF920F931F93CF93EE
:10226000DF937B01FC01C281D38100E010E0209765
:1022700081F0E881F9810280F381E02DB701CE0180
:10228000099597FD08C0080F191F0884D985C02D2E
:10229000EECFC80102C08FEF9FEFDF91CF911F916A
:1022A0000F91FF90EF9008950F931F93CF93DF93BB
:1022B0008B01FC01C281D381209771F0E881F98103
:1022C0000480F581E02DB801CE010995009731F425
:1022D0000884D985C02DF0CF80E090E0DF91CF91C8
:1022E0001F910F9108950F931F93CF93DF938B014D
:1022F000FC01C281D381209771F0E881F9810680C9
:10230000F781E02DB801CE010995080F111D088451
:10231000D985C02DF0CFF8011082DF91CF911F91A8
:102320000F9108950F931F93CF93DF938B01FC01BF
:10233000C281D381209771F0E881F9810190F08109
:10234000E02DB801CE010995811105C00884D98519
:10235000C02DF0CF80E0DF91CF911F910F910895B4
:102360008091500381110DC082E080934C0384E082
:1023700080934D0310924F0310924E0381E080939F
:1023800050038CE493E008950F931F93CF93DF9352
:10239000EC010E94B90A688779878A879B87E88160
:1023A000F9810680F781E02DCE01099597FF17C0CE
:1023B0000E94B90A088519852A853B85DC01CB0175
:1023C000801B910BA20BB30B0C811D812E813F81D1
:1023D00080179107A207B30710F38FEF9FEFDF91EC
:1023E000CF911F910F910895EF92FF920F931F933A
:1023F000CF93DF93EC017B01042F64E571E00E9431
:102400004F13C7010E94C411002E000C110B97FD41
:102410000BC08017910741F0682FCE010E949F14D6
:10242000C7010E94C411F3CFCE01DF91CF911F915C
:102430000F91FF90EF9008954F925F926F927F926D
:102440008F929F92AF92BF92CF92DF92EF92FF92C4
:102450000F931F93CF93DF938C01EB0186E0849F52
:102460004001859F900C1124860E971EFB01E815F4
:10247000F90508F582819381892B21F13696F7CFF2
:102480006081718144815581DB01A40FB51F2C91BE
:10249000022E000C330B8217930711F54F5F5F4F2D
:1024A00055834483228133814217530759F036966E
:1024B000E815F90528F3C8010E94C41197FD46C02C
:1024C000FE01F6CFEC1BFD0BF595E7952BEA3AEAFA
:1024D000E29FC001E39F900DF29F900D112438C040
:1024E0004115510521F3C480D58096012150310951
:1024F00035832483DB01A20FB31FAC910A2E000C9D
:10250000BB0B8A179B07F9F421153105C9F05B0154
:102510007A01E21AF30AE60EF71E412C512CD5017E
:102520006D905D01D7017D907D01671006C0BFEF02
:102530004B1A5B0A4216530690F34216530699F65D
:10254000D582C482B4CF232B71F6B1CF8FEF9FEF2A
:10255000DF91CF911F910F91FF90EF90DF90CF907F
:10256000BF90AF909F908F907F906F905F904F90B3
:102570000895CF93DF9300D000D000D0CDB7DEB761
:10258000FE01319626E0DF011D922A95E9F77A8354
:1025900069835C834B8341E050E0BF010E941C12C1
:1025A00021E0892B09F020E0822F26960FB6F894BF
:1025B000DEBF0FBECDBFDF91CF9108950C94B9124D
:1025C0000895FC01808191810C947420CF93DF9356
:1025D000EC0188819981009711F00E947420198282
:1025E00018821D821C821B821A82DF91CF9108956E
:1025F0000F931F93CF93DF93EC018B016F5F7F4F9E
:10260000888199810E940C21009731F099838883F9
:102610001B830A8381E001C080E0DF91CF911F918D
:102620000F910895CF93DF93EC0188819981892BD5
:1026300029F08A819B818617970760F4CE010E945A
:10264000F812882341F08C819D81892B19F4E8814F
:10265000F981108281E0DF91CF910895EF92FF928E
:102660000F931F93CF93DF93EC017B018A01BA0193
:102670000E941213811104C0CE010E94E61207C00D
:102680001D830C83B701888199810E941E23CE018E
:10269000DF91CF911F910F91FF90EF900895FC0172
:1026A00011821082138212821582148261157105C3
:1026B00051F0FB0101900020E9F73197AF01461B73
:1026C000570B0C942E130895EF92FF920F931F93C4
:1026D000CF93DF93EC017B018A01BA010E941213B0
:1026E000811104C0CE010E94E61207C01D830C8335
:1026F000B701888199810E94F122CE01DF91CF91AB
:102700001F910F91FF90EF9008950F931F93CF9318
:10271000DF938C01EB01FC01808191810097D1F066
:10272000688179816115710599F020EE32E1232BE2
:1027300079F0428153812C813D814217530740F04B
:102740000E941E238C819D81F8019583848313C090
:102750000E94742088819981F801918380838A8105
:102760009B81938382838C819D819583848319824D
:1027700018821B821A821D821C82DF91CF911F91C9
:102780000F910895CF93DF93EC01FB018617970714
:1027900061F0608171816115710529F04481558175
:1027A0000E942E1302C00E94E612CE01DF91CF914B
:1027B0000895FC0111821082138212821582148204
:1027C0000C94C213CF93DF93EC018617970711F097
:1027D0000E948513CE01DF91CF910895CF93DF93AF
:1027E000EC016115710559F0FB0101900020E9F73A
:1027F0003197AF01461B570B0E942E1302C00E9457
:10280000E612CE01DF91CF9108950F931F93CF93DE
:10281000DF93CDB7DEB762970FB6F894DEBF0FBE79
:10282000CDBF8C01CB01F80111821082138212827C
:102830001582148250E0BE016F5F7F4F0E942523F6
:10284000BE016F5F7F4FC8010E94EE1362960FB604
:10285000F894DEBF0FBECDBFDF91CF911F910F91D6
:1028600008950F931F93CF93DF9300D0CDB7DEB7BA
:102870008C016115710561F0CB0169837A830E9437
:10288000F822AC0169817A81C8010E94641302C0F8
:102890000E94E612C8010F900F90DF91CF911F9117
:1028A0000F910895FC011182108213821282158209
:1028B00014820C943114EF92FF920F931F93CF93D5
:1028C000DF93FC01248135816115710511F480E0ED
:1028D00019C041155105A9F07B01EC018A01020FD5
:1028E000131FB8010E941213882389F328813981AC
:1028F0008C819D81B701820F931F0E941E231D832F
:102900000C8381E0DF91CF911F910F91FF90EF90A9
:102910000895FB0144815581608171810C945B14A1
:102920006115710551F0FB0101900020E9F7319725
:10293000AF01461B570B0C945B1480E00895CF93B6
:10294000DF9300D0CDB7DEB769831A8241E050E053
:10295000BE016F5F7F4F0E945B140F900F90DF915D
:10296000CF910895CF93DF93DC01ED91FC91EB01C2
:10297000A881B981309711F01097C9F4109759F0D8
:10298000EB012C813D81232B31F08C9190E09195CE
:102990008195910914C0309781F0DC0114968D91D6
:1029A0009C911597892B49F0808190E008C0BD016A
:1029B000CF01DF91CF910C94152380E090E0DF915F
:1029C000CF910895FC0144815581FB01248135811B
:1029D0004217530729F40E94B21421E0892B09F011
:1029E00020E0822F0895FC0124813581232B31F4CE
:1029F00021E061157105A1F0FB0108C0FC01808197
:102A000091816115710531F421E0FC0180818823F9
:102A100039F005C00E94152321E0892B09F020E040
:102A2000822F0895CF93DF93FC01248135814217D3
:102A3000530778F4C081D181062E000C770BCE01AC
:102A4000840F951F0E940A23009719F08C1B9D0B81
:102A500002C08FEF9FEFDF91CF91089540E050E0EB
:102A60000C941215BF92CF92DF92EF92FF920F93C8
:102A70001F93CF93DF937C016B018A01E901241737
:102A8000350720F4812F8901C42FD82F64E571E028
:102A9000C7010E944F13D60114968D919C911597F2
:102AA00008171907D0F48C179D0708F4EC01D6011C
:102AB000ED91FC911197EC0FFD1FB08010824D91AC
:102AC0005C91BA01600F711FC7010E94EE13D6011D
:102AD000ED91FC91EC0FFD1FB082C701DF91CF910A
:102AE0001F910F91FF90EF90DF90CF90BF900895CE
:102AF000FC0153834283648315820895CF93DF934F
:102B0000EC018A819B81009769F06F8161110E94BD
:102B100076048C81882331F08A819B81DF91CF916B
:102B20000C947D04DF91CF910895FC0184EA91E03B
:102B300091838083138212821482158216821782F7
:102B400082E090E0918780878AE090E09387828797
:102B50000895FC016681662351F0858191E0980F0C
:102B60009583882321F0828193810C9476040895C3
:102B70000F931F93CF93DF9300D0CDB7DEB78C01B7
:102B8000FC0182819381892B71F0C80169837A836A
:102B90000E94A915F8014285538569817A81828155
:102BA00093810E942605C8010F900F90DF91CF916D
:102BB0001F910F9108950F931F93CF93DF9300D030
:102BC00000D0CDB7DEB78C01FC0182819381892BC7
:102BD00091F0C80149835A836B837C830E94A915B5
:102BE000F8012085318549815A816B817C81828100
:102BF00093810E942306C8010F900F900F900F90B1
:102C0000DF91CF911F910F9108950895FC01738377
:102C100062830895FC018CEA91E0918380831382A2
:102C2000128214828AE0858308950F931F93609324
:102C30006203709363038093640390936503009130
:102C40001A0110911B0120911C0130911D01DC0122
:102C5000CB01800F911FA21FB31F80935A03909343
:102C60005B03A0935C03B0935D0382E090E09093DC
:102C70005903809358030E94B90A60935E037093CE
:102C80005F0380936003909361031F910F910895F8
:102C9000FC01238134812627022E2295207F2025C6
:102CA000032E322F22952F700226269532272327B6
:102CB000220F220F220F2025348323830895CF93E0
:102CC000DF93EC018D819E81DC01ED91FC916C81A3
:102CD0000190F081E02D09958D819E81DC01ED91BF
:102CE000FC910190F081E02D6B81DF91CF910994EF
:102CF0008F929F92AF92BF92CF92DF92EF92FF920C
:102D0000CF93DF93EC016B010E94B90A4B015C0188
:102D1000E12CF12C8D819E81DC01ED91FC910680EE
:102D2000F781E02D099597FF0FC00E94B90ADC01D9
:102D3000CB0188199909AA09BB098C159D05AE0517
:102D4000BF0540F38FEF9FEFDF91CF91FF90EF90A2
:102D5000DF90CF90BF90AF909F908F900895CF93CA
:102D6000DF93EC018D819E81DC01ED91FC9104806B
:102D7000F581E02D09951816190654F48D819E8170
:102D8000DC01ED91FC910680F781E02D0995EACFF9
:102D9000DF91CF9108952F923F924F925F926F9261
:102DA0007F928F929F92AF92BF92CF92DF92EF92DB
:102DB000FF920F931F93CF93DF93CDB7DEB72D977D
:102DC0000FB6F894DEBF0FBECDBF3C012B013C8394
:102DD0002B83BF82AE82C8018C0D9D1D1C01240E69
:102DE000351E3D82A32CB12CCB01840F951F9987F2
:102DF0008887D901A00FB11FBB87AA87F701EC0D07
:102E0000FD1DFD87EC87F3018085B81608F028C109
:102E1000EFEFFFEFD3011496FC93EE931397159603
:102E20008D919C911697DC01ED91FC910190F081C0
:102E3000E02D6FEF09956FEFC3010E944816F30173
:102E400085819681DC01ED91FC910190F081E02D6E
:102E5000D3016C910995F3016081C3010E9448166A
:102E6000D30115968D919C911697DC01ED91FC9103
:102E70000190F081E02D6D8109956A2DC3010E94BA
:102E80004816F30185819681DC01ED91FC9101905A
:102E9000F081E02D622D0995622DC3010E94481634
:102EA000620188859985C816D906A1F0F30185814C
:102EB00096818601DC01ED91FC910190F081E02D7D
:102EC000D6016D916D010995F8016081C3010E94E1
:102ED0004816E7CFCB80DC808A859B85C816D9064B
:102EE000B1F0D30115968D919C9116978601DC0166
:102EF000ED91FC910190F081E02DD6016D916D0175
:102F00000995F8016081C3010E944816E5CF670169
:102F10008C859D85C816D906B1F0D30115968D9183
:102F20009C9116978601DC01ED91FC910190F08156
:102F3000E02DD6016D916D010995F8016081C30105
:102F40000E944816E5CFC3010E945F1664E670E058
:102F5000C3010E9478168F3F910509F076C0EFEF0C
:102F6000FFEFD3011496FC93EE9313976FEFC30119
:102F70000E94481665E070E0C3010E947816D301F4
:102F80006C91262F30E08217930709F05EC0C301D1
:102F90000E9448166AE070E0C3010E9478166C0136
:102FA00097FD53C0682FC3010E9448166AE070E085
:102FB000C3010E9478168C0197FD47C0682FC3019A
:102FC0000E944816CA821982E981FA810E0F1F1FDA
:102FD000C12CD12C65E070E0C301C016D106A1F070
:102FE000C814D90489F00E94781697FD09C0EE81B3
:102FF000FF81EC0DFD1D8083682FC3010E944816E0
:10300000FFEFCF1ADF0AE6CF0E9478166C0197FD1A
:103010001CC065E070E0C3010E94781697FD15C0E2
:10302000DC2CCC248C0D9D1DD30113962D913C914D
:1030300014972817390749F48C918F5F8C93C80136
:103040008016910678F4C4010DC0B39464E670E074
:1030500080E090E00E94EA0AC3010E94AF16D3CE3E
:103060008FEF9FEF2D960FB6F894DEBF0FBECDBF4A
:10307000DF91CF911F910F91FF90EF90DF90CF9054
:10308000BF90AF909F908F907F906F905F904F9088
:103090003F902F9008953F924F925F926F927F9250
:1030A0008F929F92AF92BF92CF92DF92EF92FF9258
:1030B0000F931F93CF93DF93CDB7DEB72E970FB645
:1030C000F894DEBF0FBECDBFDC0117962C91179789
:1030D0002111D2C03C0181E0FD018783C3010E9420
:1030E000AF1668EE73E080E090E00E94EA0AD30138
:1030F00015968D919C911697DC01ED91FC910480C1
:10310000F581E02D09951816190644F395E0592E1E
:103110004424439422E3322EEEE1F1E0DE011696E0
:10312000852D01900D928A95E1F7F3014086812C5F
:10313000912CA12CB12CC12CD12CE12CF12C00E034
:1031400010E020E030E045E050E0BE016A5F7F4FD4
:10315000C3010E94CB1663E0D30115968D919C911B
:1031600016970E9476046AEF70E080E090E00E947B
:10317000EA0A64E872E0F301858196810E944204C4
:103180006AEF70E080E090E00E94EA0A62E872E094
:10319000D30115968D919C9116970E94420464EF7D
:1031A00071E080E090E00E94EA0A66E772E0F301D5
:1031B000858196810E94420464EF71E080E090E096
:1031C0000E94EA0AC3010E94AF16E3E2F1E0DE01C9
:1031D0001196852D01900D928A95E1F7D3011896ED
:1031E0003C9284E0882E912CFE013B965F0120E00A
:1031F00030E045E050E0BE016F5F7F4FC3010E94A9
:10320000CB168F3FFFEF9F0739F468EE73E080E045
:1032100090E00E94EA0A80CF2B852111FFCF04970E
:1032200011F52C8530E02053310984E6829FA001FE
:10323000839F500D11242D8530E0205331096AE021
:10324000629FC001639F900D1124840F951F2E85EE
:1032500030E020533109820F931FD30112969C93C3
:103260008E93119705C084E690E0F30192838183E9
:1032700082E3D30118968C932E960FB6F894DEBF96
:103280000FBECDBFDF91CF911F910F91FF90EF90B7
:10329000DF90CF90BF90AF909F908F907F906F9076
:1032A0005F904F903F900895E6E6F3E010828AE841
:1032B00093E096838583178210869287818708958D
:1032C0004F925F926F927F928F929F92AF92BF9236
:1032D000CF92DF92EF92FF920F931F93CF93DF93E2
:1032E0001F92CDB7DEB73C019B012A01DC0152964B
:1032F0008C91811105C08B017B01E40EF51E35C058
:1033000080E58983812C912CA12CB12CC12CD12C4E
:10331000E12CF12C8A0141E050E0BE016F5F7F4F4C
:10332000F301848595850E94CB1622C0D301559662
:10333000ED91FC91569753968C91539791E0980F8D
:1033400053969C93D8019D918D01E80FF11D9083B8
:10335000F30193898489981308C00190F081E02DCE
:103360000284F385E02DC30109950E151F05F1F6C2
:10337000C2010F90DF91CF911F910F91FF90EF90BD
:10338000DF90CF90BF90AF909F908F907F906F9085
:103390005F904F9008958F929F92AF92BF92CF927D
:1033A000DF92EF92FF920F931F9348015901C12CB6
:1033B000D12CE12CF12C00E010E020E030E00E9464
:1033C000CB161F910F91FF90EF90DF90CF90BF90A1
:1033D000AF909F908F9008950F931F93CF93DF939B
:1033E000FC01228921110FC0EC01438950E065895D
:1033F000768900E010E020E030E0848595850E9429
:10340000CB1981E08B8BDF91CF911F910F910895A4
:103410000F931F93CF93DF9300D0CDB7DEB7DC01BE
:1034200052968C915297882399F080E589836A831C
:1034300000E010E020E030E042E050E0BE016F5FCD
:103440007F4F1C968D919C911D970E94CB191FC098
:103450005596ED91FC91569753968C91539791E028
:10346000980F53969C935397E80FF11D60835396E2
:103470009C91539754968C915497981308C0ED9152
:10348000FC9111970284F385E02DCD01099581E02F
:1034900090E00F900F90DF91CF911F910F910895C1
:1034A000FC011382128288EE93E0A0E0B0E08483F6
:1034B0009583A683B78384EB91E09183808386E62E
:1034C00093E09587848716861786118A108A81E093
:1034D000828B0895CF93DF93FC012289211109C0CB
:1034E000EC0185899689009711F00E94291181E0ED
:1034F0008A8BDF91CF910895EF92FF920F931F93E4
:10350000CF93DF9300D0CDB7DEB7FC012685211124
:1035100015C07C01178680E7898380E28A83208931
:10352000318900E210E042E050E0BE016F5F7F4F62
:10353000848595850E94CB19F70186870F900F909F
:10354000DF91CF911F910F91FF90EF900895CF934E
:10355000DF93EC010E947C1A8E8590E0DF91CF9181
:103560000895CF93DF93EC010E947C1A8E85882307
:1035700069F081508E87E889F9898F8591E0980FED
:103580009F87E80FF11D808190E002C08FEF9FEFD1
:10359000DF91CF910895CF93DF93EC010E947C1AC5
:1035A0008E85882341F08F85E889F989E80FF11D20
:1035B000808190E002C08FEF9FEFDF91CF9108955F
:1035C000CF93DF93EC010E946A1A8889998900974A
:1035D00021F00E942911198A188ADF91CF9108954C
:1035E00024EB31E0FC01318320830C94E01ACF936B
:1035F000DF93EC018C859D850E944B18CE010E94C3
:10360000E01A80E290E00E942511998B888BDF916F
:10361000CF91089581E793E00C94501A81E793E0ED
:103620000C94F01A81E0089586E693E09093890364
:1036300080938803089508956F927F928F929F924E
:10364000AF92BF92CF92DF92EF92FF920F931F93B0
:10365000CF93DF9300D0CDB7DEB79B013A0149E4A9
:103660004983FC0146854A83812C912CA12CB12CE5
:10367000C12CD12CE12CF12C830142E050E0BE01A1
:103680006F5F7F4F848595850E94CB16C3010F9095
:103690000F90DF91CF911F910F91FF90EF90DF90EE
:1036A000CF90BF90AF909F908F907F906F90089534
:1036B0000F931F93CF93DF9300D01F92CDB7DEB748
:1036C00029E42983FC0126852A836B8300E010E02E
:1036D00020E030E043E050E0BE016F5F7F4F848523
:1036E00095850E94CB1981E090E00F900F900F908C
:1036F000DF91CF911F910F910895EF92FF920F9359
:103700001F93CF93DF9300D01F92CDB7DEB7FC019C
:103710002289211118C07C01138A8FE4898380E4F7
:103720008B8386858A839F012C5E3F4F00E410E0E7
:1037300043E050E0BE016F5F7F4F848595850E9416
:10374000CB19F701828B0F900F900F90DF91CF91E3
:103750001F910F91FF90EF900895CF93DF93EC01AD
:103760000E947D1B8A8990E0DF91CF910895CF93CD
:10377000DF93EC010E947D1B8A89882359F08150D8
:103780008A8B8B8991E0980F9B8BC80FD11D8C89F8
:1037900090E002C08FEF9FEFDF91CF910895CF931C
:1037A000DF93EC010E947D1B8A89882331F08B898D
:1037B000C80FD11D8C8990E002C08FEF9FEFDF9181
:1037C000CF9108950F931F93CF93DF93EC018B015B
:1037D00060EC71E08F8598890E949014B8018F8504
:1037E0009889DF91CF911F910F910C9489146F925A
:1037F0007F928F929F92AF92BF92CF92DF92EF9281
:10380000FF920F931F93CF93DF9300D01F92CDB7FA
:10381000DEB73C0182E58B83D3011F96ED91FC91CD
:103820005097048115812081318182E0882E912C6E
:10383000FE0131965F01C12CD12CE12CF12C41E02D
:1038400050E0BE016D5F7F4F1C968D919C911D973E
:103850000E94CB168A81D3011E968C931E971F96C9
:103860000D911C9150970115110531F0C8010E946E
:10387000E112C8010E942711F301108A178689817D
:10388000811102C081E0818B0F900F900F90DF912A
:10389000CF911F910F91FF90EF90DF90CF90BF904D
:1038A000AF909F908F907F906F9008950F931F938C
:1038B000CF93DF9300D01F92CDB7DEB722E72983E5
:1038C000FC0126852A8301E010E09E012D5F3F4F19
:1038D00042E050E0BE016F5F7F4F848595850E9476
:1038E000CB1981E09B81913009F080E00F900F901F
:1038F0000F90DF91CF911F910F910895EF92FF925A
:103900000F931F93CF93DF9300D0CDB7DEB77C0129
:10391000FC018189882389F087E7898386858A83EA
:1039200000E010E020E030E042E050E0BE016F5FD8
:103930007F4F848595850E94CB19F701118A0F90DE
:103940000F90DF91CF911F910F91FF90EF9008950D
:1039500022ED31E0FC01318320830C947E1CEF9238
:10396000FF920F931F93CF93DF9300D0CDB7DEB7B5
:103970007C0169837A830E947E1C86E090E00E942D
:1039800023118C0169817A810E94D913F701108B70
:1039900007870F900F90DF91CF911F910F91FF90AC
:1039A000EF9008951F920F920FB60F9211242F934C
:1039B0008F939F93EF93FF93E0919A03F0919B0372
:1039C0008081E091A003F091A10382FD12C090815B
:1039D0008091A3038F5F8F732091A403821751F00E
:1039E000E091A303F0E0E657FC4F958F8093A3038B
:1039F00001C08081FF91EF919F918F912F910F9046
:103A00000FBE0F901F9018951F920F920FB60F9236
:103A100011242F933F934F935F936F937F938F93D3
:103A20009F93AF93BF93EF93FF938AE893E00E9435
:103A30003310FF91EF91BF91AF919F918F917F9143
:103A40006F915F914F913F912F910F900FBE0F900B
:103A50001F9018958AE893E00E94F70F21E0892BC8
:103A600009F420E0822F0895EAE8F3E0138212823D
:103A700088EE93E0A0E0B0E084839583A683B783CB
:103A800084E991E0918380838DEC90E09587848731
:103A90008CEC90E09787868788EC90E0918B808B08
:103AA00089EC90E0938B828B8AEC90E0958B848BF1
:103AB0008EEC90E0978B868B118E128E138E148E67
:103AC00008955058BB27AA270E94791D0C94EC1E1C
:103AD0000E94DE1E38F00E94E51E20F039F49F3F60
:103AE00019F426F40C94DB1E0EF4E095E7FB0C941D
:103AF000D51EE92F0E94FD1E58F3BA1762077307FF
:103B00008407950720F079F4A6F50C941F1F0EF496
:103B1000E0950B2EBA2FA02D0B01B90190010C01DD
:103B2000CA01A0011124FF27591B99F0593F50F4F5
:103B3000503E68F11A16F040A22F232F342F44274D
:103B4000585FF3CF469537952795A795F040539545
:103B5000C9F77EF41F16BA0B620B730B840BBAF015
:103B60009150A1F0FF0FBB1F661F771F881FC2F780
:103B70000EC0BA0F621F731F841F48F48795779594
:103B80006795B795F7959E3F08F0B0CF9395880F4E
:103B900008F09927EE0F9795879508950E94B11E1A
:103BA00008F481E008950E94E71D0C94EC1E0E9429
:103BB000E51E58F00E94DE1E40F029F45F3F29F018
:103BC0000C94D51E51110C94201F0C94DB1E0E94E6
:103BD000FD1E68F39923B1F3552391F3951B550B03
:103BE000BB27AA2762177307840738F09F5F5F4FD0
:103BF000220F331F441FAA1FA9F335D00E2E3AF00F
:103C0000E0E832D091505040E695001CCAF72BD026
:103C1000FE2F29D0660F771F881FBB1F2617370777
:103C20004807AB07B0E809F0BB0B802DBF01FF27A9
:103C300093585F4F3AF09E3F510578F00C94D51E93
:103C40000C94201F5F3FE4F3983ED4F3869577955C
:103C50006795B795F7959F5FC9F7880F911D969562
:103C6000879597F90895E1E0660F771F881FBB1FBE
:103C7000621773078407BA0720F0621B730B840B6B
:103C8000BA0BEE1F88F7E09508950E94051F88F093
:103C90009F5798F0B92F9927B751B0F0E1F0660F10
:103CA000771F881F991F1AF0BA95C9F714C0B13051
:103CB00091F00E941F1FB1E008950C941F1F672F01
:103CC000782F8827B85F39F0B93FCCF38695779580
:103CD0006795B395D9F73EF4909580957095619569
:103CE0007F4F8F4F9F4F0895E89409C097FB3EF494
:103CF00090958095709561957F4F8F4F9F4F992339
:103D0000A9F0F92F96E9BB279395F69587957795B6
:103D10006795B795F111F8CFFAF4BB0F11F460FF76
:103D20001BC06F5F7F4F8F4F9F4F16C0882311F0CE
:103D300096E911C0772321F09EE8872F762F05C0E2
:103D4000662371F096E8862F70E060E02AF09A957D
:103D5000660F771F881FDAF7880F9695879597F972
:103D60000895990F0008550FAA0BE0E8FEEF16160C
:103D70001706E807F907C0F012161306E407F5075F
:103D800098F0621B730B840B950B39F40A2661F0D3
:103D9000232B242B252B21F408950A2609F4A14076
:103DA000A6958FEF811D811D089597F99F6780E883
:103DB00070E060E008959FEF80EC089500240A947D
:103DC0001616170618060906089500240A941216F6
:103DD0001306140605060895092E0394000C11F429
:103DE000882352F0BB0F40F4BF2B11F460FF04C0D6
:103DF0006F5F7F4F8F4F9F4F089557FD9058440F2F
:103E0000551F59F05F3F71F04795880F97FB991F39
:103E100061F09F3F79F087950895121613061406F6
:103E2000551FF2CF4695F1DF08C016161706180683
:103E3000991FF1CF86957105610508940895E8945E
:103E4000BB2766277727CB0197F908950E94B11EFB
:103E500008F48FEF08950E943E1F0C94EC1E0E9400
:103E6000DE1E38F00E94E51E20F0952311F00C9420
:103E7000D51E0C94DB1E11240C94201F0E94FD1EE5
:103E800070F3959FC1F3950F50E0551F629FF001AD
:103E9000729FBB27F00DB11D639FAA27F00DB11DC6
:103EA000AA1F649F6627B00DA11D661F829F22274F
:103EB000B00DA11D621F739FB00DA11D621F839FD6
:103EC000A00D611D221F749F3327A00D611D231FAC
:103ED000849F600D211D822F762F6A2F11249F57FA
:103EE00050409AF0F1F088234AF0EE0FFF1FBB1FFD
:103EF000661F771F881F91505040A9F79E3F5105BC
:103F000080F00C94D51E0C94201F5F3FE4F3983E84
:103F1000D4F3869577956795B795F795E7959F5F65
:103F2000C1F7FE2B880F911D9695879597F90895F7
:103F30000E94B11E880B990B0895A1E21A2EAA1BAC
:103F4000BB1BFD010DC0AA1FBB1FEE1FFF1FA21749
:103F5000B307E407F50720F0A21BB30BE40BF50B46
:103F6000661F771F881F991F1A9469F760957095CF
:103F7000809590959B01AC01BD01CF010895EE0F96
:103F8000FF1F0590F491E02D0994A29FB001B39F0B
:103F9000C001A39F700D811D1124911DB29F700D52
:103FA000811D1124911D08950E94C51FA59F900D8C
:103FB000B49F900DA49F800D911D11240895CF935F
:103FC000DF938230910510F482E090E0E0912904C3
:103FD000F0912A0420E030E0C0E0D0E0309711F109
:103FE0004081518148175907C0F04817590761F4BB
:103FF00082819381209719F09B838A832BC09093B1
:104000002A048093290426C02115310519F042178E
:10401000530718F49A01BE01DF01EF010280F3811A
:10402000E02DDCCF2115310509F1281B390B243097
:10403000310590F412968D919C911397611571053D
:1040400021F0FB019383828304C090932A04809320
:104050002904FD01329644C0FD01E20FF31F819354
:104060009193225031092D933C933AC0209127041B
:1040700030912804232B41F4209102013091030157
:1040800030932804209327042091000130910101EE
:104090002115310541F42DB73EB7409104015091EF
:1040A0000501241B350BE0912704F0912804E21749
:1040B000F307A0F42E1B3F0B2817390778F0AC014B
:1040C0004E5F5F4F2417350748F04E0F5F1F509328
:1040D0002804409327048193919302C0E0E0F0E02C
:1040E000CF01DF91CF9108950F931F93CF93DF936B
:1040F000009709F48CC0FC01329713821282009160
:10410000290410912A040115110581F420813181BF
:10411000820F931F20912704309128042817390714
:1041200079F5F0932804E093270471C0D80140E0AA
:1041300050E0AE17BF0750F412962D913C911397A3
:10414000AD012115310509F1D901F3CF9D01DA0146
:104150003383228360817181860F971F82179307B3
:1041600069F4EC0128813981260F371F2E5F3F4FFC
:10417000318320838A819B8193838283452B29F419
:10418000F0932A04E093290442C01396FC93EE9323
:104190001297ED01499159919E01240F351FE217A5
:1041A000F30771F480819181840F951F0296119617
:1041B0009C938E938281938113969C938E931297F6
:1041C000E0E0F0E0D80112968D919C911397009752
:1041D00019F0F8018C01F6CF8D919C9198012E5F1A
:1041E0003F4F820F931F20912704309128042817F6
:1041F000390769F4309729F410922A04109229049F
:1042000002C0138212821093280400932704DF91C6
:10421000CF911F910F910895A0E0B0E0E2E1F1E2AB
:104220000C947C23EC01009721F4CB010E94DF1F4A
:10423000B8C0FC01E60FF71F9C0122503109E217BC
:10424000F30708F4ACC0D9010D911C911197061722
:104250001707B0F00530110508F49FC0C801049796
:104260008617970708F499C002501109061B170B0F
:10427000019311936D937C93CF010E9474208DC0A4
:104280005B01A01AB10A4C01800E911EA091290475
:10429000B0912A0440E050E0E12CF12C109709F491
:1042A0004AC0A815B905D1F56D907C9011976301AE
:1042B00082E0C80ED11CCA14DB0480F1A3014A19A4
:1042C0005B096A0182E0C80ED11C1296BC9012975D
:1042D0001396AC91B5E0CB16D10440F0B282A38323
:1042E00051834083D9016D937C930AC00E5F1F4FA9
:1042F000C301800F911FF90191838083EB2DFA2F69
:10430000E114F10431F0D7011396FC93EE93129768
:1043100044C0F0932A04E09329043FC08D919C91FE
:1043200011974817590708F4AC017D0112960D90BA
:10433000BC91A02DB3CF80912704909128048815BB
:104340009905E1F446175707C8F480910001909150
:104350000101009741F48DB79EB74091040150913F
:104360000501841B950BE817F907C8F4F09328049E
:10437000E0932704F901718360830FC0CB010E9491
:10438000DF1F7C01009759F0A801BE010E940123A4
:10439000CE010E947420C70104C0CE0102C080E09B
:1043A00090E0CDB7DEB7EEE00C949823A6E0B0E045
:1043B000ECEDF1E20C9478235C016B017A0161155C
:1043C000710519F0DB018D939C93E114F10429F040
:1043D000C7010297839708F0DCC03501BFEF6B1A65
:1043E0007B0AF5011081812F90E00E94E822892B41
:1043F00011F05301F2CF1D3249F43501F2E06F0E96
:10440000711CD50111961C9101E009C01B3231F4D9
:104410003501B2E06B0E711CF501118100E0E11471
:10442000F10409F4C4C0F0E1EF16F10489F410338B
:1044300099F5D3018C918F7D883509F0B2C0119622
:104440001C91B2E06B0E711C026050E1E52EF12C64
:10445000EAE0EE16F10409F4B0C0F0E1EF16F10461
:10446000D9F028E0E216F10451F438E0E32EF12C03
:1044700088248A94982CA82C4FE1B42E13C06FEF97
:104480007FEFCB0197010F2C000C440B550B0E94C2
:104490009D1F49015A0106C088248A94982CA82C93
:1044A0002FE0B22E7E826D8260E020E030E0A90134
:1044B00027010F2C000C660877082D803E80E0ED68
:1044C000E10FEA3060F08FEB810F8A3110F4E9ECF4
:1044D00005C08FE9810F8A3190F5E9EAE10F8E2F4F
:1044E00090E08E159F055CF56F3F09F182169306EB
:1044F000A406B506D8F0C301B2010E9468232E2F8E
:1045000030E040E050E029833A834B835C83260F00
:10451000371F481F591F89819A81AB81BC81281799
:1045200039074A075B0710F061E001C06FEFED81CA
:10453000FE813196FE83ED83D1011C91BECFC11463
:10454000D10489F0662339F08D819E810197F601AF
:104550009183808308C001FF06C08D819E810297F0
:10456000D6018D939C9300FF07C0509540953095E0
:1045700021953F4F4F4F5F4F67FF10C082E290E0A1
:1045800090932C0480932B046FEF7FEF8FEF9FEFBE
:104590001BC060E070E080E090E016C0B901CA0185
:1045A00013C010E3E114F10409F45FCF51CF1033CD
:1045B00009F43FCF9AE0E92EF12C89E9882E982C56
:1045C000A82C89E1B82E6ECF2696E2E10C949423B4
:1045D00091110C945523803219F089508550C8F7F9
:1045E0000895FB01DC0105900D920020E1F708958C
:1045F000FC0105900020E9F7809590958E0F9F1F94
:104600000895FB01DC0102C001900D924150504021
:10461000D8F70895FC018191861721F08823D9F7F6
:10462000992708953197CF010895FB01DC018D9101
:10463000019080190110D9F3990B0895FB01DC0159
:1046400001900D920020E1F708954532510520F4C4
:10465000423010F00C943023FB011082CB010895FE
:10466000BB274A3031F4992322F4BDE2909581951D
:104670009F4F0C943C23BB27FB015527AA27880F8B
:10468000991FAA1FA41710F0A41B83955051B9F7C6
:10469000A05DAA3308F0A95DA193009779F7B11145
:1046A000B1931192CB010C94582399278827089530
:1046B000DC01FC01672F71917723E1F7329704C089
:1046C0007C916D9370836291AE17BF07C8F3089514
:1046D000DB018F939F930E94D41FBF91AF91A29F44
:1046E000800D911DA39F900DB29F900D11240895F0
:1046F0002F923F924F925F926F927F928F929F92F2
:10470000AF92BF92CF92DF92EF92FF920F931F93DF
:10471000CF93DF93CDB7DEB7CA1BDB0B0FB6F89490
:10472000DEBF0FBECDBF09942A88398848885F84D0
:104730006E847D848C849B84AA84B984C884DF8041
:10474000EE80FD800C811B81AA81B981CE0FD11D25
:104750000FB6F894DEBF0FBECDBFED01089511E096
:10476000CEE4D1E004C0FE010E94BF1F2196C235F5
:08477000D107C9F7F894FFCF4F
:1047780000002D048000FFFFFFFF00E100000000A3
:10478800000000C18081000000012C010000585881
:104798005858585858313030496F744368617274AA
:1047A8003100496F74436861727432000000000080
:1047B8004D0294027702870263027402000000002F
:1047C80058030D0A006E616E00696E66006F7666AA
:1047D8000000000000E90B020428003D002400242A
:1047E8002E6372656174650000000000490C4A0C74
:1047F80000000000490F4A0CF6FF000078157E15EE
:104808000000000076100204F70F11100310541076
:104818000000000078157E15000000000616051639
:1048280000000000081A6019A71AB11ACB1AEC196F
:10483800FE002F62696E2F617368002D630000000F
:0E4848000000581B1C1BAD1BB71BCF1B1B1BFE
:00000001FF
