:100000000C9449010C9471010C9471010C947101D0
:100010000C9471010C9471010C9471010C94710198
:100020000C9471010C9471010C94940B0C94230AA0
:100030000C9471010C9471010C9471010C94710178
:100040000C9471010C9471010C9471010C94710168
:100050000C9471010C9471010C9471010C94320C8C
:100060000C9471010C9499270C94CB270C9471017A
:100070000C9471010C9471010C9471010C94710138
:100080000C9471010C9471010C9471010C94710128
:100090000C9471010C9471010C9471010C94710118
:1000A0000C9471010C9471010C9471016C61626586
:1000B0006C0076616C756500080B0002020201009D
:1000C00009040000010202000005240010010524BB
:1000D000010101042402060524060001070581032D
:1000E00010004009040100020A0000000705020296
:1000F0004000000705830240000012010002EF02E9
:10010000014041234180000101020301120100026C
:1001100000000040412341800001010203014172BF
:100120006475696E6F204C4C430055534220494F13
:1001300020426F617264000403090407060504018C
:1001400000080A0B0C0D0904080201104080401041
:1001500020408040800802040180402010020110ED
:10016000801020404020040404040403040502021B
:100170000202040302020202060606060606040440
:10018000020202040400000000250028002B002EBB
:1001900000310000000000240027002A002D00305C
:1001A000002F76736D2F002F76736D2F00485F46FA
:1001B000494C4500485F5245534F55524345005402
:1001C000494D450041444452455353004556454E20
:1001D000540052454C4F4144006572617365007391
:1001E000746F70007265636F7264007469746C651B
:1001F0000053657276657220537461727465640091
:100200002F76736D2F7365727665722E7079002D5F
:100210007500707974686F6E005374617274696EE2
:1002200067205365727665722050726F63657373D1
:100230002E2E2E00617070656E64446174610063DF
:100240006C6561724461746100646174610059524B
:10025000616E676500436F6C756D6E566973696298
:100260006C650072756E2D6272696467650A000ABA
:10027000000A0000B0030605A6056D155F169F175E
:10028000461B53220924DB25FB27F6036D16AD1709
:100290000D2411241FBECFEFDAE0DEBFCDBF12E088
:1002A000A0E0B1E0E8E9F2E602C005900D92AE38B8
:1002B000B107D9F725E0AEE8B2E001C01D92AD313B
:1002C000B207E1F711E0C5E4D1E004C02197FE01D7
:1002D0000E949A2ACA33D107C9F70E94B2050C942A
:1002E0003F310C9400000895CB0108959B01BC019F
:1002F000665F7F4FC9010C945812CF92DF92EF9244
:10030000FF926A017B0142EB50E0BC0180EC93E07C
:100310000E94E519B701A6010E941011DC01ED91C0
:10032000FC910280F381E02DFF90EF90DF90CF9061
:100330000994CF93DF93EB014CEA50E0BC0180ECD1
:1003400093E00E94E519BE010E94F211DC01ED91DB
:10035000FC910280F381E02DDF91CF910994CF933E
:10036000DF9300D000D000D0CDB7DEB710929F024F
:1003700010929E026CE271E0CE0101960E941B0E6B
:10038000BE016F5F7F4F8091EF029091F0020E945B
:100390009901CE0101960E94AD0D26960FB6F894F4
:1003A000DEBF0FBECDBFDF91CF910895CF93DF9316
:1003B00000D000D000D0CDB7DEB781E090E09093C0
:1003C0009F0280939E0260E371E0CE0101960E943D
:1003D0001B0EBE016F5F7F4F8091EF029091F00284
:1003E0000E949901CE0101960E94AD0D26960FB68E
:1003F000F894DEBF0FBECDBFDF91CF910895CF93AC
:10040000DF9300D000D000D0CDB7DEB782E090E01F
:1004100090939F0280939E0263E371E0CE01019668
:100420000E941B0EBE016F5F7F4F8091EF02909183
:10043000F0020E949901CE0101960E94AD0D269610
:100440000FB6F894DEBF0FBECDBFDF91CF910895F8
:1004500060E97FE180EC93E00E94BF168FE893E0B3
:100460000E94E3158FEF91E09093E8028093E702FA
:1004700086ED91E09093DC028093DB028FEA91E0BD
:100480009093D0028093CF02089580EC93E00C9477
:100490004818EF92FF920F931F9340E855E260E0F7
:1004A00070E08DEF92E00E94000560E080E00E9425
:1004B000700D60E081E00E94700D60E082E00E94BB
:1004C000700DE12CF12C08EC13E420E030E0A901E0
:1004D00060E080EA92E00E94CF1A1F910F91FF9096
:1004E000EF9008954F925F926F927F928F929F92BA
:1004F000AF92BF92EF92FF920F931F93CF93DF9330
:10050000CDB7DEB728970FB6F894DEBF0FBECDBFCC
:1005100080E00E943F0DBC01990F880B990B0E944F
:100520003D2960939A0270939B0280939C02909362
:100530009D0281E00E943F0DBC01990F880B990B31
:100540000E943D29609396027093970280939802CF
:100550009093990282E00E943F0D7C0120E030E000
:1005600046E953E460919A0270919B0280919C024B
:1005700090919D020E94F22920E030E04AE953E484
:100580000E949A2860939A0270939B0280939C0227
:1005900090939D0220E030E046E953E4609196029A
:1005A0007091970280919802909199020E94F2298D
:1005B00020E030E04AE953E40E949A2860939602D2
:1005C000709397028093980290939902B701FF0C61
:1005D000880B990B0E943D2920E030E046E953E466
:1005E0000E94F22920E030E04AE953E40E949A2870
:1005F0006093920270939302809394029093950279
:100600000E94CC14AB01BC0180918E0290918F02AC
:10061000A0919002B09191028A019B01081B190BD5
:100620002A0B3B0B043011052105310508F447C0A6
:1006300040938E0250938F026093900270939102C8
:100640008090920290909302A0909402B0909502B4
:100650004090960250909702609098027090990294
:1006600080919A0290919B02A0919C02B0919D0270
:1006700089839A83AB83BC8380EA92E04D835E8357
:100680006F8378870E94381B4D815E816F817885EA
:100690000E942C1349815A816B817C810E94101128
:1006A000B301A2010E941011B501A4010E94101112
:1006B000DC01ED91FC910280F381E02D09958091A0
:1006C0009E0290919F02009749F440919A025091A6
:1006D0009B0260919C0270919D0216C08130910531
:1006E00049F440919602509197026091980270915E
:1006F00099020AC0029771F44091920250919302BC
:1007000060919402709195028091EF029091F002B5
:100710000E947D0168EE73E080E090E028960FB6BD
:10072000F894DEBF0FBECDBFDF91CF911F910F9127
:10073000FF90EF90BF90AF909F908F907F906F90C1
:100740005F904F900C94AD0C0E94280280EC93E0D7
:100750000E9442190C9449020E9445020C947202B4
:100760000F93CF93DF9300E020E040E060E087EF5D
:1007700092E00E9467056BE371E08DEE92E00E94CB
:1007800061178CE691E09093EE028093ED0266E4AF
:1007900071E081EE92E00E946117E1EEF2E01386D3
:1007A0001286C4E7D1E0D183C0836EE471E085EDA9
:1007B00092E00E946117E5EDF2E013861286D18384
:1007C000C08366E571E089EC92E00E946117E9EC74
:1007D000F2E013861286D183C0836EE571E080EA71
:1007E00092E0DF91CF910F910C94AE1AE0EAF2E023
:1007F00088E092E09183808382E192E09387828710
:1008000081EA91E0968F858F8BEA91E092A381A394
:1008100083EC92E00E94AD0D86EB92E00C94AD0D5E
:10082000CF93DF931F92CDB7DEB76983DC01ED91E3
:10083000FC910280F381E02D41E050E0BE016F5F4A
:100840007F4F09950F90DF91CF910895CF93DF935C
:10085000EC018C859D8597FF05C082E00E94F7081A
:100860009D878C878C859D85DF91CF91089583E04E
:100870000C948A0BFC018485958597FD06C082E067
:100880000E94A10890E00196089582E00E94A108CC
:1008900090E00895FC018485958597FD05C02FEFB4
:1008A0003FEF35872487089582E00C94F708CF93B3
:1008B000DF93EC0180911101882331F083E00E94E5
:1008C00028091816190634F081E090E09B838A838A
:1008D00080E090E0DF91CF910895FC0190819E5FD0
:1008E000908342E450E068EB70E080E80C94C90922
:1008F000FC0181819081913A59F4813209F048C01C
:1009000047E050E06AE071E080E00E94C90976C0EB
:100910009132F1F5833291F49381892F90E0982FF1
:1009200088272281822BA0E0B0E08093060190937B
:100930000701A0930801B093090160C0803239F427
:1009400067E070E08AE091E00E94F00906C0823220
:1009500009F054C082818093110180914D03882356
:1009600019F0EEEFFAE002C0E0E0F8E080910A0151
:1009700090910B01A0910C01B0910D01803B94402E
:10098000A105B10539F48091110180FF1FC002C09B
:1009900080E008950FB6F894A89580916000886172
:1009A00080936000109260000FBEA895EE3F8AE031
:1009B000F80739F08091FE0A9091FF0A91838083B5
:1009C0001DC01092FF0A1092FE0A18C0EE3F2AE0E6
:1009D000F20731F0808191819093FF0A8093FE0AA3
:1009E00087E797E7918380839BE088E10FB6F894CF
:1009F000A895809360000FBE9093600081E00895F9
:100A00002FEF3FEFFC01358724870895EDEFF2E0EB
:100A10001382128288EE93E0A0E0B0E08483958395
:100A2000A683B7838CE791E0918380838FEF9FEF5C
:100A30009587848708958F929F92AF92BF92CF92AD
:100A4000DF92EF92FF920F931F93CF93DF937C017E
:100A50008B016C0182E0C80ED11C4701E5E08E0ECF
:100A6000911CC0E0D0E0F60161916F014AE050E0D6
:100A7000C8010E94FD065C016EE2C8010E943906B1
:100A80008A0D9B1DC80FD91FC814D90461F74AE00D
:100A900050E0F7016581C8010E94FD068C0F9D1F83
:100AA000DF91CF911F910F91FF90EF90DF90CF904A
:100AB000BF90AF909F908F9008952CE831E0FC019B
:100AC00031832083128213821482158208950F933A
:100AD000FC018CE891E091838083628343832483CB
:100AE00005830F910895DC0190E020E030E08AE07A
:100AF000FB014191BF01442309F150ED540F5A30DD
:100B000088F4829FF001839FF00D11249F012053F0
:100B10003109240F311D47FD3A952F3F310541F32F
:100B200038F312C04E3281F4933071F0FD01E90FB9
:100B3000F11D22839F5F20E030E0DACF933021F473
:100B400015962C9381E0089580E00895EEE4F3E09B
:100B50008CE891E091838083128213821482158243
:100B6000089508950E94E90C0E94B10584E593E080
:100B70000E94150C0E94A403CFE7DBE10E94AC03A6
:100B80002097E1F30E947F1BF9CFCF92DF92EF9283
:100B9000FF920F931F93CF93DF936C017A018B0128
:100BA000C0E0D0E0CE15DF0589F0D8016D918D0150
:100BB000D601ED91FC910190F081E02DC6010995DF
:100BC000892B11F47E0102C02196ECCFC701DF9181
:100BD000CF911F910F91FF90EF90DF90CF900895EC
:100BE0006115710579F0FB0101900020E9F731975B
:100BF000AF01461B570BDC01ED91FC910280F381A4
:100C0000E02D099480E090E00895EF92FF920F9319
:100C10001F93CF93DF938C017B01C0E0D0E0F701FD
:100C2000EC0FFD1F6491662361F0D801ED91FC91FA
:100C30000190F081E02DC8010995892B11F02196D2
:100C4000EECFCE01DF91CF911F910F91FF90EF90EA
:100C50000895DC01ED91FC91DB0114964D915C91BE
:100C600015976D917C910280F381E02D09940C948D
:100C7000F005DC01ED91FC910190F081E02D0994EB
:100C80006EE871E00C94F0050F931F93CF93DF9300
:100C9000EC010E9405068C01CE010E944006800FE7
:100CA000911FDF91CF911F910F9108954F925F9205
:100CB0006F927F92EF92FF920F931F93CF93DF93E8
:100CC000CDB7DEB7A1970FB6F894DEBF0FBECDBF8C
:100CD0007C01FA01CB0119A2223008F42AE08E012E
:100CE0000F5D1F4F422E512C612C712CBF01A301AF
:100CF00092010E94782AF901CA01015011096A3053
:100D000014F4605D01C0695CD8016C93232B242B23
:100D1000252B61F7B801C7010E94F005A1960FB617
:100D2000F894DEBF0FBECDBFDF91CF911F910F9121
:100D3000FF90EF907F906F905F904F900895CF92CB
:100D4000DF92EF92FF920F931F93CF93DF93EC010B
:100D50006A017B012115310579F4E881F98101905F
:100D6000F081E02D642FDF91CF911F910F91FF90C3
:100D7000EF90DF90CF9009942A303105E9F477FFA6
:100D80001AC06DE20E9439068C0144275527BA012A
:100D90004C195D096E097F092AE0CE010E945606B2
:100DA000800F911FDF91CF911F910F91FF90EF90D6
:100DB000DF90CF9008952AE0B701A601CE01DF9120
:100DC000CF911F910F91FF90EF90DF90CF900C94F7
:100DD00056069A01AB01770F660B770B0C949F06B2
:100DE0002115310541F4DC01ED91FC910190F08178
:100DF000E02D642F09940C9456069A01462F50E07A
:100E000060E070E00C94F0064F925F926F927F92D8
:100E10008F929F92AF92BF92CF92DF92EF92FF920A
:100E2000CF93DF93EC016A017B01B22E9A01AB01F3
:100E3000C701B6010E945F2A882319F061E971E0B9
:100E400027C026013701E89477F82FEF3FEF4FE7EF
:100E50005FE7C301B2010E945F2A81110DC02FEF2D
:100E60003FEF4FE75FE7C301B2010E9495281816D4
:100E70001CF465E971E00CC02FEF3FEF4FE75FE432
:100E8000C701B6010E94ED2918169CF469E971E0CA
:100E9000CE01DF91CF91FF90EF90DF90CF90BF9088
:100EA000AF909F908F907F906F905F904F900C9439
:100EB000F0052FEF3FEF4FE75FECC701B6010E944F
:100EC000952887FDE3CF20E030E0A901C701B601F6
:100ED0000E94952887FF0AC06DE2CE010E94390664
:100EE0004C01F7FAF094F7F8F09402C0812C912CA1
:100EF000A12C60E070E080E09FE3AB1441F020E0C3
:100F000030E040E251E40E949A28A394F6CF9B017E
:100F1000AC01C701B6010E9429282B013C010E94A7
:100F20000C296B017C010E943B299B01AC01C30190
:100F3000B2010E9428282B013C012AE0B701A6013A
:100F4000CE010E9456067C01E80CF91CBB2031F052
:100F50006EE2CE010E943906E80EF91EDB2CDD2080
:100F600029F120E030E040E251E4C301B2010E94E7
:100F7000F2292B013C010E940C294B01A12CB12C20
:100F80002AE0B501A401CE010E945606E80EF91E22
:100F9000C501B4010E943B299B01AC01C301B20110
:100FA0000E9428282B013C01DA94D9CFC701DF9198
:100FB000CF91FF90EF90DF90CF90BF90AF909F9038
:100FC0008F907F906F905F904F9008950C940407DE
:100FD000615030F02091F100FC0120830196F8CFA0
:100FE000289884E680935D030895409158035091BA
:100FF0005903209156033091570342175307B4F415
:101000009091E8009570E1F39091E80092FD19C08D
:101010008093F100809158039091590301968F734A
:101020009927892B19F48EEF8093E800809158035B
:10103000909159030196909359038093580381E04E
:10104000089580E00895CF92DF92EF92FF920F9380
:101050001F93CF93DF931F92CDB7DEB7182F062FC4
:10106000E42E862F880F8E5F99830E94F50783E018
:101070000E94F507F12EC12E9981D92E8C2D8F1942
:10108000801798F4F601E7FE02C0849101C08081C8
:101090000E94F507182F80E00E94F5078123FFEFDB
:1010A000CF1ADF0A8111EACF01C081E00F90DF91F2
:1010B000CF911F910F91FF90EF90DF90CF90089507
:1010C0008091D70081608093D70080EA8093D80018
:1010D00089B5806189BD89B5826089BD09B400FE8A
:1010E000FDCF61E070E080E090E00E94AD0C809167
:1010F000D8008F7C80618093D8008091E000807F51
:101100008093E0000895CF93DF931F92CDB7DEB7B1
:101110001982CE0101960E946D040E940A1DBE0133
:101120006F5F7F4F0E94851C89810F90DF91CF9167
:1011300008952FB7FC012083F89467706093E9004D
:101140000895CF93DF931F92CDB7DEB7682FCE01FE
:1011500001960E9499088091F20099819FBF0F909B
:10116000DF91CF910895EF92FF920F931F93CF934A
:10117000DF931F92CDB7DEB790915C03992311F0F6
:1011800057FF03C08FEF9FEF2AC08A017B01682FB2
:10119000CE0101960E9499088091F20090E0A8018A
:1011A000801791070CF4AC01842FF70194E681506D
:1011B00038F0289890935D032091F1002193F7CFA8
:1011C0004115510521F08091F200882321F0898199
:1011D0008FBFCA0104C08BE68093E800F8CF0F9060
:1011E000DF91CF911F910F91FF90EF900895CF93D2
:1011F000DF931F92CDB7DEB741E050E0BE016F5FD5
:101200007F4F0E94B308019719F4898190E002C0D2
:101210008FEF9FEF0F90DF91CF910895CF93DF93E2
:101220001F92CDB7DEB7682FCE0101960E949908B4
:101230009091E800892F807295FF04C09091F20090
:101240008FE3891B99819FBF0F90DF91CF91089504
:101250006F927F928F929F92AF92BF92CF92DF92C6
:10126000EF92FF920F931F93CF93DF931F92CDB70F
:10127000DEB7A82E6B01B42E052F80915C0381117F
:1012800003C08FEF9FEF6AC080915A0380FF05C0B3
:101290008091E00082608093E000EB2CF02E8AEFDA
:1012A000982E8A2D8072782E9AE3892E8A2D80744A
:1012B000682EE114F10409F447C08A2D0E940E093A
:1012C000182F81110AC09A949920D9F261E070E038
:1012D00080E090E00E94AD0CECCF90E0E816F906BB
:1012E0000CF41E2D6A2DCE0101960E949908809162
:1012F000E80085FF26C0812F90E0E81AF90A7720E0
:1013000029F01150A8F01092F100FBCFF601A7FED2
:1013100007C0115058F024912093F1003196F9CF75
:10132000115020F021912093F100FACFC80ED91E60
:101330008091E80085FF0FC0E114F10411F4611001
:101340000AC089818FBFB5CF5D9884E680935E0324
:101350008B2D902F03C08092E800F3CF0F90DF9188
:10136000CF911F910F91FF90EF90DF90CF90BF90A2
:10137000AF909F908F907F906F9008951092E900AA
:101380001092590310925803909357038093560379
:101390000895DF92EF92FF920F931F93CF93DF9305
:1013A000D82E8A017B01E40EF51EEB01CE15DF0578
:1013B00071F0D7FE03C0FE01849101C088810E94B4
:1013C000F50721968111F2CF8FEF9FEF01C0C80181
:1013D000DF91CF911F910F91FF90EF90DF900895D3
:1013E000BF92CF92DF92EF92FF920F931F93CF9312
:1013F000DF936C018B01EB019BEFB92E2097C1F0BD
:101400007E01C134D1051CF080E4E82EF12C8091DE
:10141000E80082FFFCCFC8018C1B9D0B6E2D8C0D4C
:101420009D1D0E94E807B092E800CE19DF09E6CFC3
:10143000C801DF91CF911F910F91FF90EF90DF9046
:10144000CF90BF9008951F920F920FB60F92112464
:10145000CF92DF92EF92FF920F931F932F933F93C0
:101460004F935F936F937F938F939F93AF93BF93AC
:10147000EF93FF93CF93DF93CDB7DEB76C97DEBFCB
:10148000CDBF1092E9008091E80083FF24C168E09D
:10149000CE0145960E94E80782EF8093E8008D898F
:1014A00087FF05C09091E80090FFFCCF03C09EEF3E
:1014B0009093E800982F907609F0F1C09E892F89CB
:1014C000188D91110CC0803829F480915B038093B2
:1014D000F10002C01092F1001092F100F5C0422F0D
:1014E00050E0512B913051F48111EEC04130510543
:1014F00009F0EAC080915B038D7F0BC0933061F4EB
:101500008111E2C04130510509F0DEC080915B03DA
:10151000826080935B03D8C0953041F48091E800ED
:1015200080FFFCCF20682093E300CEC0963009F006
:101530008CC0EB8CFC8C123069F580E090E00E944E
:10154000BE090E94830899E09E012F5F3F4F690109
:10155000F901292F11922A95E9F799831A8391E0CD
:101560009E8390EA98879AEF99872091580330914B
:101570005903275F3F4F3C832B838D83C7010E9414
:10158000BE0949E050E0B60180E00E94C9090E940E
:1015900083089AC0C7010E94BE090E940A1DBE01AD
:1015A0006B5E7F4F0E94AE1C009719F00CF08CC050
:1015B0008FC0113071F48B8D9C8D089719F481E0E8
:1015C000809355038091550381112FC06CE071E029
:1015D00031C0133009F07CC08F89882349F18230F3
:1015E00029F440E86CE08AE291E006C0813039F4E9
:1015F00040E86BE08EE191E00E94230863C08330F5
:1016000009F066C00E940A1D8E010F5F1F4FB801CE
:101610000E94CD1CF80101900020E9F73197BF012D
:10162000601B710B40E0C801E7CF6AEF70E002C0B9
:1016300067E371E06115710509F44AC0FB0144914B
:1016400050E080E80E94C9093FC0973009F440C0CB
:10165000983021F481E08093F10036C09930A1F5F3
:101660008370B1F5E3E1F1E081E021E036E39081C0
:10167000992361F08093E9002093EB00919190937E
:10168000EC003093ED008F5F873089F78EE7809311
:10169000EA001092EA008F8980935C0315C08B8D5D
:1016A0009C8D0E94BE09898D811105C0CE01459691
:1016B0000E94780407C00E940A1DBE016B5E7F4F26
:1016C0000E94EC1C882321F08EEF8093E80003C079
:1016D00081E28093EB006C960FB6F894DEBF0FBEEC
:1016E000CDBFDF91CF91FF91EF91BF91AF919F91CE
:1016F0008F917F916F915F914F913F912F911F91AA
:101700000F91FF90EF90DF90CF900F900FBE0F9052
:101710001F9018958093E9008091F200882319F0BA
:101720008AE38093E80008951F920F920FB60F92FC
:1017300011242F933F934F935F936F937F938F93D6
:101740009F93AF93BF93CF93EF93FF93C091E1002B
:101750008091E100837F8093E100C3FF0FC010926E
:10176000E90081E08093EB001092EC0082E380932B
:10177000ED0010925C0388E08093F000C2FF19C076
:1017800083E00E948A0B80915E03882339F0809168
:101790005E03815080935E03882389F180915D030D
:1017A000882339F080915D03815080935D03882305
:1017B00041F1C4FF10C08091E2008E7E8160809371
:1017C000E2008091E1008F7E8093E10080915A03D6
:1017D0008E7E806111C0C0FF16C08091E2008E7EB7
:1017E00080618093E2008091E1008E7E8093E10031
:1017F00080915A038E7E816080935A0304C05D9A63
:10180000CDCF289AD6CFFF91EF91CF91BF91AF91D5
:101810009F918F917F916F915F914F913F912F9108
:101820000F900FBE0F901F90189510925C031092AE
:101830005B0310925A030E9460088091E1008E7E43
:101840008093E1008DE08093E200559A209AEEEFBC
:10185000FFE7859194918B3F9C4D19F481E0809333
:101860004D0308951F920F920FB60F9211242F93DC
:101870003F938F939F93AF93BF9380916003909119
:101880006103A0916203B091630330915F0323E091
:10189000230F2D3720F40196A11DB11D05C026E8A8
:1018A000230F0296A11DB11D20935F038093600357
:1018B00090936103A0936203B093630380916403E8
:1018C00090916503A0916603B09167030196A11DF5
:1018D000B11D8093640390936503A0936603B09356
:1018E0006703BF91AF919F918F913F912F910F907F
:1018F0000FBE0F901F9018952FB7F894609160035A
:101900007091610380916203909163032FBF0895EA
:101910003FB7F8948091640390916503A0916603AA
:10192000B091670326B5A89B05C02F3F19F001961B
:10193000A11DB11D3FBFBA2FA92F982F8827820F55
:10194000911DA11DB11DBC01CD0142E0660F771FA5
:10195000881F991F4A95D1F708958F929F92AF9251
:10196000BF92CF92DF92EF92FF926B017C010E94B7
:10197000880C4B015C01C114D104E104F10401F1B4
:101980000E947C1C0E94880CDC01CB0188199909FB
:10199000AA09BB09883E9340A105B10560F321E087
:1019A000C21AD108E108F10888EE880E83E0981E7B
:1019B000A11CB11CC114D104E104F10419F7DBCF5F
:1019C000FF90EF90DF90CF90BF90AF909F908F905F
:1019D0000895789484B5826084BD84B5816084BDA7
:1019E00085B5826085BD85B5816085BDEEE6F0E098
:1019F000808181608083E1E8F0E0108280818260F4
:101A00008083808181608083E0E8F0E08081816074
:101A10008083E1E9F0E08081826080838081816061
:101A20008083E0E9F0E0808181608083E1ECF0E098
:101A300080818460808380818260808380818160F6
:101A40008083E3ECF0E0808181608083E0ECF0E073
:101A5000808182608083E2ECF0E08081816080831D
:101A6000EAE7F0E080818460808380818260808307
:101A70008081816080838081806880830895823145
:101A800008F08251E82FF0E0E55CFE4FE491809190
:101A90007B00E3FB222720F930E095E0220F331F83
:101AA0009A95E1F78F7D282B20937B00E77080913A
:101AB000190120E4829FC0011124E82BE0937C00EF
:101AC00080917A00806480937A0080917A0086FD0C
:101AD000FCCF809178002091790090E0922B0895BE
:101AE000CF93DF9390E0FC01E95BFE4F2491FC0172
:101AF000EA59FE4F8491882361F190E0880F991F85
:101B0000FC01ED56FE4FC591D491FC01EB57FE4F01
:101B1000A591B491611109C09FB7F894888120956F
:101B200082238883EC912E230BC0623061F49FB72F
:101B3000F8943881822F809583238883EC912E2B13
:101B40002C939FBF06C08FB7F894E8812E2B288373
:101B50008FBFDF91CF9108950895FC01808191811D
:101B60000C94632BCF93DF93EC01888199810097CC
:101B700011F00E94632B198218821D821C821B8225
:101B80001A82DF91CF9108950F931F93CF93DF9324
:101B9000EC018B016F5F7F4F888199810E94FB2B45
:101BA000009731F0998388831B830A8381E001C009
:101BB00080E0DF91CF911F910F910895CF93DF9334
:101BC000EC0188819981892B29F08A819B81861774
:101BD000970760F4CE010E94C40D882341F08C81E8
:101BE0009D81892B19F4E881F981108281E0DF91D0
:101BF000CF910895EF92FF920F931F93CF93DF93AE
:101C0000EC017B018A01BA010E94DE0D811104C042
:101C1000CE010E94B20D07C01D830C83B7018881DD
:101C200099810E940D2ECE01DF91CF911F910F91CE
:101C3000FF90EF900895FC011182108213821282AE
:101C4000158214826115710551F0FB01019000208D
:101C5000E9F73197AF01461B570B0C94FA0D089525
:101C6000EF92FF920F931F93CF93DF93EC017B01D1
:101C70008A01BA010E94DE0D811104C0CE010E94CA
:101C8000B20D07C01D830C83B701888199810E9422
:101C9000E02DCE01DF91CF911F910F91FF90EF903A
:101CA00008950F931F93CF93DF938C01EB01FC01F9
:101CB000808191810097D1F06881798161157105EA
:101CC00099F02CEA3DE0232B79F0428153812C815D
:101CD0003D814217530740F00E940D2E8C819D815B
:101CE000F8019583848313C00E94632B88819981B6
:101CF000F801918380838A819B81938382838C8185
:101D00009D8195838483198218821B821A821D8289
:101D10001C82DF91CF911F910F910895CF93DF9394
:101D2000EC01FB018617970761F0608171816115F5
:101D3000710529F0448155810E94FA0D02C00E946C
:101D4000B20DCE01DF91CF910895FC011182108276
:101D500013821282158214820C948E0ECF93DF931D
:101D6000EC018617970711F00E94510ECE01DF910A
:101D7000CF910895CF93DF93EC016115710559F070
:101D8000FB0101900020E9F73197AF01461B570B8B
:101D90000E94FA0D02C00E94B20DCE01DF91CF91D8
:101DA00008950F931F93CF93DF93CDB7DEB762975C
:101DB0000FB6F894DEBF0FBECDBF8C01CB01F8018A
:101DC00011821082138212821582148250E0BE01A9
:101DD0006F5F7F4F0E94142EBE016F5F7F4FC8015F
:101DE0000E94BA0E62960FB6F894DEBF0FBECDBF4A
:101DF000DF91CF911F910F9108950F931F93CF9370
:101E0000DF9300D0CDB7DEB78C016115710561F0AD
:101E1000CB0169837A830E94E72DAC0169817A81C5
:101E2000C8010E94300E02C00E94B20DC8010F907E
:101E30000F90DF91CF911F910F910895FC011182B6
:101E4000108213821282158214820C94FD0EEF927E
:101E5000FF920F931F93CF93DF93FC012481358171
:101E60006115710511F480E019C041155105A9F003
:101E70007B01EC018A01020F131FB8010E94DE0DE5
:101E8000882389F3288139818C819D81B701820F54
:101E9000931F0E940D2E1D830C8381E0DF91CF9153
:101EA0001F910F91FF90EF900895FB0144815581A0
:101EB000608171810C94270F6115710551F0FB0150
:101EC00001900020E9F73197AF01461B570B0C94A6
:101ED000270F80E00895CF93DF9300D0CDB7DEB712
:101EE00069831A8241E050E0BE016F5F7F4F0E941C
:101EF000270F0F900F90DF91CF910895CF93DF932D
:101F0000EC01FB0144815581608171810E94270FA2
:101F1000811103C0CE010E94B20DCE01DF91CF919D
:101F20000895CF93DF93DC01ED91FC91EB01A88143
:101F3000B981309711F01097C9F4109759F0EB015F
:101F40002C813D81232B31F08C9190E091958195EE
:101F5000910914C0309781F0DC0114968D919C9109
:101F60001597892B49F0808190E008C0BD01CF0111
:101F7000DF91CF910C94042E80E090E0DF91CF911F
:101F80000895FC0144815581FB012481358142176C
:101F9000530729F40E94910F21E0892B09F020E0DA
:101FA000822F0895FC0124813581232B31F421E017
:101FB00061157105A1F0FB0108C0FC0180819181D0
:101FC0006115710531F421E0FC018081882339F02D
:101FD00005C00E94042E21E0892B09F020E0822F09
:101FE0000895FC01248135816217730748F48081CC
:101FF0009181009729F0FC01E60FF71F8081089579
:1020000080E00895CF93DF93FC012481358142174E
:10201000530778F4C081D181062E000C770BCE01D6
:10202000840F951F0E94F92D009719F08C1B9D0BB2
:1020300002C08FEF9FEFDF91CF91089540E050E015
:102040000C940210BF92CF92DF92EF92FF920F9307
:102050001F93CF93DF937C016B018A01E901241761
:10206000350720F4812F8901C42FD82F60E971E052
:10207000C7010E941B0ED60114968D919C91159755
:1020800008171907D0F48C179D0708F4EC01D60146
:10209000ED91FC911197EC0FFD1FB08010824D91D6
:1020A0005C91BA01600F711FC7010E94BA0ED60180
:1020B000ED91FC91EC0FFD1FB082C701DF91CF9134
:1020C0001F910F91FF90EF90DF90CF90BF900895F8
:1020D00006960E946B0F81E090E00895CF92DF9208
:1020E000EF92FF920F931F93CF93DF938A01EB013F
:1020F0007B01E40EF51E06966C01CE15DF0529F076
:102100006991C6010E946B0FF8CFC801DF91CF9192
:102110001F910F91FF90EF90DF90CF9008959B015A
:10212000BC016A5F7F4FC9010C9429069B01BC0169
:102130006E5F7F4FC9010C942906FC011382128245
:1021400021EA31E0318320832BEA31E03583248397
:1021500060E971E006960C941B0EFC0153834283E8
:10216000648315820895CF93DF93EC018A819B816C
:10217000009769F06F8161110E9439068C81882374
:1021800031F08A819B81DF91CF910C944006DF91E1
:10219000CF910895FC0181EB91E0918380831382BC
:1021A0001282148215821682178282E090E0918753
:1021B00080878AE090E0938782870895FC0166819A
:1021C000662351F0858191E0980F9583882321F053
:1021D000828193810C94390608950F931F93CF93B6
:1021E000DF9300D0CDB7DEB78C01FC0182819381F3
:1021F000892B71F0C80169837A830E94DE10F8018F
:102200004285538569817A81828193810E94E906A2
:10221000C8010F900F90DF91CF911F910F910895FA
:102220000F931F93CF93DF9300D000D0CDB7DEB7CD
:102230008C01FC0182819381892B91F0C801498333
:102240005A836B837C830E94DE10F80120853185E0
:1022500049815A816B817C81828193810E94E6074A
:10226000C8010F900F900F900F90DF91CF911F91A9
:102270000F910895CF92DF92EF92FF920F931F93E9
:10228000CF938C016B0162E2FC01828193810E94F9
:102290003906E12CF12CF60184819581E816F906C6
:1022A00008F056C0B701C6010E94F10FC82F803256
:1022B00068F0873259F0823249F0B701C6010E94B6
:1022C000F10F682FF801828193811DC06CE5F80140
:1022D000828193810E943906F80182819381C23202
:1022E000A9F040F4CA30B1F0CD30B1F0C930B1F44A
:1022F00064E709C0C03331F0CC3551F0C73271F416
:1023000067E201C060E30E9439061EC062E2FBCFB3
:102310006CE5F9CF6EE6F7CF62E7F5CF68E70E948C
:10232000390640E150E060E070E0F801828193817D
:102330000E94E906CF706C2F70E040E150E0F80198
:10234000828193810E94E906FFEFEF1AFF0AA3CF73
:1023500062E2F80182819381CF911F910F91FF90EA
:10236000EF90DF90CF900C9439060F931F93CF938B
:10237000DF93CDB7DEB728970FB6F894DEBF0FBE58
:10238000CDBF8C01FC0182819381892BF9F0C801BA
:102390006F8378870E94DE10F80186816F817885CF
:1023A000882379F0CE0101960E941B0EBE016F5F5B
:1023B0007F4FC8010E943A11CE0101960E94AD0DD7
:1023C00005C0F801828193810E943706C8012896D2
:1023D0000FB6F894DEBF0FBECDBFDF91CF911F9136
:1023E0000F9108950F931F93CF93DF9300D0CDB734
:1023F000DEB78C01FC0182819381892BA1F0C80199
:1024000069837A830E94DE10F801868169817A816E
:10241000882321F0C8010E943A1105C0F801828189
:1024200093810E942906C8010F900F90DF91CF91F0
:102430001F910F9108950895FC017383628308959D
:10244000FC0189EB91E091838083138212821482D4
:102450008AE0858308950F931F93CF93DF931F9294
:10246000CDB7DEB7FC0122813381232BD9F08C015B
:10247000198241E050E0BE016F5F7F4FF801828119
:1024800093810E94351E892B49F09981F80184813E
:10249000981721F081E02581921301C080E08983A3
:1024A0008111E7CF0F90DF91CF911F910F91089588
:1024B0000F931F93CF93DF93EC018B018A819B8154
:1024C000009749F0DC01ED91FC910480F581E02D4D
:1024D0000995892B21F4F801118210820DC041E089
:1024E00062E070E08A819B810E94BC1DD8016D93DF
:1024F0007C93CE010E942B12CE01DF91CF911F91D0
:102500000F9108958F929F92AF92BF92CF92DF92D8
:10251000EF92FF920F931F93CF93DF93CDB7DEB768
:1025200060970FB6F894DEBF0FBECDBF8C016A0175
:102530007B01CB01BA010E948514982E892EC70118
:10254000B6010E948B14B82EA92EC701B6010E94B5
:1025500091148F929F92AF92BF929F938F938DEB26
:1025600091E09F938F93CE0101967C019F938F936F
:102570000E94442EB701C8010E941B0E0FB6F894AA
:10258000DEBF0FBECDBFC80160960FB6F894DEBFA8
:102590000FBECDBFDF91CF911F910F91FF90EF90B4
:1025A000DF90CF90BF90AF909F908F9008958F92C3
:1025B0009F92AF92BF92CF92DF92EF92FF920F93D2
:1025C0001F93CF93DF93CDB7DEB760970FB6F89424
:1025D000DEBF0FBECDBF8C016A017B01CB01BA010A
:1025E0000E947F14982E892EC701B6010E9479148B
:1025F000B82EA92EC701B6010E9473148F929F9224
:10260000AF92BF929F938F938CEC91E09F938F93A7
:10261000CE0101967C019F938F930E94442EB701B7
:10262000C8010E941B0E0FB6F894DEBF0FBECDBFCF
:10263000C80160960FB6F894DEBF0FBECDBFDF9124
:10264000CF911F910F91FF90EF90DF90CF90BF90AF
:10265000AF909F908F900895CF92DF92EF92FF926C
:102660000F931F93CF93DF9300D000D000D0CDB74E
:10267000DEB78C016A017B01FC0182819381892B89
:1026800069F1C8010E94DE10B701A601CE010196D2
:102690000E948212BE016F5F7F4FF8018281938199
:1026A0000E942906CE0101960E94AD0D60E2F8015C
:1026B000828193810E943906B701A601CE0101965D
:1026C0000E94D712BE016F5F7F4FF8018281938114
:1026D0000E942906CE0101960E94AD0DC8012696E2
:1026E0000FB6F894DEBF0FBECDBFDF91CF911F9123
:1026F0000F91FF90EF90DF90CF9008956F927F92AF
:102700008F929F92AF92BF92CF92DF92EF92FF9201
:102710000F931F93CF93DF93EA012CE3C22ED12CAA
:10272000E12CF12CA70196010E94782A6883CA0146
:10273000B901A70196010E94782A6983CA01B901EB
:1027400028E130E040E050E00E94782A69017A01F7
:102750006A83CA01B9016C5F7F4F8F4F9F4F27E09B
:1027600030E040E050E00E94782A6F5F6B83812C5C
:10277000912C540140E034E6632E712C00E911E005
:10278000242F30E02E54384FF901E370FF273097A3
:1027900089F4C901B3010E94642A892B31F4C9016B
:1027A000B8010E94642A892B29F48EE691E0A0E00A
:1027B000B0E004C08DE691E0A0E0B0E0880E991E84
:1027C000AA1EBB1ED501C401AA27BB27C816D9065D
:1027D000EA06FB0610F04F5FD3CF4E83309799F493
:1027E000C90164E670E00E94642A892B39F4C901AA
:1027F00060E971E00E94642A892B29F48EE691E059
:10280000A0E0B0E004C08DE691E0A0E0B0E0881A5E
:10281000990AAA0ABB0AC818D908EA08FB08C9011C
:1028200064E670E00E94642A8C01C90160E971E0ED
:102830000E94642AABEDB1E020E0213041F43097F2
:1028400051F40115110529F4009729F402C04C91A7
:1028500003C04DE101C04CE150E060E070E0C416FF
:10286000D506E606F70640F0C41AD50AE60AF70AC6
:102870002F5F11962C3009F72F5F2D83C394CC82E4
:10288000DF91CF911F910F91FF90EF90DF90CF904C
:10289000BF90AF909F908F907F906F900895CF9250
:1028A000DF92EF92FF92C0901E01D0901F01E09046
:1028B0002001F09021016C157D058E059F0571F0BA
:1028C0006B017C0148E753E00E947E13C0921E0119
:1028D000D0921F01E0922001F0922101FF90EF9031
:1028E000DF90CF9008950E944F1480917A0390E07A
:1028F00008950E944F148091790390E008950E94FA
:102900004F148091780390E008950E944F148091B5
:102910007C0390E008950E944F1480917D0390E025
:1029200008950E944F1480917E0390E08E54984F3A
:1029300008950F931F9360937403709375038093AE
:1029400076039093770300911A0110911B01209157
:102950001C0130911D01DC01CB01800F911FA21FD2
:10296000B31F80936C0390936D03A0936E03B09399
:102970006F0382E090E090936B0380936A030E9460
:102980007C0C609370037093710380937203909337
:1029900073031F910F910895CF92DF92EF92FF92F0
:1029A0000F931F930E947C0CC0907003D090710312
:1029B000E0907203F09073038B019C010C191D09C8
:1029C0002E093F098091740390917503A0917603BD
:1029D000B0917703083E134021053105D0F00196F0
:1029E000A11DB11D8093740390937503A09376038A
:1029F000B0937703B701A60148515C4F6F4F7F4FEB
:102A00004093700350937103609372037093730348
:102A1000C9CF40916C0350916D0360916E0370912A
:102A20006F0384179507A607B707C8F1E0916803FD
:102A3000F0916903309799F1099561157105810548
:102A4000910519F00E9499142AC040911A015091E1
:102A50001B0160911C0170911D0180917403909184
:102A60007503A0917603B0917703840F951FA61F7D
:102A7000B71F80936C0390936D03A0936E03B09384
:102A80006F0381E090E020916A0330916B03232B68
:102A900011F480E090E090936B0380936A0360915F
:102AA00074037091750380917603909177031F9161
:102AB0000F91FF90EF90DF90CF9008950E94CC147B
:102AC00080916A0390916B030895EFEFF0E083E04B
:102AD0008083608381E090E0089583E893E00E9422
:102AE000CA10EFE7F3E0138212828BEE91E091833C
:102AF00080830895CF92DF92EF92FF920F931F93FE
:102B0000CF93DF9300D000D000D0CDB7DEB76C01FB
:102B10007B018A0160E070E0CA010E94F10F8F32F0
:102B200079F0B7016F5F7F4FCE0101960E94A50E2D
:102B3000B801CE0101960E947E0F682F11E003C0FC
:102B4000602F912F10E0792FC6010E94A50E11234E
:102B500021F0CE0101960E94AD0DC60126960FB65A
:102B6000F894DEBF0FBECDBFDF91CF911F910F91C3
:102B7000FF90EF90DF90CF9008950F931F93CF9326
:102B8000DF93EC018C010F5F1F4F60E971E0C8011A
:102B90000E941B0ECE0107960E942012CE010D96B8
:102BA0000E94CA10CE0149960E94CA1067EA71E0DD
:102BB000C8010E94FD0E8CE28B878B8BDF91CF9139
:102BC0001F910F91089526E040E950ED63E070E019
:102BD00080915F04909160040E94171C86E594E048
:102BE0000E944A2188E794E00C94D925DF92EF9265
:102BF000FF920F931F93CF93DF9300D000D000D0AC
:102C0000CDB7DEB7D42EAB01BC01CE0101960E9438
:102C10007A15E980FA808AE590E00E947D1C8C019B
:102C200026E534E04D2DB7010E947A24CE010196AD
:102C30000E94AD0DC8010E94172581110CC001151D
:102C4000110561F0C8010E94C825C8010E94811CBD
:102C500000E010E003C02DEA31E002C020E030E0E7
:102C6000B901C80126960FB6F894DEBF0FBECDBFDE
:102C7000DF91CF911F910F91FF90EF90DF9008951A
:102C8000CF93DF93FB01808191818D5A9140A1F414
:102C9000FB01C281D3811182108213821282CE0184
:102CA0000E949525209741F0CE010E94C825CE01B3
:102CB000DF91CF910C94811CDF91CF9108950F93F8
:102CC00000E020E040E060E084EB93E00E946705D4
:102CD0008FE893E00F910C94BD1580E993E00C947C
:102CE000AD0DFB01208131812D5A314021F4FB01D2
:102CF0004281538102C040E050E061E049960C946B
:102D0000AD10CF93DF93EC010E945D051986188604
:102D100088EE93E0A0E0B0E08A879B87AC87BD8710
:102D200082E892E09F838E8386E594E09B8B8A8B7A
:102D30001F8A188E198E60E971E0CE01865A9F4F66
:102D40000E941B0ECE01805A9F4F0E942012CE017E
:102D50008A599F4F0E94CA10CE018E589F4F0E94E1
:102D6000CA10FE01E459FF4F8CE2808338978083BC
:102D7000CB59DF4F8AE28883DF91CF910895EF929C
:102D8000FF920F931F93CF93DF9300D000D000D01A
:102D9000CDB7DEB78C017B0126E040E950ED63E062
:102DA00070E080915F04909160040E94171C86E59A
:102DB00094E00E944A2181E694E00E94F62369E1B2
:102DC00072E081E694E00E9444060A5F1F4F62E1D0
:102DD00072E0CE0101960E941E0FBE016F5F7F4F11
:102DE000C8010E947627CE0101960E94AD0D6FE0CA
:102DF00072E0CE0101960E941E0FBE016F5F7F4FF1
:102E0000C8010E94A926CE0101960E94AD0D60E086
:102E100072E0CE0101960E941E0FBE016F5F7F4FD0
:102E2000C8010E94A926CE0101960E94AD0D4AE07C
:102E3000B701CE0101960E94D10EBE016F5F7F4F98
:102E4000C8010E94A926CE0101960E94AD0DC801BD
:102E50000E94BE2668EB7BE080E090E00E94AD0C13
:102E6000C8010E941D27882309F4B1CF61EF71E0EA
:102E700081E694E00E94440626960FB6F894DEBFE1
:102E80000FBECDBFDF91CF911F910F91FF90EF90BB
:102E90000895E091BA03F091BB03309741F4909309
:102EA000BB038093BA03FC01118610860895208528
:102EB00031852115310511F0F901F9CF918780870E
:102EC000089520E032E0FC01318320837383628324
:102ED00015821482178216820C9449170F931F9340
:102EE000CF93DF938C01C091BA03D091BB0320979D
:102EF00059F0E881F9810190F081E02DCE0109952A
:102F00000884D985C02DF3CF8091BE039091BF0373
:102F1000892B81F060E070E0C801865A9F4F0E94C3
:102F2000BA0EE091BE03F091BF03DF91CF911F91E4
:102F30000F910994DF91CF911F910F9108950F93F5
:102F400000E020E040E060E08EE394E00E9467054E
:102F500080EC93E00F910C9481168AE194E00E943A
:102F6000AD0D86EC93E00C946F27AF92BF92CF9299
:102F7000DF92EF92FF920F931F93CF93DF93CDB722
:102F8000DEB72C970FB6F894DEBF0FBECDBF7C0125
:102F90005C0126E0A20EB11C4DE3B501CE010796FF
:102FA0000E945B1E6EE2CE0107960E941E10D701A2
:102FB000A65ABF4F6D018F3FBFEF9B07A9F09C0141
:102FC00040E050E0BE01695F7F4FCE0101960E9454
:102FD0002210BE016F5F7F4FC6010E94AE0ECE0170
:102FE00001960E94AD0D06C0BE01695F7F4FC6010C
:102FF0000E948E0E0091BA031091BB03E0E6EE0E24
:10300000F11C0115110519F1D80112966D917C91F1
:103010001397C6010E94D20F8823A9F0B501C701FA
:103020000E941C12D801ED91FC910280F381E02DE9
:10303000B701C8010995D8011696ED91FC91179733
:10304000309709F00995F80100851185DACFE091F4
:10305000BC03F091BD03309709F0099560E070E082
:10306000C6010E94BA0ECE0107960E94AD0D2C96A5
:103070000FB6F894DEBF0FBECDBFDF91CF911F9189
:103080000F91FF90EF90DF90CF90BF90AF90089599
:103090008F929F92AF92BF92DF92EF92FF920F9327
:1030A0001F93CF93DF93CDB7DEB763970FB6F89436
:1030B000DEBF0FBECDBF7C018C010A5F1F4F8AE0CF
:1030C000D82EC8010E947426181619060CF09EC04E
:1030D0004AE3B801CE010D960E945B1E60E971E0E3
:1030E000CE0107960E941B0E62ED71E0CE010196A3
:1030F0000E941E0FBE016F5F7F4FCE010D960E9492
:10310000C10FB82ECE0101960E94AD0DBB2021F05B
:10311000C7010E946E1768C06CEC71E0CE01019689
:103120000E941E0FBE016F5F7F4FCE010D960E9461
:10313000C10FB82ECE0101960E94AD0DBB2021F02B
:10314000C7010E94B51750C064EC71E0CE01019632
:103150000E941E0FBE016F5F7F4FCE010D960E9431
:10316000C10FB82ECE0101960E94AD0DBB2081F09B
:103170004AE2B801CE0101960E945B1E69817A8104
:10318000C7010E947305CE0101960E94AD0D2CC0AF
:103190006FEB71E0CE0101960E941E0FBE016F5FC2
:1031A0007F4FCE010D960E94C10FB82ECE01019621
:1031B0000E94AD0DBB20C1F04AE2B801CE010196DC
:1031C0000E945B1E4AE050E060E070E089819A81D5
:1031D0000E94C52C4B015C01CE0101960E94AD0DF1
:1031E000C501B4010E949914DB8A41E050E0BE01A0
:1031F0006D5E7F4FC8010E94451FCE0107960E9459
:10320000AD0DCE010D960E94AD0D5BCF63960FB64E
:10321000F894DEBF0FBECDBFDF91CF911F910F910C
:10322000FF90EF90DF90BF90AF909F908F900895A8
:10323000CF92DF92EF92FF92CF93DF93EC016A017E
:103240007B010E947C0CC60ED71EE81EF91E0E9450
:103250007C0CA7019601261B370B480B590B57FD19
:103260000AC0CE010E94481861E070E080E090E062
:103270000E94AD0CECCFDF91CF91FF90EF90DF90EB
:10328000CF900895CF93DF93EC010E945E150297D3
:1032900041F048EE53E060E070E0CE010E94181962
:1032A000F4CFDF91CF910895EF92FF920F931F9388
:1032B000CF93DF938C017A01EC012696CE010E9418
:1032C00029066EE2CE010E943906B701CE010E94A6
:1032D00029066FEE71E0CE010E943706F801E3592E
:1032E000FF4F89E28083AE0161E0C8018A599F4F98
:1032F000DF91CF911F910F91FF90EF900C94AD1043
:10330000EF92FF920F931F93CF93DF93CDB7DEB76A
:103310002C970FB6F894DEBF0FBECDBF8C017B019A
:10332000BA01CE0107960E941E0FB701CE01019689
:103330000E941B0EAE01495F5F4FBE016F5F7F4F62
:10334000C8010E9454198C01CE0101960E94AD0D56
:10335000CE0107960E94AD0DC8012C960FB6F894C9
:10336000DEBF0FBECDBFDF91CF911F910F91FF90B8
:10337000EF900895EF92FF920F931F93CF93DF93F7
:103380008C017A01EC012696CE010E9429066EE29C
:10339000CE010E943906B701CE010E94290665E4DC
:1033A00072E0CE010E943706F801E359FF4F108208
:1033B000AE0161E0C8018A599F4FDF91CF911F9103
:1033C0000F91FF90EF900C94AD10EF92FF920F933E
:1033D0001F93CF93DF93CDB7DEB72C970FB6F8943A
:1033E000DEBF0FBECDBF8C017B01BA01CE010796B7
:1033F0000E941E0FB701CE0101960E941B0EAE0166
:10340000495F5F4FBE016F5F7F4FC8010E94BA19CD
:103410008C01CE0101960E94AD0DCE0107960E944F
:10342000AD0DC8012C960FB6F894DEBF0FBECDBF10
:10343000DF91CF911F910F91FF90EF900895CF935F
:10344000DF93EB01411103C04FED51E002C044EEA8
:1034500051E061EF71E00E94E519BE010E94B511D3
:10346000DC01ED91FC910280F381E02DDF91CF91A1
:103470000994CF92DF92EF92FF920F931F93CF9315
:10348000DF9300D000D0CDB7DEB78C016C0126E110
:10349000C20ED11C60E070E0C6010E94D20FD801BC
:1034A00093967D01811123C042E0B6018FE893E03D
:1034B0000E94F61569837A838B839C83BE016F5FBC
:1034C0007F4F8FE893E00E947116B7010E94F211BE
:1034D000DC01ED91FC910280F381E02D0995BE01A4
:1034E0006F5F7F4F8FE893E00E9440160FC0F80196
:1034F000848D81110BC06281738141E080EC93E087
:103500000E941F1A81E0D8015C968C93F8016281B9
:10351000738144E352E080EC93E00E948019B7018C
:103520000E94F211DC01ED91FC910280F381E02D0B
:10353000099560E070E0C7010E94BA0E0F900F90ED
:103540000F900F90DF91CF911F910F91FF90EF900F
:10355000DF90CF9008950A970C94391ACF93DF9398
:10356000EC010E946117CE010A960E94CA1088E001
:1035700092E09983888382E192E09B878A8760E961
:1035800071E0CE0146960E941B0ECE014D960E9420
:103590009D108CE2888B1C8EDF91CF9108952F9225
:1035A0003F924F925F926F927F928F929F92AF92D3
:1035B000BF92DF92EF92FF920F931F93CF93DF930F
:1035C000CDB7DEB72C970FB6F894DEBF0FBECDBFD8
:1035D0003C01D62E19012A016EE472E0CE01079655
:1035E0000E941E0FD30112966D917C911397CE010C
:1035F00001960E941B0EAE01495F5F4FBE016F5FD7
:103600007F4F80EC93E00E94BA196D2D70E00E940C
:10361000ED10B201A1010E941011B801A7010E9492
:103620001011DC01ED91FC910280F381E02D0995F0
:10363000CE0101960E94AD0DCE0107960E94AD0D00
:103640002C960FB6F894DEBF0FBECDBFDF91CF91A1
:103650001F910F91FF90EF90DF90BF90AF909F90E0
:103660008F907F906F905F904F903F902F90089534
:10367000DC011A96ED91FC911B97AC01435E5F4F04
:103680000190F081E02D60E00A9609940F9300E02C
:1036900020E040E060E084E494E00E9467050F9140
:1036A0000895FC01918D228D892F90E0805C9F4FC1
:1036B000821B91098F7399270895FC01918D828D4A
:1036C000981731F0828DE80FF11D858D90E00895F7
:1036D0008FEF9FEF0895FC01918D828D981761F017
:1036E000828DDF01A80FB11D5D968C91928D9F5F39
:1036F0009F73928F90E008958FEF9FEF089581EF71
:1037000097E2892B49F080E090E0892B29F00E9414
:10371000F12781110C9400000895FC01848DDF01D4
:10372000A80FB11DA35ABF4F2C91848D90E0019634
:103730008F739927848FA689B7892C93A089B18923
:103740008C9180648C93938D848D981306C002882D
:10375000F389E02D80818F7D80830895CF93DF935F
:10376000EC01888D8823C9F0EA89FB89808185FD79
:1037700005C0A889B9898C9186FD0FC00FB607FCDA
:10378000F5CF808185FFF2CFA889B9898C9185FF1B
:10379000EDCFCE010E948D1BE7CFDF91CF91089531
:1037A000EF92FF920F931F93CF93DF93EC0181E091
:1037B000888F9B8D8C8D981305C0E889F98980814D
:1037C00085FD24C0F62E0B8D10E00F5F1F4F0F7389
:1037D0001127E02E8C8DE8120CC00FB607FCFACF33
:1037E000E889F989808185FFF5CFCE010E948D1B84
:1037F000F1CF8B8DFE01E80FF11DE35AFF4FF082F0
:103800000B8FEA89FB898081806207C0EE89FF897E
:103810006083E889F98980818064808381E090E019
:10382000DF91CF911F910F91FF90EF900895CF926C
:10383000DF92EF92FF921F93CF93DF93EC016A0127
:103840007B01122FE889F98982E080834115514E6E
:1038500061057105B1F060E079E08DE390E0A701CA
:1038600096010E94782ADA01C9010197A109B109DC
:10387000B695A79597958795AC01411580E15807B6
:10388000A8F0E889F989108260E874E88EE190E098
:10389000A70196010E94782ABA01A9014150510955
:1038A000610971097695679557954795EC85FD8572
:1038B0005083EE85FF854083188EEC89FD89108347
:1038C000EA89FB89808180618083EA89FB89808124
:1038D00088608083EA89FB89808180688083EA89A7
:1038E000FB8980818F7D8083DF91CF911F91FF9035
:1038F000EF90DF90CF90089508950C94CE2A0C9409
:10390000CE2A0C94632B0C94632BEF92FF920F93AF
:103910001F93CF93DF937B01FC01C281D38100E031
:1039200010E0209781F0E881F9810280F381E02D99
:10393000B701CE01099597FD08C0080F191F08842B
:10394000D985C02DEECFC80102C08FEF9FEFDF9168
:10395000CF911F910F91FF90EF9008950F931F93B8
:10396000CF93DF938B01FC01C281D381209771F04B
:10397000E881F9810480F581E02DB801CE01099537
:10398000009731F40884D985C02DF0CF80E090E015
:10399000DF91CF911F910F9108950F931F93CF93B4
:1039A000DF938B01FC01C281D381209771F0E88104
:1039B000F9810680F781E02DB801CE010995080F45
:1039C000111D0884D985C02DF0CFF8011082DF9138
:1039D000CF911F910F9108950F931F93CF93DF9372
:1039E0008B01FC01C281D381209771F0E881F981BC
:1039F0000190F081E02DB801CE010995811105C03B
:103A00000884D985C02DF0CF80E0DF91CF911F9140
:103A10000F91089580914E0481110DC082E0809332
:103A20004A0484E080934B0410924D0410924C049D
:103A300081E080934E048AE494E008950F931F93ED
:103A4000CF93DF93EC010E947C0C688779878A878B
:103A50009B87E881F9810680F781E02DCE010995E9
:103A600097FF17C00E947C0C088519852A853B8525
:103A7000DC01CB01801B910BA20BB30B0C811D81D0
:103A80002E813F8180179107A207B30710F38FEFB4
:103A90009FEFDF91CF911F910F9108950F931F9387
:103AA000CF93DF93EC010E947C0C688779878A872B
:103AB0009B87E881F9810084F185E02DCE0109958D
:103AC00097FF17C00E947C0C088519852A853B85C5
:103AD000DC01CB01801B910BA20BB30B0C811D8170
:103AE0002E813F8180179107A207B30710F38FEF54
:103AF0009FEFDF91CF911F910F910895FF920F9348
:103B00001F93CF93DF93EC018B01F42ECE010E9423
:103B10004E1D9C0197FD0BC08D32910541F0C09761
:103B20000A9728F0FF2029F02E32310511F4C9013F
:103B30001DC001301105C1F00230110569F42D30AE
:103B4000310551F034F4295031092230310520F08B
:103B50000BC02032310541F4E881F9810680F781FC
:103B6000E02DCE010995D2CF8FEF9FEFDF91CF915E
:103B70001F910F91FF9008958F929F92AF92BF92E5
:103B8000CF92DF92FF920F931F93CF93DF9300D0DA
:103B900000D0CDB7DEB78C01B42E40E00E947E1D70
:103BA000FC0197FD4CC020E030E0A901F12CCB2CAA
:103BB000BB0CDD08EC15FD05F1F0ED32F105C9F0A7
:103BC000CF01C0970A97B8F4AAE0B0E00E94AF2AEC
:103BD0004F01FF0FAA08BB08DC01CB01880D991D1E
:103BE000AA1DBB1D9C01AD0120533109410951099A
:103BF00002C0FF24F394D801ED91FC910680F78177
:103C0000E02DC80129833A834B835C830995C80161
:103C10000E944E1DFC01C09729813A814B815C8135
:103C20000A9740F2EC15FD0529F2FF2061F06627A6
:103C30007727CB01621B730B840B950B06C060E0EA
:103C400070E0CB0102C0CA01B9010F900F900F9034
:103C50000F90DF91CF911F910F91FF90DF90CF9048
:103C6000BF90AF909F908F900895CF92DF92EF9288
:103C7000FF920F931F93CF93DF936C017A018B0117
:103C8000C0E0D0E0CE15DF0561F0C6010E941E1D28
:103C900097FF02C07E0105C0F80181938F01219634
:103CA000F1CFC701DF91CF911F910F91FF90EF905E
:103CB000DF90CF900895EF92FF920F931F93CF93D1
:103CC000DF93EC017B01042F60E971E00E941B0E81
:103CD000C7010E941E1D002E000C110B97FD0BC08A
:103CE0008017910741F0682FCE010E946B0FC7012A
:103CF0000E941E1DF3CFCE01DF91CF911F910F9136
:103D0000FF90EF9008954F925F926F927F928F9203
:103D10009F92AF92BF92CF92DF92EF92FF920F935A
:103D20001F93CF93DF938C01EB0186E0849F4001CA
:103D3000859F900C1124860E971EFB01E815F9054E
:103D400008F582819381892B21F13696F7CF608126
:103D5000718144815581DB01A40FB51F2C91022E86
:103D6000000C330B8217930711F54F5F5F4F55839C
:103D70004483228133814217530759F03696E81560
:103D8000F90528F3C8010E941E1D97FD46C0FE01DB
:103D9000F6CFEC1BFD0BF595E7952BEA3AEAE29F8F
:103DA000C001E39F900DF29F900D112438C0411582
:103DB000510521F3C480D580960121503109358306
:103DC0002483DB01A20FB31FAC910A2E000CBB0BA6
:103DD0008A179B07F9F421153105C9F05B017A01B7
:103DE000E21AF30AE60EF71E412C512CD5016D9014
:103DF0005D01D7017D907D01671006C0BFEF4B1AB2
:103E00005B0A4216530690F34216530699F6D58282
:103E1000C482B4CF232B71F6B1CF8FEF9FEFDF9128
:103E2000CF911F910F91FF90EF90DF90CF90BF90B7
:103E3000AF909F908F907F906F905F904F9008957C
:103E4000CF93DF9300D000D000D0CDB7DEB7FE0116
:103E5000319626E0DF011D922A95E9F77A8369837E
:103E60005C834B8341E050E0BF010E94831E21E050
:103E7000892B09F020E0822F26960FB6F894DEBF3A
:103E80000FBECDBFDF91CF9108950C94201FFC0190
:103E9000238134812627022E2295207F2025032E80
:103EA000322F22952F700226269532272327220FA4
:103EB000220F220F2025348323830895CF93DF938D
:103EC000EC018D819E81DC01ED91FC916C81019072
:103ED000F081E02D09958D819E81DC01ED91FC91B1
:103EE0000190F081E02D6B81DF91CF9109948F9249
:103EF0009F92AF92BF92CF92DF92EF92FF92CF93B9
:103F0000DF93EC016B010E947C0C4B015C01E12C06
:103F1000F12C8D819E81DC01ED91FC910680F78171
:103F2000E02D099597FF0FC00E947C0CDC01CB01AE
:103F300088199909AA09BB098C159D05AE05BF050D
:103F400040F38FEF9FEFDF91CF91FF90EF90DF90E5
:103F5000CF90BF90AF909F908F900895CF93DF93B5
:103F6000EC018D819E81DC01ED91FC910480F58155
:103F7000E02D09951816190654F48D819E81DC01F7
:103F8000ED91FC910680F781E02D0995EACFDF9154
:103F9000CF9108952F923F924F925F926F927F92AE
:103FA0008F929F92AF92BF92CF92DF92EF92FF9249
:103FB0000F931F93CF93DF93CDB7DEB72D970FB637
:103FC000F894DEBF0FBECDBF3C012B013C832B8399
:103FD000BF82AE82C8018C0D9D1D1C01240E351EB2
:103FE0003D82A32CB12CCB01840F951F9987888724
:103FF000D901A00FB11FBB87AA87F701EC0DFD1DEA
:10400000FD87EC87F3018085B81608F028C1EFEF33
:10401000FFEFD3011496FC93EE93139715968D91B1
:104020009C911697DC01ED91FC910190F081E02DBF
:104030006FEF09956FEFC3010E94471FF301858160
:104040009681DC01ED91FC910190F081E02DD3018E
:104050006C910995F3016081C3010E94471FD30150
:1040600015968D919C911697DC01ED91FC91019034
:10407000F081E02D6D8109956A2DC3010E94471FD3
:10408000F30185819681DC01ED91FC910190F08135
:10409000E02D622D0995622DC3010E94471F620128
:1040A00088859985C816D906A1F0F3018581968186
:1040B0008601DC01ED91FC910190F081E02DD601AB
:1040C0006D916D010995F8016081C3010E94471F40
:1040D000E7CFCB80DC808A859B85C816D906B1F0F6
:1040E000D30115968D919C9116978601DC01ED9177
:1040F000FC910190F081E02DD6016D916D01099543
:10410000F8016081C3010E94471FE5CF67018C85DC
:104110009D85C816D906B1F0D30115968D919C9155
:1041200016978601DC01ED91FC910190F081E02D64
:10413000D6016D916D010995F8016081C3010E945E
:10414000471FE5CFC3010E945E1F64E670E0C30114
:104150000E94771F8F3F910509F076C0EFEFFFEFC8
:10416000D3011496FC93EE9313976FEFC3010E9453
:10417000471F65E070E0C3010E94771FD3016C9177
:10418000262F30E08217930709F05EC0C3010E941A
:10419000471F6AE070E0C3010E94771F6C0197FD22
:1041A00053C0682FC3010E94471F6AE070E0C3013B
:1041B0000E94771F8C0197FD47C0682FC3010E94A2
:1041C000471FCA821982E981FA810E0F1F1FC12C75
:1041D000D12C65E070E0C301C016D106A1F0C8146F
:1041E000D90489F00E94771F97FD09C0EE81FF81F5
:1041F000EC0DFD1D8083682FC3010E94471FFFEF58
:10420000CF1ADF0AE6CF0E94771F6C0197FD1CC012
:1042100065E070E0C3010E94771F97FD15C0DC2C9C
:10422000CC248C0D9D1DD30113962D913C91149798
:104230002817390749F48C918F5F8C93C801801639
:10424000910678F4C4010DC0B39464E670E080E098
:1042500090E00E94AD0CC3010E94AE1FD3CE8FEF41
:104260009FEF2D960FB6F894DEBF0FBECDBFDF9146
:10427000CF911F910F91FF90EF90DF90CF90BF9063
:10428000AF909F908F907F906F905F904F903F90F6
:104290002F9008953F924F925F926F927F928F92EC
:1042A0009F92AF92BF92CF92DF92EF92FF920F93C5
:1042B0001F93CF93DF93CDB7DEB72E970FB6F89449
:1042C000DEBF0FBECDBFDC0117962C9117972111D1
:1042D000D2C03C0181E0FD018783C3010E94AE1F73
:1042E00068EE73E080E090E00E94AD0CD30115967B
:1042F0008D919C911697DC01ED91FC910480F581E4
:10430000E02D09951816190644F395E0592E44241A
:10431000439422E3322EE2E2F1E0DE011696852D8F
:1043200001900D928A95E1F7F3014086812C912C42
:10433000A12CB12CC12CD12CE12CF12C00E010E0EF
:1043400020E030E045E050E0BE016A5F7F4FC301EE
:104350000E94CA1F63E0D30115968D919C91169718
:104360000E9439066AEF70E080E090E00E94AD0C98
:1043700061E772E0F301858196810E9405066AEF8C
:1043800070E080E090E00E94AD0C6FE672E0D30137
:1043900015968D919C9116970E94050664EF71E029
:1043A00080E090E00E94AD0C63E672E0F30185814D
:1043B00096810E94050664EF71E080E090E00E9423
:1043C000AD0CC3010E94AE1FE7E2F1E0DE011196E1
:1043D000852D01900D928A95E1F7D30118963C92B4
:1043E00084E0882E912CFE013B965F0120E030E0B6
:1043F00045E050E0BE016F5F7F4FC3010E94CA1FBE
:104400008F3FFFEF9F0739F468EE73E080E090E0A4
:104410000E94AD0C80CF2B852111FFCF049711F5A1
:104420002C8530E02053310984E6829FA001839FD0
:10443000500D11242D8530E0205331096AE0629F30
:10444000C001639F900D1124840F951F2E8530E0CD
:1044500020533109820F931FD30112969C938E93A0
:10446000119705C084E690E0F3019283818382E393
:10447000D30118968C932E960FB6F894DEBF0FBE1C
:10448000CDBFDF91CF911F910F91FF90EF90DF9003
:10449000CF90BF90AF909F908F907F906F905F90E4
:1044A0004F903F900895E6E5F4E010828AE794E0AB
:1044B00096838583178210869287818708954F920D
:1044C0005F926F927F928F929F92AF92BF92CF92A4
:1044D000DF92EF92FF920F931F93CF93DF931F9280
:1044E000CDB7DEB73C019B012A01DC0152968C91CD
:1044F000811105C08B017B01E40EF51E35C080E5FE
:104500008983812C912CA12CB12CC12CD12CE12C94
:10451000F12C8A0141E050E0BE016F5F7F4FF30153
:10452000848595850E94CA1F22C0D3015596ED91BE
:10453000FC91569753968C91539791E0980F539610
:104540009C93D8019D918D01E80FF11D9083F3019B
:1045500093898489981308C00190F081E02D02842A
:10456000F385E02DC30109950E151F05F1F6C20173
:104570000F90DF91CF911F910F91FF90EF90DF90FF
:10458000CF90BF90AF909F908F907F906F905F90F3
:104590004F9008958F929F92AF92BF92CF92DF92E9
:1045A000EF92FF920F931F9348015901C12CD12C18
:1045B000E12CF12C00E010E020E030E00E94CA1F66
:1045C0001F910F91FF90EF90DF90CF90BF90AF9031
:1045D0009F908F9008950F931F93CF93DF93FC01CB
:1045E000228921110FC0EC01438950E06589768949
:1045F00000E010E020E030E0848595850E94CA222A
:1046000081E08B8BDF91CF911F910F9108950F93D4
:104610001F93CF93DF9300D0CDB7DEB7DC01529666
:104620008C915297882399F080E589836A8300E012
:1046300010E020E030E042E050E0BE016F5F7F4FCD
:104640001C968D919C911D970E94CA221FC0559661
:10465000ED91FC91569753968C91539791E0980F5A
:1046600053969C935397E80FF11D608353969C914A
:10467000539754968C915497981308C0ED91FC91E0
:1046800011970284F385E02DCD01099581E090E03A
:104690000F900F90DF91CF911F910F910895FC0122
:1046A0001382128288EE93E0A0E0B0E084839583C9
:1046B000A683B7838AE292E09183808386E594E0C3
:1046C0009587848716861786118A108A81E0828BE7
:1046D0000895CF93DF93FC012289211109C0EC01D9
:1046E00085899689009711F00E94831C81E08A8B4E
:1046F000DF91CF910895EF92FF920F931F93CF9385
:10470000DF9300D0CDB7DEB7FC012685211115C09F
:104710007C01178680E7898380E28A83208931893A
:1047200000E210E042E050E0BE016F5F7F4F848501
:1047300095850E94CA22F70186870F900F90DF911E
:10474000CF911F910F91FF90EF900895CF93DF933A
:10475000EC010E947B238E8590E0DF91CF9108953C
:10476000CF93DF93EC010E947B238E85882369F031
:1047700081508E87E889F9898F8591E0980F9F870E
:10478000E80FF11D808190E002C08FEF9FEFDF9175
:10479000CF910895CF93DF93EC010E947B238E8508
:1047A000882341F08F85E889F989E80FF11D808120
:1047B00090E002C08FEF9FEFDF91CF910895CF93EC
:1047C000DF93EC010E94692388899989009721F081
:1047D0000E94831C198A188ADF91CF9108952AE2DA
:1047E00032E0FC01318320830C94DF23CF93DF93ED
:1047F000EC018C859D850E944A21CE010E94DF2319
:1048000080E290E00E947F1C998B888BDF91CF9192
:10481000089581E694E00C944F2381E694E00C9493
:10482000EF23CF93DF931F92CDB7DEB76983DC010F
:10483000ED91FC910280F381E02D41E050E0BE015A
:104840006F5F7F4F09950F90DF91CF910895089585
:104850006F927F928F929F92AF92BF92CF92DF9290
:10486000EF92FF920F931F93CF93DF9300D01F928D
:10487000CDB7DEB7FC01E85AFF4F20812F3F31F161
:104880003A019B0147E64983319640814A83399733
:1048900088248394912CCE0103965C01C12CD12CE9
:1048A000E12CF12C830142E050E0BE016F5F7F4FAD
:1048B000808191810E94CA1F8B81882329F090E01A
:1048C00091958195910904C0C30102C08FEF9FEFBC
:1048D0000F900F900F90DF91CF911F910F91FF904C
:1048E000EF90DF90CF90BF90AF909F908F907F9090
:1048F0006F9008952F923F924F925F926F927F92A6
:104900008F929F92AF92BF92CF92DF92EF92FF92DF
:104910000F931F93CF93DF93CDB7DEB728970FB6D2
:10492000F894DEBF0FBECDBF3C018B01FC011382AA
:10493000128288EE93E0A0E0B0E084839583A683A2
:10494000B78384E692E0918380831301F0E52F0E14
:10495000311CF101318320837301F2E5EF0EF11C6C
:1049600060E971E0C70148870E941B0E230188E5BA
:10497000480E511C4885F2014083B801C7010E94CE
:10498000BA0E82E7898387E78A8381E68B8386E490
:104990008E83F2018081FE01E80FF11D81818F83FA
:1049A00081E090E0F30197878687EA5AFF4F008104
:1049B0001181F7012081318182E0882E912CCE0176
:1049C00004965C01C12CD12CE12CF12C42E050E08A
:1049D000BE016A5F7F4FF101808191810E94CA1FF1
:1049E0008C81882321F08FEFF201808307C0F301CF
:1049F000E75AFF4F8D818083F301148628960FB606
:104A0000F894DEBF0FBECDBFDF91CF911F910F9104
:104A1000FF90EF90DF90CF90BF90AF909F908F90DE
:104A20007F906F905F904F903F902F900895FC0182
:104A3000E85AFF4F81E090819F3F09F480E008959C
:104A4000EF92FF920F931F93CF93DF9300D01F92AB
:104A5000CDB7DEB7FC012485211128C07C01158665
:104A600087E489838FE38B83E75AFF4F80818A83B2
:104A70009701205F3F4F399700E410E043E050E09A
:104A8000BE016F5F7F4F808191810E94CA229C018D
:104A9000215031092E3F3F4F18F0F701148606C010
:104AA000F70195859F5F9587815084870F900F90C0
:104AB0000F90DF91CF911F910F91FF90EF9008958C
:104AC000CF93DF93EC010E9420258C85882359F039
:104AD00081508C878D8591E0980F9D87C80FD11DDF
:104AE000888990E002C08FEF9FEFDF91CF9108950A
:104AF000CF93DF93EC010E9420258C85882331F031
:104B00008D85C80FD11D888990E002C08FEF9FEF7F
:104B1000DF91CF910895CF93DF93EC010E94202580
:104B20008C8590E0DF91CF910895EF92FF920F93E3
:104B30001F93CF93DF9300D01F92CDB7DEB77C01D8
:104B400028E5E20EF11CF70120812F3FB9F026E69F
:104B50002983319620812A83399701E010E09E0154
:104B60002D5F3F4F42E050E0BE016F5F7F4F80817D
:104B700091810E94CA228FEFF70180830F900F90DE
:104B80000F90DF91CF911F910F91FF90EF900895BB
:104B9000CF93DF93EC0184E692E099838883CE0182
:104BA0000E949525CE018E5A9F4FDF91CF910C9494
:104BB000AD0D81E0089586E594E0909379048093AB
:104BC0007804089508956F927F928F929F92AF928A
:104BD000BF92CF92DF92EF92FF920F931F93CF93EA
:104BE000DF9300D0CDB7DEB79B013A0149E449839A
:104BF000FC0146854A83812C912CA12CB12CC12C1F
:104C0000D12CE12CF12C830142E050E0BE016F5F1A
:104C10007F4F848595850E94CA1FC3010F900F9016
:104C2000DF91CF911F910F91FF90EF90DF90CF9088
:104C3000BF90AF909F908F907F906F9008950F934B
:104C40001F93CF93DF9300D01F92CDB7DEB729E437
:104C50002983FC0126852A836B8300E010E020E095
:104C600030E043E050E0BE016F5F7F4F8485958563
:104C70000E94CA2281E090E00F900F900F90DF9188
:104C8000CF911F910F910895EF92FF920F931F9371
:104C9000CF93DF9300D01F92CDB7DEB7FC012289FE
:104CA000211118C07C01138A8FE4898380E48B83EF
:104CB00086858A839F012C5E3F4F00E410E043E02D
:104CC00050E0BE016F5F7F4F848595850E94CA22A8
:104CD000F701828B0F900F900F90DF91CF911F9172
:104CE0000F91FF90EF900895CF93DF93EC010E9416
:104CF00044268A8990E0DF91CF910895CF93DF9386
:104D0000EC010E9444268A89882359F081508A8BBD
:104D10008B8991E0980F9B8BC80FD11D8C8990E0F7
:104D200002C08FEF9FEFDF91CF910895CF93DF9374
:104D3000EC010E9444268A89882331F08B89C80FB0
:104D4000D11D8C8990E002C08FEF9FEFDF91CF9152
:104D500008950F931F93CF93DF93EC018B0160E7CE
:104D600072E08F8598890E945C0FB8018F859889C1
:104D7000DF91CF911F910F910C94550F6F927F92FD
:104D80008F929F92AF92BF92CF92DF92EF92FF925B
:104D90000F931F93CF93DF9300D01F92CDB7DEB751
:104DA0003C0182E58B83D3011F96ED91FC915097D6
:104DB000048115812081318182E0882E912CFE01B1
:104DC00031965F01C12CD12CE12CF12C41E050E057
:104DD000BE016D5F7F4F1C968D919C911D970E9427
:104DE000CA1F8A81D3011E968C931E971F960D9120
:104DF0001C9150970115110531F0C8010E94AD0DAD
:104E0000C8010E94811CF301108A178689818111D3
:104E100002C081E0818B0F900F900F90DF91CF91B6
:104E20001F910F91FF90EF90DF90CF90BF90AF90C8
:104E30009F908F907F906F9008950F931F93CF93C3
:104E4000DF9300D01F92CDB7DEB722E72983FC01A4
:104E500026852A8301E010E09E012D5F3F4F42E04E
:104E600050E0BE016F5F7F4F848595850E94CA2206
:104E700081E09B81913009F080E00F900F900F90BE
:104E8000DF91CF911F910F910895EF92FF920F93B1
:104E90001F93CF93DF9300D0CDB7DEB77C01FC0129
:104EA0008189882389F087E7898386858A8300E062
:104EB00010E020E030E042E050E0BE016F5F7F4F45
:104EC000848595850E94CA22F701118A0F900F9060
:104ED000DF91CF911F910F91FF90EF90089522E8FD
:104EE00032E0FC01318320830C944527EF92FF923E
:104EF0000F931F93CF93DF9300D0CDB7DEB77C0124
:104F000069837A830E94452786E090E00E947D1C99
:104F10008C0169817A810E94A50EF701108B0787A9
:104F20000F900F90DF91CF911F910F91FF90EF9015
:104F300008951F920F920FB60F9211242F938F9303
:104F40009F93EF93FF93E0918A04F0918B0480810B
:104F5000E0919004F091910482FD12C090818091C3
:104F600093048F5F8F7320919404821751F0E09126
:104F70009304F0E0E658FB4F958F8093930401C0B3
:104F80008081FF91EF919F918F912F910F900FBE94
:104F90000F901F9018951F920F920FB60F92112429
:104FA0002F933F934F935F936F937F938F939F9331
:104FB000AF93BF93EF93FF938AE794E00E948D1B1A
:104FC000FF91EF91BF91AF919F918F917F916F91E1
:104FD0005F914F913F912F910F900FBE0F901F90B7
:104FE00018958AE794E00E94511B21E0892B09F46F
:104FF00020E0822F0895EAE7F4E01382128288EE1F
:1050000093E0A0E0B0E084839583A683B7838AE130
:1050100092E0918380838DEC90E0958784878CEC7F
:1050200090E09787868788EC90E0918B808B89EC65
:1050300090E0938B828B8AEC90E0958B848B8EEC46
:1050400090E0978B868B118E128E138E148E08959E
:105050005058BB27AA270E9440280C94B3290E94CD
:10506000A52938F00E94AC2920F039F49F3F19F4AB
:1050700026F40C94A2290EF4E095E7FB0C949C29ED
:10508000E92F0E94C42958F3BA17620773078407EF
:10509000950720F079F4A6F50C94E6290EF4E09536
:1050A0000B2EBA2FA02D0B01B90190010C01CA01E2
:1050B000A0011124FF27591B99F0593F50F4503E8D
:1050C00068F11A16F040A22F232F342F4427585F7F
:1050D000F3CF469537952795A795F0405395C9F797
:1050E0007EF41F16BA0B620B730B840BBAF091504F
:1050F000A1F0FF0FBB1F661F771F881FC2F70EC0EE
:10510000BA0F621F731F841F48F4879577956795C0
:10511000B795F7959E3F08F0B0CF9395880F08F0AC
:105120009927EE0F9795879508950E94782908F49E
:1051300081E008950E94AE280C94B3290E94AC2906
:1051400058F00E94A52940F029F45F3F29F00C9403
:105150009C2951110C94E7290C94A2290E94C4297E
:1051600068F39923B1F3552391F3951B550BBB2796
:10517000AA2762177307840738F09F5F5F4F220FDB
:10518000331F441FAA1FA9F335D00E2E3AF0E0E8D2
:1051900032D091505040E695001CCAF72BD0FE2F1C
:1051A00029D0660F771F881FBB1F261737074807B0
:1051B000AB07B0E809F0BB0B802DBF01FF27935868
:1051C0005F4F3AF09E3F510578F00C949C290C9467
:1051D000E7295F3FE4F3983ED4F38695779567958A
:1051E000B795F7959F5FC9F7880F911D969587959D
:1051F00097F90895E1E0660F771F881FBB1F6217BC
:1052000073078407BA0720F0621B730B840BBA0B79
:10521000EE1F88F7E09508950E94CC2988F09F57EB
:1052200098F0B92F9927B751B0F0E1F0660F771FCA
:10523000881F991F1AF0BA95C9F714C0B13091F0C0
:105240000E94E629B1E008950C94E629672F782F93
:105250008827B85F39F0B93FCCF386957795679585
:10526000B395D9F73EF490958095709561957F4FF1
:105270008F4F9F4F0895E89409C097FB3EF4909597
:105280008095709561957F4F8F4F9F4F9923A9F01F
:10529000F92F96E9BB279395F695879577956795AE
:1052A000B795F111F8CFFAF4BB0F11F460FF1BC0F2
:1052B0006F5F7F4F8F4F9F4F16C0882311F096E985
:1052C00011C0772321F09EE8872F762F05C0662333
:1052D00071F096E8862F70E060E02AF09A95660FEC
:1052E000771F881FDAF7880F9695879597F90895A5
:1052F000990F0008550FAA0BE0E8FEEF16161706E7
:10530000E807F907C0F012161306E407F50798F04E
:10531000621B730B840B950B39F40A2661F0232B67
:10532000242B252B21F408950A2609F4A140A695E3
:105330008FEF811D811D089597F99F6780E870E0C8
:1053400060E008959FEF80EC089500240A941616FB
:10535000170618060906089500240A941216130663
:10536000140605060895092E0394000C11F48823F1
:1053700052F0BB0F40F4BF2B11F460FF04C06F5F0D
:105380007F4F8F4F9F4F089557FD9058440F551FE3
:1053900059F05F3F71F04795880F97FB991F61F0B7
:1053A0009F3F79F087950895121613061406551F2E
:1053B000F2CF4695F1DF08C0161617061806991F9A
:1053C000F1CF86957105610508940895E894BB278F
:1053D00066277727CB0197F908950E94782908F46A
:1053E0008FEF08950E94052A0C94B3290E94A529E5
:1053F00038F00E94AC2920F0952311F00C949C29E0
:105400000C94A22911240C94E7290E94C42970F35A
:10541000959FC1F3950F50E0551F629FF001729F59
:10542000BB27F00DB11D639FAA27F00DB11DAA1F68
:10543000649F6627B00DA11D661F829F2227B00DB5
:10544000A11D621F739FB00DA11D621F839FA00D40
:10545000611D221F749F3327A00D611D231F849F90
:10546000600D211D822F762F6A2F11249F575040E7
:105470009AF0F1F088234AF0EE0FFF1FBB1F661F62
:10548000771F881F91505040A9F79E3F510580F02B
:105490000C949C290C94E7295F3FE4F3983ED4F3E5
:1054A000869577956795B795F795E7959F5FC1F7CF
:1054B000FE2B880F911D9695879597F908950E9468
:1054C0007829880B990B089597FB072E16F4009402
:1054D00007D077FD09D00E94BA2A07FC05D03EF418
:1054E000909581959F4F0895709561957F4F089590
:1054F000A1E21A2EAA1BBB1BFD010DC0AA1FBB1FD8
:10550000EE1FFF1FA217B307E407F50720F0A21B49
:10551000B30BE40BF50B661F771F881F991F1A94B6
:1055200069F760957095809590959B01AC01BD01E0
:10553000CF010895EE0FFF1F0590F491E02D09941F
:10554000A29FB001B39FC001A39F700D811D1124C4
:10555000911DB29F700D811D1124911D08950E940F
:10556000A02AA59F900DB49F900DA49F800D911D22
:1055700011240895AA1BBB1B51E107C0AA1FBB1F22
:10558000A617B70710F0A61BB70B881F991F5A95CF
:10559000A9F780959095BC01CD010895CF93DF9335
:1055A0008230910510F482E090E0E0911905F091CD
:1055B0001A0520E030E0C0E0D0E0309711F14081E2
:1055C000518148175907C0F04817590761F4828183
:1055D0009381209719F09B838A832BC090931A059F
:1055E0008093190526C02115310519F0421753077C
:1055F00018F49A01BE01DF01EF010280F381E02D72
:10560000DCCF2115310509F1281B390B2430310578
:1056100090F412968D919C9113976115710521F06C
:10562000FB019383828304C090931A05809319052C
:10563000FD01329644C0FD01E20FF31F8193919367
:10564000225031092D933C933AC020911705309197
:105650001805232B41F4209102013091030130936E
:1056600018052093170520910001309101012115A3
:10567000310541F42DB73EB7409104015091050129
:10568000241B350BE0911705F0911805E217F3077D
:10569000A0F42E1B3F0B2817390778F0AC014E5FA2
:1056A0005F4F2417350748F04E0F5F1F50931805C2
:1056B000409317058193919302C0E0E0F0E0CF01A1
:1056C000DF91CF9108950F931F93CF93DF930097AE
:1056D00009F48CC0FC0132971382128200911905E3
:1056E00010911A050115110581F420813181820F75
:1056F000931F20911705309118052817390779F560
:10570000F0931805E093170571C0D80140E050E010
:10571000AE17BF0750F412962D913C911397AD012F
:105720002115310509F1D901F3CF9D01DA01338348
:10573000228360817181860F971F8217930769F416
:10574000EC0128813981260F371F2E5F3F4F3183AF
:1057500020838A819B8193838283452B29F4F09354
:105760001A05E093190542C01396FC93EE93129725
:10577000ED01499159919E01240F351FE217F3075E
:1057800071F480819181840F951F029611969C93EC
:105790008E938281938113969C938E931297E0E06F
:1057A000F0E0D80112968D919C911397009719F013
:1057B000F8018C01F6CF8D919C9198012E5F3F4F9F
:1057C000820F931F2091170530911805281739076C
:1057D00069F4309729F410921A051092190502C045
:1057E000138212821093180500931705DF91CF9151
:1057F0001F910F910895A0E0B0E0E1E0FCE20C946D
:105800000C31EC01009721F4CB010E94CE2AB8C0E4
:10581000FC01E60FF71F9C0122503109E217F30744
:1058200008F4ACC0D9010D911C9111970617170708
:10583000B0F00530110508F49FC0C8010497861721
:10584000970708F499C002501109061B170B019322
:1058500011936D937C93CF010E94632B8DC05B01EC
:10586000A01AB10A4C01800E911EA0911905B091A9
:105870001A0540E050E0E12CF12C109709F44AC0E1
:10588000A815B905D1F56D907C901197630182E060
:10589000C80ED11CCA14DB0480F1A3014A195B09AC
:1058A0006A0182E0C80ED11C1296BC901297139622
:1058B000AC91B5E0CB16D10440F0B282A383518302
:1058C0004083D9016D937C930AC00E5F1F4FC301C3
:1058D000800F911FF90191838083EB2DFA2FE11442
:1058E000F10431F0D7011396FC93EE93129744C064
:1058F000F0931A05E09319053FC08D919C91119783
:105900004817590708F4AC017D0112960D90BC911F
:10591000A02DB3CF80911705909118058815990592
:10592000E1F446175707C8F48091000190910101F6
:10593000009741F48DB79EB7409104015091050145
:10594000841B950BE817F907C8F4F0931805E0934A
:105950001705F901718360830FC0CB010E94CE2A25
:105960007C01009759F0A801BE010E94F02DCE01E4
:105970000E94632BC70104C0CE0102C080E090E00A
:10598000CDB7DEB7EEE00C942831A6E0B0E0EBEC4A
:10599000FCE20C9408315C016B017A016115710520
:1059A00019F0DB018D939C93E114F10429F0C701F8
:1059B0000297839708F0DCC03501BFEF6B1A7B0AB2
:1059C000F5011081812F90E00E94D72D892B11F0D5
:1059D0005301F2CF1D3249F43501F2E06F0E711C14
:1059E000D50111961C9101E009C01B3231F435013B
:1059F000B2E06B0E711CF501118100E0E114F104BD
:105A000009F4C4C0F0E1EF16F10489F4103399F5FC
:105A1000D3018C918F7D883509F0B2C011961C910D
:105A2000B2E06B0E711C026050E1E52EF12CEAE051
:105A3000EE16F10409F4B0C0F0E1EF16F104D9F06C
:105A400028E0E216F10451F438E0E32EF12C88242A
:105A50008A94982CA82C4FE1B42E13C06FEF7FEFDF
:105A6000CB0197010F2C000C440B550B0E94782A98
:105A700049015A0106C088248A94982CA82C2FE04A
:105A8000B22E7E826D8260E020E030E0A901270125
:105A90000F2C000C660877082D803E80E0EDE10FAA
:105AA000EA3060F08FEB810F8A3110F4E9EC05C029
:105AB0008FE9810F8A3190F5E9EAE10F8E2F90E0AE
:105AC0008E159F055CF56F3F09F182169306A406BB
:105AD000B506D8F0C301B2010E94F8302E2F30E095
