:100000000C944C010C9474010C9474010C947401C4
:100010000C9474010C9474010C9474010C9474018C
:100020000C9474010C9474010C94D40D0C94630C16
:100030000C9474010C9474010C9474010C9474016C
:100040000C9474010C9474010C9474010C9474015C
:100050000C9474010C9474010C9474010C94720E41
:100060000C9474010C94D9290C940B2A0C947401EF
:100070000C9474010C9474010C9474010C9474012C
:100080000C9474010C9474010C9474010C9474011C
:100090000C9474010C9474010C9474010C9474010C
:1000A0000C9474010C9474010C9474016C6162657D
:1000B0006C0076616C756500737461746500080B83
:1000C0000002020201000904000001020200000512
:1000D0002400100105240101010424020605240660
:1000E00000010705810310004009040100020A0015
:1000F00000000705020240000007058302400000DF
:1001000012010002EF02014041234180000101027F
:100110000301120100020000004041234180000160
:100120000102030141726475696E6F204C4C4300FB
:1001300055534220494F20426F6172640004030905
:1001400004070605040100080A0B0C0D0904080247
:10015000011040804010204080408008020401804F
:1001600040201002011080102040402004040404AC
:10017000040304050202020204030202020206064C
:10018000060606060404020202040400000000251C
:100190000028002B002E0031000000000024002762
:1001A000002A002D0030002F76736D2F002F7673FC
:1001B0006D2F00485F46494C4500485F5245534FFC
:1001C000555243450054494D45004144445245531E
:1001D00053004556454E540052454C4F414400652E
:1001E000726173650073746F70007265636F72641F
:1001F000007469746C65005365727665722053747F
:100200006172746564002F76736D2F736572766505
:10021000722E7079002D7500707974686F6E0053BE
:1002200074617274696E67205365727665722050CE
:10023000726F636573732E2E2E00617070656E642D
:100240004461746100636C6561724461746100644F
:10025000617461005952616E676500436F6C756D22
:100260006E56697369626C650072756E2D62726993
:100270006467650A000A000A0000D2054607E6071F
:10028000AD179F18DF19861D932449261B283B2A8A
:100290003606AD18ED194D2611241FBECFEFDAE05A
:1002A000DEBFCDBF12E0A0E0B1E0E8E1F7E602C0BA
:1002B00005900D92AE3BB107D9F725E0AEEBB2E069
:1002C00001C01D92AD38B207E1F711E0C8E4D1E0FA
:1002D00004C02197FE010E94DA2CCD33D107C9F763
:1002E0000E94F2070C947F330C9400000895CB0118
:1002F00008959B01BC01665F7F4FC9010C9498145F
:10030000CF93DF93EB0148EB50E0BC0180E394E036
:100310000E94251CBE010E942D13DC01ED91FC9171
:100320000280F381E02DDF91CF910994CF92DF928B
:10033000EF92FF926A017B0142EB50E0BC0180E347
:1003400094E00E94251CB701A6010E945013DC0115
:10035000ED91FC910280F381E02DFF90EF90DF9012
:10036000CF900994CF93DF93EB014CEA50E0BC01AE
:1003700080E394E00E94251CBE010E943214DC013F
:10038000ED91FC910280F381E02DDF91CF910994F2
:10039000CF93DF9300D000D000D0CDB7DEB710925E
:1003A000D3021092D2026CE271E0CE0101960E945B
:1003B0005B10BE016F5F7F4F80915F039091600380
:1003C0000E94B201CE0101960E94ED0F26960FB653
:1003D000F894DEBF0FBECDBFDF91CF910895CF93CC
:1003E000DF9300D000D000D0CDB7DEB781E090E041
:1003F0009093D3028093D20260E371E0CE01019624
:100400000E945B10BE016F5F7F4F80915F039091F0
:1004100060030E94B201CE0101960E94ED0F61E0DF
:1004200070E080910803909109030E948001269654
:100430000FB6F894DEBF0FBECDBFDF91CF91089508
:10044000CF93DF9300D000D000D0CDB7DEB782E0ED
:1004500090E09093D3028093D20263E371E0CE01E7
:1004600001960E945B10BE016F5F7F4F80915F031A
:10047000909160030E94B201CE0101960E94ED0F9F
:1004800026960FB6F894DEBF0FBECDBFDF91CF9199
:100490000895CF93DF93EC010E94A1198CE991E0BC
:1004A00099838883DF91CF91089560E97FE180E3AC
:1004B00094E00E94FF188FEF93E00E94231880E2DF
:1004C00092E090935803809357038FEE91E09093BE
:1004D0004C0380934B0388EC91E09093400380930E
:1004E0003F03089580E394E00C94881AEF92FF9202
:1004F0000F931F9340E855E260E070E08DE693E0D3
:100500000E94400760E080E00E94B00F60E081E060
:100510000E94B00F60E082E00E94B00FE12CF12C4D
:100520000AEF13E420E030E0A90160E080E193E00D
:100530000E940F1D1F910F91FF90EF9008954F9211
:100540005F926F927F928F929F92AF92BF92CF9263
:10055000DF92EF92FF920F931F93CF93DF93CDB76C
:10056000DEB728970FB6F894DEBF0FBECDBF80E090
:100570000E947F0FBC01990F880B990B0E947D2B65
:100580006093CE027093CF028093D0029093D102F9
:1005900081E00E947F0FBC01990F880B990B0E948C
:1005A0007D2B6093CA027093CB028093CC02909310
:1005B000CD0282E00E947F0F7C0120E030E04AEF14
:1005C00053E46091CE027091CF028091D00290915D
:1005D000D1020E94322C20E030E04AE953E40E942C
:1005E000DA2A8B01782E692ECB01A72DB62D8093A8
:1005F000CE029093CF02A093D002B093D10220E01C
:1006000030E04AEF53E46091CA027091CB028091CE
:10061000CC029091CD020E94322C20E030E04AE9D9
:1006200053E40E94DA2A4B015C01CB01D50180938F
:10063000CA029093CB02A093CC02B093CD02B70133
:10064000FF0C880B990B0E947D2B20E030E04AEFD5
:1006500053E40E94322C20E030E04AE953E40E9447
:10066000DA2A6B017C01CB01D7018093C6029093FB
:10067000C702A093C802B093C9029401A501B801B2
:10068000872D962D0E942D2C9601A701181644F453
:10069000B801872D962D0E942D2C181674F006C0D7
:1006A000B401C5010E942D2C181624F086017E2C61
:1006B0006F2C03C084017A2C6B2CC801A72DB62D9A
:1006C0008093C2029093C302A093C402B093C50268
:1006D00020E030E0A901B801872D962D0E942D2C35
:1006E00087FD3BC020E030E048E452E4B801872DAC
:1006F000962D0E94D52A181684F161E070E0809151
:100700000803909109030E94800160E070E08091ED
:10071000FE029091FF020E94800160E070E08091F3
:10072000F4029091F5020E94800160E070E08091F7
:10073000EA029091EB020E94800160E070E08091FB
:10074000E0029091E1020E94800160E070E08091FF
:10075000D6029091D7020E948001C090C202D09030
:10076000C302E090C402F090C50220E030E04CE407
:1007700052E4C701B6010E942D2C87FD3AC020E04B
:1007800030E048EC52E4C701B6010E94D52A1816A1
:1007900084F161E070E08091FE029091FF020E947E
:1007A000800160E070E080910803909109030E944D
:1007B000800160E070E08091F4029091F5020E9467
:1007C000800160E070E08091EA029091EB020E946B
:1007D000800160E070E08091E0029091E1020E946F
:1007E000800160E070E08091D6029091D7020E9473
:1007F0008001C090C202D090C302E090C402F09089
:10080000C50220E030E04AEC52E4C701B6010E9484
:100810002D2C87FD3AC020E030E046E153E4C701CB
:10082000B6010E94D52A181684F161E070E080912B
:10083000F4029091F5020E94800160E070E08091E6
:100840000803909109030E94800160E070E08091AC
:10085000FE029091FF020E94800160E070E08091B2
:10086000EA029091EB020E94800160E070E08091CA
:10087000E0029091E1020E94800160E070E08091CE
:10088000D6029091D7020E948001C090C202D090FF
:10089000C302E090C402F090C50220E030E047E1DE
:1008A00053E4C701B6010E942D2C87FD3AC020E019
:1008B00030E048E453E4C701B6010E94D52A181677
:1008C00084F161E070E08091EA029091EB020E9475
:1008D000800160E070E080910803909109030E941C
:1008E000800160E070E08091FE029091FF020E9422
:1008F000800160E070E08091F4029091F5020E9426
:10090000800160E070E08091E0029091E1020E943D
:10091000800160E070E08091D6029091D7020E9441
:100920008001C090C202D090C302E090C402F09057
:10093000C50220E030E049E453E4C701B6010E945B
:100940002D2C87FD39C020E030E046E953E4C70193
:10095000B6010E94D52A18167CF161E070E0809102
:10096000E0029091E1020E94800160E070E08091DD
:100970000803909109030E94800160E070E080917B
:10098000FE029091FF020E94800160E070E0809181
:10099000F4029091F5020E94800160E070E0809185
:1009A000EA029091EB020E94800160E070E0809189
:1009B000D6029091D70242C020E030E846E953E4E5
:1009C000C701B6010E942D2C87FD3AC020E030E01F
:1009D0004AEF53E4C701B6010E94D52A181684F1E4
:1009E00061E070E08091D6029091D7020E94800170
:1009F00060E070E080910803909109030E948001FB
:100A000060E070E08091FE029091FF020E94800100
:100A100060E070E08091F4029091F5020E94800104
:100A200060E070E08091EA029091EB020E94800108
:100A300060E070E08091E0029091E1020E9480010C
:100A40000E940C17AB01BC018091BE029091BF02C5
:100A5000A091C002B091C1028A019B01081B190B31
:100A60002A0B3B0B043011052105310508F447C062
:100A70004093BE025093BF026093C0027093C102C4
:100A80008090C6029090C702A090C802B090C902A0
:100A90004090CA025090CB026090CC027090CD0280
:100AA0008091CE029091CF02A091D002B091D1025C
:100AB00089839A83AB83BC8380E193E04D835E831B
:100AC0006F8378870E94781D4D815E816F81788564
:100AD0000E946C1549815A816B817C810E94501360
:100AE000B301A2010E945013B501A4010E9450134A
:100AF000DC01ED91FC910280F381E02D099580915C
:100B0000D2029091D302009749F44091CE025091C5
:100B1000CF026091D0027091D10216C08130910550
:100B200049F44091CA025091CB026091CC0270917D
:100B3000CD020AC0029771F44091C6025091C702DB
:100B40006091C8027091C90280915F039091600327
:100B50000E94960168EE73E080E090E028960FB660
:100B6000F894DEBF0FBECDBFDF91CF911F910F91E3
:100B7000FF90EF90DF90CF90BF90AF909F908F90BD
:100B80007F906F905F904F900C94ED0E0E945502F5
:100B900080E394E00E94821B0C9476020E94720211
:100BA0000C949F020F93CF93DF9300E020E040E08E
:100BB00060E087E693E00E94A7076BE371E08DE5B4
:100BC00093E00E94490266E471E081E593E00E94AF
:100BD000A119E1E5F3E013861286C4EAD1E0D183DE
:100BE000C0836EE471E085E493E00E94A119E5E41E
:100BF000F3E013861286D183C08366E571E089E352
:100C000093E00E94A119E9E3F3E013861286D183F1
:100C1000C0836EE571E080E193E00E94EE1C68E61F
:100C200071E086E093E00E94490260E771E08CEF9A
:100C300092E00E94490268E771E082EF92E00E9430
:100C4000490260E871E088EE92E00E94490268E89B
:100C500071E08EED92E00E94490260E971E084ED5E
:100C600092E0DF91CF910F910C944902E0E1F3E023
:100C700088E392E09183808382E492E09387828785
:100C800081ED91E0968F858F8BED91E092A381A30A
:100C900083E393E00E94ED0F86E293E00C94ED0F66
:100CA000CF93DF931F92CDB7DEB76983DC01ED915F
:100CB000FC910280F381E02D41E050E0BE016F5FC6
:100CC0007F4F09950F90DF91CF910895CF93DF93D8
:100CD000EC018C859D8597FF05C082E00E94370B53
:100CE0009D878C878C859D85DF91CF91089583E0CA
:100CF0000C94CA0DFC018485958597FD06C082E0A1
:100D00000E94E10A90E00196089582E00E94E10AC3
:100D100090E00895FC018485958597FD05C02FEF2F
:100D20003FEF35872487089582E00C94370BCF93EB
:100D3000DF93EC0180911101882331F083E00E9460
:100D4000680B1816190634F081E090E09B838A83C3
:100D500080E090E0DF91CF910895FC0190819E5F4B
:100D6000908342E450E06EEB70E080E80C94090C54
:100D7000FC0181819081913A59F4813209F048C097
:100D800047E050E06AE071E080E00E94090C76C024
:100D90009132F1F5833291F49381892F90E0982F6D
:100DA00088272281822BA0E0B0E0809306019093F7
:100DB0000701A0930801B093090160C0803239F4A3
:100DC00067E070E08AE091E00E94300C06C0823259
:100DD00009F054C08281809311018091BD03882362
:100DE00019F0EEEFFAE002C0E0E0F8E080910A01CD
:100DF00090910B01A0910C01B0910D01803B9440AA
:100E0000A105B10539F48091110180FF1FC002C016
:100E100080E008950FB6F894A895809160008861ED
:100E200080936000109260000FBEA895EE3F8AE0AC
:100E3000F80739F08091FE0A9091FF0A9183808330
:100E40001DC01092FF0A1092FE0A18C0EE3F2AE061
:100E5000F20731F0808191819093FF0A8093FE0A1E
:100E600087E797E7918380839BE088E10FB6F8944A
:100E7000A895809360000FBE9093600081E0089574
:100E80002FEF3FEFFC01358724870895EDE6F3E06F
:100E90001382128288EE93E0A0E0B0E08483958311
:100EA000A683B7838CEA91E0918380838FEF9FEFD5
:100EB0009587848708958F929F92AF92BF92CF9229
:100EC000DF92EF92FF920F931F93CF93DF937C01FA
:100ED0008B016C0182E0C80ED11C4701E5E08E0E4B
:100EE000911CC0E0D0E0F60161916F014AE050E052
:100EF000C8010E943D095C016EE2C8010E947908A8
:100F00008A0D9B1DC80FD91FC814D90461F74AE088
:100F100050E0F7016581C8010E943D098C0F9D1FBB
:100F2000DF91CF911F910F91FF90EF90DF90CF90C5
:100F3000BF90AF909F908F9008952CEB31E0FC0113
:100F400031832083128213821482158208950F93B5
:100F5000FC018CEB91E09183808362834383248343
:100F600005830F910895DC0190E020E030E08AE0F5
:100F7000FB014191BF01442309F150ED540F5A3058
:100F800088F4829FF001839FF00D11249F0120536C
:100F90003109240F311D47FD3A952F3F310541F3AB
:100FA00038F312C04E3281F4933071F0FD01E90F35
:100FB000F11D22839F5F20E030E0DACF933021F4EF
:100FC00015962C9381E0089580E00895EEEBF3E010
:100FD0008CEB91E0918380831282138214821582BC
:100FE000089508950E94290F0E94F10784EC93E070
:100FF0000E94550E0E94C605CFEBDDE10E94CE0592
:101000002097E1F30E94BF1DF9CFCF92DF92EF92BC
:10101000FF920F931F93CF93DF936C017A018B01A3
:10102000C0E0D0E0CE15DF0589F0D8016D918D01CB
:10103000D601ED91FC910190F081E02DC60109955A
:10104000892B11F47E0102C02196ECCFC701DF91FC
:10105000CF911F910F91FF90EF90DF90CF90089567
:101060006115710579F0FB0101900020E9F73197D6
:10107000AF01461B570BDC01ED91FC910280F3811F
:10108000E02D099480E090E00895EF92FF920F9395
:101090001F93CF93DF938C017B01C0E0D0E0F70179
:1010A000EC0FFD1F6491662361F0D801ED91FC9176
:1010B0000190F081E02DC8010995892B11F021964E
:1010C000EECFCE01DF91CF911F910F91FF90EF9066
:1010D0000895DC01ED91FC91DB0114964D915C913A
:1010E00015976D917C910280F381E02D09940C9409
:1010F0003008DC01ED91FC910190F081E02D099424
:101100006EEB71E00C9430080F931F93CF93DF9335
:10111000EC010E9445088C01CE010E948008800FDE
:10112000911FDF91CF911F910F9108954F925F9280
:101130006F927F92EF92FF920F931F93CF93DF9363
:10114000CDB7DEB7A1970FB6F894DEBF0FBECDBF07
:101150007C01FA01CB0119A2223008F42AE08E01A9
:101160000F5D1F4F422E512C612C712CBF01A3012A
:1011700092010E94B82CF901CA01015011096A308C
:1011800014F4605D01C0695CD8016C93232B242B9F
:10119000252B61F7B801C7010E943008A1960FB650
:1011A000F894DEBF0FBECDBFDF91CF911F910F919D
:1011B000FF90EF907F906F905F904F900895CF9247
:1011C000DF92EF92FF920F931F93CF93DF93EC0187
:1011D0006A017B012115310579F4E881F9810190DB
:1011E000F081E02D642FDF91CF911F910F91FF903F
:1011F000EF90DF90CF9009942A303105E9F477FF22
:101200001AC06DE20E9479088C0144275527BA0163
:101210004C195D096E097F092AE0CE010E949608EB
:10122000800F911FDF91CF911F910F91FF90EF9051
:10123000DF90CF9008952AE0B701A601CE01DF919B
:10124000CF911F910F91FF90EF90DF90CF900C9472
:1012500096089A01AB01770F660B770B0C94DF08A9
:101260002115310541F4DC01ED91FC910190F081F3
:10127000E02D642F09940C9496089A01462F50E0B3
:1012800060E070E00C9430094F925F926F927F9211
:101290008F929F92AF92BF92CF92DF92EF92FF9286
:1012A000CF93DF93EC016A017B01B22E9A01AB016F
:1012B000C701B6010E949F2C882319F061EC71E0F0
:1012C00027C026013701E89477F82FEF3FEF4FE76B
:1012D0005FE7C301B2010E949F2C81110DC02FEF67
:1012E0003FEF4FE75FE7C301B2010E94D52A18160E
:1012F0001CF465EC71E00CC02FEF3FEF4FE75FE4AB
:10130000C701B6010E942D2C18169CF469EC71E0FF
:10131000CE01DF91CF91FF90EF90DF90CF90BF9003
:10132000AF909F908F907F906F905F904F900C94B4
:1013300030082FEF3FEF4FE75FECC701B6010E9487
:10134000D52A87FDE3CF20E030E0A901C701B6012F
:101350000E94D52A87FF0AC06DE2CE010E9479085B
:101360004C01F7FAF094F7F8F09402C0812C912C1C
:10137000A12C60E070E080E09FE3AB1441F020E03E
:1013800030E040E251E40E94DA2AA394F6CF9B01B8
:10139000AC01C701B6010E94692A2B013C010E94E1
:1013A0004C2B6B017C010E947B2B9B01AC01C30188
:1013B000B2010E94682A2B013C012AE0B701A60174
:1013C000CE010E9496087C01E80CF91CBB2031F08C
:1013D0006EE2CE010E947908E80EF91EDB2CDD20BA
:1013E00029F120E030E040E251E4C301B2010E9463
:1013F000322C2B013C010E944C2B4B01A12CB12C17
:101400002AE0B501A401CE010E949608E80EF91E5B
:10141000C501B4010E947B2B9B01AC01C301B20149
:101420000E94682A2B013C01DA94D9CFC701DF91D1
:10143000CF91FF90EF90DF90CF90BF90AF909F90B3
:101440008F907F906F905F904F9008950C94440917
:10145000615030F02091F100FC0120830196F8CF1B
:10146000289884E68093CD0308954091C803509155
:10147000C9032091C6033091C70342175307B4F440
:101480009091E8009570E1F39091E80092FD19C009
:101490008093F1008091C8039091C90301968F73E6
:1014A0009927892B19F48EEF8093E8008091C80367
:1014B0009091C90301969093C9038093C80381E07A
:1014C000089580E00895CF92DF92EF92FF920F93FC
:1014D0001F93CF93DF931F92CDB7DEB7182F062F40
:1014E000E42E862F880F8E5F99830E94350A83E051
:1014F0000E94350AF12EC12E9981D92E8C2D8F197B
:10150000801798F4F601E7FE02C0849101C0808143
:101510000E94350A182F80E00E94350A8123FFEFD0
:10152000CF1ADF0A8111EACF01C081E00F90DF916D
:10153000CF911F910F91FF90EF90DF90CF90089582
:101540008091D70081608093D70080EA8093D80093
:1015500089B5806189BD89B5826089BD09B400FE05
:10156000FDCF61E070E080E090E00E94ED0E8091A0
:10157000D8008F7C80618093D8008091E000807FCC
:101580008093E0000895CF93DF931F92CDB7DEB72D
:101590001982CE0101960E94AD060E944A1FBE012B
:1015A0006F5F7F4F0E94C51E89810F90DF91CF91A1
:1015B00008952FB7FC012083F89467706093E900C9
:1015C0000895CF93DF931F92CDB7DEB7682FCE017A
:1015D00001960E94D90A8091F20099819FBF0F90D5
:1015E000DF91CF910895EF92FF920F931F93CF93C6
:1015F000DF931F92CDB7DEB79091CC03992311F002
:1016000057FF03C08FEF9FEF2AC08A017B01682F2D
:10161000CE0101960E94D90A8091F20090E0A801C3
:10162000801791070CF4AC01842FF70194E68150E8
:1016300038F028989093CD032091F1002193F7CFB3
:101640004115510521F08091F200882321F0898114
:101650008FBFCA0104C08BE68093E800F8CF0F90DB
:10166000DF91CF911F910F91FF90EF900895CF934D
:10167000DF931F92CDB7DEB741E050E0BE016F5F50
:101680007F4F0E94F30A019719F4898190E002C00C
:101690008FEF9FEF0F90DF91CF910895CF93DF935E
:1016A0001F92CDB7DEB7682FCE0101960E94D90AEE
:1016B0009091E800892F807295FF04C09091F2000C
:1016C0008FE3891B99819FBF0F90DF91CF91089580
:1016D0006F927F928F929F92AF92BF92CF92DF9242
:1016E000EF92FF920F931F93CF93DF931F92CDB78B
:1016F000DEB7A82E6B01B42E052F8091CC0381118B
:1017000003C08FEF9FEF6AC08091CA0380FF05C0BE
:101710008091E00082608093E000EB2CF02E8AEF55
:10172000982E8A2D8072782E9AE3892E8A2D8074C5
:10173000682EE114F10409F447C08A2D0E944E0B73
:10174000182F81110AC09A949920D9F261E070E0B3
:1017500080E090E00E94ED0EECCF90E0E816F906F4
:101760000CF41E2D6A2DCE0101960E94D90A80919B
:10177000E80085FF26C0812F90E0E81AF90A77205B
:1017800029F01150A8F01092F100FBCFF601A7FE4E
:1017900007C0115058F024912093F1003196F9CFF1
:1017A000115020F021912093F100FACFC80ED91EDC
:1017B0008091E80085FF0FC0E114F10411F461107D
:1017C0000AC089818FBFB5CF5D9884E68093CE0330
:1017D0008B2D902F03C08092E800F3CF0F90DF9104
:1017E000CF911F910F91FF90EF90DF90CF90BF901E
:1017F000AF909F908F907F906F9008951092E90026
:101800001092C9031092C8039093C7038093C60334
:101810000895DF92EF92FF920F931F93CF93DF9380
:10182000D82E8A017B01E40EF51EEB01CE15DF05F3
:1018300071F0D7FE03C0FE01849101C088810E942F
:10184000350A21968111F2CF8FEF9FEF01C0C801B9
:10185000DF91CF911F910F91FF90EF90DF9008954E
:10186000BF92CF92DF92EF92FF920F931F93CF938D
:10187000DF936C018B01EB019BEFB92E2097C1F038
:101880007E01C134D1051CF080E4E82EF12C80915A
:10189000E80082FFFCCFC8018C1B9D0B6E2D8C0DC8
:1018A0009D1D0E94280AB092E800CE19DF09E6CFFC
:1018B000C801DF91CF911F910F91FF90EF90DF90C2
:1018C000CF90BF9008951F920F920FB60F921124E0
:1018D000CF92DF92EF92FF920F931F932F933F933C
:1018E0004F935F936F937F938F939F93AF93BF9328
:1018F000EF93FF93CF93DF93CDB7DEB76C97DEBF47
:10190000CDBF1092E9008091E80083FF24C168E018
:10191000CE0145960E94280A82EF8093E8008D89C7
:1019200087FF05C09091E80090FFFCCF03C09EEFB9
:101930009093E800982F907609F0F1C09E892F8946
:10194000188D91110CC0803829F48091CB038093BD
:10195000F10002C01092F1001092F100F5C0422F88
:1019600050E0512B913051F48111EEC041305105BE
:1019700009F0EAC08091CB038D7F0BC0933061F4F6
:101980008111E2C04130510509F0DEC08091CB03E6
:1019900082608093CB03D8C0953041F48091E800F9
:1019A00080FFFCCF20682093E300CEC0963009F082
:1019B0008CC0EB8CFC8C123069F580E090E00E94CA
:1019C000FE0B0E94C30A99E09E012F5F3F4F690101
:1019D000F901292F11922A95E9F799831A8391E049
:1019E0009E8390EA98879AEF99872091C803309157
:1019F000C903275F3F4F3C832B838D83C7010E9420
:101A0000FE0B49E050E0B60180E00E94090C0E9404
:101A1000C30A9AC0C7010E94FE0B0E944A1FBE0162
:101A20006B5E7F4F0E94EE1E009719F00CF08CC089
:101A30008FC0113071F48B8D9C8D089719F481E063
:101A40008093C5038091C50381112FC062E171E0CD
:101A500031C0133009F07CC08F89882349F182306E
:101A600029F440E86CE080E391E006C0813039F46D
:101A700040E86BE084E291E00E94630A63C0833037
:101A800009F066C00E944A1F8E010F5F1F4FB80108
:101A90000E940D1FF80101900020E9F73197BF0166
:101AA000601B710B40E0C801E7CF60E071E002C04D
:101AB0006DE371E06115710509F44AC0FB014491C1
:101AC00050E080E80E94090C3FC0973009F440C004
:101AD000983021F481E08093F10036C09930A1F56F
:101AE0008370B1F5E3E1F1E081E021E036E390813C
:101AF000992361F08093E9002093EB0091919093FA
:101B0000EC003093ED008F5F873089F78EE780938C
:101B1000EA001092EA008F898093CC0315C08B8D68
:101B20009C8D0E94FE0B898D811105C0CE014596CA
:101B30000E94B80607C00E944A1FBE016B5E7F4F1D
:101B40000E942C1F882321F08EEF8093E80003C0B1
:101B500081E28093EB006C960FB6F894DEBF0FBE67
:101B6000CDBFDF91CF91FF91EF91BF91AF919F9149
:101B70008F917F916F915F914F913F912F911F9125
:101B80000F91FF90EF90DF90CF900F900FBE0F90CE
:101B90001F9018958093E9008091F200882319F036
:101BA0008AE38093E80008951F920F920FB60F9278
:101BB00011242F933F934F935F936F937F938F9352
:101BC0009F93AF93BF93CF93EF93FF93C091E100A7
:101BD0008091E100837F8093E100C3FF0FC01092EA
:101BE000E90081E08093EB001092EC0082E38093A7
:101BF000ED001092CC0388E08093F000C2FF19C082
:101C000083E00E94CA0D8091CE03882339F0809131
:101C1000CE0381508093CE03882389F18091CD0338
:101C2000882339F08091CD0381508093CD038823A0
:101C300041F1C4FF10C08091E2008E7E81608093EC
:101C4000E2008091E1008F7E8093E1008091CA03E1
:101C50008E7E806111C0C0FF16C08091E2008E7E32
:101C600080618093E2008091E1008E7E8093E100AC
:101C70008091CA038E7E81608093CA0304C05D9AFE
:101C8000CDCF289AD6CFFF91EF91CF91BF91AF9151
:101C90009F918F917F916F915F914F913F912F9184
:101CA0000F900FBE0F901F9018951092CC031092BA
:101CB000CB031092CA030E94A00A8091E1008E7E9D
:101CC0008093E1008DE08093E200559A209AEEEF38
:101CD000FFE7859194918B3F9C4D19F481E08093AF
:101CE000BD0308951F920F920FB60F9211242F93E8
:101CF0003F938F939F93AF93BF938091D003909125
:101D0000D103A091D203B091D3033091CF0323E04C
:101D1000230F2D3720F40196A11DB11D05C026E823
:101D2000230F0296A11DB11D2093CF038093D003F2
:101D30009093D103A093D203B093D3038091D403A3
:101D40009091D503A091D603B091D7030196A11D20
:101D5000B11D8093D4039093D503A093D603B09381
:101D6000D703BF91AF919F918F913F912F910F908A
:101D70000FBE0F901F9018952FB7F8946091D00365
:101D80007091D1038091D2039091D3032FBF089516
:101D90003FB7F8948091D4039091D503A091D603D6
:101DA000B091D70326B5A89B05C02F3F19F0019627
:101DB000A11DB11D3FBFBA2FA92F982F8827820FD1
:101DC000911DA11DB11DBC01CD0142E0660F771F21
:101DD000881F991F4A95D1F708958F929F92AF92CD
:101DE000BF92CF92DF92EF92FF926B017C010E9433
:101DF000C80E4B015C01C114D104E104F10401F1EE
:101E00000E94BC1E0E94C80EDC01CB0188199909F2
:101E1000AA09BB09883E9340A105B10560F321E002
:101E2000C21AD108E108F10888EE880E83E0981EF6
:101E3000A11CB11CC114D104E104F10419F7DBCFDA
:101E4000FF90EF90DF90CF90BF90AF909F908F90DA
:101E50000895789484B5826084BD84B5816084BD22
:101E600085B5826085BD85B5816085BDEEE6F0E013
:101E7000808181608083E1E8F0E01082808182606F
:101E80008083808181608083E0E8F0E080818160F0
:101E90008083E1E9F0E080818260808380818160DD
:101EA0008083E0E9F0E0808181608083E1ECF0E014
:101EB0008081846080838081826080838081816072
:101EC0008083E3ECF0E0808181608083E0ECF0E0EF
:101ED000808182608083E2ECF0E080818160808399
:101EE000EAE7F0E080818460808380818260808383
:101EF00080818160808380818068808308958231C1
:101F000008F08251E82FF0E0EF5BFE4FE491809102
:101F10007B00E3FB222720F930E095E0220F331FFE
:101F20009A95E1F78F7D282B20937B00E7708091B5
:101F3000190120E4829FC0011124E82BE0937C006A
:101F400080917A00806480937A0080917A0086FD87
:101F5000FCCF809178002091790090E0922B089539
:101F6000CF93DF9390E0FC01E35BFE4F2491FC01F3
:101F7000E459FE4F8491882361F190E0880F991F06
:101F8000FC01E756FE4FC591D491FC01E557FE4F89
:101F9000A591B491611109C09FB7F89488812095EB
:101FA00082238883EC912E230BC0623061F49FB7AB
:101FB000F8943881822F809583238883EC912E2B8F
:101FC0002C939FBF06C08FB7F894E8812E2B2883EF
:101FD0008FBFDF91CF9108950895FC018081918199
:101FE0000C94A32DCF93DF93EC0188819981009706
:101FF00011F00E94A32D198218821D821C821B825F
:102000001A82DF91CF9108950F931F93CF93DF939F
:10201000EC018B016F5F7F4F888199810E943B2E7D
:10202000009731F0998388831B830A8381E001C084
:1020300080E0DF91CF911F910F910895CF93DF93AF
:10204000EC0188819981892B29F08A819B818617EF
:10205000970760F4CE010E940410882341F08C8120
:102060009D81892B19F4E881F981108281E0DF914B
:10207000CF910895EF92FF920F931F93CF93DF9329
:10208000EC017B018A01BA010E941E10811104C07B
:10209000CE010E94F20F07C01D830C83B701888117
:1020A00099810E944D30CE01DF91CF911F910F9108
:1020B000FF90EF900895FC0111821082138212822A
:1020C000158214826115710551F0FB010190002009
:1020D000E9F73197AF01461B570B0C943A1008955E
:1020E000EF92FF920F931F93CF93DF93EC017B014D
:1020F0008A01BA010E941E10811104C0CE010E9403
:10210000F20F07C01D830C83B701888199810E945B
:102110002030CE01DF91CF911F910F91FF90EF9072
:1021200008950F931F93CF93DF938C01EB01FC0174
:10213000808191810097D1F0688179816115710565
:1021400099F02CEE3FE0232B79F0428153812C81D2
:102150003D814217530740F00E944D308C819D8194
:10216000F8019583848313C00E94A32D88819981EF
:10217000F801918380838A819B81938382838C8100
:102180009D8195838483198218821B821A821D8205
:102190001C82DF91CF911F910F910895CF93DF9310
:1021A000EC01FB018617970761F060817181611571
:1021B000710529F0448155810E943A1002C00E94A5
:1021C000F20FCE01DF91CF910895FC0111821082B0
:1021D00013821282158214820C94CE10CF93DF9357
:1021E000EC018617970711F00E949110CE01DF9144
:1021F000CF910895CF93DF93EC016115710559F0EC
:10220000FB0101900020E9F73197AF01461B570B06
:102210000E943A1002C00E94F20FCE01DF91CF91CE
:1022200008950F931F93CF93DF93CDB7DEB76297D7
:102230000FB6F894DEBF0FBECDBF8C01CB01F80105
:1022400011821082138212821582148250E0BE0124
:102250006F5F7F4F0E945430BE016F5F7F4FC80198
:102260000E94FA1062960FB6F894DEBF0FBECDBF83
:10227000DF91CF911F910F9108950F931F93CF93EB
:10228000DF9300D0CDB7DEB78C016115710561F029
:10229000CB0169837A830E942730AC0169817A81FE
:1022A000C8010E94701002C00E94F20FC8010F9076
:1022B0000F90DF91CF911F910F910895FC01118232
:1022C000108213821282158214820C943D11EF92B7
:1022D000FF920F931F93CF93DF93FC0124813581ED
:1022E0006115710511F480E019C041155105A9F07F
:1022F0007B01EC018A01020F131FB8010E941E101E
:10230000882389F3288139818C819D81B701820FCF
:10231000931F0E944D301D830C8381E0DF91CF918C
:102320001F910F91FF90EF900895FB01448155811B
:10233000608171810C9467116115710551F0FB0189
:1023400001900020E9F73197AF01461B570B0C9421
:10235000671180E00895CF93DF9300D0CDB7DEB74B
:1023600069831A8241E050E0BE016F5F7F4F0E9497
:1023700067110F900F90DF91CF910895CF93DF9366
:10238000EC01FB0144815581608171810E946711DC
:10239000811103C0CE010E94F20FCE01DF91CF91D7
:1023A0000895CF93DF93DC01ED91FC91EB01A881BF
:1023B000B981309711F01097C9F4109759F0EB01DB
:1023C0002C813D81232B31F08C9190E0919581956A
:1023D000910914C0309781F0DC0114968D919C9185
:1023E0001597892B49F0808190E008C0BD01CF018D
:1023F000DF91CF910C94443080E090E0DF91CF9159
:102400000895FC0144815581FB01248135814217E7
:10241000530729F40E94D11121E0892B09F020E013
:10242000822F0895FC0124813581232B31F421E092
:1024300061157105A1F0FB0108C0FC01808191814B
:102440006115710531F421E0FC018081882339F0A8
:1024500005C00E94443021E0892B09F020E0822F42
:102460000895FC01248135816217730748F4808147
:102470009181009729F0FC01E60FF71F80810895F4
:1024800080E00895CF93DF93FC01248135814217CA
:10249000530778F4C081D181062E000C770BCE0152
:1024A000840F951F0E943930009719F08C1B9D0BEB
:1024B00002C08FEF9FEFDF91CF91089540E050E091
:1024C0000C944212BF92CF92DF92EF92FF920F9341
:1024D0001F93CF93DF937C016B018A01E9012417DD
:1024E000350720F4812F8901C42FD82F60EC71E0CB
:1024F000C7010E945B10D60114968D919C9115978F
:1025000008171907D0F48C179D0708F4EC01D601C1
:10251000ED91FC911197EC0FFD1FB08010824D9151
:102520005C91BA01600F711FC7010E94FA10D601B9
:10253000ED91FC91EC0FFD1FB082C701DF91CF91AF
:102540001F910F91FF90EF90DF90CF90BF90089573
:1025500006960E94AB1181E090E00895CF92DF9241
:10256000EF92FF920F931F93CF93DF938A01EB01BA
:102570007B01E40EF51E06966C01CE15DF0529F0F1
:102580006991C6010E94AB11F8CFC801DF91CF91CC
:102590001F910F91FF90EF90DF90CF9008959B01D6
:1025A000BC016A5F7F4FC9010C9469089B01BC01A3
:1025B0006E5F7F4FC9010C946908FC01138212827F
:1025C00021ED31E0318320832BED31E0358324830D
:1025D00060EC71E006960C945B10FC01538342831F
:1025E000648315820895CF93DF93EC018A819B81E8
:1025F000009769F06F8161110E9479088C818823AE
:1026000031F08A819B81DF91CF910C948008DF911A
:10261000CF910895FC0181EE91E091838083138234
:102620001282148215821682178282E090E09187CE
:1026300080878AE090E0938782870895FC01668115
:10264000662351F0858191E0980F9583882321F0CE
:10265000828193810C94790808950F931F93CF93EF
:10266000DF9300D0CDB7DEB78C01FC01828193816E
:10267000892B71F0C80169837A830E941E13F801C7
:102680004285538569817A81828193810E942909DB
:10269000C8010F900F90DF91CF911F910F91089576
:1026A0000F931F93CF93DF9300D000D0CDB7DEB749
:1026B0008C01FC0182819381892B91F0C8014983AF
:1026C0005A836B837C830E941E13F8012085318519
:1026D00049815A816B817C81828193810E94260A83
:1026E000C8010F900F900F900F90DF91CF911F9125
:1026F0000F910895CF92DF92EF92FF920F931F9365
:10270000CF938C016B0162E2FC01828193810E9474
:102710007908E12CF12CF60184819581E816F906FF
:1027200008F056C0B701C6010E943112C82F80328E
:1027300068F0873259F0823249F0B701C6010E9431
:102740003112682FF801828193811DC06CE5F80178
:10275000828193810E947908F80182819381C2323B
:10276000A9F040F4CA30B1F0CD30B1F0C930B1F4C5
:1027700064E709C0C03331F0CC3551F0C73271F491
:1027800067E201C060E30E9479081EC062E2FBCFED
:102790006CE5F9CF6EE6F7CF62E7F5CF68E70E9408
:1027A000790840E150E060E070E0F80182819381B7
:1027B0000E942909CF706C2F70E040E150E0F801D1
:1027C000828193810E942909FFEFEF1AFF0AA3CFAC
:1027D00062E2F80182819381CF911F910F91FF9066
:1027E000EF90DF90CF900C9479080F931F93CF93C5
:1027F000DF93CDB7DEB728970FB6F894DEBF0FBED4
:10280000CDBF8C01FC0182819381892BF9F0C80135
:102810006F8378870E941E13F80186816F81788507
:10282000882379F0CE0101960E945B10BE016F5F94
:102830007F4FC8010E947A13CE0101960E94ED0FCE
:1028400005C0F801828193810E947708C80128960B
:102850000FB6F894DEBF0FBECDBFDF91CF911F91B1
:102860000F9108950F931F93CF93DF9300D0CDB7AF
:10287000DEB78C01FC0182819381892BA1F0C80114
:1028800069837A830E941E13F801868169817A81A7
:10289000882321F0C8010E947A1305C0F8018281C3
:1028A00093810E946908C8010F900F90DF91CF912A
:1028B0001F910F9108950895FC0173836283089519
:1028C000FC0189EE91E0918380831382128214824D
:1028D0008AE0858308950F931F93CF93DF931F9210
:1028E000CDB7DEB7FC0122813381232BD9F08C01D7
:1028F000198241E050E0BE016F5F7F4FF801828195
:1029000093810E947520892B49F09981F801848177
:10291000981721F081E02581921301C080E089831E
:102920008111E7CF0F90DF91CF911F910F91089503
:102930000F931F93CF93DF93EC018B018A819B81CF
:10294000009749F0DC01ED91FC910480F581E02DC8
:102950000995892B21F4F801118210820DC041E004
:1029600062E070E08A819B810E94FC1FD8016D9318
:102970007C93CE010E946B14CE01DF91CF911F9109
:102980000F9108958F929F92AF92BF92CF92DF9254
:10299000EF92FF920F931F93CF93DF93CDB7DEB7E4
:1029A00060970FB6F894DEBF0FBECDBF8C016A01F1
:1029B0007B01CB01BA010E94C516982E892EC70152
:1029C000B6010E94CB16B82EA92EC701B6010E94EF
:1029D000D1168F929F92AF92BF929F938F938DEE5D
:1029E00091E09F938F93CE0101967C019F938F93EB
:1029F0000E948430B701C8010E945B100FB6F894A2
:102A0000DEBF0FBECDBFC80160960FB6F894DEBF23
:102A10000FBECDBFDF91CF911F910F91FF90EF902F
:102A2000DF90CF90BF90AF909F908F9008958F923E
:102A30009F92AF92BF92CF92DF92EF92FF920F934D
:102A40001F93CF93DF93CDB7DEB760970FB6F8949F
:102A5000DEBF0FBECDBF8C016A017B01CB01BA0185
:102A60000E94BF16982E892EC701B6010E94B91682
:102A7000B82EA92EC701B6010E94B3168F929F925D
:102A8000AF92BF929F938F938CEF91E09F938F9320
:102A9000CE0101967C019F938F930E948430B701F1
:102AA000C8010E945B100FB6F894DEBF0FBECDBF09
:102AB000C80160960FB6F894DEBF0FBECDBFDF91A0
:102AC000CF911F910F91FF90EF90DF90CF90BF902B
:102AD000AF909F908F900895CF92DF92EF92FF92E8
:102AE0000F931F93CF93DF9300D000D000D0CDB7CA
:102AF000DEB78C016A017B01FC0182819381892B05
:102B000069F1C8010E941E13B701A601CE0101960A
:102B10000E94C214BE016F5F7F4FF80182819381D2
:102B20000E946908CE0101960E94ED0F60E2F80153
:102B3000828193810E947908B701A601CE01019696
:102B40000E941715BE016F5F7F4FF801828193814C
:102B50000E946908CE0101960E94ED0FC8012696D9
:102B60000FB6F894DEBF0FBECDBFDF91CF911F919E
:102B70000F91FF90EF90DF90CF9008956F927F922A
:102B80008F929F92AF92BF92CF92DF92EF92FF927D
:102B90000F931F93CF93DF93EA012CE3C22ED12C26
:102BA000E12CF12CA70196010E94B82C6883CA0180
:102BB000B901A70196010E94B82C6983CA01B90125
:102BC00028E130E040E050E00E94B82C69017A0131
:102BD0006A83CA01B9016C5F7F4F8F4F9F4F27E017
:102BE00030E040E050E00E94B82C6F5F6B83812C96
:102BF000912C540140E034E6632E712C00E911E081
:102C0000242F30E02E54384FF901E370FF2730971E
:102C100089F4C901B3010E94A42C892B31F4C901A4
:102C2000B8010E94A42C892B29F48EE691E0A0E043
:102C3000B0E004C08DE691E0A0E0B0E0880E991EFF
:102C4000AA1EBB1ED501C401AA27BB27C816D906D8
:102C5000EA06FB0610F04F5FD3CF4E83309799F40E
:102C6000C90164E670E00E94A42C892B39F4C901E3
:102C700060E971E00E94A42C892B29F48EE691E092
:102C8000A0E0B0E004C08DE691E0A0E0B0E0881ADA
:102C9000990AAA0ABB0AC818D908EA08FB08C90198
:102CA00064E670E00E94A42C8C01C90160E971E027
:102CB0000E94A42CABE0B2E020E0213041F4309738
:102CC00051F40115110529F4009729F402C04C9123
:102CD00003C04DE101C04CE150E060E070E0C4167B
:102CE000D506E606F70640F0C41AD50AE60AF70A42
:102CF0002F5F11962C3009F72F5F2D83C394CC8260
:102D0000DF91CF911F910F91FF90EF90DF90CF90C7
:102D1000BF90AF909F908F907F906F900895CF92CB
:102D2000DF92EF92FF92C0901E01D0901F01E090C1
:102D30002001F09021016C157D058E059F0571F035
:102D40006B017C0148EE53E00E94BE15C0921E014B
:102D5000D0921F01E0922001F0922101FF90EF90AC
:102D6000DF90CF9008950E948F168091EA0390E043
:102D700008950E948F168091E90390E008950E94C3
:102D80008F168091E80390E008950E948F1680913D
:102D9000EC0390E008950E948F168091ED0390E07F
:102DA00008950E948F168091EE0390E08E54984F04
:102DB00008950F931F936093E4037093E50380934A
:102DC000E6039093E70300911A0110911B012091F3
:102DD0001C0130911D01DC01CB01800F911FA21F4E
:102DE000B31F8093DC039093DD03A093DE03B093C5
:102DF000DF0382E090E09093DB038093DA030E948C
:102E0000BC0E6093E0037093E1038093E203909320
:102E1000E3031F910F910895CF92DF92EF92FF92FB
:102E20000F931F930E94BC0EC090E003D090E1036B
:102E3000E090E203F090E3038B019C010C191D0963
:102E40002E093F098091E4039091E503A091E603E8
:102E5000B091E703083E134021053105D0F00196FB
:102E6000A11DB11D8093E4039093E503A093E603B5
:102E7000B093E703B701A60148515C4F6F4F7F4FF6
:102E80004093E0035093E1036093E2037093E30304
:102E9000C9CF4091DC035091DD036091DE03709156
:102EA000DF0384179507A607B707C8F1E091D80399
:102EB000F091D903309799F1099561157105810554
:102EC000910519F00E94D9162AC040911A0150911B
:102ED0001B0160911C0170911D018091E403909190
:102EE000E503A091E603B091E703840F951FA61FA9
:102EF000B71F8093DC039093DD03A093DE03B093B0
:102F0000DF0381E090E02091DA033091DB03232B93
:102F100011F480E090E09093DB038093DA036091FA
:102F2000E4037091E5038091E6039091E7031F911C
:102F30000F91FF90EF90DF90CF9008950E940C17B3
:102F40008091DA039091DB030895EFEFF0E083E0E6
:102F50008083608381E090E0089583EF93E00E9496
:102F60000A13EFEEF3E0138212828BE192E0918379
:102F700080830895CF92DF92EF92FF920F931F9379
:102F8000CF93DF9300D000D000D0CDB7DEB76C0177
:102F90007B018A0160E070E0CA010E9431128F3229
:102FA00079F0B7016F5F7F4FCE0101960E94E51067
:102FB000B801CE0101960E94BE11682F11E003C036
:102FC000602F912F10E0792FC6010E94E510112388
:102FD00021F0CE0101960E94ED0FC60126960FB694
:102FE000F894DEBF0FBECDBFDF91CF911F910F913F
:102FF000FF90EF90DF90CF9008950F931F93CF93A2
:10300000DF93EC018C010F5F1F4F60EC71E0C80192
:103010000E945B10CE0107960E946014CE010D96AF
:103020000E940A13CE0149960E940A136DEA71E0CC
:10303000C8010E943D118CE28B878B8BDF91CF9171
:103040001F910F91089526E040E950ED63E070E094
:103050008091CF049091D0040E94571E86EC94E09A
:103060000E948A2388EE94E00C941928DF92EF9254
:10307000FF920F931F93CF93DF9300D000D000D027
:10308000CDB7DEB7D42EAB01BC01CE0101960E94B4
:10309000BA17E980FA808AE590E00E94BD1E8C0193
:1030A00026EC34E04D2DB7010E94BA26CE010196E0
:1030B0000E94ED0FC8010E94572781110CC0011515
:1030C000110561F0C8010E940828C8010E94C11EB4
:1030D00000E010E003C023EB31E002C020E030E06C
:1030E000B901C80126960FB6F894DEBF0FBECDBF5A
:1030F000DF91CF911F910F91FF90EF90DF90089596
:10310000CF93DF93FB0180819181835B9140A1F498
:10311000FB01C281D3811182108213821282CE01FF
:103120000E94D527209741F0CE010E940828CE01A9
:10313000DF91CF910C94C11EDF91CF9108950F9331
:1031400000E020E040E060E084E294E00E94A70715
:103150008FEF93E00F910C94FD1780E094E00C94B6
:10316000ED0FFB0120813181235B314021F4FB0114
:103170004281538102C040E050E061E049960C94E6
:10318000ED12CF93DF93EC010E949D0719861886FC
:1031900088EE93E0A0E0B0E08A879B87AC87BD878C
:1031A00082EB92E09F838E8386EC94E09B8B8A8BEC
:1031B0001F8A188E198E60EC71E0CE01865A9F4FDF
:1031C0000E945B10CE01805A9F4F0E946014CE0176
:1031D0008A599F4F0E940A13CE018E589F4F0E941A
:1031E0000A13FE01E459FF4F8CE2808338978083F5
:1031F000CB59DF4F8AE28883DF91CF910895EF9218
:10320000FF920F931F93CF93DF9300D000D000D095
:10321000CDB7DEB78C017B0126E040E950ED63E0DD
:1032200070E08091CF049091D0040E94571E86ECEC
:1032300094E00E948A2381ED94E00E9436266FE19B
:1032400072E081ED94E00E9484080A5F1F4F68E1FC
:1032500072E0CE0101960E945E11BE016F5F7F4F4A
:10326000C8010E94B629CE0101960E94ED0F65E1CA
:1032700072E0CE0101960E945E11BE016F5F7F4F2A
:10328000C8010E94E928CE0101960E94ED0F66E078
:1032900072E0CE0101960E945E11BE016F5F7F4F0A
:1032A000C8010E94E928CE0101960E94ED0F4AE074
:1032B000B701CE0101960E941111BE016F5F7F4FD1
:1032C000C8010E94E928CE0101960E94ED0FC801B5
:1032D0000E94FE2868EB7BE080E090E00E94ED0E0B
:1032E000C8010E945D29882309F4B1CF67EF71E01E
:1032F00081ED94E00E94840826960FB6F894DEBF14
:103300000FBECDBFDF91CF911F910F91FF90EF9036
:103310000895E0912A04F0912B04309741F49093A2
:103320002B0480932A04FC011186108608952085C1
:1033300031852115310511F0F901F9CF9187808789
:10334000089520E332E0FC0131832083738362839C
:1033500015821482178216820C9489190F931F9379
:10336000CF93DF938C01C0912A04D0912B04209736
:1033700059F0E881F9810190F081E02DCE010995A5
:103380000884D985C02DF3CF80912E0490912F040D
:10339000892B81F060E070E0C801865A9F4F0E943F
:1033A000FA10E0912E04F0912F04DF91CF911F913C
:1033B0000F910994DF91CF911F910F9108950F9371
:1033C00000E020E040E060E08EEA94E00E94A70781
:1033D00080E394E00F910C94C1188AE894E00E9475
:1033E000ED0F86E394E00C94AF29AF92BF92CF9299
:1033F000DF92EF92FF920F931F93CF93DF93CDB79E
:10340000DEB72C970FB6F894DEBF0FBECDBF7C01A0
:103410005C0126E0A20EB11C4DE3B501CE0107967A
:103420000E949B206EE2CE0107960E945E12D70199
:10343000A65ABF4F6D018F3FBFEF9B07A9F09C01BC
:1034400040E050E0BE01695F7F4FCE0101960E94CF
:103450006212BE016F5F7F4FC6010E94EE10CE0167
:1034600001960E94ED0F06C0BE01695F7F4FC60145
:103470000E94CE1000912A0410912B04E0E6EE0E7B
:10348000F11C0115110519F1D80112966D917C916D
:103490001397C6010E9412128823A9F0B501C70133
:1034A0000E945C14D801ED91FC910280F381E02D23
:1034B000B701C8010995D8011696ED91FC911797AF
:1034C000309709F00995F80100851185DACFE09170
:1034D0002C04F0912D04309709F0099560E070E01C
:1034E000C6010E94FA10CE0107960E94ED0F2C969D
:1034F0000FB6F894DEBF0FBECDBFDF91CF911F9105
:103500000F91FF90EF90DF90CF90BF90AF90089514
:103510008F929F92AF92BF92DF92EF92FF920F93A2
:103520001F93CF93DF93CDB7DEB763970FB6F894B1
:10353000DEBF0FBECDBF7C018C010A5F1F4F8AE04A
:10354000D82EC8010E94B428181619060CF09EC087
:103550004AE3B801CE010D960E949B2060EC71E019
:10356000CE0107960E945B1068ED71E0CE010196D6
:103570000E945E11BE016F5F7F4FCE010D960E94CB
:103580000112B82ECE0101960E94ED0FBB2021F052
:10359000C7010E94AE1968C062ED71E0CE010196CC
:1035A0000E945E11BE016F5F7F4FCE010D960E949B
:1035B0000112B82ECE0101960E94ED0FBB2021F022
:1035C000C7010E94F51950C06AEC71E0CE01019666
:1035D0000E945E11BE016F5F7F4FCE010D960E946B
:1035E0000112B82ECE0101960E94ED0FBB2081F092
:1035F0004AE2B801CE0101960E949B2069817A813E
:10360000C7010E94B307CE0101960E94ED0F2CC0A6
:1036100065EC71E0CE0101960E945E11BE016F5F04
:103620007F4FCE010D960E940112B82ECE01019659
:103630000E94ED0FBB20C1F04AE2B801CE01019615
:103640000E949B204AE050E060E070E089819A810E
:103650000E94052F4B015C01CE0101960E94ED0FE7
:10366000C501B4010E94D916DB8A41E050E0BE01D9
:103670006D5E7F4FC8010E948521CE0107960E9492
:10368000ED0FCE010D960E94ED0F5BCF63960FB646
:10369000F894DEBF0FBECDBFDF91CF911F910F9188
:1036A000FF90EF90DF90BF90AF909F908F90089524
:1036B000CF92DF92EF92FF92CF93DF93EC016A01FA
:1036C0007B010E94BC0EC60ED71EE81EF91E0E948A
:1036D000BC0EA7019601261B370B480B590B57FD53
:1036E0000AC0CE010E94881A61E070E080E090E09C
:1036F0000E94ED0EECCFDF91CF91FF90EF90DF9025
:10370000CF900895CF93DF93EC010E949E1702970C
:1037100041F048EE53E060E070E0CE010E94581B9B
:10372000F4CFDF91CF910895EF92FF920F931F9303
:10373000CF93DF938C017A01EC012696CE010E9493
:1037400069086EE2CE010E947908B701CE010E949D
:1037500069086FE172E0CE010E947708F801E35931
:10376000FF4F89E28083AE0161E0C8018A599F4F13
:10377000DF91CF911F910F91FF90EF900C94ED127C
:10378000EF92FF920F931F93CF93DF93CDB7DEB7E6
:103790002C970FB6F894DEBF0FBECDBF8C017B0116
:1037A000BA01CE0107960E945E11B701CE010196C3
:1037B0000E945B10AE01495F5F4FBE016F5F7F4F9C
:1037C000C8010E94941B8C01CE0101960E94ED0F4E
:1037D000CE0107960E94ED0FC8012C960FB6F89403
:1037E000DEBF0FBECDBFDF91CF911F910F91FF9034
:1037F000EF900895EF92FF920F931F93CF93DF9373
:103800008C017A01EC012696CE010E9469086EE2D5
:10381000CE010E947908B701CE010E94690865E7D0
:1038200072E0CE010E947708F801E359FF4F108241
:10383000AE0161E0C8018A599F4FDF91CF911F917E
:103840000F91FF90EF900C94ED12EF92FF920F9377
:103850001F93CF93DF93CDB7DEB72C970FB6F894B5
:10386000DEBF0FBECDBF8C017B01BA01CE01079632
:103870000E945E11B701CE0101960E945B10AE015D
:10388000495F5F4FBE016F5F7F4FC8010E94FA1B07
:103890008C01CE0101960E94ED0FCE0107960E9489
:1038A000ED0FC8012C960FB6F894DEBF0FBECDBF4A
:1038B000DF91CF911F910F91FF90EF900895CF93DB
:1038C000DF93EB01411103C045EE51E002C04AEE27
:1038D00051E061E272E00E94251CBE010E94F513D6
:1038E000DC01ED91FC910280F381E02DDF91CF911D
:1038F0000994CF92DF92EF92FF920F931F93CF9391
:10390000DF9300D000D0CDB7DEB78C016C0126E18B
:10391000C20ED11C60E070E0C6010E941212D801F4
:1039200093967D01811123C042E0B6018FEF93E0B1
:103930000E94361869837A838B839C83BE016F5FF4
:103940007F4F8FEF93E00E94B118B7010E943214AD
:10395000DC01ED91FC910280F381E02D0995BE011F
:103960006F5F7F4F8FEF93E00E9480180FC0F801C8
:10397000848D81110BC06281738141E080E394E00A
:103980000E945F1C81E0D8015C968C93F8016281F3
:1039900073814AE352E080E394E00E94C01BB701C8
:1039A0000E943214DC01ED91FC910280F381E02D44
:1039B000099560E070E0C7010E94FA100F900F9027
:1039C0000F900F90DF91CF911F910F91FF90EF908B
:1039D000DF90CF9008950A970C94791CCF93DF93D2
:1039E000EC010E94A119CE010A960E940A1388E3F5
:1039F00092E09983888382E492E09B878A8760ECD7
:103A000071E0CE0146960E945B10CE014D960E9459
:103A1000DD128CE2888B1C8EDF91CF9108952F925E
:103A20003F924F925F926F927F928F929F92AF924E
:103A3000BF92DF92EF92FF920F931F93CF93DF938A
:103A4000CDB7DEB72C970FB6F894DEBF0FBECDBF53
:103A50003C01D62E19012A0164E572E0CE010796D9
:103A60000E945E11D30112966D917C911397CE0145
:103A700001960E945B10AE01495F5F4FBE016F5F10
:103A80007F4F80E394E00E94FA1B6D2D70E00E944E
:103A90002D13B201A1010E945013B801A7010E9489
:103AA0005013DC01ED91FC910280F381E02D09952A
:103AB000CE0101960E94ED0FCE0107960E94ED0FF8
:103AC0002C960FB6F894DEBF0FBECDBFDF91CF911D
:103AD0001F910F91FF90EF90DF90BF90AF909F905C
:103AE0008F907F906F905F904F903F902F900895B0
:103AF000DC011A96ED91FC911B97AC01435E5F4F80
:103B00000190F081E02D60E00A9609940F9300E0A7
:103B100020E040E060E084EB94E00E94A7070F9172
:103B20000895FC01918D228D892F90E0805C9F4F3C
:103B3000821B91098F7399270895FC01918D828DC5
:103B4000981731F0828DE80FF11D858D90E0089572
:103B50008FEF9FEF0895FC01918D828D981761F092
:103B6000828DDF01A80FB11D5D968C91928D9F5FB4
:103B70009F73928F90E008958FEF9FEF089581E3F8
:103B80009AE2892B49F080E090E0892B29F00E948D
:103B9000312A81110C9400000895FC01848DDF010D
:103BA000A80FB11DA35ABF4F2C91848D90E00196B0
:103BB0008F739927848FA689B7892C93A089B1899F
:103BC0008C9180648C93938D848D981306C00288A9
:103BD000F389E02D80818F7D80830895CF93DF93DB
:103BE000EC01888D8823C9F0EA89FB89808185FDF5
:103BF00005C0A889B9898C9186FD0FC00FB607FC56
:103C0000F5CF808185FFF2CFA889B9898C9185FF96
:103C1000EDCFCE010E94CD1DE7CFDF91CF9108956A
:103C2000EF92FF920F931F93CF93DF93EC0181E00C
:103C3000888F9B8D8C8D981305C0E889F9898081C8
:103C400085FD24C0F62E0B8D10E00F5F1F4F0F7304
:103C50001127E02E8C8DE8120CC00FB607FCFACFAE
:103C6000E889F989808185FFF5CFCE010E94CD1DBD
:103C7000F1CF8B8DFE01E80FF11DE35AFF4FF0826B
:103C80000B8FEA89FB898081806207C0EE89FF89FA
:103C90006083E889F98980818064808381E090E095
:103CA000DF91CF911F910F91FF90EF900895CF92E8
:103CB000DF92EF92FF921F93CF93DF93EC016A01A3
:103CC0007B01122FE889F98982E080834115514EEA
:103CD00061057105B1F060E079E08DE390E0A70146
:103CE00096010E94B82CDA01C9010197A109B10916
:103CF000B695A79597958795AC01411580E1580732
:103D0000A8F0E889F989108260E874E88EE190E013
:103D1000A70196010E94B82CBA01A901415051098E
:103D2000610971097695679557954795EC85FD85ED
:103D30005083EE85FF854083188EEC89FD891083C2
:103D4000EA89FB89808180618083EA89FB8980819F
:103D500088608083EA89FB89808180688083EA8922
:103D6000FB8980818F7D8083DF91CF911F91FF90B0
:103D7000EF90DF90CF90089508950C940E2D0C9441
:103D80000E2D0C94A32D0C94A32DEF92FF920F9364
:103D90001F93CF93DF937B01FC01C281D38100E0AD
:103DA00010E0209781F0E881F9810280F381E02D15
:103DB000B701CE01099597FD08C0080F191F0884A7
:103DC000D985C02DEECFC80102C08FEF9FEFDF91E4
:103DD000CF911F910F91FF90EF9008950F931F9334
:103DE000CF93DF938B01FC01C281D381209771F0C7
:103DF000E881F9810480F581E02DB801CE010995B3
:103E0000009731F40884D985C02DF0CF80E090E090
:103E1000DF91CF911F910F9108950F931F93CF932F
:103E2000DF938B01FC01C281D381209771F0E8817F
:103E3000F9810680F781E02DB801CE010995080FC0
:103E4000111D0884D985C02DF0CFF8011082DF91B3
:103E5000CF911F910F9108950F931F93CF93DF93ED
:103E60008B01FC01C281D381209771F0E881F98137
:103E70000190F081E02DB801CE010995811105C0B6
:103E80000884D985C02DF0CF80E0DF91CF911F91BC
:103E90000F9108958091BE0481110DC082E080933E
:103EA000BA0484E08093BB041092BD041092BC0459
:103EB00081E08093BE048AEB94E008950F931F93F2
:103EC000CF93DF93EC010E94BC0E688779878A87C5
:103ED0009B87E881F9810680F781E02DCE01099565
:103EE00097FF17C00E94BC0E088519852A853B855F
:103EF000DC01CB01801B910BA20BB30B0C811D814C
:103F00002E813F8180179107A207B30710F38FEF2F
:103F10009FEFDF91CF911F910F9108950F931F9302
:103F2000CF93DF93EC010E94BC0E688779878A8764
:103F30009B87E881F9810084F185E02DCE01099508
:103F400097FF17C00E94BC0E088519852A853B85FE
:103F5000DC01CB01801B910BA20BB30B0C811D81EB
:103F60002E813F8180179107A207B30710F38FEFCF
:103F70009FEFDF91CF911F910F910895FF920F93C3
:103F80001F93CF93DF93EC018B01F42ECE010E949F
:103F90008E1F9C0197FD0BC08D32910541F0C0979B
:103FA0000A9728F0FF2029F02E32310511F4C901BB
:103FB0001DC001301105C1F00230110569F42D302A
:103FC000310551F034F4295031092230310520F007
:103FD0000BC02032310541F4E881F9810680F78178
:103FE000E02DCE010995D2CF8FEF9FEFDF91CF91DA
:103FF0001F910F91FF9008958F929F92AF92BF9261
:10400000CF92DF92FF920F931F93CF93DF9300D055
:1040100000D0CDB7DEB78C01B42E40E00E94BE1FA9
:10402000FC0197FD4CC020E030E0A901F12CCB2C25
:10403000BB0CDD08EC15FD05F1F0ED32F105C9F022
:10404000CF01C0970A97B8F4AAE0B0E00E94EF2C25
:104050004F01FF0FAA08BB08DC01CB01880D991D99
:10406000AA1DBB1D9C01AD01205331094109510915
:1040700002C0FF24F394D801ED91FC910680F781F2
:10408000E02DC80129833A834B835C830995C801DD
:104090000E948E1FFC01C09729813A814B815C816F
:1040A0000A9740F2EC15FD0529F2FF2061F0662722
:1040B0007727CB01621B730B840B950B06C060E066
:1040C00070E0CB0102C0CA01B9010F900F900F90B0
:1040D0000F90DF91CF911F910F91FF90DF90CF90C4
:1040E000BF90AF909F908F900895CF92DF92EF9204
:1040F000FF920F931F93CF93DF936C017A018B0193
:10410000C0E0D0E0CE15DF0561F0C6010E945E1F61
:1041100097FF02C07E0105C0F80181938F012196AF
:10412000F1CFC701DF91CF911F910F91FF90EF90D9
:10413000DF90CF900895EF92FF920F931F93CF934C
:10414000DF93EC017B01042F60EC71E00E945B10B7
:10415000C7010E945E1F002E000C110B97FD0BC0C3
:104160008017910741F0682FCE010E94AB11C70163
:104170000E945E1FF3CFCE01DF91CF911F910F916F
:10418000FF90EF9008954F925F926F927F928F927F
:104190009F92AF92BF92CF92DF92EF92FF920F93D6
:1041A0001F93CF93DF938C01EB0186E0849F400146
:1041B000859F900C1124860E971EFB01E815F905CA
:1041C00008F582819381892B21F13696F7CF6081A2
:1041D000718144815581DB01A40FB51F2C91022E02
:1041E000000C330B8217930711F54F5F5F4F558318
:1041F0004483228133814217530759F03696E815DC
:10420000F90528F3C8010E945E1F97FD46C0FE0114
:10421000F6CFEC1BFD0BF595E7952BEA3AEAE29F0A
:10422000C001E39F900DF29F900D112438C04115FD
:10423000510521F3C480D580960121503109358381
:104240002483DB01A20FB31FAC910A2E000CBB0B21
:104250008A179B07F9F421153105C9F05B017A0132
:10426000E21AF30AE60EF71E412C512CD5016D908F
:104270005D01D7017D907D01671006C0BFEF4B1A2D
:104280005B0A4216530690F34216530699F6D582FE
:10429000C482B4CF232B71F6B1CF8FEF9FEFDF91A4
:1042A000CF911F910F91FF90EF90DF90CF90BF9033
:1042B000AF909F908F907F906F905F904F900895F8
:1042C000CF93DF9300D000D000D0CDB7DEB7FE0192
:1042D000319626E0DF011D922A95E9F77A836983FA
:1042E0005C834B8341E050E0BF010E94C32021E08A
:1042F000892B09F020E0822F26960FB6F894DEBFB6
:104300000FBECDBFDF91CF9108950C946021FC01C9
:10431000238134812627022E2295207F2025032EFB
:10432000322F22952F700226269532272327220F1F
:10433000220F220F2025348323830895CF93DF9308
:10434000EC018D819E81DC01ED91FC916C810190ED
:10435000F081E02D09958D819E81DC01ED91FC912C
:104360000190F081E02D6B81DF91CF9109948F92C4
:104370009F92AF92BF92CF92DF92EF92FF92CF9334
:10438000DF93EC016B010E94BC0E4B015C01E12C40
:10439000F12C8D819E81DC01ED91FC910680F781ED
:1043A000E02D099597FF0FC00E94BC0EDC01CB01E8
:1043B00088199909AA09BB098C159D05AE05BF0589
:1043C00040F38FEF9FEFDF91CF91FF90EF90DF9061
:1043D000CF90BF90AF909F908F900895CF93DF9331
:1043E000EC018D819E81DC01ED91FC910480F581D1
:1043F000E02D09951816190654F48D819E81DC0173
:10440000ED91FC910680F781E02D0995EACFDF91CF
:10441000CF9108952F923F924F925F926F927F9229
:104420008F929F92AF92BF92CF92DF92EF92FF92C4
:104430000F931F93CF93DF93CDB7DEB72D970FB6B2
:10444000F894DEBF0FBECDBF3C012B013C832B8314
:10445000BF82AE82C8018C0D9D1D1C01240E351E2D
:104460003D82A32CB12CCB01840F951F998788879F
:10447000D901A00FB11FBB87AA87F701EC0DFD1D65
:10448000FD87EC87F3018085B81608F028C1EFEFAF
:10449000FFEFD3011496FC93EE93139715968D912D
:1044A0009C911697DC01ED91FC910190F081E02D3B
:1044B0006FEF09956FEFC3010E948721F30185819A
:1044C0009681DC01ED91FC910190F081E02DD3010A
:1044D0006C910995F3016081C3010E948721D3018A
:1044E00015968D919C911697DC01ED91FC910190B0
:1044F000F081E02D6D8109956A2DC3010E9487210D
:10450000F30185819681DC01ED91FC910190F081B0
:10451000E02D622D0995622DC3010E948721620161
:1045200088859985C816D906A1F0F3018581968101
:104530008601DC01ED91FC910190F081E02DD60126
:104540006D916D010995F8016081C3010E94872179
:10455000E7CFCB80DC808A859B85C816D906B1F071
:10456000D30115968D919C9116978601DC01ED91F2
:10457000FC910190F081E02DD6016D916D010995BE
:10458000F8016081C3010E948721E5CF67018C8516
:104590009D85C816D906B1F0D30115968D919C91D1
:1045A00016978601DC01ED91FC910190F081E02DE0
:1045B000D6016D916D010995F8016081C3010E94DA
:1045C0008721E5CFC3010E949E2164E670E0C3010C
:1045D0000E94B7218F3F910509F076C0EFEFFFEF02
:1045E000D3011496FC93EE9313976FEFC3010E94CF
:1045F000872165E070E0C3010E94B721D3016C916F
:10460000262F30E08217930709F05EC0C3010E9495
:1046100087216AE070E0C3010E94B7216C0197FD19
:1046200053C0682FC3010E9487216AE070E0C30174
:104630000E94B7218C0197FD47C0682FC3010E94DB
:104640008721CA821982E981FA810E0F1F1FC12CAE
:10465000D12C65E070E0C301C016D106A1F0C814EA
:10466000D90489F00E94B72197FD09C0EE81FF812E
:10467000EC0DFD1D8083682FC3010E948721FFEF91
:10468000CF1ADF0AE6CF0E94B7216C0197FD1CC04C
:1046900065E070E0C3010E94B72197FD15C0DC2CD6
:1046A000CC248C0D9D1DD30113962D913C91149714
:1046B0002817390749F48C918F5F8C93C8018016B5
:1046C000910678F4C4010DC0B39464E670E080E014
:1046D00090E00E94ED0EC3010E94EE21D3CE8FEF39
:1046E0009FEF2D960FB6F894DEBF0FBECDBFDF91C2
:1046F000CF911F910F91FF90EF90DF90CF90BF90DF
:10470000AF909F908F907F906F905F904F903F9071
:104710002F9008953F924F925F926F927F928F9267
:104720009F92AF92BF92CF92DF92EF92FF920F9340
:104730001F93CF93DF93CDB7DEB72E970FB6F894C4
:10474000DEBF0FBECDBFDC0117962C91179721114C
:10475000D2C03C0181E0FD018783C3010E94EE21AC
:1047600068EE73E080E090E00E94ED0ED3011596B4
:104770008D919C911697DC01ED91FC910480F5815F
:10478000E02D09951816190644F395E0592E442496
:10479000439422E3322EE2E2F1E0DE011696852D0B
:1047A00001900D928A95E1F7F3014086812C912CBE
:1047B000A12CB12CC12CD12CE12CF12C00E010E06B
:1047C00020E030E045E050E0BE016A5F7F4FC3016A
:1047D0000E940A2263E0D30115968D919C91169751
:1047E0000E9479086AEF70E080E090E00E94ED0E90
:1047F00067E772E0F301858196810E9445086AEFC0
:1048000070E080E090E00E94ED0E65E772E0D30179
:1048100015968D919C9116970E94450864EF71E062
:1048200080E090E00E94ED0E69E672E0F301858180
:1048300096810E94450864EF71E080E090E00E945C
:10484000ED0EC3010E94EE21E7E2F1E0DE011196D8
:10485000852D01900D928A95E1F7D30118963C922F
:1048600084E0882E912CFE013B965F0120E030E031
:1048700045E050E0BE016F5F7F4FC3010E940A22F6
:104880008F3FFFEF9F0739F468EE73E080E090E020
:104890000E94ED0E80CF2B852111FFCF049711F5DB
:1048A0002C8530E02053310984E6829FA001839F4C
:1048B000500D11242D8530E0205331096AE0629FAC
:1048C000C001639F900D1124840F951F2E8530E049
:1048D00020533109820F931FD30112969C938E931C
:1048E000119705C084E690E0F3019283818382E30F
:1048F000D30118968C932E960FB6F894DEBF0FBE98
:10490000CDBFDF91CF911F910F91FF90EF90DF907E
:10491000CF90BF90AF909F908F907F906F905F905F
:104920004F903F900895E6ECF4E010828AEE94E018
:1049300096838583178210869287818708954F9288
:104940005F926F927F928F929F92AF92BF92CF921F
:10495000DF92EF92FF920F931F93CF93DF931F92FB
:10496000CDB7DEB73C019B012A01DC0152968C9148
:10497000811105C08B017B01E40EF51E35C080E579
:104980008983812C912CA12CB12CC12CD12CE12C10
:10499000F12C8A0141E050E0BE016F5F7F4FF301CF
:1049A000848595850E940A2222C0D3015596ED91F7
:1049B000FC91569753968C91539791E0980F53968C
:1049C0009C93D8019D918D01E80FF11D9083F30117
:1049D00093898489981308C00190F081E02D0284A6
:1049E000F385E02DC30109950E151F05F1F6C201EF
:1049F0000F90DF91CF911F910F91FF90EF90DF907B
:104A0000CF90BF90AF909F908F907F906F905F906E
:104A10004F9008958F929F92AF92BF92CF92DF9264
:104A2000EF92FF920F931F9348015901C12CD12C93
:104A3000E12CF12C00E010E020E030E00E940A229E
:104A40001F910F91FF90EF90DF90CF90BF90AF90AC
:104A50009F908F9008950F931F93CF93DF93FC0146
:104A6000228921110FC0EC01438950E065897689C4
:104A700000E010E020E030E0848595850E940A2562
:104A800081E08B8BDF91CF911F910F9108950F9350
:104A90001F93CF93DF9300D0CDB7DEB7DC015296E2
:104AA0008C915297882399F080E589836A8300E08E
:104AB00010E020E030E042E050E0BE016F5F7F4F49
:104AC0001C968D919C911D970E940A251FC055969A
:104AD000ED91FC91569753968C91539791E0980FD6
:104AE00053969C935397E80FF11D608353969C91C6
:104AF000539754968C915497981308C0ED91FC915C
:104B000011970284F385E02DCD01099581E090E0B5
:104B10000F900F90DF91CF911F910F910895FC019D
:104B20001382128288EE93E0A0E0B0E08483958344
:104B3000A683B7838AE592E09183808386EC94E034
:104B40009587848716861786118A108A81E0828B62
:104B50000895CF93DF93FC012289211109C0EC0154
:104B600085899689009711F00E94C31E81E08A8B87
:104B7000DF91CF910895EF92FF920F931F93CF9300
:104B8000DF9300D0CDB7DEB7FC012685211115C01B
:104B90007C01178680E7898380E28A8320893189B6
:104BA00000E210E042E050E0BE016F5F7F4F84857D
:104BB00095850E940A25F70186870F900F90DF9157
:104BC000CF911F910F91FF90EF900895CF93DF93B6
:104BD000EC010E94BB258E8590E0DF91CF91089576
:104BE000CF93DF93EC010E94BB258E85882369F06B
:104BF00081508E87E889F9898F8591E0980F9F878A
:104C0000E80FF11D808190E002C08FEF9FEFDF91F0
:104C1000CF910895CF93DF93EC010E94BB258E8541
:104C2000882341F08F85E889F989E80FF11D80819B
:104C300090E002C08FEF9FEFDF91CF910895CF9367
:104C4000DF93EC010E94A92588899989009721F0BA
:104C50000E94C31E198A188ADF91CF9108952AE510
:104C600032E0FC01318320830C941F26CF93DF9325
:104C7000EC018C859D850E948A23CE010E941F260F
:104C800080E290E00E94BF1E998B888BDF91CF91CC
:104C9000089581ED94E00C948F2581ED94E00C94BF
:104CA0002F26CF93DF931F92CDB7DEB76983DC0148
:104CB000ED91FC910280F381E02D41E050E0BE01D6
:104CC0006F5F7F4F09950F90DF91CF910895089501
:104CD0006F927F928F929F92AF92BF92CF92DF920C
:104CE000EF92FF920F931F93CF93DF9300D01F9209
:104CF000CDB7DEB7FC01E85AFF4F20812F3F31F1DD
:104D00003A019B0147E64983319640814A833997AE
:104D100088248394912CCE0103965C01C12CD12C64
:104D2000E12CF12C830142E050E0BE016F5F7F4F28
:104D3000808191810E940A228B81882329F090E052
:104D400091958195910904C0C30102C08FEF9FEF37
:104D50000F900F900F90DF91CF911F910F91FF90C7
:104D6000EF90DF90CF90BF90AF909F908F907F900B
:104D70006F9008952F923F924F925F926F927F9221
:104D80008F929F92AF92BF92CF92DF92EF92FF925B
:104D90000F931F93CF93DF93CDB7DEB728970FB64E
:104DA000F894DEBF0FBECDBF3C018B01FC01138226
:104DB000128288EE93E0A0E0B0E084839583A6831E
:104DC000B78384E992E0918380831301F0E52F0E8D
:104DD000311CF101318320837301F2E5EF0EF11CE8
:104DE00060EC71E0C70148870E945B10230188E5F1
:104DF000480E511C4885F2014083B801C7010E944A
:104E0000FA1082E7898387E78A8381E68B8386E4C9
:104E10008E83F2018081FE01E80FF11D81818F8375
:104E200081E090E0F30197878687EA5AFF4F00817F
:104E30001181F7012081318182E0882E912CCE01F1
:104E400004965C01C12CD12CE12CF12C42E050E005
:104E5000BE016A5F7F4FF101808191810E940A2229
:104E60008C81882321F08FEFF201808307C0F3014A
:104E7000E75AFF4F8D818083F301148628960FB681
:104E8000F894DEBF0FBECDBFDF91CF911F910F9180
:104E9000FF90EF90DF90CF90BF90AF909F908F905A
:104EA0007F906F905F904F903F902F900895FC01FE
:104EB000E85AFF4F81E090819F3F09F480E0089518
:104EC000EF92FF920F931F93CF93DF9300D01F9227
:104ED000CDB7DEB7FC012485211128C07C011586E1
:104EE00087E489838FE38B83E75AFF4F80818A832E
:104EF0009701205F3F4F399700E410E043E050E016
:104F0000BE016F5F7F4F808191810E940A259C01C5
:104F1000215031092E3F3F4F18F0F701148606C08B
:104F2000F70195859F5F9587815084870F900F903B
:104F30000F90DF91CF911F910F91FF90EF90089507
:104F4000CF93DF93EC010E9460278C85882359F072
:104F500081508C878D8591E0980F9D87C80FD11D5A
:104F6000888990E002C08FEF9FEFDF91CF91089585
:104F7000CF93DF93EC010E9460278C85882331F06A
:104F80008D85C80FD11D888990E002C08FEF9FEFFB
:104F9000DF91CF910895CF93DF93EC010E946027BA
:104FA0008C8590E0DF91CF910895EF92FF920F935F
:104FB0001F93CF93DF9300D01F92CDB7DEB77C0154
:104FC00028E5E20EF11CF70120812F3FB9F026E61B
:104FD0002983319620812A83399701E010E09E01D0
:104FE0002D5F3F4F42E050E0BE016F5F7F4F8081F9
:104FF00091810E940A258FEFF70180830F900F9017
:105000000F90DF91CF911F910F91FF90EF90089536
:10501000CF93DF93EC0184E992E099838883CE01FA
:105020000E94D527CE018E5A9F4FDF91CF910C94CD
:10503000ED0F81E0089586EC94E09093E90480936D
:10504000E804089508956F927F928F929F92AF9295
:10505000BF92CF92DF92EF92FF920F931F93CF9365
:10506000DF9300D0CDB7DEB79B013A0149E4498315
:10507000FC0146854A83812C912CA12CB12CC12C9A
:10508000D12CE12CF12C830142E050E0BE016F5F96
:105090007F4F848595850E940A22C3010F900F904F
:1050A000DF91CF911F910F91FF90EF90DF90CF9004
:1050B000BF90AF909F908F907F906F9008950F93C7
:1050C0001F93CF93DF9300D01F92CDB7DEB729E4B3
:1050D0002983FC0126852A836B8300E010E020E011
:1050E00030E043E050E0BE016F5F7F4F84859585DF
:1050F0000E940A2581E090E00F900F900F90DF91C1
:10510000CF911F910F910895EF92FF920F931F93EC
:10511000CF93DF9300D01F92CDB7DEB7FC01228979
:10512000211118C07C01138A8FE4898380E48B836A
:1051300086858A839F012C5E3F4F00E410E043E0A8
:1051400050E0BE016F5F7F4F848595850E940A25E0
:10515000F701828B0F900F900F90DF91CF911F91ED
:105160000F91FF90EF900895CF93DF93EC010E9491
:1051700084288A8990E0DF91CF910895CF93DF93BF
:10518000EC010E9484288A89882359F081508A8BF7
:105190008B8991E0980F9B8BC80FD11D8C8990E073
:1051A00002C08FEF9FEFDF91CF910895CF93DF93F0
:1051B000EC010E9484288A89882331F08B89C80FEA
:1051C000D11D8C8990E002C08FEF9FEFDF91CF91CE
:1051D00008950F931F93CF93DF93EC018B0160EA47
:1051E00072E08F8598890E949C11B8018F859889FB
:1051F000DF91CF911F910F910C9495116F927F9237
:105200008F929F92AF92BF92CF92DF92EF92FF92D6
:105210000F931F93CF93DF9300D01F92CDB7DEB7CC
:105220003C0182E58B83D3011F96ED91FC91509751
:10523000048115812081318182E0882E912CFE012C
:1052400031965F01C12CD12CE12CF12C41E050E0D2
:10525000BE016D5F7F4F1C968D919C911D970E94A2
:105260000A228A81D3011E968C931E971F960D9158
:105270001C9150970115110531F0C8010E94ED0FE6
:10528000C8010E94C11EF301108A1786898181110D
:1052900002C081E0818B0F900F900F90DF91CF9132
:1052A0001F910F91FF90EF90DF90CF90BF90AF9044
:1052B0009F908F907F906F9008950F931F93CF933F
:1052C000DF9300D01F92CDB7DEB722E72983FC0120
:1052D00026852A8301E010E09E012D5F3F4F42E0CA
:1052E00050E0BE016F5F7F4F848595850E940A253F
:1052F00081E09B81913009F080E00F900F900F903A
:10530000DF91CF911F910F910895EF92FF920F932C
:105310001F93CF93DF9300D0CDB7DEB77C01FC01A4
:105320008189882389F087E7898386858A8300E0DD
:1053300010E020E030E042E050E0BE016F5F7F4FC0
:10534000848595850E940A25F701118A0F900F9098
:10535000DF91CF911F910F91FF90EF90089522EB75
:1053600032E0FC01318320830C948529EF92FF9277
:105370000F931F93CF93DF9300D0CDB7DEB77C019F
:1053800069837A830E94852986E090E00E94BD1E91
:105390008C0169817A810E94E510F701108B0787E3
:1053A0000F900F90DF91CF911F910F91FF90EF9091
:1053B00008951F920F920FB60F9211242F938F937F
:1053C0009F93EF93FF93E091FA04F091FB048081A7
:1053D000E0910005F091010582FD12C0908180915D
:1053E00003058F5F8F7320910405821751F0E091C0
:1053F0000305F0E0E651FB4F958F8093030501C054
:105400008081FF91EF919F918F912F910F900FBE0F
:105410000F901F9018951F920F920FB60F921124A4
:105420002F933F934F935F936F937F938F939F93AC
:10543000AF93BF93EF93FF938AEE94E00E94CD1D4C
:10544000FF91EF91BF91AF919F918F917F916F915C
:105450005F914F913F912F910F900FBE0F901F9032
:1054600018958AEE94E00E94911D21E0892B09F4A1
:1054700020E0822F0895EAEEF4E01382128288EE93
:1054800093E0A0E0B0E084839583A683B7838AE4A9
:1054900092E0918380838DEC90E0958784878CECFB
:1054A00090E09787868788EC90E0918B808B89ECE1
:1054B00090E0938B828B8AEC90E0958B848B8EECC2
:1054C00090E0978B868B118E128E138E148E08951A
:1054D0005058BB27AA270E94802A0C94F32B0E94C5
:1054E000E52B38F00E94EC2B20F039F49F3F19F4A3
:1054F00026F40C94E22B0EF4E095E7FB0C94DC2BE5
:10550000E92F0E94042C58F3BA1762077307840727
:10551000950720F079F4A6F50C94262C0EF4E0956E
:105520000B2EBA2FA02D0B01B90190010C01CA015D
:10553000A0011124FF27591B99F0593F50F4503E08
:1055400068F11A16F040A22F232F342F4427585FFA
:10555000F3CF469537952795A795F0405395C9F712
:105560007EF41F16BA0B620B730B840BBAF09150CA
:10557000A1F0FF0FBB1F661F771F881FC2F70EC069
:10558000BA0F621F731F841F48F48795779567953C
:10559000B795F7959E3F08F0B0CF9395880F08F028
:1055A0009927EE0F9795879508950E94B82B08F4D8
:1055B00081E008950E94EE2A0C94F32B0E94EC2BBC
:1055C00058F00E94E52B40F029F45F3F29F00C943D
:1055D000DC2B51110C94272C0C94E22B0E94042CF0
:1055E00068F39923B1F3552391F3951B550BBB2712
:1055F000AA2762177307840738F09F5F5F4F220F57
:10560000331F441FAA1FA9F335D00E2E3AF0E0E84D
:1056100032D091505040E695001CCAF72BD0FE2F97
:1056200029D0660F771F881FBB1F2617370748072B
:10563000AB07B0E809F0BB0B802DBF01FF279358E3
:105640005F4F3AF09E3F510578F00C94DC2B0C94A0
:10565000272C5F3FE4F3983ED4F3869577956795C2
:10566000B795F7959F5FC9F7880F911D9695879518
:1056700097F90895E1E0660F771F881FBB1F621737
:1056800073078407BA0720F0621B730B840BBA0BF5
:10569000EE1F88F7E09508950E940C2C88F09F5724
:1056A00098F0B92F9927B751B0F0E1F0660F771F46
:1056B000881F991F1AF0BA95C9F714C0B13091F03C
:1056C0000E94262CB1E008950C94262C672F782F89
:1056D0008827B85F39F0B93FCCF386957795679501
:1056E000B395D9F73EF490958095709561957F4F6D
:1056F0008F4F9F4F0895E89409C097FB3EF4909513
:105700008095709561957F4F8F4F9F4F9923A9F09A
:10571000F92F96E9BB279395F69587957795679529
:10572000B795F111F8CFFAF4BB0F11F460FF1BC06D
:105730006F5F7F4F8F4F9F4F16C0882311F096E900
:1057400011C0772321F09EE8872F762F05C06623AE
:1057500071F096E8862F70E060E02AF09A95660F67
:10576000771F881FDAF7880F9695879597F9089520
:10577000990F0008550FAA0BE0E8FEEF1616170662
:10578000E807F907C0F012161306E407F50798F0CA
:10579000621B730B840B950B39F40A2661F0232BE3
:1057A000242B252B21F408950A2609F4A140A6955F
:1057B0008FEF811D811D089597F99F6780E870E044
:1057C00060E008959FEF80EC089500240A94161677
:1057D000170618060906089500240A9412161306DF
:1057E000140605060895092E0394000C11F488236D
:1057F00052F0BB0F40F4BF2B11F460FF04C06F5F89
:105800007F4F8F4F9F4F089557FD9058440F551F5E
:1058100059F05F3F71F04795880F97FB991F61F032
:105820009F3F79F087950895121613061406551FA9
:10583000F2CF4695F1DF08C0161617061806991F15
:10584000F1CF86957105610508940895E894BB270A
:1058500066277727CB0197F908950E94B82B08F4A3
:105860008FEF08950E94452C0C94F32B0E94E52B9A
:1058700038F00E94EC2B20F0952311F00C94DC2BD7
:105880000C94E22B11240C94272C0E94042C70F30E
:10589000959FC1F3950F50E0551F629FF001729FD5
:1058A000BB27F00DB11D639FAA27F00DB11DAA1FE4
:1058B000649F6627B00DA11D661F829F2227B00D31
:1058C000A11D621F739FB00DA11D621F839FA00DBC
:1058D000611D221F749F3327A00D611D231F849F0C
:1058E000600D211D822F762F6A2F11249F57504063
:1058F0009AF0F1F088234AF0EE0FFF1FBB1F661FDE
:10590000771F881F91505040A9F79E3F510580F0A6
:105910000C94DC2B0C94272C5F3FE4F3983ED4F3DB
:10592000869577956795B795F795E7959F5FC1F74A
:10593000FE2B880F911D9695879597F908950E94E3
:10594000B82B880B990B089597FB072E16F400943B
:1059500007D077FD09D00E94FA2C07FC05D03EF451
:10596000909581959F4F0895709561957F4F08950B
:10597000A1E21A2EAA1BBB1BFD010DC0AA1FBB1F53
:10598000EE1FFF1FA217B307E407F50720F0A21BC5
:10599000B30BE40BF50B661F771F881F991F1A9432
:1059A00069F760957095809590959B01AC01BD015C
:1059B000CF010895EE0FFF1F0590F491E02D09949B
:1059C000A29FB001B39FC001A39F700D811D112440
:1059D000911DB29F700D811D1124911D08950E948B
:1059E000E02CA59F900DB49F900DA49F800D911D5C
:1059F00011240895AA1BBB1B51E107C0AA1FBB1F9E
:105A0000A617B70710F0A61BB70B881F991F5A954A
:105A1000A9F780959095BC01CD010895CF93DF93B0
:105A20008230910510F482E090E0E0918905F091D8
:105A30008A0520E030E0C0E0D0E0309711F14081ED
:105A4000518148175907C0F04817590761F48281FE
:105A50009381209719F09B838A832BC090938A05AA
:105A60008093890526C02115310519F04217530787
:105A700018F49A01BE01DF01EF010280F381E02DED
:105A8000DCCF2115310509F1281B390B24303105F4
:105A900090F412968D919C9113976115710521F0E8
:105AA000FB019383828304C090938A0580938905C8
:105AB000FD01329644C0FD01E20FF31F81939193E3
:105AC000225031092D933C933AC0209187053091A3
:105AD0008805232B41F4209102013091030130937A
