:100000000C9452010C947A010C947A010C947A01AC
:100010000C947A010C947A010C947A010C947A0174
:100020000C947A010C947A010C94110A0C94A00897
:100030000C947A010C947A010C947A010C947A0154
:100040000C947A010C947A010C947A010C947A0144
:100050000C947A010C947A010C947A010C94AF0AF6
:100060000C947A010C94731E0C94A51E0C947A01C6
:100070000C947A010C947A010C947A010C947A0114
:100080000C947A010C947A010C947A010C947A0104
:100090000C947A010C947A010C947A010C947A01F4
:1000A0000C947A010C947A010C947A01080B0002EA
:1000B0000202010009040000010202000005240000
:1000C0001001052401010104240206052406000193
:1000D0000705810310004009040100020A00000026
:1000E00007050202400000070583024000001201DC
:1000F0000002EF020140412341800001010203019F
:100100001201000200000040412341800001010271
:10011000030141726475696E6F204C4C4300555366
:100120004220494F20426F617264000403090407B2
:100130000605040100080A0B0C0D09040802011051
:100140004080401020408040800802040180402010
:100150001002011080102040402004040404040315
:100160000405020202020403020202020606060657
:100170000606040402020204040000000025002810
:10018000002B002E00310000000000240027002A70
:10019000002D0030002F76736D2F002F76736D2F9A
:1001A00000485F46494C4500485F5245534F555201
:1001B00043450054494D4500414444524553530082
:1001C0004556454E540052454C4F414400657261BE
:1001D00073650073746F70007265636F726400748E
:1001E00069746C6500536572766572205374617230
:1001F000746564002F76736D2F7365727665722E49
:100200007079002D7500707974686F6E0053746199
:100210007274696E67205365727665722050726FD2
:10022000636573732E2E2E00536572696573446186
:10023000746146696C6500636C65617253657269CF
:100240006573446174610073657444617461006333
:100250006C65617244617461005952616E6765003A
:1002600073657269657356697369626C650073655D
:1002700074446174610072756E2D627269646765A1
:100280000A000A000A00410283032304980CDE0CD2
:100290000E0E9010F51AAB1CB51CD51E8902EC0C85
:1002A0001C0EAF1C11241FBECFEFDAE0DEBFCDBFA6
:1002B00012E0A0E0B1E0EAEBFAE402C005900D9292
:1002C000A232B107D9F724E0A2E2B2E001C01D9248
:1002D000A83AB207E1F711E0CEE4D1E004C02197DB
:1002E000FE010E946021C334D107C9F70E942F0488
:1002F0000C9450250C9400000895CB0108959B01A7
:10030000BC01665F7F4FC9010C94660CCF93DF93ED
:10031000EC010E94D00D1B861A868CE791E0998330
:100320008883DF91CF91089560E97FE18DE393E0C9
:100330000E942E0D8CE093E00E94CB0C61E070E0F7
:1003400082E792E00C9464108DE393E00C94B70E76
:1003500040E855E260E070E081E992E00E947D03B0
:1003600060E08EE00E94ED0B60E08FE00E94ED0BFC
:1003700060E080E10C94ED0BEF92FF920F931F93DE
:10038000CF93DF938EE00E94BC0B7C018FE00E9434
:10039000BC0B8C0180E10E94BC0BD82FC92F9701A8
:1003A000F7FE02C021503C4F232F330F330B25950E
:1003B000259588EE93E0289FB001299F700D389F06
:1003C000700D112462597F4F4AE050E081E992E0BC
:1003D0000E94660581E992E00E94BD04980117FF22
:1003E00002C021503C4F232F330F330B2595259509
:1003F00088EE93E0289FB001299F700D389F700D03
:10040000112462597F4F4AE050E081E992E00E9456
:10041000660581E992E00E94BD042D2F3C2F37FF35
:1004200002C021503C4F232F330F330B25952595C8
:1004300088EE93E0289FB001299F700D389F700DC2
:10044000112462597F4F4AE050E081E992E00E9416
:10045000660581E992E00E94BD0468EE73E080E0E9
:1004600090E0DF91CF911F910F91FF90EF900C944E
:100470002A0B0E9494010C94A8010E94A4010C94E0
:10048000BC010F93CF93DF9300E020E040E060E0F9
:100490008BE892E00E94E40368E271E082E792E078
:1004A0000E943A1062E371E088E692E00E94D00D6B
:1004B000C4E7D1E0D0936902C09368026DE371E0B4
:1004C0008EE592E00E94D00DD0935F02C0935E0251
:1004D00068E471E082E592E00E94860160E571E0E7
:1004E00086E492E00E94860168E571E08AE392E08A
:1004F0000E94860160E671E08EE292E00E94860131
:1005000068E671E082E292E0DF91CF910F910C9466
:10051000860182E792E00C945410CF93DF931F92F0
:10052000CDB7DEB76983DC01ED91FC910280F381E8
:10053000E02D41E050E0BE016F5F7F4F09950F90C5
:10054000DF91CF910895CF93DF93EC018C859D854A
:1005500097FF05C082E00E9474079D878C878C8579
:100560009D85DF91CF91089583E00C94070AFC01EB
:100570008485958597FD06C082E00E941E0790E065
:100580000196089582E00E941E0790E00895FC0104
:100590008485958597FD05C02FEF3FEF358724872C
:1005A000089582E00C947407CF93DF93EC0180915F
:1005B0001101882331F083E00E94A507181619065F
:1005C00034F081E090E09B838A8380E090E0DF91CB
:1005D000CF910895FC0190819E5F908342E450E0AA
:1005E0006CEA70E080E80C944608FC0181819081FF
:1005F000913A59F4813209F048C047E050E06AE08E
:1006000071E080E00E94460876C09132F1F58332B5
:1006100091F49381892F90E0982F88272281822B53
:10062000A0E0B0E08093060190930701A093080139
:10063000B093090160C0803239F467E070E08AE06D
:1006400091E00E946D0806C0823209F054C0828198
:10065000809311018091E102882319F0EEEFFAE016
:1006600002C0E0E0F8E080910A0190910B01A091B6
:100670000C01B0910D01803B9440A105B10539F406
:100680008091110180FF1FC002C080E008950FB665
:10069000F894A89580916000886180936000109222
:1006A00060000FBEA895EE3F8AE0F80739F0809110
:1006B000FE0A9091FF0A918380831DC01092FF0A69
:1006C0001092FE0A18C0EE3F2AE0F20731F0808156
:1006D00091819093FF0A8093FE0A87E797E79183C1
:1006E00080839BE088E10FB6F894A8958093600022
:1006F0000FBE9093600081E008952FEF3FEFFC0163
:10070000358724870895E1E9F2E01382128288EEAA
:1007100093E0A0E0B0E084839583A683B78384E868
:1007200091E0918380838FEF9FEF95878487089571
:100730008F929F92AF92BF92CF92DF92EF92FF92F1
:100740000F931F93CF93DF937C018B016C0182E0A9
:10075000C80ED11C4701E5E08E0E911CC0E0D0E030
:10076000F60161916F014AE050E0C8010E947A05EC
:100770005C016EE2C8010E94B6048A0D9B1DC80F81
:10078000D91FC814D90461F74AE050E0F701658128
:10079000C8010E947A058C0F9D1FDF91CF911F9198
:1007A0000F91FF90EF90DF90CF90BF90AF909F9010
:1007B0008F90089524E931E0FC0131832083128277
:1007C00013821482158208950F93FC0184E991E04D
:1007D0009183808362834383248305830F910895EB
:1007E000DC0190E020E030E08AE0FB014191BF01B4
:1007F000442309F150ED540F5A3088F4829FF001E0
:10080000839FF00D11249F0120533109240F311DC6
:1008100047FD3A952F3F310541F338F312C04E3270
:1008200081F4933071F0FD01E90FF11D22839F5F88
:1008300020E030E0DACF933021F415962C9381E05C
:10084000089580E00895E2EEF2E084E991E091837A
:1008500080831282138214821582089508950E9463
:10086000660B0E942E0488EE92E00E94920A0E947B
:100870003902C9ECD0E10E943D022097E1F30E94C9
:10088000C910F9CFCF92DF92EF92FF920F931F938F
:10089000CF93DF936C017A018B01C0E0D0E0CE15DD
:1008A000DF0589F0D8016D918D01D601ED91FC91A4
:1008B0000190F081E02DC6010995892B11F47E018C
:1008C00002C02196ECCFC701DF91CF911F910F910C
:1008D000FF90EF90DF90CF9008956115710579F04A
:1008E000FB0101900020E9F73197AF01461B570B40
:1008F000DC01ED91FC910280F381E02D099480E010
:1009000090E00895EF92FF920F931F93CF93DF93A0
:100910008C017B01C0E0D0E0F701EC0FFD1F64917A
:10092000662361F0D801ED91FC910190F081E02DFA
:10093000C8010995892B11F02196EECFCE01DF91E8
:10094000CF911F910F91FF90EF900895DC01ED91F1
:10095000FC91DB0114964D915C9115976D917C9102
:100960000280F381E02D09940C946D04DC01ED917B
:10097000FC910190F081E02D099466E971E00C94FE
:100980006D040F931F93CF93DF93EC010E948204B9
:100990008C01CE010E94BD04800F911FDF91CF9189
:1009A0001F910F9108954F925F926F927F92EF92F5
:1009B000FF920F931F93CF93DF93CDB7DEB7A1972D
:1009C0000FB6F894DEBF0FBECDBF7C01FA01CB019C
:1009D00019A2223008F42AE08E010F5D1F4F422E2B
:1009E000512C612C712CBF01A30192010E943E2168
:1009F000F901CA01015011096A3014F4605D01C0A7
:100A0000695CD8016C93232B242B252B61F7B8014B
:100A1000C7010E946D04A1960FB6F894DEBF0FBE09
:100A2000CDBFDF91CF911F910F91FF90EF907F90FD
:100A30006F905F904F900895CF92DF92EF92FF9268
:100A40000F931F93CF93DF93EC016A017B01211574
:100A5000310579F4E881F9810190F081E02D642F6E
:100A6000DF91CF911F910F91FF90EF90DF90CF908A
:100A700009942A303105E9F477FF1AC06DE20E942B
:100A8000B6048C0144275527BA014C195D096E093B
:100A90007F092AE0CE010E94D304800F911FDF91CD
:100AA000CF911F910F91FF90EF90DF90CF9008951D
:100AB0002AE0B701A601CE01DF91CF911F910F91DE
:100AC000FF90EF90DF90CF900C94D3049A01AB018C
:100AD000770F660B770B0C941C052115310541F43B
:100AE000DC01ED91FC910190F081E02D642F0994DF
:100AF0000C94D3049A01462F50E060E070E00C940F
:100B00006D054F925F926F927F928F929F92AF92FC
:100B1000BF92CF92DF92EF92FF92CF93DF93EC01DF
:100B20006A017B01B22E9A01AB01C701B6010E9496
:100B30003921882319F069E971E027C026013701BE
:100B4000E89477F82FEF3FEF4FE75FE7C301B2017B
:100B50000E94392181110DC02FEF3FEF4FE75FE772
:100B6000C301B2010E946F1F18161CF46DE971E0F9
:100B70000CC02FEF3FEF4FE75FE4C701B6010E94C3
:100B8000C72018169CF461EA71E0CE01DF91CF9185
:100B9000FF90EF90DF90CF90BF90AF909F908F909D
:100BA0007F906F905F904F900C946D042FEF3FEF0C
:100BB0004FE75FECC701B6010E946F1F87FDE3CFCF
:100BC00020E030E0A901C701B6010E946F1F87FF36
:100BD0000AC06DE2CE010E94B6044C01F7FAF0940F
:100BE000F7F8F09402C0812C912CA12C60E070E009
:100BF00080E09FE3AB1441F020E030E040E251E4BC
:100C00000E94741FA394F6CF9B01AC01C701B601EB
:100C10000E94031F2B013C010E94E61F6B017C0117
:100C20000E9415209B01AC01C301B2010E94021F6A
:100C30002B013C012AE0B701A601CE010E94D3049A
:100C40007C01E80CF91CBB2031F06EE2CE010E9461
:100C5000B604E80EF91EDB2CDD2029F120E030E09F
:100C600040E251E4C301B2010E94CC202B013C01BF
:100C70000E94E61F4B01A12CB12C2AE0B501A40172
:100C8000CE010E94D304E80EF91EC501B4010E94F2
:100C900015209B01AC01C301B2010E94021F2B0170
:100CA0003C01DA94D9CFC701DF91CF91FF90EF904B
:100CB000DF90CF90BF90AF909F908F907F906F907C
:100CC0005F904F9008950C948105615030F0209111
:100CD000F100FC0120830196F8CF289884E68093E8
:100CE000F10208954091EC025091ED022091EA0248
:100CF0003091EB0242175307B4F49091E8009570DD
:100D0000E1F39091E80092FD19C08093F100809189
:100D1000EC029091ED0201968F739927892B19F4BB
:100D20008EEF8093E8008091EC029091ED020196A5
:100D30009093ED028093EC0281E0089580E00895A5
:100D4000CF92DF92EF92FF920F931F93CF93DF9397
:100D50001F92CDB7DEB7182F062FE42E862F880FEF
:100D60008E5F99830E94720683E00E947206F12EC4
:100D7000C12E9981D92E8C2D8F19801798F4F601E8
:100D8000E7FE02C0849101C080810E947206182F84
:100D900080E00E9472068123FFEFCF1ADF0A8111E3
:100DA000EACF01C081E00F90DF91CF911F910F91A9
:100DB000FF90EF90DF90CF9008958091D7008160F1
:100DC0008093D70080EA8093D80089B5806189BD7F
:100DD00089B5826089BD09B400FEFDCF61E070E095
:100DE00080E090E00E942A0B8091D8008F7C806187
:100DF0008093D8008091E000807F8093E000089588
:100E0000CF93DF931F92CDB7DEB71982CE01019643
:100E10000E94EA020E945412BE016F5F7F4F0E943F
:100E2000CF1189810F90DF91CF9108952FB7FC01E9
:100E30002083F89467706093E9000895CF93DF935F
:100E40001F92CDB7DEB7682FCE0101960E9416071C
:100E50008091F20099819FBF0F90DF91CF9108950B
:100E6000EF92FF920F931F93CF93DF931F92CDB713
:100E7000DEB79091F002992311F057FF03C08FEF76
:100E80009FEF2AC08A017B01682FCE0101960E9444
:100E900016078091F20090E0A801801791070CF4EA
:100EA000AC01842FF70194E6815038F02898909394
:100EB000F1022091F1002193F7CF4115510521F066
:100EC0008091F200882321F089818FBFCA0104C07C
:100ED0008BE68093E800F8CF0F90DF91CF911F91C0
:100EE0000F91FF90EF900895CF93DF931F92CDB7AE
:100EF000DEB741E050E0BE016F5F7F4F0E943007D8
:100F0000019719F4898190E002C08FEF9FEF0F9055
:100F1000DF91CF910895CF93DF931F92CDB7DEB7C6
:100F2000682FCE0101960E9416079091E800892F44
:100F3000807295FF04C09091F2008FE3891B998124
:100F40009FBF0F90DF91CF9108956F927F928F9204
:100F50009F92AF92BF92CF92DF92EF92FF920F9348
:100F60001F93CF93DF931F92CDB7DEB7A82E6B01EF
:100F7000B42E052F8091F002811103C08FEF9FEFF7
:100F80006AC08091EE0280FF05C08091E00082601F
:100F90008093E000EB2CF02E8AEF982E8A2D807241
:100FA000782E9AE3892E8A2D8074682EE114F1043C
:100FB00009F447C08A2D0E948B07182F81110AC09F
:100FC0009A949920D9F261E070E080E090E00E946C
:100FD0002A0BECCF90E0E816F9060CF41E2D6A2DD2
:100FE000CE0101960E9416078091E80085FF26C079
:100FF000812F90E0E81AF90A772029F01150A8F023
:101000001092F100FBCFF601A7FE07C0115058F077
:1010100024912093F1003196F9CF115020F02191C5
:101020002093F100FACFC80ED91E8091E80085FF09
:101030000FC0E114F10411F461100AC089818FBF5F
:10104000B5CF5D9884E68093F2028B2D902F03C07C
:101050008092E800F3CF0F90DF91CF911F910F9115
:10106000FF90EF90DF90CF90BF90AF909F908F90C8
:101070007F906F9008951092E9001092ED02109207
:10108000EC029093EB028093EA020895DF92EF92D4
:10109000FF920F931F93CF93DF93D82E8A017B018A
:1010A000E40EF51EEB01CE15DF0571F0D7FE03C08F
:1010B000FE01849101C088810E94720621968111EF
:1010C000F2CF8FEF9FEF01C0C801DF91CF911F9149
:1010D0000F91FF90EF90DF900895BF92CF92DF9233
:1010E000EF92FF920F931F93CF93DF936C018B01CD
:1010F000EB019BEFB92E2097C1F07E01C134D105E1
:101100001CF080E4E82EF12C8091E80082FFFCCFF7
:10111000C8018C1B9D0B6E2D8C0D9D1D0E946506BC
:10112000B092E800CE19DF09E6CFC801DF91CF9178
:101130001F910F91FF90EF90DF90CF90BF90089597
:101140001F920F920FB60F921124CF92DF92EF925F
:10115000FF920F931F932F933F934F935F936F9340
:101160007F938F939F93AF93BF93EF93FF93CF930F
:10117000DF93CDB7DEB76C97DEBFCDBF1092E9002D
:101180008091E80083FF24C168E0CE0145960E946B
:10119000650682EF8093E8008D8987FF05C09091F6
:1011A000E80090FFFCCF03C09EEF9093E800982FDB
:1011B000907609F0F1C09E892F89188D91110CC08D
:1011C000803829F48091EF028093F10002C01092E0
:1011D000F1001092F100F5C0422F50E0512B9130F8
:1011E00051F48111EEC04130510509F0EAC08091FF
:1011F000EF028D7F0BC0933061F48111E2C041306A
:10120000510509F0DEC08091EF0282608093EF0209
:10121000D8C0953041F48091E80080FFFCCF206871
:101220002093E300CEC0963009F08CC0EB8CFC8C90
:10123000123069F580E090E00E943B080E940007B0
:1012400099E09E012F5F3F4F6901F901292F11920B
:101250002A95E9F799831A8391E09E8390EA98870B
:101260009AEF99872091EC023091ED02275F3F4F72
:101270003C832B838D83C7010E943B0849E050E0EB
:10128000B60180E00E9446080E9400079AC0C7018C
:101290000E943B080E945412BE016B5E7F4F0E9469
:1012A000F811009719F00CF08CC08FC0113071F458
:1012B0008B8D9C8D089719F481E08093E9028091D1
:1012C000E90281112FC060E071E031C0133009F0F4
:1012D0007CC08F89882349F1823029F440E86CE092
:1012E0008EE191E006C0813039F440E86BE082E1A4
:1012F00091E00E94A00663C0833009F066C00E949E
:1013000054128E010F5F1F4FB8010E941712F8018F
:1013100001900020E9F73197BF01601B710B40E09D
:10132000C801E7CF6EEE70E002C06BE271E06115BC
:10133000710509F44AC0FB01449150E080E80E9425
:1013400046083FC0973009F440C0983021F481E04E
:101350008093F10036C09930A1F58370B1F5E3E1D7
:10136000F1E081E021E036E39081992361F0809300
:10137000E9002093EB0091919093EC003093ED0005
:101380008F5F873089F78EE78093EA001092EA003A
:101390008F898093F00215C08B8D9C8D0E943B0835
:1013A000898D811105C0CE0145960E94F50207C0C6
:1013B0000E945412BE016B5E7F4F0E94361288233A
:1013C00021F08EEF8093E80003C081E28093EB0070
:1013D0006C960FB6F894DEBF0FBECDBFDF91CF91F4
:1013E000FF91EF91BF91AF919F918F917F916F91FD
:1013F0005F914F913F912F911F910F91FF90EF902F
:10140000DF90CF900F900FBE0F901F901895809394
:10141000E9008091F200882319F08AE38093E800C4
:1014200008951F920F920FB60F9211242F933F939E
:101430004F935F936F937F938F939F93AF93BF93DC
:10144000CF93EF93FF93C091E1008091E100837F00
:101450008093E100C3FF0FC01092E90081E0809308
:10146000EB001092EC0082E38093ED001092F0020A
:1014700088E08093F000C2FF19C083E00E94070A51
:101480008091F202882339F08091F202815080939A
:10149000F202882389F18091F102882339F080914A
:1014A000F10281508093F102882341F1C4FF10C002
:1014B0008091E2008E7E81608093E2008091E10065
:1014C0008F7E8093E1008091EE028E7E806111C05C
:1014D000C0FF16C08091E2008E7E80618093E200A2
:1014E0008091E1008E7E8093E1008091EE028E7EFD
:1014F00081608093EE0204C05D9ACDCF289AD6CF4A
:10150000FF91EF91CF91BF91AF919F918F917F917B
:101510006F915F914F913F912F910F900FBE0F9060
:101520001F9018951092F0021092EF021092EE02A6
:101530000E94DD068091E1008E7E8093E1008DE0C7
:101540008093E200559A209AEEEFFFE785919491FF
:101550008B3F9C4D19F481E08093E10208951F9226
:101560000F920FB60F9211242F933F938F939F9357
:10157000AF93BF938091F4029091F502A091F6028F
:10158000B091F7023091F30223E0230F2D3720F4BE
:101590000196A11DB11D05C026E8230F0296A11DCD
:1015A000B11D2093F3028093F4029093F502A0936F
:1015B000F602B093F7028091F8029091F902A0919F
:1015C000FA02B091FB020196A11DB11D8093F802B1
:1015D0009093F902A093FA02B093FB02BF91AF91EE
:1015E0009F918F913F912F910F900FBE0F901F9061
:1015F00018952FB7F8946091F4027091F5028091DC
:10160000F6029091F7022FBF08953FB7F8948091AA
:10161000F8029091F902A091FA02B091FB0226B56E
:10162000A89B05C02F3F19F00196A11DB11D3FBF1A
:10163000BA2FA92F982F8827820F911DA11DB11DA8
:10164000BC01CD0142E0660F771F881F991F4A95A4
:10165000D1F708958F929F92AF92BF92CF92DF926F
:10166000EF92FF926B017C010E94050B4B015C0124
:10167000C114D104E104F10401F10E94C6110E94D9
:10168000050BDC01CB0188199909AA09BB09883E21
:101690009340A105B10560F321E0C21AD108E10829
:1016A000F10888EE880E83E0981EA11CB11CC114BD
:1016B000D104E104F10419F7DBCFFF90EF90DF9044
:1016C000CF90BF90AF909F908F900895789484B5FD
:1016D000826084BD84B5816084BD85B5826085BD2E
:1016E00085B5816085BDEEE6F0E080818160808314
:1016F000E1E8F0E0108280818260808380818160F7
:101700008083E0E8F0E0808181608083E1E9F0E0BF
:10171000808182608083808181608083E0E9F0E065
:10172000808181608083E1ECF0E08081846080834F
:10173000808182608083808181608083E3ECF0E03F
:10174000808181608083E0ECF0E080818260808332
:10175000E2ECF0E0808181608083EAE7F0E0808164
:1017600084608083808182608083808181608083C7
:101770008081806880830895823108F08251E82F4B
:10178000F0E0E15DFE4FE49180917B00E3FB2227D6
:1017900020F930E095E0220F331F9A95E1F78F7D15
:1017A000282B20937B00E7708091190120E4829F11
:1017B000C0011124E82BE0937C0080917A008064C2
:1017C00080937A0080917A0086FDFCCF809178002A
:1017D0002091790090E0922B0895CF93DF9390E0D1
:1017E000FC01E55CFE4F2491FC01E65AFE4F84911A
:1017F000882361F190E0880F991FFC01E957FE4FA3
:10180000C591D491FC01E758FE4FA591B4916111A7
:1018100009C09FB7F8948881209582238883EC9132
:101820002E230BC0623061F49FB7F8943881822F69
:10183000809583238883EC912E2B2C939FBF06C029
:101840008FB7F894E8812E2B28838FBFDF91CF913B
:1018500008950895FC01738362830895FC0189EA69
:1018600091E0918380831382128214828AE08583BF
:1018700008950F931F93CF93DF931F92CDB7DEB7D9
:10188000FC0122813381232BD9F08C01198241E0A4
:1018900050E0BE016F5F7F4FF801828193810E940B
:1018A0007F13892B49F09981F8018481981721F0E1
:1018B00081E02581921301C080E089838111E7CF07
:1018C0000F90DF91CF911F910F9108950F931F9368
:1018D000CF93DF93EC018B018A819B81009749F0C4
:1018E000DC01ED91FC910480F581E02D0995892BB7
:1018F00021F4F801118210820DC041E062E070E035
:101900008A819B810E940613D8016D937C93CE013E
:101910000E94390CCE01DF91CF911F910F91089554
:10192000EFEFF0E083E08083608381E090E0089552
:1019300080E093E00E944617ECEFF2E013821282FF
:1019400081EB91E09183808308950F931F93CF9350
:10195000DF93EC018C010F5F1F4F68E971E0C80154
:101960000E940015CE0107960E942E0CCE010D9606
:101970000E944617CE0149960E9446176BE971E016
:10198000C8010E94E2158CE28B878B8BDF91CF918F
:101990001F910F91089526E040E950ED63E070E05B
:1019A0008091EA039091EB030E94611181EE93E034
:1019B0000E94EC1983E094E00C94B31C0F9300E0B8
:1019C00020E040E060E081E393E00E94E4038CE0EB
:1019D00093E00F910C94A50C8DE093E00C9492147D
:1019E000CF93DF93EC010E94DA031986188688EE04
:1019F00093E0A0E0B0E08A879B87AC87BD8786E153
:101A000092E09F838E8381EE93E09B8B8A8B1F8A6B
:101A1000188E198E68E971E0CE01865A9F4F0E9498
:101A20000015CE01805A9F4F0E942E0CCE018A597C
:101A30009F4F0E944617CE018E589F4F0E94461717
:101A4000FE01E459FF4F8CE2808338978083CB59A5
:101A5000DF4F8AE28883DF91CF910895EF92FF9262
:101A60000F931F93CF93DF9300D000D000D0CDB75A
:101A7000DEB78C017B0126E040E950ED63E070E0C9
:101A80008091EA039091EB030E94611181EE93E053
:101A90000E94EC198CEE93E00E94981C6DE072E0BD
:101AA0008CEE93E00E94C1040A5F1F4F66E072E073
:101AB000CE0101960E940316BE016F5F7F4FC801E1
:101AC0000E94501ECE0101960E94921463E072E0C3
:101AD000CE0101960E940316BE016F5F7F4FC801C1
:101AE0000E94831DCE0101960E94921464EF71E062
:101AF000CE0101960E940316BE016F5F7F4FC801A1
:101B00000E94831DCE0101960E9492144AE0B70103
:101B1000CE0101960E94B615BE016F5F7F4FC801CE
:101B20000E94831DCE0101960E949214C8010E945A
:101B3000981D68EB7BE080E090E00E942A0BC801D2
:101B40000E94F71D882309F4B1CF65EE71E08CEE99
:101B500093E00E94C10426960FB6F894DEBF0FBE34
:101B6000CDBFDF91CF911F910F91FF90EF9008951E
:101B7000E0913703F0913803309741F490933803A4
:101B800080933703FC0111861086089520853185E6
:101B90002115310511F0F901F9CF9187808708955A
:101BA00028EC31E0FC01318320837383628315824A
:101BB0001482178216820C94B80D0F931F93CF9343
:101BC000DF938C01C0913703D0913803209759F0EF
:101BD000E881F9810190F081E02DCE01099508841A
:101BE000D985C02DF3CF80913B0390913C03892B85
:101BF00081F060E070E0C801865A9F4F0E949F15F7
:101C0000E0913B03F0913C03DF91CF911F910F9145
:101C10000994DF91CF911F910F9108950F9300E0E8
:101C200020E040E060E08BEB93E00E94E4038DE372
:101C300093E00F910C94F00C87E993E00E949214CA
:101C400083E493E00C94491EAF92BF92CF92DF924F
:101C5000EF92FF920F931F93CF93DF93CDB7DEB731
:101C60002C970FB6F894DEBF0FBECDBF7C015C0190
:101C700026E0A20EB11C4DE3B501CE0107960E94ED
:101C8000A5136EE2CE0107960E94DF16D701A65A71
:101C9000BF4F6D018F3FBFEF9B07A9F09C0140E054
:101CA00050E0BE01695F7F4FCE0101960E94E316AE
:101CB000BE016F5F7F4FC6010E949315CE01019652
:101CC0000E94921406C0BE01695F7F4FC6010E9448
:101CD00073150091370310913803E0E6EE0EF11C06
:101CE0000115110519F1D80112966D917C91139788
:101CF000C6010E94A4168823A9F0B501C7010E945D
:101D00002A0CD801ED91FC910280F381E02DB701FE
:101D1000C8010995D8011696ED91FC911797309757
:101D200009F00995F80100851185DACFE0913903B2
:101D3000F0913A03309709F0099560E070E0C60130
:101D40000E949F15CE0107960E9492142C960FB602
:101D5000F894DEBF0FBECDBFDF91CF911F910F91E1
:101D6000FF90EF90DF90CF90BF90AF9008958F924B
:101D70009F92AF92BF92DF92EF92FF920F931F93C9
:101D8000CF93DF93CDB7DEB763970FB6F894DEBF7E
:101D90000FBECDBF7C018C010A5F1F4F8AE0D82E99
:101DA000C8010E944E1D181619060CF09EC04AE389
:101DB000B801CE010D960E94A51368E971E0CE012D
:101DC00007960E94001566EC71E0CE0101960E9414
:101DD0000316BE016F5F7F4FCE010D960E949316D2
:101DE000B82ECE0101960E949214BB2021F0C701AB
:101DF0000E94DD0D68C060EC71E0CE0101960E948A
:101E00000316BE016F5F7F4FCE010D960E949316A1
:101E1000B82ECE0101960E949214BB2021F0C7017A
:101E20000E94240E50C068EB71E0CE0101960E9422
:101E30000316BE016F5F7F4FCE010D960E94931671
:101E4000B82ECE0101960E949214BB2081F04AE286
:101E5000B801CE0101960E94A51369817A81C7015C
:101E60000E94F003CE0101960E9492142CC063EBF5
:101E700071E0CE0101960E940316BE016F5F7F4F95
:101E8000CE010D960E949316B82ECE0101960E94A7
:101E90009214BB20C1F04AE2B801CE0101960E9423
:101EA000A5134AE050E060E070E089819A810E94C9
:101EB00077234B015C01CE0101960E949214C5016B
:101EC000B4010E94B617DB8A41E050E0BE016D5EAE
:101ED0007F4FC8010E948F14CE0107960E94921472
:101EE000CE010D960E9492145BCF63960FB6F894C4
:101EF000DEBF0FBECDBFDF91CF911F910F91FF903D
:101F0000EF90DF90BF90AF909F908F900895EF92E9
:101F1000FF920F931F93CF93DF938C017A01EC0113
:101F20002696CE010E94A6046EE2CE010E94B6045F
:101F3000B701CE010E94A60465EB71E0CE010E94BC
:101F4000B404F801E359FF4F89E28083AE0161E0F8
:101F5000C8018A599F4FDF91CF911F910F91FF9038
:101F6000EF900C942917EF92FF920F931F93CF934A
:101F7000DF93CDB7DEB72C970FB6F894DEBF0FBE58
:101F8000CDBF8C017B01BA01CE0107960E940316DA
:101F9000B701CE0101960E940015AE01495F5F4F67
:101FA000BE016F5F7F4FC8010E94870F8C01CE0179
:101FB00001960E949214CE0107960E949214C801C5
:101FC0002C960FB6F894DEBF0FBECDBFDF91CF9138
:101FD0001F910F91FF90EF9008958F929F92AF9273
:101FE000BF92FF920F931F93CF93DF938C01F12C3D
:101FF000CF2DD0E0F801208D022E000C330BC2173C
:10200000D30774F5CE01880F991F880F991FD80147
:102010005696ED91FC915797E80FF91F80809180BB
:10202000A280B38012966D917C9113974EE652E098
:102030008DE393E00E94B30F60E070E00E946917A7
:10204000BE010E946917B501A4010E948C17DC0132
:10205000ED91FC910280F381E02D0995F394C8CFB6
:10206000DF91CF911F910F91FF90BF90AF909F9004
:102070008F900895CF93DF93EC010E94D00DCE0195
:102080000A960E94461780ED91E09983888388ED37
:1020900091E09B878A871F8A1E8A8FEF888F8CE248
:1020A000888BDF91CF910895FC0180ED91E09183C1
:1020B000808388ED91E0938782878689978900974E
:1020C00011F00C94152208950F931F93CF938C0158
:1020D000C62FFC01608FCB01880F991F880F991FB5
:1020E0000E948021BC01F801978B868B90E04C2FD9
:1020F000CC0F550B292F30E0241735076CF4220F35
:10210000331F220F331FFB01E20FF31F10821182D6
:10211000128213829F5FEECFCF911F910F9108958E
:102120000F9300E020E040E060E081EC93E00E944B
:10213000E4030F910895FC01918D228D892F90E089
:10214000805C9F4F821B91098F7399270895FC0132
:10215000918D828D981731F0828DE80FF11D858D5C
:1021600090E008958FEF9FEF0895FC01918D828D8F
:10217000981761F0828DDF01A80FB11D5D968C91DB
:10218000928D9F5F9F73928F90E008958FEF9FEFE6
:1021900008958BEC9EE1892B49F080E090E0892B3B
:1021A00029F00E94CB1E81110C9400000895FC01BF
:1021B000848DDF01A80FB11DA35ABF4F2C91848DD0
:1021C00090E001968F739927848FA689B7892C9305
:1021D000A089B1898C9180648C93938D848D9813A0
:1021E00006C00288F389E02D80818F7D8083089569
:1021F000CF93DF93EC01888D8823C9F0EA89FB89AE
:10220000808185FD05C0A889B9898C9186FD0FC0A4
:102210000FB607FCF5CF808185FFF2CFA889B98979
:102220008C9185FFEDCFCE010E94D710E7CFDF91D3
:10223000CF910895EF92FF920F931F93CF93DF9367
:10224000EC0181E0888F9B8D8C8D981305C0E88907
:10225000F989808185FD24C0F62E0B8D10E00F5F7B
:102260001F4F0F731127E02E8C8DE8120CC00FB694
:1022700007FCFACFE889F989808185FFF5CFCE0187
:102280000E94D710F1CF8B8DFE01E80FF11DE35AAC
:10229000FF4FF0820B8FEA89FB898081806207C043
:1022A000EE89FF896083E889F98980818064808371
:1022B00081E090E0DF91CF911F910F91FF90EF901F
:1022C0000895CF92DF92EF92FF921F93CF93DF9307
:1022D000EC016A017B01122FE889F98982E0808391
:1022E0004115514E61057105B1F060E079E08DE373
:1022F00090E0A70196010E943E21DA01C9010197F1
:10230000A109B109B695A79597958795AC01411597
:1023100080E15807A8F0E889F989108260E874E83C
:102320008EE190E0A70196010E943E21BA01A90129
:1023300041505109610971097695679557954795FF
:10234000EC85FD855083EE85FF854083188EEC89F2
:10235000FD891083EA89FB89808180618083EA8915
:10236000FB89808188608083EA89FB89808180681D
:102370008083EA89FB8980818F7D8083DF91CF9183
:102380001F91FF90EF90DF90CF90089508950C94E7
:1023900080210C9480210C9415220C941522EF922C
:1023A000FF920F931F93CF93DF937B01FC01C281B8
:1023B000D38100E010E0209781F0E881F98102806C
:1023C000F381E02DB701CE01099597FD08C0080FF4
:1023D000191F0884D985C02DEECFC80102C08FEF28
:1023E0009FEFDF91CF911F910F91FF90EF90089594
:1023F0000F931F93CF93DF938B01FC01C281D38195
:10240000209771F0E881F9810480F581E02DB80111
:10241000CE010995009731F40884D985C02DF0CFFD
:1024200080E090E0DF91CF911F910F9108950F937D
:102430001F93CF93DF938B01FC01C281D38120973F
:1024400071F0E881F9810680F781E02DB801CE01B5
:102450000995080F111D0884D985C02DF0CFF8010A
:102460001082DF91CF911F910F9108950F931F93C9
:10247000CF93DF938B01FC01C281D381209771F050
:10248000E881F9810190F081E02DB801CE01099534
:10249000811105C00884D985C02DF0CF80E0DF917F
:1024A000CF911F910F9108958091CB0381110DC0A1
:1024B00082E08093C70384E08093C8031092CA032C
:1024C0001092C90381E08093CB0387EC93E00895D9
:1024D0000F931F93CF93DF93EC010E94F90A688753
:1024E00079878A879B87E881F9810680F781E02DCB
:1024F000CE01099597FF17C00E94F90A0885198532
:102500002A853B85DC01CB01801B910BA20BB30B11
:102510000C811D812E813F8180179107A207B3078F
:1025200010F38FEF9FEFDF91CF911F910F910895DF
:102530000F931F93CF93DF93EC010E94F90A6887F2
:1025400079878A879B87E881F9810084F185E02D6E
:10255000CE01099597FF17C00E94F90A08851985D1
:102560002A853B85DC01CB01801B910BA20BB30BB1
:102570000C811D812E813F8180179107A207B3072F
:1025800010F38FEF9FEFDF91CF911F910F9108957F
:10259000FF920F931F93CF93DF93EC018B01F42EE7
:1025A000CE010E9498129C0197FD0BC08D329105BF
:1025B00041F0C0970A9728F0FF2029F02E3231050C
:1025C00011F4C9011DC001301105C1F0023011051F
:1025D00069F42D30310551F034F42950310922309D
:1025E000310520F00BC02032310541F4E881F9813A
:1025F0000680F781E02DCE010995D2CF8FEF9FEFB6
:10260000DF91CF911F910F91FF9008958F929F922C
:10261000AF92BF92CF92DF92FF920F931F93CF930F
:10262000DF9300D000D0CDB7DEB78C01B42E40E0F0
:102630000E94C812FC0197FD4CC020E030E0A901C7
:10264000F12CCB2CBB0CDD08EC15FD05F1F0ED32C7
:10265000F105C9F0CF01C0970A97B8F4AAE0B0E03D
:102660000E9475214F01FF0FAA08BB08DC01CB01B6
:10267000880D991DAA1DBB1D9C01AD012053310978
:102680004109510902C0FF24F394D801ED91FC9156
:102690000680F781E02DC80129833A834B835C8350
:1026A0000995C8010E949812FC01C09729813A81BE
:1026B0004B815C810A9740F2EC15FD0529F2FF2061
:1026C00061F066277727CB01621B730B840B950B98
:1026D00006C060E070E0CB0102C0CA01B9010F90F2
:1026E0000F900F900F90DF91CF911F910F91FF905E
:1026F000DF90CF90BF90AF909F908F900895CF9232
:10270000DF92EF92FF920F931F93CF93DF936C01B1
:102710007A018B01C0E0D0E0CE15DF0561F0C60183
:102720000E94681297FF02C07E0105C0F8018193E4
:102730008F012196F1CFC701DF91CF911F910F91AA
:10274000FF90EF90DF90CF900895EF92FF920F935C
:102750001F93CF93DF93EC017B01042F68E971E0B5
:102760000E940015C7010E946812002E000C110B78
:1027700097FD0BC08017910741F0682FCE010E9492
:102780005016C7010E946812F3CFCE01DF91CF919E
:102790001F910F91FF90EF9008954F925F926F926B
:1027A0007F928F929F92AF92BF92CF92DF92EF92E1
:1027B000FF920F931F93CF93DF938C01EB0186E081
:1027C000849F4001859F900C1124860E971EFB016B
:1027D000E815F90508F582819381892B21F1369658
:1027E000F7CF6081718144815581DB01A40FB51F52
:1027F0002C91022E000C330B8217930711F54F5FBB
:102800005F4F55834483228133814217530759F028
:102810003696E815F90528F3C8010E94681297FD5D
:1028200046C0FE01F6CFEC1BFD0BF595E7952BEAB4
:102830003AEAE29FC001E39F900DF29F900D1124B0
:1028400038C04115510521F3C480D580960121502F
:10285000310935832483DB01A20FB31FAC910A2E0B
:10286000000CBB0B8A179B07F9F421153105C9F041
:102870005B017A01E21AF30AE60EF71E412C512C95
:10288000D5016D905D01D7017D907D01671006C077
:10289000BFEF4B1A5B0A4216530690F342165306DB
:1028A00099F6D582C482B4CF232B71F6B1CF8FEFC6
:1028B0009FEFDF91CF911F910F91FF90EF90DF90ED
:1028C000CF90BF90AF909F908F907F906F905F90D0
:1028D0004F900895CF93DF9300D000D000D0CDB7B4
:1028E000DEB7FE01319626E0DF011D922A95E9F759
:1028F0007A8369835C834B8341E050E0BF010E948F
:10290000CD1321E0892B09F020E0822F26960FB607
:10291000F894DEBF0FBECDBFDF91CF9108950C9428
:102920006A140895FC01808191810C941522CF9343
:10293000DF93EC0188819981009711F00E941522A4
:10294000198218821D821C821B821A82DF91CF910C
:1029500008950F931F93CF93DF93EC018B016F5F6B
:102960007F4F888199810E94AD22009731F0998331
:1029700088831B830A8381E001C080E0DF91CF91CF
:102980001F910F910895CF93DF93EC018881998176
:10299000892B29F08A819B818617970760F4CE01E5
:1029A0000E94A914882341F08C819D81892B19F400
:1029B000E881F981108281E0DF91CF910895EF9253
:1029C000FF920F931F93CF93DF93EC017B018A015A
:1029D000BA010E94C314811104C0CE010E94971451
:1029E00007C01D830C83B701888199810E94BF2491
:1029F000CE01DF91CF911F910F91FF90EF9008953D
:102A0000FC011182108213821282158214826115D8
:102A1000710551F0FB0101900020E9F73197AF01FA
:102A2000461B570B0C94DF140895EF92FF920F93FF
:102A30001F93CF93DF93EC017B018A01BA010E94BF
:102A4000C314811104C0CE010E94971407C01D83D6
:102A50000C83B701888199810E949224CE01DF9175
:102A6000CF911F910F91FF90EF9008950F931F93B7
:102A7000CF93DF938C01EB01FC0180819181009762
:102A8000D1F0688179816115710599F021E934E10E
:102A9000232B79F0428153812C813D8142175307CA
:102AA00040F00E94BF248C819D81F801958384832E
:102AB00013C00E94152288819981F8019183808337
:102AC0008A819B81938382838C819D81958384837A
:102AD000198218821B821A821D821C82DF91CF917B
:102AE0001F910F910895CF93DF93EC01FB0186179F
:102AF000970761F0608171816115710529F044814A
:102B000055810E94DF1402C00E949714CE01DF910C
:102B1000CF910895FC0111821082138212821582D6
:102B200014820C947315CF93DF93EC0186179707EB
:102B300011F00E943615CE01DF91CF910895CF9309
:102B4000DF93EC016115710559F0FB010190002044
:102B5000E9F73197AF01461B570B0E94DF1402C003
:102B60000E949714CE01DF91CF9108950F931F9388
:102B7000CF93DF93CDB7DEB762970FB6F894DEBF81
:102B80000FBECDBF8C01CB01F801118210821382E0
:102B900012821582148250E0BE016F5F7F4F0E9447
:102BA000C624BE016F5F7F4FC8010E949F156296C9
:102BB0000FB6F894DEBF0FBECDBFDF91CF911F914E
:102BC0000F9108950F931F93CF93DF9300D0CDB74C
:102BD000DEB78C016115710561F0CB0169837A83E1
:102BE0000E949924AC0169817A81C8010E9415155F
:102BF00002C00E949714C8010F900F90DF91CF91EF
:102C00001F910F910895FC0111821082138212828C
:102C1000158214820C94E215EF92FF920F931F938A
:102C2000CF93DF93FC01248135816115710511F487
:102C300080E019C041155105A9F07B01EC018A0122
:102C4000020F131FB8010E94C314882389F328813F
:102C500039818C819D81B701820F931F0E94BF240F
:102C60001D830C8381E0DF91CF911F910F91FF9025
:102C7000EF900895FB0144815581608171810C942E
:102C80000C166115710551F0FB0101900020E9F768
:102C90003197AF01461B570B0C940C1680E008953A
:102CA000CF93DF9300D0CDB7DEB769831A8241E0BE
:102CB00050E0BE016F5F7F4F0E940C160F900F9087
:102CC000DF91CF910895CF93DF93DC01ED91FC91DB
:102CD000EB01A881B981309711F01097C9F41097D2
:102CE00059F0EB012C813D81232B31F08C9190E048
:102CF00091958195910914C0309781F0DC0114966B
:102D00008D919C911597892B49F0808190E008C0A6
:102D1000BD01CF01DF91CF910C94B62480E090E00B
:102D2000DF91CF910895FC0144815581FB012481FD
:102D300035814217530729F40E94631621E0892B3D
:102D400009F020E0822F0895FC0124813581232B96
:102D500031F421E061157105A1F0FB0108C0FC010F
:102D6000808191816115710531F421E0FC01808140
:102D7000882339F005C00E94B62421E0892B09F090
:102D800020E0822F0895CF93DF93FC0124813581C9
:102D90004217530778F4C081D181062E000C770BBF
:102DA000CE01840F951F0E94AB24009719F08C1B55
:102DB0009D0B02C08FEF9FEFDF91CF91089540E010
:102DC00050E00C94C316BF92CF92DF92EF92FF9225
:102DD0000F931F93CF93DF937C016B018A01E9016D
:102DE0002417350720F4812F8901C42FD82F68E9D3
:102DF00071E0C7010E940015D60114968D919C9137
:102E0000159708171907D0F48C179D0708F4EC01E3
:102E1000D601ED91FC911197EC0FFD1FB08010824F
:102E20004D915C91BA01600F711FC7010E949F15FF
:102E3000D601ED91FC91EC0FFD1FB082C701DF912F
:102E4000CF911F910F91FF90EF90DF90CF90BF90A7
:102E50000895FC0153834283648315820895CF93C0
:102E6000DF93EC018A819B81009769F06F8161118A
:102E70000E94B6048C81882331F08A819B81DF9186
:102E8000CF910C94BD04DF91CF910895FC0180EFA8
:102E900091E09183808313821282148215821682BC
:102EA000178282E090E0918780878AE090E09387A4
:102EB00082870895FC016681662351F0858191E047
:102EC000980F9583882321F0828193810C94B60416
:102ED00008950F931F93CF93DF9300D0CDB7DEB744
:102EE0008C01FC0182819381892B71F0C801698377
:102EF0007A830E945A17F8014285538569817A8145
:102F0000828193810E946605C8010F900F90DF9126
:102F1000CF911F910F9108950F931F93CF93DF933C
:102F200000D000D0CDB7DEB78C01FC018281938147
:102F3000892B91F0C80149835A836B837C830E945B
:102F40005A17F8012085318549815A816B817C812E
:102F5000828193810E946306C8010F900F900F90A9
:102F60000F90DF91CF911F910F9108950F931F93B1
:102F70006093DD037093DE038093DF039093E0039F
:102F800000911A0110911B0120911C0130911D012B
:102F9000DC01CB01800F911FA21FB31F8093D503CB
:102FA0009093D603A093D703B093D80382E090E028
:102FB0009093D4038093D3030E94F90A6093D903BA
:102FC0007093DA038093DB039093DC031F910F91DE
:102FD0000895FC01238134812627022E2295207F2B
:102FE0002025032E322F22952F7002262695322778
:102FF0002327220F220F220F2025348323830895B5
:10300000CF93DF93EC018D819E81DC01ED91FC91EA
:103010006C810190F081E02D09958D819E81DC010C
:10302000ED91FC910190F081E02D6B81DF91CF91CA
:1030300009948F929F92AF92BF92CF92DF92EF92BC
:10304000FF92CF93DF93EC016B010E94F90A4B01D1
:103050005C01E12CF12C8D819E81DC01ED91FC91D4
:103060000680F781E02D099597FF0FC00E94F90AAD
:10307000DC01CB0188199909AA09BB098C159D05AA
:10308000AE05BF0540F38FEF9FEFDF91CF91FF902B
:10309000EF90DF90CF90BF90AF909F908F9008956A
:1030A000CF93DF93EC018D819E81DC01ED91FC914A
:1030B0000480F581E02D09951816190654F48D81C8
:1030C0009E81DC01ED91FC910680F781E02D099550
:1030D000EACFDF91CF9108952F923F924F925F9266
:1030E0006F927F928F929F92AF92BF92CF92DF9218
:1030F000EF92FF920F931F93CF93DF93CDB7DEB77D
:103100002D970FB6F894DEBF0FBECDBF3C012B014B
:103110003C832B83BF82AE82C8018C0D9D1D1C0198
:10312000240E351E3D82A32CB12CCB01840F951F9C
:1031300099878887D901A00FB11FBB87AA87F7019C
:10314000EC0DFD1DFD87EC87F3018085B81608F0B6
:1031500028C1EFEFFFEFD3011496FC93EE93139782
:1031600015968D919C911697DC01ED91FC91019043
:10317000F081E02D6FEF09956FEFC3010E94E91711
:10318000F30185819681DC01ED91FC910190F08144
:10319000E02DD3016C910995F3016081C3010E9478
:1031A000E917D30115968D919C911697DC01ED914D
:1031B000FC910190F081E02D6D8109956A2DC3018C
:1031C0000E94E917F30185819681DC01ED91FC9164
:1031D0000190F081E02D622D0995622DC3010E94BE
:1031E000E917620188859985C816D906A1F0F3010F
:1031F000858196818601DC01ED91FC910190F08141
:10320000E02DD6016D916D010995F8016081C30132
:103210000E94E917E7CFCB80DC808A859B85C816A2
:10322000D906B1F0D30115968D919C911697860120
:10323000DC01ED91FC910190F081E02DD6016D91C2
:103240006D010995F8016081C3010E94E917E5CF7E
:1032500067018C859D85C816D906B1F0D3011596F6
:103260008D919C9116978601DC01ED91FC91019066
:10327000F081E02DD6016D916D010995F801608115
:10328000C3010E94E917E5CFC3010E94001864E65C
:1032900070E0C3010E9419188F3F910509F076C0B4
:1032A000EFEFFFEFD3011496FC93EE9313976FEFBC
:1032B000C3010E94E91765E070E0C3010E9419187C
:1032C000D3016C91262F30E08217930709F05EC07E
:1032D000C3010E94E9176AE070E0C3010E94191857
:1032E0006C0197FD53C0682FC3010E94E9176AE083
:1032F00070E0C3010E9419188C0197FD47C0682F28
:10330000C3010E94E917CA821982E981FA810E0F6E
:103310001F1FC12CD12C65E070E0C301C016D1067F
:10332000A1F0C814D90489F00E94191897FD09C0AA
:10333000EE81FF81EC0DFD1D8083682FC3010E948B
:10334000E917FFEFCF1ADF0AE6CF0E9419186C01C8
:1033500097FD1CC065E070E0C3010E94191897FD3D
:1033600015C0DC2CCC248C0D9D1DD30113962D9102
:103370003C9114972817390749F48C918F5F8C93EF
:10338000C8018016910678F4C4010DC0B39464E6B8
:1033900070E080E090E00E942A0BC3010E94501868
:1033A000D3CE8FEF9FEF2D960FB6F894DEBF0FBEF2
:1033B000CDBFDF91CF911F910F91FF90EF90DF90E4
:1033C000CF90BF90AF909F908F907F906F905F90C5
:1033D0004F903F902F9008953F924F925F926F923F
:1033E0007F928F929F92AF92BF92CF92DF92EF9295
:1033F000FF920F931F93CF93DF93CDB7DEB72E9736
:103400000FB6F894DEBF0FBECDBFDC0117962C912E
:1034100017972111D2C03C0181E0FD018783C301D0
:103420000E94501868EE73E080E090E00E942A0B42
:10343000D30115968D919C911697DC01ED91FC912D
:103440000480F581E02D09951816190644F395E0DE
:10345000592E4424439422E3322EEEE1F1E0DE01C2
:103460001696852D01900D928A95E1F7F30140861D
:10347000812C912CA12CB12CC12CD12CE12CF12C24
:1034800000E010E020E030E045E050E0BE016A5F7F
:103490007F4FC3010E946C1863E0D30115968D9194
:1034A0009C9116970E94B6046AEF70E080E090E06D
:1034B0000E942A0B64E872E0F301858196810E94E4
:1034C00082046AEF70E080E090E00E942A0B62E8DC
:1034D00072E0D30115968D919C9116970E948204FB
:1034E00064EF71E080E090E00E942A0B66E772E0F2
:1034F000F301858196810E94820464EF71E080E08F
:1035000090E00E942A0BC3010E945018E3E2F1E010
:10351000DE011196852D01900D928A95E1F7D30178
:1035200018963C9284E0882E912CFE013B965F0118
:1035300020E030E045E050E0BE016F5F7F4FC30107
:103540000E946C188F3FFFEF9F0739F468EE73E01D
:1035500080E090E00E942A0B80CF2B852111FFCFC5
:10356000049711F52C8530E02053310984E6829FC1
:10357000A001839F500D11242D8530E02053310987
:103580006AE0629FC001639F900D1124840F951F14
:103590002E8530E020533109820F931FD3011296FC
:1035A0009C938E93119705C084E690E0F30192837B
:1035B000818382E3D30118968C932E960FB6F894EC
:1035C000DEBF0FBECDBFDF91CF911F910F91FF9056
:1035D000EF90DF90CF90BF90AF909F908F907F90B3
:1035E0006F905F904F903F900895E1EEF3E010826E
:1035F00085E094E096838583178210869287818781
:1036000008954F925F926F927F928F929F92AF92A6
:10361000BF92CF92DF92EF92FF920F931F93CF93BF
:10362000DF931F92CDB7DEB73C019B012A01DC017D
:1036300052968C91811105C08B017B01E40EF51E21
:1036400035C080E58983812C912CA12CB12CC12C13
:10365000D12CE12CF12C8A0141E050E0BE016F5FDA
:103660007F4FF301848595850E946C1822C0D30199
:103670005596ED91FC91569753968C91539791E006
:10368000980F53969C93D8019D918D01E80FF11DE1
:103690009083F30193898489981308C00190F08185
:1036A000E02D0284F385E02DC30109950E151F0559
:1036B000F1F6C2010F90DF91CF911F910F91FF9012
:1036C000EF90DF90CF90BF90AF909F908F907F90C2
:1036D0006F905F904F9008958F929F92AF92BF929C
:1036E000CF92DF92EF92FF920F931F9348015901FF
:1036F000C12CD12CE12CF12C00E010E020E030E0D6
:103700000E946C181F910F91FF90EF90DF90CF9067
:10371000BF90AF909F908F9008950F931F93CF937A
:10372000DF93FC01228921110FC0EC01438950E095
:103730006589768900E010E020E030E08485958599
:103740000E946C1B81E08B8BDF91CF911F910F91B9
:1037500008950F931F93CF93DF9300D0CDB7DEB7BB
:10376000DC0152968C915297882399F080E58983E9
:103770006A8300E010E020E030E042E050E0BE016B
:103780006F5F7F4F1C968D919C911D970E946C1BC3
:103790001FC05596ED91FC91569753968C91539777
:1037A00091E0980F53969C935397E80FF11D608317
:1037B00053969C91539754968C915497981308C0A4
:1037C000ED91FC9111970284F385E02DCD010995CF
:1037D00081E090E00F900F90DF91CF911F910F91BA
:1037E0000895FC011382128288EE93E0A0E0B0E01D
:1037F00084839583A683B78388EF91E09183808348
:1038000081EE93E09587848716861786118A108A41
:1038100081E0828B0895CF93DF93FC0122892111EF
:1038200009C0EC0185899689009711F00E94CD119D
:1038300081E08A8BDF91CF910895EF92FF920F93F1
:103840001F93CF93DF9300D0CDB7DEB7FC01268561
:10385000211115C07C01178680E7898380E28A8365
:103860002089318900E210E042E050E0BE016F5F44
:103870007F4F848595850E946C1BF70186870F908A
:103880000F90DF91CF911F910F91FF90EF900895CE
:10389000CF93DF93EC010E941D1C8E8590E0DF9199
:1038A000CF910895CF93DF93EC010E941D1C8E856C
:1038B000882369F081508E87E889F9898F8591E0A6
:1038C000980F9F87E80FF11D808190E002C08FEF75
:1038D0009FEFDF91CF910895CF93DF93EC010E948A
:1038E0001D1C8E85882341F08F85E889F989E80FB2
:1038F000F11D808190E002C08FEF9FEFDF91CF91AB
:103900000895CF93DF93EC010E940B1C888999895D
:10391000009721F00E94CD11198A188ADF91CF916A
:10392000089528EF31E0FC01318320830C94811C41
:10393000CF93DF93EC018C859D850E94EC19CE011D
:103940000E94811C80E290E00E94C911998B888BB3
:10395000DF91CF9108958CEE93E00C94F11B8CEEE7
:1039600093E00C94911C81E0089581EE93E0909394
:10397000040480930304089508956F927F928F92B8
:103980009F92AF92BF92CF92DF92EF92FF920F93EE
:103990001F93CF93DF9300D0CDB7DEB79B013A01E1
:1039A00049E44983FC0146854A83812C912CA12C52
:1039B000B12CC12CD12CE12CF12C830142E050E040
:1039C000BE016F5F7F4F848595850E946C18C3018F
:1039D0000F900F90DF91CF911F910F91FF90EF907B
:1039E000DF90CF90BF90AF909F908F907F906F901F
:1039F00008950F931F93CF93DF9300D01F92CDB7FD
:103A0000DEB729E42983FC0126852A836B8300E045
:103A100010E020E030E043E050E0BE016F5F7F4FF8
:103A2000848595850E946C1B81E090E00F900F903B
:103A30000F90DF91CF911F910F910895EF92FF9218
:103A40000F931F93CF93DF9300D01F92CDB7DEB7B4
:103A5000FC012289211118C07C01138A8FE489831B
:103A600080E48B8386858A839F012C5E3F4F00E430
:103A700010E043E050E0BE016F5F7F4F8485958585
:103A80000E946C1BF701828B0F900F900F90DF91BB
:103A9000CF911F910F91FF90EF900895CF93DF93F7
:103AA000EC010E941E1D8A8990E0DF91CF9108955C
:103AB000CF93DF93EC010E941E1D8A89882359F061
:103AC00081508A8B8B8991E0980F9B8BC80FD11DF9
:103AD0008C8990E002C08FEF9FEFDF91CF91089526
:103AE000CF93DF93EC010E941E1D8A89882331F059
:103AF0008B89C80FD11D8C8990E002C08FEF9FEF9A
:103B0000DF91CF9108950F931F93CF93DF93EC0133
:103B10008B0164E072E08F8598890E944116B8019C
:103B20008F859889DF91CF911F910F910C943A1650
:103B30006F927F928F929F92AF92BF92CF92DF92BD
:103B4000EF92FF920F931F93CF93DF9300D01F92BA
:103B5000CDB7DEB73C0182E58B83D3011F96ED9193
:103B6000FC915097048115812081318182E0882E5B
:103B7000912CFE0131965F01C12CD12CE12CF12C4E
:103B800041E050E0BE016D5F7F4F1C968D919C918E
:103B90001D970E946C188A81D3011E968C931E97E4
:103BA0001F960D911C9150970115110531F0C80118
:103BB0000E949214C8010E94CB11F301108A17864B
:103BC0008981811102C081E0818B0F900F900F904D
:103BD000DF91CF911F910F91FF90EF90DF90CF90E9
:103BE000BF90AF909F908F907F906F9008950F93AC
:103BF0001F93CF93DF9300D01F92CDB7DEB722E79C
:103C00002983FC0126852A8301E010E09E012D5FB7
:103C10003F4F42E050E0BE016F5F7F4F8485958546
:103C20000E946C1B81E09B81913009F080E00F9035
:103C30000F900F90DF91CF911F910F910895EF9208
:103C4000FF920F931F93CF93DF9300D0CDB7DEB7D2
:103C50007C01FC018189882389F087E78983868537
:103C60008A8300E010E020E030E042E050E0BE0156
:103C70006F5F7F4F848595850E946C1BF701118AC9
:103C80000F900F90DF91CF911F910F91FF90EF90C8
:103C9000089526E132E0FC01318320830C941F1E3D
:103CA000EF92FF920F931F93CF93DF9300D0CDB786
:103CB000DEB77C0169837A830E941F1E86E090E054
:103CC0000E94C7118C0169817A810E948A15F701CF
:103CD000108B07870F900F90DF91CF911F910F915D
:103CE000FF90EF9008951F920F920FB60F9211243C
:103CF0002F938F939F93EF93FF93E0911504F0918F
:103D000016048081E0911B04F0911C0482FD12C016
:103D1000908180911E048F5F8F7320911F04821702
:103D200051F0E0911E04F0E0EB5FFB4F958F809324
:103D30001E0401C08081FF91EF919F918F912F917F
:103D40000F900FBE0F901F9018951F920F920FB6F5
:103D50000F9211242F933F934F935F936F937F9311
:103D60008F939F93AF93BF93EF93FF9385E094E07E
:103D70000E94D710FF91EF91BF91AF919F918F91CA
:103D80007F916F915F914F913F912F910F900FBE57
:103D90000F901F90189585E094E00E949B1021E001
:103DA000892B09F420E0822F0895E5E0F4E01382E6
:103DB000128288EE93E0A0E0B0E084839583A6832E
:103DC000B78380EE91E0918380838DEC90E09587BE
:103DD00084878CEC90E09787868788EC90E0918BC5
:103DE000808B89EC90E0938B828B8AEC90E0958BB2
:103DF000848B8EEC90E0978B868B118E128E138EB7
:103E0000148E08955058BB27AA270E941A1F0C949D
:103E10008D200E947F2038F00E94862020F039F407
:103E20009F3F19F426F40C947C200EF4E095E7FBF8
:103E30000C947620E92F0E949E2058F3BA1762074F
:103E400073078407950720F079F4A6F50C94C02039
:103E50000EF4E0950B2EBA2FA02D0B01B9019001A5
:103E60000C01CA01A0011124FF27591B99F0593FE9
:103E700050F4503E68F11A16F040A22F232F342F31
:103E80004427585FF3CF469537952795A795F0407F
:103E90005395C9F77EF41F16BA0B620B730B840B94
:103EA000BAF09150A1F0FF0FBB1F661F771F881F4C
:103EB000C2F70EC0BA0F621F731F841F48F48795A4
:103EC00077956795B795F7959E3F08F0B0CF939596
:103ED000880F08F09927EE0F9795879508950E940F
:103EE000522008F481E008950E94881F0C948D20D0
:103EF0000E94862058F00E947F2040F029F45F3F06
:103F000029F00C94762051110C94C1200C947C2043
:103F10000E949E2068F39923B1F3552391F3951BDA
:103F2000550BBB27AA2762177307840738F09F5FDA
:103F30005F4F220F331F441FAA1FA9F335D00E2E47
:103F40003AF0E0E832D091505040E695001CCAF7B4
:103F50002BD0FE2F29D0660F771F881FBB1F261777
:103F600037074807AB07B0E809F0BB0B802DBF014E
:103F7000FF2793585F4F3AF09E3F510578F00C941D
:103F800076200C94C1205F3FE4F3983ED4F38695ED
:103F900077956795B795F7959F5FC9F7880F911D3E
:103FA0009695879597F90895E1E0660F771F881F2A
:103FB000BB1F621773078407BA0720F0621B730BDD
:103FC000840BBA0BEE1F88F7E09508950E94A62097
:103FD00088F09F5798F0B92F9927B751B0F0E1F0CA
:103FE000660F771F881F991F1AF0BA95C9F714C07A
:103FF000B13091F00E94C020B1E008950C94C0202F
:10400000672F782F8827B85F39F0B93FCCF38695B2
:1040100077956795B395D9F73EF49095809570950F
:1040200061957F4F8F4F9F4F0895E89409C097FB8C
:104030003EF490958095709561957F4F8F4F9F4F7F
:104040009923A9F0F92F96E9BB279395F6958795C3
:1040500077956795B795F111F8CFFAF4BB0F11F486
:1040600060FF1BC06F5F7F4F8F4F9F4F16C088232D
:1040700011F096E911C0772321F09EE8872F762F63
:1040800005C0662371F096E8862F70E060E02AF0A4
:104090009A95660F771F881FDAF7880F9695879590
:1040A00097F90895990F0008550FAA0BE0E8FEEF65
:1040B00016161706E807F907C0F012161306E407EC
:1040C000F50798F0621B730B840B950B39F40A26E5
:1040D00061F0232B242B252B21F408950A2609F4C3
:1040E000A140A6958FEF811D811D089597F99F67C7
:1040F00080E870E060E008959FEF80EC0895002470
:104100000A941616170618060906089500240A943C
:1041100012161306140605060895092E0394000CC2
:1041200011F4882352F0BB0F40F4BF2B11F460FF51
:1041300004C06F5F7F4F8F4F9F4F089557FD90587A
:10414000440F551F59F05F3F71F04795880F97FB5B
:10415000991F61F09F3F79F0879508951216130615
:104160001406551FF2CF4695F1DF08C01616170644
:104170001806991FF1CF8695710561050894089579
:10418000E894BB2766277727CB0197F908950E940B
:10419000522008F48FEF08950E94DF200C948D20A8
:1041A0000E947F2038F00E94862020F0952311F095
:1041B0000C9476200C947C2011240C94C1200E9435
:1041C0009E2070F3959FC1F3950F50E0551F629F9D
:1041D000F001729FBB27F00DB11D639FAA27F00D60
:1041E000B11DAA1F649F6627B00DA11D661F829F87
:1041F0002227B00DA11D621F739FB00DA11D621F6C
:10420000839FA00D611D221F749F3327A00D611D88
:10421000231F849F600D211D822F762F6A2F11246A
:104220009F5750409AF0F1F088234AF0EE0FFF1F9D
:10423000BB1F661F771F881F91505040A9F79E3FF4
:10424000510580F00C9476200C94C1205F3FE4F37C
:10425000983ED4F3869577956795B795F795E7954A
:104260009F5FC1F7FE2B880F911D9695879597F953
:1042700008950E945220880B990B0895A1E21A2EEE
:10428000AA1BBB1BFD010DC0AA1FBB1FEE1FFF1FFA
:10429000A217B307E407F50720F0A21BB30BE40B4A
:1042A000F50B661F771F881F991F1A9469F7609591
:1042B0007095809590959B01AC01BD01CF0108954B
:1042C000EE0FFF1F0590F491E02D0994A29FB0011D
:1042D000B39FC001A39F700D811D1124911DB29F3A
:1042E000700D811D1124911D08950E946621A59FC6
:1042F000900DB49F900DA49F800D911D11240895E1
:10430000CF93DF938230910510F482E090E0E0914A
:10431000A404F091A50420E030E0C0E0D0E03097A4
:1043200011F14081518148175907C0F048175907CA
:1043300061F482819381209719F09B838A832BC03B
:104340009093A5048093A40426C02115310519F08B
:104350004217530718F49A01BE01DF01EF010280F2
:10436000F381E02DDCCF2115310509F1281B390B34
:104370002430310590F412968D919C91139761151C
:10438000710521F0FB019383828304C09093A504FF
:104390008093A404FD01329644C0FD01E20FF31F97
:1043A00081939193225031092D933C933AC02091EF
:1043B000A2043091A304232B41F4209102013091F7
:1043C00003013093A3042093A204209100013091B3
:1043D00001012115310541F42DB73EB7409104018B
:1043E00050910501241B350BE091A204F091A30428
:1043F000E217F307A0F42E1B3F0B2817390778F0BC
:10440000AC014E5F5F4F2417350748F04E0F5F1F1A
:104410005093A3044093A2048193919302C0E0E0DF
:10442000F0E0CF01DF91CF9108950F931F93CF93C9
:10443000DF93009709F48CC0FC013297138212823B
:104440000091A4041091A5040115110581F42081A7
:104450003181820F931F2091A2043091A304281769
:10446000390779F5F093A304E093A20471C0D80151
:1044700040E050E0AE17BF0750F412962D913C91EA
:104480001397AD012115310509F1D901F3CF9D0134
:10449000DA013383228360817181860F971F82172F
:1044A000930769F4EC0128813981260F371F2E5FAD
:1044B0003F4F318320838A819B8193838283452B65
:1044C00029F4F093A504E093A40442C01396FC934E
:1044D000EE931297ED01499159919E01240F351FDA
:1044E000E217F30771F480819181840F951F029682
:1044F00011969C938E938281938113969C938E93B5
:104500001297E0E0F0E0D80112968D919C911397FC
:10451000009719F0F8018C01F6CF8D919C919801CC
:104520002E5F3F4F820F931F2091A2043091A3046E
:104530002817390769F4309729F41092A5041092CE
:10454000A40402C0138212821093A3040093A20455
:10455000DF91CF911F910F910895A0E0B0E0E3EBC0
:10456000F2E20C941D25EC01009721F4CB010E948E
:104570008021B8C0FC01E60FF71F9C0122503109D1
:10458000E217F30708F4ACC0D9010D911C91119703
:1045900006171707B0F00530110508F49FC0C801D1
:1045A00004978617970708F499C002501109061B53
:1045B000170B019311936D937C93CF010E941522E9
:1045C0008DC05B01A01AB10A4C01800E911EA09112
:1045D000A404B091A50440E050E0E12CF12C109728
:1045E00009F44AC0A815B905D1F56D907C901197D2
:1045F000630182E0C80ED11CCA14DB0480F1A30160
:104600004A195B096A0182E0C80ED11C1296BC905F
:1046100012971396AC91B5E0CB16D10440F0B2825C
:10462000A38351834083D9016D937C930AC00E5FAD
:104630001F4FC301800F911FF90191838083EB2DE0
:10464000FA2FE114F10431F0D7011396FC93EE93A5
:10465000129744C0F093A504E093A4043FC08D9149
:104660009C9111974817590708F4AC017D011296E7
:104670000D90BC91A02DB3CF8091A2049091A30482
:1046800088159905E1F446175707C8F48091000191
:1046900090910101009741F48DB79EB740910401BC
:1046A00050910501841B950BE817F907C8F4F093A6
:1046B000A304E093A204F901718360830FC0CB01CE
:1046C0000E9480217C01009759F0A801BE010E9440
:1046D000A224CE010E941522C70104C0CE0102C04F
:1046E00080E090E0CDB7DEB7EEE00C943925A6E08F
:1046F000B0E0EDE7F3E20C9419255C016B017A015F
:104700006115710519F0DB018D939C93E114F1049F
:1047100029F0C7010297839708F0DCC03501BFEF8D
:104720006B1A7B0AF5011081812F90E00E94892489
:10473000892B11F05301F2CF1D3249F43501F2E01B
:104740006F0E711CD50111961C9101E009C01B323E
:1047500031F43501B2E06B0E711CF501118100E0FE
:10476000E114F10409F4C4C0F0E1EF16F10489F496
:10477000103399F5D3018C918F7D883509F0B2C043
:1047800011961C91B2E06B0E711C026050E1E52E97
:10479000F12CEAE0EE16F10409F4B0C0F0E1EF16F6
:1047A000F104D9F028E0E216F10451F438E0E32EE8
:1047B000F12C88248A94982CA82C4FE1B42E13C095
:1047C0006FEF7FEFCB0197010F2C000C440B550BC3
:1047D0000E943E2149015A0106C088248A94982CDF
:1047E000A82C2FE0B22E7E826D8260E020E030E0C7
:1047F000A90127010F2C000C660877082D803E8048
:10480000E0EDE10FEA3060F08FEB810F8A3110F4B8
:10481000E9EC05C08FE9810F8A3190F5E9EAE10FF3
:104820008E2F90E08E159F055CF56F3F09F1821683
:104830009306A406B506D8F0C301B2010E9409256B
:104840002E2F30E040E050E029833A834B835C8395
:10485000260F371F481F591F89819A81AB81BC8160
:10486000281739074A075B0710F061E001C06FEFB6
:10487000ED81FE813196FE83ED83D1011C91BECF87
:10488000C114D10489F0662339F08D819E8101978E
:10489000F6019183808308C001FF06C08D819E814F
:1048A0000297D6018D939C9300FF07C050954095C9
:1048B000309521953F4F4F4F5F4F67FF10C082E209
:1048C00090E09093A7048093A6046FEF7FEF8FEFA3
:1048D0009FEF1BC060E070E080E090E016C0B9017F
:1048E000CA0113C010E3E114F10409F45FCF51CF02
:1048F000103309F43FCF9AE0E92EF12C89E9882E94
:10490000982CA82C89E1B82E6ECF2696E2E10C9463
:10491000352591110C94F624803219F08950855078
:10492000C8F70895FB01DC0105900D920020E1F726
:104930000895FC0105900020E9F7809590958E0F71
:104940009F1F0895FB01DC0102C001900D924150B0
:104950005040D8F70895FC018191861721F08823F3
:10496000D9F7992708953197CF010895FB01DC010C
:104970008D91019080190110D9F3990B0895FB01D5
:10498000DC0101900D920020E1F7089545325105B8
:1049900020F4423010F00C94D124FB011082CB01A2
:1049A0000895BB274A3031F4992322F4BDE2909553
:1049B00081959F4F0C94DD24BB27FB015527AA2727
:1049C000880F991FAA1FA41710F0A41B839550519C
:1049D000B9F7A05DAA3308F0A95DA193009779F714
:1049E000B111B1931192CB010C94F9249927882726
:1049F0000895DC01FC01672F71917723E1F732976D
:104A000004C07C916D9370836291AE17BF07C8F3A9
:104A10000895DB018F939F930E947521BF91AF9101
:104A2000A29F800D911DA39F900DB29F900D112408
:104A300008952F923F924F925F926F927F928F9242
:104A40009F92AF92BF92CF92DF92EF92FF920F931D
:104A50001F93CF93DF93CDB7DEB7CA1BDB0B0FB627
:104A6000F894DEBF0FBECDBF09942A8839884888E4
:104A70005F846E847D848C849B84AA84B984C8847A
:104A8000DF80EE80FD800C811B81AA81B981CE0F71
:104A9000D11D0FB6F894DEBF0FBECDBFED01089556
:104AA00011E0CEE4D1E004C0FE010E946021219615
:0A4AB000C235D107C9F7F894FFCF13
:104ABA000000A8048000FFFFFFFF00E100000000E3
:104ACA00000000C18081000000012C01000058583C
:104ADA005858585858313030496F74436861727465
:104AEA003200496F744C45444261723100496F7417
:104AFA0053706565646F3100496F7442746E31009A
:104B0A00496F7442746E3200496F7442746E330096
:104B1A00496F7442746E3400496F7442746E350082
:104B2A00000000007C017D01000000007C017F0183
:104B3A00000000008D02D402B702C702A302B40229
:104B4A000000000098030D0A006E616E00696E662F
:104B5A00006F766600000000002A0C290C00000095
:104B6A0000900C420428003D002400242E63726544
:104B7A0061746500000000007C017D0100000000F6
:104B8A00ED0F7D01F6FF000029172F170000000026
:104B9A001A1142049B10B510A710F810000000006B
:104BAA0029172F1700000000A91B011B481C521CC3
:104BBA006C1C8D1BFE002F62696E2F617368002DBD
:104BCA00630000000000F91CBD1C4E1D581D701D1D
:024BDA00BC1C01
:00000001FF
