:100000000C944C010C9474010C9474010C947401C4
:100010000C9474010C9474010C9474010C9474018C
:100020000C9474010C9474010C94F40D0C94830CD6
:100030000C9474010C9474010C9474010C9474016C
:100040000C9474010C9474010C9474010C9474015C
:100050000C9474010C9474010C9474010C94920E21
:100060000C9474010C94402A0C94722A0C94740120
:100070000C9474010C9474010C9474010C9474012C
:100080000C9474010C9474010C9474010C9474011C
:100090000C9474010C9474010C9474010C9474010C
:1000A0000C9474010C9474010C9474016C6162657D
:1000B0006C0076616C756500737461746500080B83
:1000C0000002020201000904000001020200000512
:1000D0002400100105240101010424020605240660
:1000E00000010705810310004009040100020A0015
:1000F00000000705020240000007058302400000DF
:1001000012010002EF02014041234180000101027F
:100110000301120100020000004041234180000160
:100120000102030141726475696E6F204C4C4300FB
:1001300055534220494F20426F6172640004030905
:1001400004070605040100080A0B0C0D0904080247
:10015000011040804010204080408008020401804F
:1001600040201002011080102040402004040404AC
:10017000040304050202020204030202020206064C
:10018000060606060404020202040400000000251C
:100190000028002B002E0031000000000024002762
:1001A000002A002D0030002F76736D2F002F7673FC
:1001B0006D2F00485F46494C4500485F5245534FFC
:1001C000555243450054494D45004144445245531E
:1001D00053004556454E540052454C4F414400652E
:1001E000726173650073746F70007265636F72641F
:1001F000007469746C65005365727665722053747F
:100200006172746564002F76736D2F736572766505
:10021000722E7079002D7500707974686F6E0053BE
:1002200074617274696E67205365727665722050CE
:10023000726F636573732E2E2E00617070656E642D
:100240004461746100636C6561724461746100644F
:10025000617461005952616E676500436F6C756D22
:100260006E56697369626C650072756E2D62726993
:100270006467650A000A000A0000F20566070608BE
:10028000CD17BF18FF19ED1DFA24B0268228A22A27
:100290005606CD180D1AB42611241FBECFEFDAE092
:1002A000DEBFCDBF12E0A0E0B1E0E6EEF7E602C0AF
:1002B00005900D92A43CB107D9F725E0A4ECB2E07B
:1002C00001C01D92A339B207E1F711E0C8E4D1E003
:1002D00004C02197FE010E94412DCD33D107C9F7FB
:1002E0000E9412080C94E6330C9400000895CB0190
:1002F00008959B01BC01665F7F4FC9010C94B8143F
:10030000CF93DF93EB0148EB50E0BC0186E394E030
:100310000E94451CBE010E944D13DC01ED91FC9131
:100320000280F381E02DDF91CF910994CF92DF928B
:10033000EF92FF926A017B0142EB50E0BC0186E341
:1003400094E00E94451CB701A6010E947013DC01D5
:10035000ED91FC910280F381E02DFF90EF90DF9012
:10036000CF900994CF93DF93EB014CEA50E0BC01AE
:1003700086E394E00E94451CBE010E945214DC01F9
:10038000ED91FC910280F381E02DDF91CF910994F2
:10039000CF93DF9300D000D000D0CDB7DEB710925E
:1003A000D9021092D8026CE271E0CE0101960E944F
:1003B0007B10BE016F5F7F4F809165039091660354
:1003C0000E94B201CE0101960E940D1026960FB632
:1003D000F894DEBF0FBECDBFDF91CF910895CF93CC
:1003E000DF9300D000D000D0CDB7DEB781E090E041
:1003F0009093D9028093D80260E371E0CE01019618
:100400000E947B10BE016F5F7F4F809165039091CA
:1004100066030E94B201CE0101960E940D1061E0B8
:1004200070E080910E0390910F030E948001269648
:100430000FB6F894DEBF0FBECDBFDF91CF91089508
:10044000CF93DF9300D000D000D0CDB7DEB782E0ED
:1004500090E09093D9028093D80263E371E0CE01DB
:1004600001960E947B10BE016F5F7F4F80916503F4
:10047000909166030E94B201CE0101960E940D1078
:1004800026960FB6F894DEBF0FBECDBFDF91CF9199
:100490000895CF93DF93EC010E94C11982EA91E0A5
:1004A00099838883DF91CF91089561E97FE186E3A5
:1004B00094E00E941F1985E094E00E94431880E2B6
:1004C00092E090935E0380935D038FEE91E09093B2
:1004D00052038093510388EC91E0909346038093FC
:1004E0004503089586E394E00C94A81AEF92FF92D6
:1004F0000F931F93CF93DF9300D000D000D0CDB7E0
:10050000DEB740E855E260E070E083E793E00E94E8
:10051000600760E080E00E94D00F60E081E00E9410
:10052000D00F60E082E00E94D00FE12CF12C0AEFA6
:1005300013E420E030E0A90160E086E193E00E944E
:10054000441D6BE371E0CE0101960E947B10BE0159
:100550006F5F7F4F86E193E00E94AD1DCE01019653
:100560000E940D1026960FB6F894DEBF0FBECDBFC9
:10057000DF91CF911F910F91FF90EF9008954F92CF
:100580005F926F927F928F929F92AF92BF92CF9223
:10059000DF92EF92FF920F931F93CF93DF93CDB72C
:1005A000DEB728970FB6F894DEBF0FBECDBF80E050
:1005B0000E949F0FBC01990F880B990B0E94E42B9E
:1005C0006093D4027093D5028093D6029093D702A1
:1005D00081E00E949F0FBC01990F880B990B0E942C
:1005E000E42B6093D0027093D1028093D202909357
:1005F000D30282E00E949F0F7C0120E030E04AEFAE
:1006000053E46091D4027091D5028091D60290910A
:10061000D7020E94992C20E030E04AE953E40E947E
:10062000412B8B01782E692ECB01A72DB62D8093FF
:10063000D4029093D502A093D602B093D70220E0C3
:1006400030E04AEF53E46091D0027091D102809182
:10065000D2029091D3020E94992C20E030E04AE926
:1006600053E40E94412B4B015C01CB01D5018093E7
:10067000D0029093D102A093D202B093D302B701DB
:10068000FF0C880B990B0E94E42B20E030E04AEF2E
:1006900053E40E94992C20E030E04AE953E40E94A0
:1006A000412B6B017C01CB01D7018093CC0290934D
:1006B000CD02A093CE02B093CF029401A501B80160
:1006C000872D962D0E94942C9601A701181644F4AC
:1006D000B801872D962D0E94942C181674F006C030
:1006E000B401C5010E94942C181624F086017E2CBA
:1006F0006F2C03C084017A2C6B2CC801A72DB62D5A
:100700008093C8029093C902A093CA02B093CB020F
:1007100020E030E0A901B801872D962D0E94942C8D
:1007200087FD3BC020E030E048E452E4B801872D6B
:10073000962D0E943C2B181684F161E070E08091A8
:100740000E0390910F030E94800160E070E08091A1
:100750000403909105030E94800160E070E08091A5
:10076000FA029091FB020E94800160E070E08091AB
:10077000F0029091F1020E94800160E070E08091AF
:10078000E6029091E7020E94800160E070E08091B3
:10079000DC029091DD020E948001C090C802D090DE
:1007A000C902E090CA02F090CB0220E030E04CE4B5
:1007B00052E4C701B6010E94942C87FD3AC020E0A4
:1007C00030E048EC52E4C701B6010E943C2B1816F9
:1007D00084F161E070E080910403909105030E9430
:1007E000800160E070E080910E0390910F030E9401
:1007F000800160E070E08091FA029091FB020E941B
:10080000800160E070E08091F0029091F1020E941E
:10081000800160E070E08091E6029091E7020E9422
:10082000800160E070E08091DC029091DD020E9426
:100830008001C090C802D090C902E090CA02F09036
:10084000CB0220E030E04AEC52E4C701B6010E943E
:10085000942C87FD3AC020E030E046E153E4C70124
:10086000B6010E943C2B181684F161E070E0809183
:10087000FA029091FB020E94800160E070E080919A
:100880000E0390910F030E94800160E070E0809160
:100890000403909105030E94800160E070E0809164
:1008A000F0029091F1020E94800160E070E080917E
:1008B000E6029091E7020E94800160E070E0809182
:1008C000DC029091DD020E948001C090C802D090AD
:1008D000C902E090CA02F090CB0220E030E047E18C
:1008E00053E4C701B6010E94942C87FD3AC020E072
:1008F00030E048E453E4C701B6010E943C2B1816CF
:1009000084F161E070E08091F0029091F1020E9428
:10091000800160E070E080910E0390910F030E94CF
:10092000800160E070E080910403909105030E94D3
:10093000800160E070E08091FA029091FB020E94D9
:10094000800160E070E08091E6029091E7020E94F1
:10095000800160E070E08091DC029091DD020E94F5
:100960008001C090C802D090C902E090CA02F09005
:10097000CB0220E030E049E453E4C701B6010E9415
:10098000942C87FD39C020E030E046E953E4C701EC
:10099000B6010E943C2B18167CF161E070E080915A
:1009A000E6029091E7020E94800160E070E0809191
:1009B0000E0390910F030E94800160E070E080912F
:1009C0000403909105030E94800160E070E0809133
:1009D000FA029091FB020E94800160E070E0809139
:1009E000F0029091F1020E94800160E070E080913D
:1009F000DC029091DD0242C020E030E846E953E499
:100A0000C701B6010E94942C87FD3AC020E030E077
:100A10004AEF53E4C701B6010E943C2B181684F13B
:100A200061E070E08091DC029091DD020E94800123
:100A300060E070E080910E0390910F030E948001AE
:100A400060E070E080910403909105030E948001B2
:100A500060E070E08091FA029091FB020E948001B8
:100A600060E070E08091F0029091F1020E948001BC
:100A700060E070E08091E6029091E7020E948001C0
:100A80000E942C17AB01BC018091C4029091C50259
:100A9000A091C602B091C7028A019B01081B190BE5
:100AA0002A0B3B0B043011052105310508F447C022
:100AB0004093C4025093C5026093C6027093C7026C
:100AC0008090CC029090CD02A090CE02B090CF0248
:100AD0004090D0025090D1026090D2027090D30228
:100AE0008091D4029091D502A091D602B091D70204
:100AF00089839A83AB83BC8386E193E04D835E83D5
:100B00006F8378870E94DF1D4D815E816F817885BC
:100B10000E948C1549815A816B817C810E947013DF
:100B2000B301A2010E947013B501A4010E947013C9
:100B3000DC01ED91FC910280F381E02D099580911B
:100B4000D8029091D902009749F44091D402509173
:100B5000D5026091D6027091D70216C081309105FE
:100B600049F44091D0025091D1026091D20270912B
:100B7000D3020AC0029771F44091CC025091CD0289
:100B80006091CE027091CF028091650390916603CF
:100B90000E94960168EE73E080E090E028960FB620
:100BA000F894DEBF0FBECDBFDF91CF911F910F91A3
:100BB000FF90EF90DF90CF90BF90AF909F908F907D
:100BC0007F906F905F904F900C940D0F0E94550294
:100BD00086E394E00E94A21B0C9476020E947202AB
:100BE0000C94BF020F93CF93DF9300E020E040E02E
:100BF00060E08DE693E00E94C70761E471E083E660
:100C000093E00E9449026CE471E087E593E00E9462
:100C1000C119E7E5F3E013861286CAEAD1E0D18371
:100C2000C08364E571E08BE493E00E94C119EBE4BA
:100C3000F3E013861286D183C0836CE571E08FE305
:100C400093E00E94C119EFE3F3E013861286D1838B
:100C5000C08364E671E086E193E00E94231D6EE6A6
:100C600071E08CE093E00E94490266E771E082E067
:100C700093E00E9449026EE771E088EF92E00E94E3
:100C8000490266E871E08EEE92E00E9449026EE849
:100C900071E084EE92E00E94490266E971E08AED1B
:100CA00092E0DF91CF910F910C944902E6E1F3E0DD
:100CB0008EE392E09183808388E492E09387828739
:100CC00087ED91E0968F858F81EE91E092A381A3CD
:100CD00089E393E00E940D108CE293E00C940D10D8
:100CE000CF93DF931F92CDB7DEB76983DC01ED911F
:100CF000FC910280F381E02D41E050E0BE016F5F86
:100D00007F4F09950F90DF91CF910895CF93DF9397
:100D1000EC018C859D8597FF05C082E00E94570BF2
:100D20009D878C878C859D85DF91CF91089583E089
:100D30000C94EA0DFC018485958597FD06C082E040
:100D40000E94010B90E00196089582E00E94010B41
:100D500090E00895FC018485958597FD05C02FEFEF
:100D60003FEF35872487089582E00C94570BCF938B
:100D7000DF93EC0180911101882331F083E00E9420
:100D8000880B1816190634F081E090E09B838A8363
:100D900080E090E0DF91CF910895FC0190819E5F0B
:100DA000908342E450E06EEB70E080E80C94290CF4
:100DB000FC0181819081913A59F4813209F048C057
:100DC00047E050E06AE071E080E00E94290C76C0C4
:100DD0009132F1F5833291F49381892F90E0982F2D
:100DE00088272281822BA0E0B0E0809306019093B7
:100DF0000701A0930801B093090160C0803239F463
:100E000067E070E08AE091E00E94500C06C08232F8
:100E100009F054C08281809311018091C30388231B
:100E200019F0EEEFFAE002C0E0E0F8E080910A018C
:100E300090910B01A0910C01B0910D01803B944069
:100E4000A105B10539F48091110180FF1FC002C0D6
:100E500080E008950FB6F894A895809160008861AD
:100E600080936000109260000FBEA895EE3F8AE06C
:100E7000F80739F08091FE0A9091FF0A91838083F0
:100E80001DC01092FF0A1092FE0A18C0EE3F2AE021
:100E9000F20731F0808191819093FF0A8093FE0ADE
:100EA00087E797E7918380839BE088E10FB6F8940A
:100EB000A895809360000FBE9093600081E0089534
:100EC0002FEF3FEFFC01358724870895E3E7F3E038
:100ED0001382128288EE93E0A0E0B0E084839583D1
:100EE000A683B78382EB91E0918380838FEF9FEF9E
:100EF0009587848708958F929F92AF92BF92CF92E9
:100F0000DF92EF92FF920F931F93CF93DF937C01B9
:100F10008B016C0182E0C80ED11C4701E5E08E0E0A
:100F2000911CC0E0D0E0F60161916F014AE050E011
:100F3000C8010E945D095C016EE2C8010E94990827
:100F40008A0D9B1DC80FD91FC814D90461F74AE048
:100F500050E0F7016581C8010E945D098C0F9D1F5B
:100F6000DF91CF911F910F91FF90EF90DF90CF9085
:100F7000BF90AF909F908F90089522EC31E0FC01DC
:100F800031832083128213821482158208950F9375
:100F9000FC0182EC91E0918380836283438324830C
:100FA00005830F910895DC0190E020E030E08AE0B5
:100FB000FB014191BF01442309F150ED540F5A3018
:100FC00088F4829FF001839FF00D11249F0120532C
:100FD0003109240F311D47FD3A952F3F310541F36B
:100FE00038F312C04E3281F4933071F0FD01E90FF5
:100FF000F11D22839F5F20E030E0DACF933021F4AF
:1010000015962C9381E0089580E00895E4ECF3E0D8
:1010100082EC91E091838083128213821482158284
:10102000089508950E94490F0E9411088AEC93E0E8
:101030000E94750E0E94E605C6E2DEE10E94EE0502
:101040002097E1F30E94261EF9CFCF92DF92EF9214
:10105000FF920F931F93CF93DF936C017A018B0163
:10106000C0E0D0E0CE15DF0589F0D8016D918D018B
:10107000D601ED91FC910190F081E02DC60109951A
:10108000892B11F47E0102C02196ECCFC701DF91BC
:10109000CF911F910F91FF90EF90DF90CF90089527
:1010A0006115710579F0FB0101900020E9F7319796
:1010B000AF01461B570BDC01ED91FC910280F381DF
:1010C000E02D099480E090E00895EF92FF920F9355
:1010D0001F93CF93DF938C017B01C0E0D0E0F70139
:1010E000EC0FFD1F6491662361F0D801ED91FC9136
:1010F0000190F081E02DC8010995892B11F021960E
:10110000EECFCE01DF91CF911F910F91FF90EF9025
:101110000895DC01ED91FC91DB0114964D915C91F9
:1011200015976D917C910280F381E02D09940C94C8
:101130005008DC01ED91FC910190F081E02D0994C3
:1011400064EC71E00C9450080F931F93CF93DF93DE
:10115000EC010E9465088C01CE010E94A008800F5E
:10116000911FDF91CF911F910F9108954F925F9240
:101170006F927F92EF92FF920F931F93CF93DF9323
:10118000CDB7DEB7A1970FB6F894DEBF0FBECDBFC7
:101190007C01FA01CB0119A2223008F42AE08E0169
:1011A0000F5D1F4F422E512C612C712CBF01A301EA
:1011B00092010E941F2DF901CA01015011096A30E4
:1011C00014F4605D01C0695CD8016C93232B242B5F
:1011D000252B61F7B801C7010E945008A1960FB6F0
:1011E000F894DEBF0FBECDBFDF91CF911F910F915D
:1011F000FF90EF907F906F905F904F900895CF9207
:10120000DF92EF92FF920F931F93CF93DF93EC0146
:101210006A017B012115310579F4E881F98101909A
:10122000F081E02D642FDF91CF911F910F91FF90FE
:10123000EF90DF90CF9009942A303105E9F477FFE1
:101240001AC06DE20E9499088C0144275527BA0103
:101250004C195D096E097F092AE0CE010E94B6088B
:10126000800F911FDF91CF911F910F91FF90EF9011
:10127000DF90CF9008952AE0B701A601CE01DF915B
:10128000CF911F910F91FF90EF90DF90CF900C9432
:10129000B6089A01AB01770F660B770B0C94FF0829
:1012A0002115310541F4DC01ED91FC910190F081B3
:1012B000E02D642F09940C94B6089A01462F50E053
:1012C00060E070E00C9450094F925F926F927F92B1
:1012D0008F929F92AF92BF92CF92DF92EF92FF9246
:1012E000CF93DF93EC016A017B01B22E9A01AB012F
:1012F000C701B6010E94062D882319F067EC71E042
:1013000027C026013701E89477F82FEF3FEF4FE72A
:101310005FE7C301B2010E94062D81110DC02FEFBE
:101320003FEF4FE75FE7C301B2010E943C2B181665
:101330001CF46BEC71E00CC02FEF3FEF4FE75FE464
:10134000C701B6010E94942C18169CF46FEC71E052
:10135000CE01DF91CF91FF90EF90DF90CF90BF90C3
:10136000AF909F908F907F906F905F904F900C9474
:1013700050082FEF3FEF4FE75FECC701B6010E9427
:101380003C2B87FDE3CF20E030E0A901C701B60187
:101390000E943C2B87FF0AC06DE2CE010E94990893
:1013A0004C01F7FAF094F7F8F09402C0812C912CDC
:1013B000A12C60E070E080E09FE3AB1441F020E0FE
:1013C00030E040E251E40E94412BA394F6CF9B0110
:1013D000AC01C701B6010E94D02A2B013C010E943A
:1013E000B32B6B017C010E94E22B9B01AC01C3017A
:1013F000B2010E94CF2A2B013C012AE0B701A601CD
:10140000CE010E94B6087C01E80CF91CBB2031F02B
:101410006EE2CE010E949908E80EF91EDB2CDD2059
:1014200029F120E030E040E251E4C301B2010E9422
:10143000992C2B013C010E94B32B4B01A12CB12C08
:101440002AE0B501A401CE010E94B608E80EF91EFB
:10145000C501B4010E94E22B9B01AC01C301B201A2
:101460000E94CF2A2B013C01DA94D9CFC701DF912A
:10147000CF91FF90EF90DF90CF90BF90AF909F9073
:101480008F907F906F905F904F9008950C946409B7
:10149000615030F02091F100FC0120830196F8CFDB
:1014A000289884E68093D30308954091CE03509109
:1014B000CF032091CC033091CD0342175307B4F4EE
:1014C0009091E8009570E1F39091E80092FD19C0C9
:1014D0008093F1008091CE039091CF0301968F739A
:1014E0009927892B19F48EEF8093E8008091CE0321
:1014F0009091CF0301969093CF038093CE0381E028
:10150000089580E00895CF92DF92EF92FF920F93BB
:101510001F93CF93DF931F92CDB7DEB7182F062FFF
:10152000E42E862F880F8E5F99830E94550A83E0F0
:101530000E94550AF12EC12E9981D92E8C2D8F191A
:10154000801798F4F601E7FE02C0849101C0808103
:101550000E94550A182F80E00E94550A8123FFEF50
:10156000CF1ADF0A8111EACF01C081E00F90DF912D
:10157000CF911F910F91FF90EF90DF90CF90089542
:101580008091D70081608093D70080EA8093D80053
:1015900089B5806189BD89B5826089BD09B400FEC5
:1015A000FDCF61E070E080E090E00E940D0F80913F
:1015B000D8008F7C80618093D8008091E000807F8C
:1015C0008093E0000895CF93DF931F92CDB7DEB7ED
:1015D0001982CE0101960E94CD060E94B11FBE0164
:1015E0006F5F7F4F0E942C1F89810F90DF91CF91F9
:1015F00008952FB7FC012083F89467706093E90089
:101600000895CF93DF931F92CDB7DEB7682FCE0139
:1016100001960E94F90A8091F20099819FBF0F9074
:10162000DF91CF910895EF92FF920F931F93CF9385
:10163000DF931F92CDB7DEB79091D203992311F0BB
:1016400057FF03C08FEF9FEF2AC08A017B01682FED
:10165000CE0101960E94F90A8091F20090E0A80163
:10166000801791070CF4AC01842FF70194E68150A8
:1016700038F028989093D3032091F1002193F7CF6D
:101680004115510521F08091F200882321F08981D4
:101690008FBFCA0104C08BE68093E800F8CF0F909B
:1016A000DF91CF911F910F91FF90EF900895CF930D
:1016B000DF931F92CDB7DEB741E050E0BE016F5F10
:1016C0007F4F0E94130B019719F4898190E002C0AB
:1016D0008FEF9FEF0F90DF91CF910895CF93DF931E
:1016E0001F92CDB7DEB7682FCE0101960E94F90A8E
:1016F0009091E800892F807295FF04C09091F200CC
:101700008FE3891B99819FBF0F90DF91CF9108953F
:101710006F927F928F929F92AF92BF92CF92DF9201
:10172000EF92FF920F931F93CF93DF931F92CDB74A
:10173000DEB7A82E6B01B42E052F8091D203811144
:1017400003C08FEF9FEF6AC08091D00380FF05C078
:101750008091E00082608093E000EB2CF02E8AEF15
:10176000982E8A2D8072782E9AE3892E8A2D807485
:10177000682EE114F10409F447C08A2D0E946E0B13
:10178000182F81110AC09A949920D9F261E070E073
:1017900080E090E00E940D0FECCF90E0E816F90693
:1017A0000CF41E2D6A2DCE0101960E94F90A80913B
:1017B000E80085FF26C0812F90E0E81AF90A77201B
:1017C00029F01150A8F01092F100FBCFF601A7FE0E
:1017D00007C0115058F024912093F1003196F9CFB1
:1017E000115020F021912093F100FACFC80ED91E9C
:1017F0008091E80085FF0FC0E114F10411F461103D
:101800000AC089818FBFB5CF5D9884E68093D403E9
:101810008B2D902F03C08092E800F3CF0F90DF91C3
:10182000CF911F910F91FF90EF90DF90CF90BF90DD
:10183000AF909F908F907F906F9008951092E900E5
:101840001092CF031092CE039093CD038093CC03DC
:101850000895DF92EF92FF920F931F93CF93DF9340
:10186000D82E8A017B01E40EF51EEB01CE15DF05B3
:1018700071F0D7FE03C0FE01849101C088810E94EF
:10188000550A21968111F2CF8FEF9FEF01C0C80159
:10189000DF91CF911F910F91FF90EF90DF9008950E
:1018A000BF92CF92DF92EF92FF920F931F93CF934D
:1018B000DF936C018B01EB019BEFB92E2097C1F0F8
:1018C0007E01C134D1051CF080E4E82EF12C80911A
:1018D000E80082FFFCCFC8018C1B9D0B6E2D8C0D88
:1018E0009D1D0E94480AB092E800CE19DF09E6CF9C
:1018F000C801DF91CF911F910F91FF90EF90DF9082
:10190000CF90BF9008951F920F920FB60F9211249F
:10191000CF92DF92EF92FF920F931F932F933F93FB
:101920004F935F936F937F938F939F93AF93BF93E7
:10193000EF93FF93CF93DF93CDB7DEB76C97DEBF06
:10194000CDBF1092E9008091E80083FF24C168E0D8
:10195000CE0145960E94480A82EF8093E8008D8967
:1019600087FF05C09091E80090FFFCCF03C09EEF79
:101970009093E800982F907609F0F1C09E892F8906
:10198000188D91110CC0803829F48091D103809377
:10199000F10002C01092F1001092F100F5C0422F48
:1019A00050E0512B913051F48111EEC0413051057E
:1019B00009F0EAC08091D1038D7F0BC0933061F4B0
:1019C0008111E2C04130510509F0DEC08091D103A0
:1019D00082608093D103D8C0953041F48091E800B3
:1019E00080FFFCCF20682093E300CEC0963009F042
:1019F0008CC0EB8CFC8C123069F580E090E00E948A
:101A00001E0C0E94E30A99E09E012F5F3F4F69017F
:101A1000F901292F11922A95E9F799831A8391E008
:101A20009E8390EA98879AEF99872091CE03309110
:101A3000CF03275F3F4F3C832B838D83C7010E94D9
:101A40001E0C49E050E0B60180E00E94290C0E9483
:101A5000E30A9AC0C7010E941E0C0E94B11FBE017A
:101A60006B5E7F4F0E94551F009719F00CF08CC0E1
:101A70008FC0113071F48B8D9C8D089719F481E023
:101A80008093CB038091CB0381112FC062E171E081
:101A900031C0133009F07CC08F89882349F182302E
:101AA00029F440E86CE080E391E006C0813039F42D
:101AB00040E86BE084E291E00E94830A63C08330D7
:101AC00009F066C00E94B11F8E010F5F1F4FB80161
:101AD0000E94741FF80101900020E9F73197BF01BF
:101AE000601B710B40E0C801E7CF60E071E002C00D
:101AF0006DE371E06115710509F44AC0FB01449181
:101B000050E080E80E94290C3FC0973009F440C0A3
:101B1000983021F481E08093F10036C09930A1F52E
:101B20008370B1F5E3E1F1E081E021E036E39081FB
:101B3000992361F08093E9002093EB0091919093B9
:101B4000EC003093ED008F5F873089F78EE780934C
:101B5000EA001092EA008F898093D20315C08B8D22
:101B60009C8D0E941E0C898D811105C0CE01459669
:101B70000E94D80607C00E94B11FBE016B5E7F4F56
:101B80000E94931F882321F08EEF8093E80003C00A
:101B900081E28093EB006C960FB6F894DEBF0FBE27
:101BA000CDBFDF91CF91FF91EF91BF91AF919F9109
:101BB0008F917F916F915F914F913F912F911F91E5
:101BC0000F91FF90EF90DF90CF900F900FBE0F908E
:101BD0001F9018958093E9008091F200882319F0F6
:101BE0008AE38093E80008951F920F920FB60F9238
:101BF00011242F933F934F935F936F937F938F9312
:101C00009F93AF93BF93CF93EF93FF93C091E10066
:101C10008091E100837F8093E100C3FF0FC01092A9
:101C2000E90081E08093EB001092EC0082E3809366
:101C3000ED001092D20388E08093F000C2FF19C03B
:101C400083E00E94EA0D8091D403882339F08091CB
:101C5000D40381508093D403882389F18091D303E6
:101C6000882339F08091D30381508093D303882354
:101C700041F1C4FF10C08091E2008E7E81608093AC
:101C8000E2008091E1008F7E8093E1008091D0039B
:101C90008E7E806111C0C0FF16C08091E2008E7EF2
:101CA00080618093E2008091E1008E7E8093E1006C
:101CB0008091D0038E7E81608093D00304C05D9AB2
:101CC000CDCF289AD6CFFF91EF91CF91BF91AF9111
:101CD0009F918F917F916F915F914F913F912F9144
:101CE0000F900FBE0F901F9018951092D203109274
:101CF000D1031092D0030E94C00A8091E1008E7E31
:101D00008093E1008DE08093E200559A209AEEEFF7
:101D1000FFE7859194918B3F9C4D19F481E080936E
:101D2000C30308951F920F920FB60F9211242F93A1
:101D30003F938F939F93AF93BF938091D6039091DE
:101D4000D703A091D803B091D9033091D50323E0F4
:101D5000230F2D3720F40196A11DB11D05C026E8E3
:101D6000230F0296A11DB11D2093D5038093D603A6
:101D70009093D703A093D803B093D9038091DA034B
:101D80009091DB03A091DC03B091DD030196A11DCE
:101D9000B11D8093DA039093DB03A093DC03B0932F
:101DA000DD03BF91AF919F918F913F912F910F9044
:101DB0000FBE0F901F9018952FB7F8946091D6031F
:101DC0007091D7038091D8039091D9032FBF0895C4
:101DD0003FB7F8948091DA039091DB03A091DC0384
:101DE000B091DD0326B5A89B05C02F3F19F00196E1
:101DF000A11DB11D3FBFBA2FA92F982F8827820F91
:101E0000911DA11DB11DBC01CD0142E0660F771FE0
:101E1000881F991F4A95D1F708958F929F92AF928C
:101E2000BF92CF92DF92EF92FF926B017C010E94F2
:101E3000E80E4B015C01C114D104E104F10401F18D
:101E40000E94231F0E94E80EDC01CB01881999092A
:101E5000AA09BB09883E9340A105B10560F321E0C2
:101E6000C21AD108E108F10888EE880E83E0981EB6
:101E7000A11CB11CC114D104E104F10419F7DBCF9A
:101E8000FF90EF90DF90CF90BF90AF909F908F909A
:101E90000895789484B5826084BD84B5816084BDE2
:101EA00085B5826085BD85B5816085BDEEE6F0E0D3
:101EB000808181608083E1E8F0E01082808182602F
:101EC0008083808181608083E0E8F0E080818160B0
:101ED0008083E1E9F0E0808182608083808181609D
:101EE0008083E0E9F0E0808181608083E1ECF0E0D4
:101EF0008081846080838081826080838081816032
:101F00008083E3ECF0E0808181608083E0ECF0E0AE
:101F1000808182608083E2ECF0E080818160808358
:101F2000EAE7F0E080818460808380818260808342
:101F30008081816080838081806880830895823180
:101F400008F08251E82FF0E0EF5BFE4FE4918091C2
:101F50007B00E3FB222720F930E095E0220F331FBE
:101F60009A95E1F78F7D282B20937B00E770809175
:101F7000190120E4829FC0011124E82BE0937C002A
:101F800080917A00806480937A0080917A0086FD47
:101F9000FCCF809178002091790090E0922B0895F9
:101FA000CF93DF9390E0FC01E35BFE4F2491FC01B3
:101FB000E459FE4F8491882361F190E0880F991FC6
:101FC000FC01E756FE4FC591D491FC01E557FE4F49
:101FD000A591B491611109C09FB7F89488812095AB
:101FE00082238883EC912E230BC0623061F49FB76B
:101FF000F8943881822F809583238883EC912E2B4F
:102000002C939FBF06C08FB7F894E8812E2B2883AE
:102010008FBFDF91CF9108950895FC018081918158
:102020000C940A2ECF93DF93EC018881998100975D
:1020300011F00E940A2E198218821D821C821B82B6
:102040001A82DF91CF9108950F931F93CF93DF935F
:10205000EC018B016F5F7F4F888199810E94A22ED6
:10206000009731F0998388831B830A8381E001C044
:1020700080E0DF91CF911F910F910895CF93DF936F
:10208000EC0188819981892B29F08A819B818617AF
:10209000970760F4CE010E942410882341F08C81C0
:1020A0009D81892B19F4E881F981108281E0DF910B
:1020B000CF910895EF92FF920F931F93CF93DF93E9
:1020C000EC017B018A01BA010E943E10811104C01B
:1020D000CE010E94121007C01D830C83B7018881B6
:1020E00099810E94B430CE01DF91CF911F910F9161
:1020F000FF90EF900895FC011182108213821282EA
:10210000158214826115710551F0FB0101900020C8
:10211000E9F73197AF01461B570B0C945A100895FD
:10212000EF92FF920F931F93CF93DF93EC017B010C
:102130008A01BA010E943E10811104C0CE010E94A2
:10214000121007C01D830C83B701888199810E94FA
:102150008730CE01DF91CF911F910F91FF90EF90CB
:1021600008950F931F93CF93DF938C01EB01FC0134
:10217000808191810097D1F0688179816115710525
:1021800099F02CE030E1232B79F0428153812C81AE
:102190003D814217530740F00E94B4308C819D81ED
:1021A000F8019583848313C00E940A2E8881998147
:1021B000F801918380838A819B81938382838C81C0
:1021C0009D8195838483198218821B821A821D82C5
:1021D0001C82DF91CF911F910F910895CF93DF93D0
:1021E000EC01FB018617970761F060817181611531
:1021F000710529F0448155810E945A1002C00E9445
:102200001210CE01DF91CF910895FC01118210824E
:1022100013821282158214820C94EE10CF93DF93F6
:10222000EC018617970711F00E94B110CE01DF91E3
:10223000CF910895CF93DF93EC016115710559F0AB
:10224000FB0101900020E9F73197AF01461B570BC6
:102250000E945A1002C00E941210CE01DF91CF914D
:1022600008950F931F93CF93DF93CDB7DEB7629797
:102270000FB6F894DEBF0FBECDBF8C01CB01F801C5
:1022800011821082138212821582148250E0BE01E4
:102290006F5F7F4F0E94BB30BE016F5F7F4FC801F1
:1022A0000E941A1162960FB6F894DEBF0FBECDBF22
:1022B000DF91CF911F910F9108950F931F93CF93AB
:1022C000DF9300D0CDB7DEB78C016115710561F0E9
:1022D000CB0169837A830E948E30AC0169817A8157
:1022E000C8010E94901002C00E941210C8010F90F5
:1022F0000F90DF91CF911F910F910895FC011182F2
:10230000108213821282158214820C945D11EF9256
:10231000FF920F931F93CF93DF93FC0124813581AC
:102320006115710511F480E019C041155105A9F03E
:102330007B01EC018A01020F131FB8010E943E10BD
:10234000882389F3288139818C819D81B701820F8F
:10235000931F0E94B4301D830C8381E0DF91CF91E5
:102360001F910F91FF90EF900895FB0144815581DB
:10237000608171810C9487116115710551F0FB0129
:1023800001900020E9F73197AF01461B570B0C94E1
:10239000871180E00895CF93DF9300D0CDB7DEB7EB
:1023A00069831A8241E050E0BE016F5F7F4F0E9457
:1023B00087110F900F90DF91CF910895CF93DF9306
:1023C000EC01FB0144815581608171810E9487117C
:1023D000811103C0CE010E941210CE01DF91CF9176
:1023E0000895CF93DF93DC01ED91FC91EB01A8817F
:1023F000B981309711F01097C9F4109759F0EB019B
:102400002C813D81232B31F08C9190E09195819529
:10241000910914C0309781F0DC0114968D919C9144
:102420001597892B49F0808190E008C0BD01CF014C
:10243000DF91CF910C94AB3080E090E0DF91CF91B1
:102440000895FC0144815581FB01248135814217A7
:10245000530729F40E94F11121E0892B09F020E0B3
:10246000822F0895FC0124813581232B31F421E052
:1024700061157105A1F0FB0108C0FC01808191810B
:102480006115710531F421E0FC018081882339F068
:1024900005C00E94AB3021E0892B09F020E0822F9B
:1024A0000895FC01248135816217730748F4808107
:1024B0009181009729F0FC01E60FF71F80810895B4
:1024C00080E00895CF93DF93FC012481358142178A
:1024D000530778F4C081D181062E000C770BCE0112
:1024E000840F951F0E94A030009719F08C1B9D0B44
:1024F00002C08FEF9FEFDF91CF91089540E050E051
:102500000C946212BF92CF92DF92EF92FF920F93E0
:102510001F93CF93DF937C016B018A01E90124179C
:10252000350720F4812F8901C42FD82F66EC71E084
:10253000C7010E947B10D60114968D919C9115972E
:1025400008171907D0F48C179D0708F4EC01D60181
:10255000ED91FC911197EC0FFD1FB08010824D9111
:102560005C91BA01600F711FC7010E941A11D60158
:10257000ED91FC91EC0FFD1FB082C701DF91CF916F
:102580001F910F91FF90EF90DF90CF90BF90089533
:1025900006960E94CB1181E090E00895CF92DF92E1
:1025A000EF92FF920F931F93CF93DF938A01EB017A
:1025B0007B01E40EF51E06966C01CE15DF0529F0B1
:1025C0006991C6010E94CB11F8CFC801DF91CF916C
:1025D0001F910F91FF90EF90DF90CF9008959B0196
:1025E000BC016A5F7F4FC9010C9489089B01BC0143
:1025F0006E5F7F4FC9010C948908FC01138212821F
:1026000027ED31E03183208321EE31E035832483CF
:1026100066EC71E006960C947B10FC0153834283B8
:10262000648315820895CF93DF93EC018A819B81A7
:10263000009769F06F8161110E9499088C8188234D
:1026400031F08A819B81DF91CF910C94A008DF91BA
:10265000CF910895FC0187EE91E0918380831382EE
:102660001282148215821682178282E090E091878E
:1026700080878AE090E0938782870895FC016681D5
:10268000662351F0858191E0980F9583882321F08E
:10269000828193810C94990808950F931F93CF938F
:1026A000DF9300D0CDB7DEB78C01FC01828193812E
:1026B000892B71F0C80169837A830E943E13F80167
:1026C0004285538569817A81828193810E9449097B
:1026D000C8010F900F90DF91CF911F910F91089536
:1026E0000F931F93CF93DF9300D000D0CDB7DEB709
:1026F0008C01FC0182819381892B91F0C80149836F
:102700005A836B837C830E943E13F80120853185B8
:1027100049815A816B817C81828193810E94460A22
:10272000C8010F900F900F900F90DF91CF911F91E4
:102730000F910895CF92DF92EF92FF920F931F9324
:10274000CF938C016B0162E2FC01828193810E9434
:102750009908E12CF12CF60184819581E816F9069F
:1027600008F056C0B701C6010E945112C82F80322E
:1027700068F0873259F0823249F0B701C6010E94F1
:102780005112682FF801828193811DC06CE5F80118
:10279000828193810E949908F80182819381C232DB
:1027A000A9F040F4CA30B1F0CD30B1F0C930B1F485
:1027B00064E709C0C03331F0CC3551F0C73271F451
:1027C00067E201C060E30E9499081EC062E2FBCF8D
:1027D0006CE5F9CF6EE6F7CF62E7F5CF68E70E94C8
:1027E000990840E150E060E070E0F8018281938157
:1027F0000E944909CF706C2F70E040E150E0F80171
:10280000828193810E944909FFEFEF1AFF0AA3CF4B
:1028100062E2F80182819381CF911F910F91FF9025
:10282000EF90DF90CF900C9499080F931F93CF9364
:10283000DF93CDB7DEB728970FB6F894DEBF0FBE93
:10284000CDBF8C01FC0182819381892BF9F0C801F5
:102850006F8378870E943E13F80186816F817885A7
:10286000882379F0CE0101960E947B10BE016F5F34
:102870007F4FC8010E949A13CE0101960E940D104D
:1028800005C0F801828193810E949708C8012896AB
:102890000FB6F894DEBF0FBECDBFDF91CF911F9171
:1028A0000F9108950F931F93CF93DF9300D0CDB76F
:1028B000DEB78C01FC0182819381892BA1F0C801D4
:1028C00069837A830E943E13F801868169817A8147
:1028D000882321F0C8010E949A1305C0F801828163
:1028E00093810E948908C8010F900F90DF91CF91CA
:1028F0001F910F9108950895FC01738362830895D9
:10290000FC018FEE91E09183808313821282148206
:102910008AE0858308950F931F93CF93DF931F92CF
:10292000CDB7DEB7FC0122813381232BD9F08C0196
:10293000198241E050E0BE016F5F7F4FF801828154
:1029400093810E94DC20892B49F09981F8018481D0
:10295000981721F081E02581921301C080E08983DE
:102960008111E7CF0F90DF91CF911F910F910895C3
:102970000F931F93CF93DF93EC018B018A819B818F
:10298000009749F0DC01ED91FC910480F581E02D88
:102990000995892B21F4F801118210820DC041E0C4
:1029A00062E070E08A819B810E946320D8016D9370
:1029B0007C93CE010E948B14CE01DF91CF911F91A9
:1029C0000F9108958F929F92AF92BF92CF92DF9214
:1029D000EF92FF920F931F93CF93DF93CDB7DEB7A4
:1029E00060970FB6F894DEBF0FBECDBF8C016A01B1
:1029F0007B01CB01BA010E94E516982E892EC701F2
:102A0000B6010E94EB16B82EA92EC701B6010E948E
:102A1000F1168F929F92AF92BF929F938F9383EF05
:102A200091E09F938F93CE0101967C019F938F93AA
:102A30000E94EB30B701C8010E947B100FB6F894DA
:102A4000DEBF0FBECDBFC80160960FB6F894DEBFE3
:102A50000FBECDBFDF91CF911F910F91FF90EF90EF
:102A6000DF90CF90BF90AF909F908F9008958F92FE
:102A70009F92AF92BF92CF92DF92EF92FF920F930D
:102A80001F93CF93DF93CDB7DEB760970FB6F8945F
:102A9000DEBF0FBECDBF8C016A017B01CB01BA0145
:102AA0000E94DF16982E892EC701B6010E94D91602
:102AB000B82EA92EC701B6010E94D3168F929F92FD
:102AC000AF92BF929F938F9382E092E09F938F93F8
:102AD000CE0101967C019F938F930E94EB30B7014A
:102AE000C8010E947B100FB6F894DEBF0FBECDBFA9
:102AF000C80160960FB6F894DEBF0FBECDBFDF9160
:102B0000CF911F910F91FF90EF90DF90CF90BF90EA
:102B1000AF909F908F900895CF92DF92EF92FF92A7
:102B20000F931F93CF93DF9300D000D000D0CDB789
:102B3000DEB78C016A017B01FC0182819381892BC4
:102B400069F1C8010E943E13B701A601CE010196AA
:102B50000E94E214BE016F5F7F4FF8018281938172
:102B60000E948908CE0101960E940D1060E2F801D2
:102B7000828193810E949908B701A601CE01019636
:102B80000E943715BE016F5F7F4FF80182819381EC
:102B90000E948908CE0101960E940D10C801269658
:102BA0000FB6F894DEBF0FBECDBFDF91CF911F915E
:102BB0000F91FF90EF90DF90CF9008956F927F92EA
:102BC0008F929F92AF92BF92CF92DF92EF92FF923D
:102BD0000F931F93CF93DF93EA012CE3C22ED12CE6
:102BE000E12CF12CA70196010E941F2D6883CA01D8
:102BF000B901A70196010E941F2D6983CA01B9017D
:102C000028E130E040E050E00E941F2D69017A0188
:102C10006A83CA01B9016C5F7F4F8F4F9F4F27E0D6
:102C200030E040E050E00E941F2D6F5F6B83812CED
:102C3000912C540140E034E6632E712C00E911E040
:102C4000242F30E02E54384FF901E370FF273097DE
:102C500089F4C901B3010E940B2D892B31F4C901FC
:102C6000B8010E940B2D892B29F48EE691E0A0E09B
:102C7000B0E004C08DE691E0A0E0B0E0880E991EBF
:102C8000AA1EBB1ED501C401AA27BB27C816D90698
:102C9000EA06FB0610F04F5FD3CF4E83309799F4CE
:102CA000C90164E670E00E940B2D892B39F4C9013B
:102CB00060E971E00E940B2D892B29F48EE691E0EA
:102CC000A0E0B0E004C08DE691E0A0E0B0E0881A9A
:102CD000990AAA0ABB0AC818D908EA08FB08C90158
:102CE00064E670E00E940B2D8C01C90160E971E07F
:102CF0000E940B2DA1E1B2E020E0213041F4309799
:102D000051F40115110529F4009729F402C04C91E2
:102D100003C04DE101C04CE150E060E070E0C4163A
:102D2000D506E606F70640F0C41AD50AE60AF70A01
:102D30002F5F11962C3009F72F5F2D83C394CC821F
:102D4000DF91CF911F910F91FF90EF90DF90CF9087
:102D5000BF90AF909F908F907F906F900895CF928B
:102D6000DF92EF92FF92C0901E01D0901F01E09081
:102D70002001F09021016C157D058E059F0571F0F5
:102D80006B017C014EEE53E00E94DE15C0921E01E5
:102D9000D0921F01E0922001F0922101FF90EF906C
:102DA000DF90CF9008950E94AF168091F00390E0DD
:102DB00008950E94AF168091EF0390E008950E945D
:102DC000AF168091EE0390E008950E94AF168091B7
:102DD000F20390E008950E94AF168091F30390E013
:102DE00008950E94AF168091F40390E08E54984F9E
:102DF00008950F931F936093EA037093EB038093FE
:102E0000EC039093ED0300911A0110911B012091A6
:102E10001C0130911D01DC01CB01800F911FA21F0D
:102E2000B31F8093E2039093E303A093E403B09372
:102E3000E50382E090E09093E1038093E0030E9439
:102E4000DC0E6093E6037093E7038093E8039093AE
:102E5000E9031F910F910895CF92DF92EF92FF92B5
:102E60000F931F930E94DC0EC090E603D090E703FF
:102E7000E090E803F090E9038B019C010C191D0917
:102E80002E093F098091EA039091EB03A091EC0396
:102E9000B091ED03083E134021053105D0F00196B5
:102EA000A11DB11D8093EA039093EB03A093EC0363
:102EB000B093ED03B701A60148515C4F6F4F7F4FB0
:102EC0004093E6035093E7036093E8037093E903AC
:102ED000C9CF4091E2035091E3036091E403709104
:102EE000E50384179507A607B707C8F1E091DE034D
:102EF000F091DF03309799F109956115710581050E
:102F0000910519F00E94F9162AC040911A015091BA
:102F10001B0160911C0170911D018091EA03909149
:102F2000EB03A091EC03B091ED03840F951FA61F56
:102F3000B71F8093E2039093E303A093E403B0935D
:102F4000E50381E090E02091E0033091E103232B41
:102F500011F480E090E09093E1038093E0036091AE
:102F6000EA037091EB038091EC039091ED031F91C4
:102F70000F91FF90EF90DF90CF9008950E942C1753
:102F80008091E0039091E1030895EFEFF0E083E09A
:102F90008083608381E090E0089589EF93E00E9450
:102FA0002A13E5EFF3E01382128281E292E091832B
:102FB00080830895CF92DF92EF92FF920F931F9339
:102FC000CF93DF9300D000D000D0CDB7DEB76C0137
:102FD0007B018A0160E070E0CA010E9451128F32C9
:102FE00079F0B7016F5F7F4FCE0101960E94051106
:102FF000B801CE0101960E94DE11682F11E003C0D6
:10300000602F912F10E0792FC6010E940511112326
:1030100021F0CE0101960E940D10C60126960FB632
:10302000F894DEBF0FBECDBFDF91CF911F910F91FE
:10303000FF90EF90DF90CF9008950F931F93CF9361
:10304000DF93EC018C010F5F1F4F66EC71E0C8014C
:103050000E947B10CE0107960E948014CE010D962F
:103060000E942A13CE0149960E942A136DEA71E04C
:10307000C8010E945D118CE28B878B8BDF91CF9111
:103080001F910F91089526E040E950ED63E070E054
:103090008091D5049091D6040E94BE1E8CEC94E0E1
:1030A0000E94F1238EEE94E00C948028DF92EF9240
:1030B000FF920F931F93CF93DF9300D000D000D0E7
:1030C000CDB7DEB7D42EAB01BC01CE0101960E9474
:1030D000DA17E980FA808AE590E00E94241F8C01CB
:1030E0002CEC34E04D2DB7010E942127CE01019632
:1030F0000E940D10C8010E94BE2781110CC001154D
:10310000110561F0C8010E946F28C8010E94281FA4
:1031100000E010E003C023EB31E002C020E030E02B
:10312000B901C80126960FB6F894DEBF0FBECDBF19
:10313000DF91CF911F910F91FF90EF90DF90089555
:10314000CF93DF93FB0180819181835B9140A1F458
:10315000FB01C281D3811182108213821282CE01BF
:103160000E943C28209741F0CE010E946F28CE019A
:10317000DF91CF910C94281FDF91CF9108950F9389
:1031800000E020E040E060E08AE294E00E94C707AF
:1031900085E094E00F910C941D1886E094E00C9467
:1031A0000D10FB0120813181235B314021F4FB01B3
:1031B0004281538102C040E050E061E049960C94A6
:1031C0000D13CF93DF93EC010E94BD07198618867B
:1031D00088EE93E0A0E0B0E08A879B87AC87BD874C
:1031E00088EB92E09F838E838CEC94E09B8B8A8BA0
:1031F0001F8A188E198E66EC71E0CE01865A9F4F99
:103200000E947B10CE01805A9F4F0E948014CE01F5
:103210008A599F4F0E942A13CE018E589F4F0E94B9
:103220002A13FE01E459FF4F8CE280833897808394
:10323000CB59DF4F8AE28883DF91CF910895EF92D7
:10324000FF920F931F93CF93DF9300D000D000D055
:10325000CDB7DEB78C017B0126E040E950ED63E09D
:1032600070E08091D5049091D6040E94BE1E8CEC33
:1032700094E00E94F12387ED94E00E949D266FE187
:1032800072E087ED94E00E94A4080A5F1F4F68E196
:1032900072E0CE0101960E947E11BE016F5F7F4FEA
:1032A000C8010E941D2ACE0101960E940D1065E101
:1032B00072E0CE0101960E947E11BE016F5F7F4FCA
:1032C000C8010E945029CE0101960E940D1066E0AF
:1032D00072E0CE0101960E947E11BE016F5F7F4FAA
:1032E000C8010E945029CE0101960E940D104AE0AB
:1032F000B701CE0101960E943111BE016F5F7F4F71
:10330000C8010E945029CE0101960E940D10C801EB
:103310000E94652968EB7BE080E090E00E940D0F41
:10332000C8010E94C429882309F4B1CF67EF71E076
:1033300087ED94E00E94A40826960FB6F894DEBFAD
:103340000FBECDBFDF91CF911F910F91FF90EF90F6
:103350000895E0913004F0913104309741F4909356
:10336000310480933004FC01118610860895208575
:1033700031852115310511F0F901F9CF9187808749
:10338000089526E332E0FC01318320837383628356
:1033900015821482178216820C94A9190F931F9319
:1033A000CF93DF938C01C0913004D09131042097EA
:1033B00059F0E881F9810190F081E02DCE01099565
:1033C0000884D985C02DF3CF8091340490913504C1
:1033D000892B81F060E070E0C801865A9F4F0E94FF
:1033E0001A11E0913404F0913504DF91CF911F91CF
:1033F0000F910994DF91CF911F910F9108950F9331
:1034000000E020E040E060E084EB94E00E94C70729
:1034100086E394E00F910C94E11880E994E00E9417
:103420000D108CE394E00C94162AAF92BF92CF92C9
:10343000DF92EF92FF920F931F93CF93DF93CDB75D
:10344000DEB72C970FB6F894DEBF0FBECDBF7C0160
:103450005C0126E0A20EB11C4DE3B501CE0107963A
:103460000E9402216EE2CE0107960E947E12D701D1
:10347000A65ABF4F6D018F3FBFEF9B07A9F09C017C
:1034800040E050E0BE01695F7F4FCE0101960E948F
:103490008212BE016F5F7F4FC6010E940E11CE01E6
:1034A00001960E940D1006C0BE01695F7F4FC601E4
:1034B0000E94EE100091300410913104E0E6EE0E0F
:1034C000F11C0115110519F1D80112966D917C912D
:1034D0001397C6010E9432128823A9F0B501C701D3
:1034E0000E947C14D801ED91FC910280F381E02DC3
:1034F000B701C8010995D8011696ED91FC9117976F
:10350000309709F00995F80100851185DACFE0912F
:103510003204F0913304309709F0099560E070E0CF
:10352000C6010E941A11CE0107960E940D102C961A
:103530000FB6F894DEBF0FBECDBFDF91CF911F91C4
:103540000F91FF90EF90DF90CF90BF90AF900895D4
:103550008F929F92AF92BF92DF92EF92FF920F9362
:103560001F93CF93DF93CDB7DEB763970FB6F89471
:10357000DEBF0FBECDBF7C018C010A5F1F4F8AE00A
:10358000D82EC8010E941B29181619060CF09EC0DF
:103590004AE3B801CE010D960E94022166EC71E06B
:1035A000CE0107960E947B1068ED71E0CE01019676
:1035B0000E947E11BE016F5F7F4FCE010D960E946B
:1035C0002112B82ECE0101960E940D10BB2021F0D1
:1035D000C7010E94CE1968C062ED71E0CE0101966C
:1035E0000E947E11BE016F5F7F4FCE010D960E943B
:1035F0002112B82ECE0101960E940D10BB2021F0A1
:10360000C7010E94151A50C06AEC71E0CE01019604
:103610000E947E11BE016F5F7F4FCE010D960E940A
:103620002112B82ECE0101960E940D10BB2081F010
:103630004AE2B801CE0101960E94022169817A8195
:10364000C7010E94D307CE0101960E940D102CC025
:1036500065EC71E0CE0101960E947E11BE016F5FA4
:103660007F4FCE010D960E942112B82ECE010196F9
:103670000E940D10BB20C1F04AE2B801CE010196B4
:103680000E9402214AE050E060E070E089819A8166
:103690000E946C2F4B015C01CE0101960E940D101F
:1036A000C501B4010E94F916DB8A41E050E0BE0179
:1036B0006D5E7F4FC8010E94EC21CE0107960E94EB
:1036C0000D10CE010D960E940D105BCF63960FB6C4
:1036D000F894DEBF0FBECDBFDF91CF911F910F9148
:1036E000FF90EF90DF90BF90AF909F908F900895E4
:1036F000CF92DF92EF92FF92CF93DF93EC016A01BA
:103700007B010E94DC0EC60ED71EE81EF91E0E9429
:10371000DC0EA7019601261B370B480B590B57FDF2
:103720000AC0CE010E94A81A61E070E080E090E03B
:103730000E940D0FECCFDF91CF91FF90EF90DF90C3
:10374000CF900895CF93DF93EC010E94BE170297AC
:1037500041F048EE53E060E070E0CE010E94781B3B
:10376000F4CFDF91CF910895EF92FF920F931F93C3
:10377000CF93DF938C017A01EC012696CE010E9453
:1037800089086EE2CE010E949908B701CE010E941D
:10379000890865E272E0CE010E949708F801E359BA
:1037A000FF4F89E28083AE0161E0C8018A599F4FD3
:1037B000DF91CF911F910F91FF90EF900C940D131B
:1037C000EF92FF920F931F93CF93DF93CDB7DEB7A6
:1037D0002C970FB6F894DEBF0FBECDBF8C017B01D6
:1037E000BA01CE0107960E947E11B701CE01019663
:1037F0000E947B10AE01495F5F4FBE016F5F7F4F3C
:10380000C8010E94B41B8C01CE0101960E940D10CC
:10381000CE0107960E940D10C8012C960FB6F894A1
:10382000DEBF0FBECDBFDF91CF911F910F91FF90F3
:10383000EF900895EF92FF920F931F93CF93DF9332
:103840008C017A01EC012696CE010E9489086EE275
:10385000CE010E949908B701CE010E9489086BE74A
:1038600072E0CE010E949708F801E359FF4F1082E1
:10387000AE0161E0C8018A599F4FDF91CF911F913E
:103880000F91FF90EF900C940D13EF92FF920F9316
:103890001F93CF93DF93CDB7DEB72C970FB6F89475
:1038A000DEBF0FBECDBF8C017B01BA01CE010796F2
:1038B0000E947E11B701CE0101960E947B10AE01DD
:1038C000495F5F4FBE016F5F7F4FC8010E941A1CA6
:1038D0008C01CE0101960E940D10CE0107960E9428
:1038E0000D10C8012C960FB6F894DEBF0FBECDBFE9
:1038F000DF91CF911F910F91FF90EF900895CF939B
:10390000DF93EB01411103C045EE51E002C04AEEE6
:1039100051E067E272E00E94451CBE010E9415144E
:10392000DC01ED91FC910280F381E02DDF91CF91DC
:103930000994CF93DF93EB014FED51E067E272E022
:103940000E94451CBE010E941514DC01ED91FC9102
:103950000280F381E02DDF91CF910994CF92DF9225
:10396000EF92FF920F931F93CF93DF9300D000D07D
:10397000CDB7DEB78C016C0126E1C20ED11C60E030
:1039800070E0C6010E943212D80193967D01811128
:1039900023C042E0B60185E094E00E945618698396
:1039A0007A838B839C83BE016F5F7F4F85E094E0B9
:1039B0000E94D118B7010E945214DC01ED91FC91D4
:1039C0000280F381E02D0995BE016F5F7F4F85E096
:1039D00094E00E94A0180FC0F801848D81110BC0E3
:1039E0006281738141E086E394E00E947F1C81E064
:1039F000D8015C968C93F801628173814AE352E0AE
:103A000086E394E00E94E01BB7010E945214DC019F
:103A1000ED91FC910280F381E02D099560E070E06A
:103A2000C7010E941A110F900F900F900F90DF9115
:103A3000CF911F910F91FF90EF90DF90CF9008955D
:103A40000A970C94AE1CCF93DF93EC010E94C1192E
:103A5000CE010A960E942A138EE392E0998388830E
:103A600088E492E09B878A8766EC71E0CE014696F7
:103A70000E947B10CE014D960E94FD128CE2888B35
:103A80001C8EDF91CF9108952F923F924F925F92BB
:103A90006F927F928F929F92AF92BF92DF92EF923E
:103AA000FF920F931F93CF93DF93CDB7DEB72C9781
:103AB0000FB6F894DEBF0FBECDBF3C01D62E190164
:103AC0002A0164E572E0CE0107960E947E11D301BF
:103AD00012966D917C911397CE0101960E947B10F6
:103AE000AE01495F5F4FBE016F5F7F4F86E394E099
:103AF0000E941A1C6D2D70E00E944D13B201A101AD
:103B00000E947013B801A7010E947013DC01ED91AF
:103B1000FC910280F381E02D0995CE0101960E946F
:103B20000D10CE0107960E940D102C960FB6F8943A
:103B3000DEBF0FBECDBFDF91CF911F910F91FF90E0
:103B4000EF90DF90BF90AF909F908F907F906F909D
:103B50005F904F903F902F9008950F931F93CF93B6
:103B6000DF93EC018B018C8D882371F06A817B815E
:103B700086E394E00E94991C6A817B8140E086E3A1
:103B800094E00E947F1C1C8E6A817B814FE452E08E
:103B900086E394E00E94451CB8010E945214DC01A7
:103BA000ED91FC910280F381E02D0995B801CE01E1
:103BB0004696DF91CF911F910F910C94EE10DC018E
:103BC0001A96ED91FC911B97AC01435E5F4F0190FB
:103BD000F081E02D60E00A9609940F9300E020E068
:103BE00040E060E08AEB94E00E94C7070F910895DF
:103BF000FC01918D228D892F90E0805C9F4F821B6C
:103C000091098F7399270895FC01918D828D9817E2
:103C100031F0828DE80FF11D858D90E008958FEFD2
:103C20009FEF0895FC01918D828D981761F0828D30
:103C3000DF01A80FB11D5D968C91928D9F5F9F73E0
:103C4000928F90E008958FEF9FEF089588E99AE2B0
:103C5000892B49F080E090E0892B29F00E94982A76
:103C600081110C9400000895FC01848DDF01A80FE0
:103C7000B11DA35ABF4F2C91848D90E001968F7394
:103C80009927848FA689B7892C93A089B1898C91B3
:103C900080648C93938D848D981306C00288F38979
:103CA000E02D80818F7D80830895CF93DF93EC0199
:103CB000888D8823C9F0EA89FB89808185FD05C04C
:103CC000A889B9898C9186FD0FC00FB607FCF5CF86
:103CD000808185FFF2CFA889B9898C9185FFEDCFCE
:103CE000CE010E94341EE7CFDF91CF910895EF926D
:103CF000FF920F931F93CF93DF93EC0181E0888FA6
:103D00009B8D8C8D981305C0E889F989808185FD8C
:103D100024C0F62E0B8D10E00F5F1F4F0F7311277D
:103D2000E02E8C8DE8120CC00FB607FCFACFE889A4
:103D3000F989808185FFF5CFCE010E94341EF1CF35
:103D40008B8DFE01E80FF11DE35AFF4FF0820B8FC0
:103D5000EA89FB898081806207C0EE89FF896083E0
:103D6000E889F98980818064808381E090E0DF9137
:103D7000CF911F910F91FF90EF900895CF92DF9216
:103D8000EF92FF921F93CF93DF93EC016A017B01C7
:103D9000122FE889F98982E080834115514E61052F
:103DA0007105B1F060E079E08DE390E0A701960144
:103DB0000E941F2DDA01C9010197A109B109B69529
:103DC000A79597958795AC01411580E15807A8F014
:103DD000E889F989108260E874E88EE190E0A70133
:103DE00096010E941F2DBA01A90141505109610994
:103DF00071097695679557954795EC85FD855083B4
:103E0000EE85FF854083188EEC89FD891083EA8951
:103E1000FB89808180618083EA89FB898081886059
:103E20008083EA89FB89808180688083EA89FB89B5
:103E300080818F7D8083DF91CF911F91FF90EF90E4
:103E4000DF90CF90089508950C94752D0C94752DE6
:103E50000C940A2E0C940A2EEF92FF920F931F934C
:103E6000CF93DF937B01FC01C281D38100E010E09E
:103E7000209781F0E881F9810280F381E02DB7017C
:103E8000CE01099597FD08C0080F191F0884D98530
:103E9000C02DEECFC80102C08FEF9FEFDF91CF9111
:103EA0001F910F91FF90EF9008950F931F93CF9361
:103EB000DF938B01FC01C281D381209771F0E881EF
:103EC000F9810480F581E02DB801CE0109950097B4
:103ED00031F40884D985C02DF0CF80E090E0DF91E7
:103EE000CF911F910F9108950F931F93CF93DF935D
:103EF0008B01FC01C281D381209771F0E881F981A7
:103F00000680F781E02DB801CE010995080F111D3B
:103F10000884D985C02DF0CFF8011082DF91CF91B0
:103F20001F910F9108950F931F93CF93DF938B01F0
:103F3000FC01C281D381209771F0E881F981019061
:103F4000F081E02DB801CE010995811105C00884EA
:103F5000D985C02DF0CF80E0DF91CF911F910F91D7
:103F600008958091C40481110DC082E08093C00443
:103F700084E08093C1041092C3041092C20481E0D3
:103F80008093C40480EC94E008950F931F93CF9323
:103F9000DF93EC010E94DC0E688779878A879B8714
:103FA000E881F9810680F781E02DCE01099597FF20
:103FB00017C00E94DC0E088519852A853B85DC0127
:103FC000CB01801B910BA20BB30B0C811D812E81A9
:103FD0003F8180179107A207B30710F38FEF9FEF80
:103FE000DF91CF911F910F9108950F931F93CF935E
:103FF000DF93EC010E94DC0E688779878A879B87B4
:10400000E881F9810084F185E02DCE01099597FFC3
:1040100017C00E94DC0E088519852A853B85DC01C6
:10402000CB01801B910BA20BB30B0C811D812E8148
:104030003F8180179107A207B30710F38FEF9FEF1F
:10404000DF91CF911F910F910895FF920F931F93CE
:10405000CF93DF93EC018B01F42ECE010E94F51F6C
:104060009C0197FD0BC08D32910541F0C0970A97D6
:1040700028F0FF2029F02E32310511F4C9011DC0AE
:1040800001301105C1F00230110569F42D30310500
:1040900051F034F4295031092230310520F00BC0A1
:1040A0002032310541F4E881F9810680F781E02D65
:1040B000CE010995D2CF8FEF9FEFDF91CF911F9166
:1040C0000F91FF9008958F929F92AF92BF92CF92DF
:1040D000DF92FF920F931F93CF93DF9300D000D016
:1040E000CDB7DEB78C01B42E40E00E942520FC0144
:1040F00097FD4CC020E030E0A901F12CCB2CBB0C8B
:10410000DD08EC15FD05F1F0ED32F105C9F0CF0148
:10411000C0970A97B8F4AAE0B0E00E94562D4F016C
:10412000FF0FAA08BB08DC01CB01880D991DAA1D51
:10413000BB1D9C01AD01205331094109510902C049
:10414000FF24F394D801ED91FC910680F781E02DD6
:10415000C80129833A834B835C830995C8010E9477
:10416000F51FFC01C09729813A814B815C810A9738
:1041700040F2EC15FD0529F2FF2061F06627772754
:10418000CB01621B730B840B950B06C060E070E0E3
:10419000CB0102C0CA01B9010F900F900F900F9090
:1041A000DF91CF911F910F91FF90DF90CF90BF9043
:1041B000AF909F908F900895CF92DF92EF92FF92F1
:1041C0000F931F93CF93DF936C017A018B01C0E0B3
:1041D000D0E0CE15DF0561F0C6010E94C51F97FF34
:1041E00002C07E0105C0F80181938F012196F1CFB5
:1041F000C701DF91CF911F910F91FF90EF90DF905A
:10420000CF900895EF92FF920F931F93CF93DF9378
:10421000EC017B01042F66EC71E00E947B10C7016A
:104220000E94C51F002E000C110B97FD0BC08017BC
:10423000910741F0682FCE010E94CB11C7010E9467
:10424000C51FF3CFCE01DF91CF911F910F91FF904A
:10425000EF9008954F925F926F927F928F929F920C
:10426000AF92BF92CF92DF92EF92FF920F931F9384
:10427000CF93DF938C01EB0186E0849F4001859F03
:10428000900C1124860E971EFB01E815F90508F520
:1042900082819381892B21F13696F7CF60817181DC
:1042A00044815581DB01A40FB51F2C91022E000C17
:1042B000330B8217930711F54F5F5F4F558344838C
:1042C000228133814217530759F03696E815F905D4
:1042D00028F3C8010E94C51F97FD46C0FE01F6CF16
:1042E000EC1BFD0BF595E7952BEA3AEAE29FC0013E
:1042F000E39F900DF29F900D112438C04115510598
:1043000021F3C480D580960121503109358324835F
:10431000DB01A20FB31FAC910A2E000CBB0B8A1756
:104320009B07F9F421153105C9F05B017A01E21A06
:10433000F30AE60EF71E412C512CD5016D905D015C
:10434000D7017D907D01671006C0BFEF4B1A5B0A55
:104350004216530690F34216530699F6D582C4824C
:10436000B4CF232B71F6B1CF8FEF9FEFDF91CF91B9
:104370001F910F91FF90EF90DF90CF90BF90AF9083
:104380009F908F907F906F905F904F900895CF9304
:10439000DF9300D000D000D0CDB7DEB7FE0131965C
:1043A00026E0DF011D922A95E9F77A8369835C8311
:1043B0004B8341E050E0BF010E942A2121E0892B7C
:1043C00009F020E0822F26960FB6F894DEBF0FBECC
:1043D000CDBFDF91CF9108950C94C721FC012381BB
:1043E00034812627022E2295207F2025032E322F6E
:1043F00022952F700226269532272327220F220F7F
:10440000220F2025348323830895CF93DF93EC017B
:104410008D819E81DC01ED91FC916C810190F08198
:10442000E02D09958D819E81DC01ED91FC9101903B
:10443000F081E02D6B81DF91CF9109948F929F9253
:10444000AF92BF92CF92DF92EF92FF92CF93DF9322
:10445000EC016B010E94DC0E4B015C01E12CF12CA4
:104460008D819E81DC01ED91FC910680F781E02D2C
:10447000099597FF0FC00E94DC0EDC01CB01881963
:104480009909AA09BB098C159D05AE05BF0540F326
:104490008FEF9FEFDF91CF91FF90EF90DF90CF9064
:1044A000BF90AF909F908F900895CF93DF93EC01D2
:1044B0008D819E81DC01ED91FC910480F581E02DE0
:1044C00009951816190654F48D819E81DC01ED9131
:1044D000FC910680F781E02D0995EACFDF91CF911D
:1044E00008952F923F924F925F926F927F928F9298
:1044F0009F92AF92BF92CF92DF92EF92FF920F9373
:104500001F93CF93DF93CDB7DEB72D970FB6F894F7
:10451000DEBF0FBECDBF3C012B013C832B83BF828E
:10452000AE82C8018C0D9D1D1C01240E351E3D82DE
:10453000A32CB12CCB01840F951F99878887D901B3
:10454000A00FB11FBB87AA87F701EC0DFD1DFD87EA
:10455000EC87F3018085B81608F028C1EFEFFFEF74
:10456000D3011496FC93EE93139715968D919C911D
:104570001697DC01ED91FC910190F081E02D6FEF39
:1045800009956FEFC3010E94EE21F30185819681A9
:10459000DC01ED91FC910190F081E02DD3016C9153
:1045A0000995F3016081C3010E94EE21D3011596A4
:1045B0008D919C911697DC01ED91FC910190F08119
:1045C000E02D6D8109956A2DC3010E94EE21F30152
:1045D00085819681DC01ED91FC910190F081E02DC7
:1045E000622D0995622DC3010E94EE21620188852A
:1045F0009985C816D906A1F0F301858196818601B7
:10460000DC01ED91FC910190F081E02DD6016D91DE
:104610006D010995F8016081C3010E94EE21E7CF89
:10462000CB80DC808A859B85C816D906B1F0D30182
:1046300015968D919C9116978601DC01ED91FC9168
:104640000190F081E02DD6016D916D010995F80181
:104650006081C3010E94EE21E5CF67018C859D85B5
:10466000C816D906B1F0D30115968D919C91169775
:104670008601DC01ED91FC910190F081E02DD601E5
:104680006D916D010995F8016081C3010E94EE21D1
:10469000E5CFC3010E94052264E670E0C3010E94D9
:1046A0001E228F3F910509F076C0EFEFFFEFD30197
:1046B0001496FC93EE9313976FEFC3010E94EE21C3
:1046C00065E070E0C3010E941E22D3016C91262F89
:1046D00030E08217930709F05EC0C3010E94EE210B
:1046E0006AE070E0C3010E941E226C0197FD53C076
:1046F000682FC3010E94EE216AE070E0C3010E94AE
:104700001E228C0197FD47C0682FC3010E94EE2135
:10471000CA821982E981FA810E0F1F1FC12CD12C88
:1047200065E070E0C301C016D106A1F0C814D90439
:1047300089F00E941E2297FD09C0EE81FF81EC0DD9
:10474000FD1D8083682FC3010E94EE21FFEFCF1A69
:10475000DF0AE6CF0E941E226C0197FD1CC065E0B7
:1047600070E0C3010E941E2297FD15C0DC2CCC24F2
:104770008C0D9D1DD30113962D913C9114972817F4
:10478000390749F48C918F5F8C93C801801691068C
:1047900078F4C4010DC0B39464E670E080E090E06A
:1047A0000E940D0FC3010E945522D3CE8FEF9FEFC1
:1047B0002D960FB6F894DEBF0FBECDBFDF91CF911F
:1047C0001F910F91FF90EF90DF90CF90BF90AF902F
:1047D0009F908F907F906F905F904F903F902F9021
:1047E00008953F924F925F926F927F928F929F9225
:1047F000AF92BF92CF92DF92EF92FF920F931F93EF
:10480000CF93DF93CDB7DEB72E970FB6F894DEBF08
:104810000FBECDBFDC0117962C9117972111D2C086
:104820003C0181E0FD018783C3010E94552268EEAF
:1048300073E080E090E00E940D0FD30115968D91FA
:104840009C911697DC01ED91FC910480F581E02D9F
:1048500009951816190644F395E0592E44244394FB
:1048600022E3322EE2E2F1E0DE011696852D019080
:104870000D928A95E1F7F3014086812C912CA12CB1
:10488000B12CC12CD12CE12CF12C00E010E020E067
:1048900030E045E050E0BE016A5F7F4FC3010E94F7
:1048A000712263E0D30115968D919C9116970E9419
:1048B00099086AEF70E080E090E00E940D0F67E7D2
:1048C00072E0F301858196810E9465086AEF70E0CD
:1048D00080E090E00E940D0F65E772E0D30115962D
:1048E0008D919C9116970E94650864EF71E080E0BD
:1048F00090E00E940D0F69E672E0F30185819681D8
:104900000E94650864EF71E080E090E00E940D0F66
:10491000C3010E945522E7E2F1E0DE011196852DE8
:1049200001900D928A95E1F7D30118963C9284E0AC
:10493000882E912CFE013B965F0120E030E045E09F
:1049400050E0BE016F5F7F4FC3010E9471228F3F15
:10495000FFEF9F0739F468EE73E080E090E00E947B
:104960000D0F80CF2B852111FFCF049711F52C85DA
:1049700030E02053310984E6829FA001839F500DCF
:1049800011242D8530E0205331096AE0629FC00177
:10499000639F900D1124840F951F2E8530E02053C6
:1049A0003109820F931FD30112969C938E93119716
:1049B00005C084E690E0F3019283818382E3D30112
:1049C00018968C932E960FB6F894DEBF0FBECDBF0F
:1049D000DF91CF911F910F91FF90EF90DF90CF90DB
:1049E000BF90AF909F908F907F906F905F904F900F
:1049F0003F900895ECECF4E0108280EF94E0968311
:104A00008583178210869287818708954F925F92DF
:104A10006F927F928F929F92AF92BF92CF92DF92CE
:104A2000EF92FF920F931F93CF93DF931F92CDB717
:104A3000DEB73C019B012A01DC0152968C91811169
:104A400005C08B017B01E40EF51E35C080E589832E
:104A5000812C912CA12CB12CC12CD12CE12CF12C2E
:104A60008A0141E050E0BE016F5F7F4FF301848512
:104A700095850E94712222C0D3015596ED91FC913B
:104A8000569753968C91539791E0980F53969C9319
:104A9000D8019D918D01E80FF11D9083F301938959
:104AA0008489981308C00190F081E02D0284F38579
:104AB000E02DC30109950E151F05F1F6C2010F90F7
:104AC000DF91CF911F910F91FF90EF90DF90CF90EA
:104AD000BF90AF909F908F907F906F905F904F901E
:104AE00008958F929F92AF92BF92CF92DF92EF92F2
:104AF000FF920F931F9348015901C12CD12CE12C37
:104B0000F12C00E010E020E030E00E9471221F91C3
:104B10000F91FF90EF90DF90CF90BF90AF909F905C
:104B20008F9008950F931F93CF93DF93FC012289F9
:104B300021110FC0EC01438950E06589768900E0BE
:104B400010E020E030E0848595850E94712581E0A9
:104B50008B8BDF91CF911F910F9108950F931F932E
:104B6000CF93DF9300D0CDB7DEB7DC0152968C91A6
:104B70005297882399F080E589836A8300E010E0EA
:104B800020E030E042E050E0BE016F5F7F4F1C96B6
:104B90008D919C911D970E9471251FC05596ED9196
:104BA000FC91569753968C91539791E0980F53969A
:104BB0009C935397E80FF11D608353969C915397F4
:104BC00054968C915497981308C0ED91FC911197CD
:104BD0000284F385E02DCD01099581E090E00F90EE
:104BE0000F90DF91CF911F910F910895FC011382D7
:104BF000128288EE93E0A0E0B0E084839583A683E0
:104C0000B78380E692E0918380838CEC94E0958773
:104C1000848716861786118A108A81E0828B089510
:104C2000CF93DF93FC012289211109C0EC01858912
:104C30009689009711F00E942A1F81E08A8BDF91EC
:104C4000CF910895EF92FF920F931F93CF93DF932D
:104C500000D0CDB7DEB7FC012685211115C07C013F
:104C6000178680E7898380E28A832089318900E280
:104C700010E042E050E0BE016F5F7F4F8485958574
:104C80000E947125F70186870F900F90DF91CF91D9
:104C90001F910F91FF90EF900895CF93DF93EC0158
:104CA0000E9422268E8590E0DF91CF910895CF93C8
:104CB000DF93EC010E9422268E85882369F08150C3
:104CC0008E87E889F9898F8591E0980F9F87E80F93
:104CD000F11D808190E002C08FEF9FEFDF91CF91B7
:104CE0000895CF93DF93EC010E9422268E858823BE
:104CF00041F08F85E889F989E80FF11D808190E006
:104D000002C08FEF9FEFDF91CF910895CF93DF9394
:104D1000EC010E94102688899989009721F00E9451
:104D20002A1F198A188ADF91CF91089520E632E070
:104D3000FC01318320830C948626CF93DF93EC0112
:104D40008C859D850E94F123CE010E94862680E2FB
:104D500090E00E94261F998B888BDF91CF91089558
:104D600087ED94E00C94F62587ED94E00C9496265C
:104D7000CF93DF931F92CDB7DEB76983DC01ED914E
:104D8000FC910280F381E02D41E050E0BE016F5FB5
:104D90007F4F09950F90DF91CF91089508956F92FD
:104DA0007F928F929F92AF92BF92CF92DF92EF92BB
:104DB000FF920F931F93CF93DF9300D01F92CDB735
:104DC000DEB7FC01E85AFF4F20812F3F31F13A0155
:104DD0009B0147E64983319640814A83399788246D
:104DE0008394912CCE0103965C01C12CD12CE12C33
:104DF000F12C830142E050E0BE016F5F7F4F808164
:104E000091810E9471228B81882329F090E09195F5
:104E10008195910904C0C30102C08FEF9FEF0F90ED
:104E20000F900F90DF91CF911F910F91FF90EF9016
:104E3000DF90CF90BF90AF909F908F907F906F90BA
:104E400008952F923F924F925F926F927F928F922E
:104E50009F92AF92BF92CF92DF92EF92FF920F9309
:104E60001F93CF93DF93CDB7DEB728970FB6F89493
:104E7000DEBF0FBECDBF3C018B01FC01138212824D
:104E800088EE93E0A0E0B0E084839583A683B783A7
:104E90008AE992E0918380831301F0E52F0E311CA3
:104EA000F101318320837301F2E5EF0EF11C66EC12
:104EB00071E0C70148870E947B10230188E5480EF6
:104EC000511C4885F2014083B801C7010E941A11A4
:104ED00082E7898387E78A8381E68B8386E48E83F2
:104EE000F2018081FE01E80FF11D81818F8381E055
:104EF00090E0F30197878687EA5AFF4F008111817E
:104F0000F7012081318182E0882E912CCE01049618
:104F10005C01C12CD12CE12CF12C42E050E0BE010F
:104F20006A5F7F4FF101808191810E9471228C81A3
:104F3000882321F08FEFF201808307C0F301E75A45
:104F4000FF4F8D818083F301148628960FB6F89465
:104F5000DEBF0FBECDBFDF91CF911F910F91FF90AC
:104F6000EF90DF90CF90BF90AF909F908F907F9009
:104F70006F905F904F903F902F900895FC01E85AFA
:104F8000FF4F81E090819F3F09F480E00895EF9208
:104F9000FF920F931F93CF93DF9300D01F92CDB753
:104FA000DEB7FC012485211128C07C01158687E429
:104FB00089838FE38B83E75AFF4F80818A83970130
:104FC000205F3F4F399700E410E043E050E0BE011E
:104FD0006F5F7F4F808191810E9471259C012150DC
:104FE00031092E3F3F4F18F0F701148606C0F70134
:104FF00095859F5F9587815084870F900F900F90C4
:10500000DF91CF911F910F91FF90EF900895CF9373
:10501000DF93EC010E94C7278C85882359F08150CB
:105020008C878D8591E0980F9D87C80FD11D888949
:1050300090E002C08FEF9FEFDF91CF910895CF9363
:10504000DF93EC010E94C7278C85882331F08D8582
:10505000C80FD11D888990E002C08FEF9FEFDF91CC
:10506000CF910895CF93DF93EC010E94C7278C85E1
:1050700090E0DF91CF910895EF92FF920F931F93ED
:10508000CF93DF9300D01F92CDB7DEB77C0128E528
:10509000E20EF11CF70120812F3FB9F026E62983AB
:1050A000319620812A83399701E010E09E012D5F1F
:1050B0003F4F42E050E0BE016F5F7F4F80819181A2
:1050C0000E9471258FEFF70180830F900F900F9052
:1050D000DF91CF911F910F91FF90EF900895CF93A3
:1050E000DF93EC018AE992E099838883CE010E94E4
:1050F0003C28CE018E5A9F4FDF91CF910C940D101A
:1051000081E008958CEC94E09093EF048093EE049A
:10511000089508956F927F928F929F92AF92BF925F
:10512000CF92DF92EF92FF920F931F93CF93DF9373
:1051300000D0CDB7DEB79B013A0149E44983FC01B9
:1051400046854A83812C912CA12CB12CC12CD12CC9
:10515000E12CF12C830142E050E0BE016F5F7F4FF4
:10516000848595850E947122C3010F900F90DF9175
:10517000CF911F910F91FF90EF90DF90CF90BF9054
:10518000AF909F908F907F906F9008950F931F9393
:10519000CF93DF9300D01F92CDB7DEB729E42983E8
:1051A000FC0126852A836B8300E010E020E030E0DC
:1051B00043E050E0BE016F5F7F4F848595850E947C
:1051C000712581E090E00F900F900F90DF91CF91CB
:1051D0001F910F910895EF92FF920F931F93CF931A
:1051E000DF9300D01F92CDB7DEB7FC0122892111D9
:1051F00018C07C01138A8FE4898380E48B838685C1
:105200008A839F012C5E3F4F00E410E043E050E0B2
:10521000BE016F5F7F4F848595850E947125F701E0
:10522000828B0F900F900F90DF91CF911F910F9174
:10523000FF90EF900895CF93DF93EC010E94EB284D
:105240008A8990E0DF91CF910895CF93DF93EC01AD
:105250000E94EB288A89882359F081508A8B8B8998
:1052600091E0980F9B8BC80FD11D8C8990E002C0F4
:105270008FEF9FEFDF91CF910895CF93DF93EC01F4
:105280000E94EB288A89882331F08B89C80FD11DB1
:105290008C8990E002C08FEF9FEFDF91CF9108954E
:1052A0000F931F93CF93DF93EC018B0166EA72E0BB
:1052B0008F8598890E94BC11B8018F859889DF91EC
:1052C000CF911F910F910C94B5116F927F928F9295
:1052D0009F92AF92BF92CF92DF92EF92FF920F9385
:1052E0001F93CF93DF9300D01F92CDB7DEB73C0161
:1052F00082E58B83D3011F96ED91FC915097048139
:1053000015812081318182E0882E912CFE01319619
:105310005F01C12CD12CE12CF12C41E050E0BE0109
:105320006D5F7F4F1C968D919C911D970E947122FD
:105330008A81D3011E968C931E971F960D911C9106
:1053400050970115110531F0C8010E940D10C801D8
:105350000E94281FF301108A17868981811102C0DB
:1053600081E0818B0F900F900F90DF91CF911F9173
:105370000F91FF90EF90DF90CF90BF90AF909F90F4
:105380008F907F906F9008950F931F93CF93DF932B
:1053900000D01F92CDB7DEB722E72983FC01268516
:1053A0002A8301E010E09E012D5F3F4F42E050E074
:1053B000BE016F5F7F4F848595850E94712581E0D6
:1053C0009B81913009F080E00F900F900F90DF915A
:1053D000CF911F910F910895EF92FF920F931F931A
:1053E000CF93DF9300D0CDB7DEB77C01FC0181897C
:1053F000882389F087E7898386858A8300E010E027
:1054000020E030E042E050E0BE016F5F7F4F8485D6
:1054100095850E947125F701118A0F900F90DF91F9
:10542000CF911F910F91FF90EF90089528EB32E0FC
:10543000FC01318320830C94EC29EF92FF920F93AF
:105440001F93CF93DF9300D0CDB7DEB77C01698384
:105450007A830E94EC2986E090E00E94241F8C0150
:1054600069817A810E940511F701108B07870F90DF
:105470000F90DF91CF911F910F91FF90EF900895C2
:105480001F920F920FB60F9211242F938F939F9319
:10549000EF93FF93E0910005F09101058081E09189
:1054A0000605F091070582FD12C0908180910905E3
:1054B0008F5F8F7320910A05821751F0E0910905E3
:1054C000F0E0E051FB4F958F8093090501C080818A
:1054D000FF91EF919F918F912F910F900FBE0F90A1
:1054E0001F9018951F920F920FB60F9211242F93B1
:1054F0003F934F935F936F937F938F939F93AF935C
:10550000BF93EF93FF9380EF94E00E94341EFF91CE
:10551000EF91BF91AF919F918F917F916F915F912B
:105520004F913F912F910F900FBE0F901F901895A4
:1055300080EF94E00E94F81D21E0892B09F420E01F
:10554000822F0895E0EFF4E01382128288EE93E058
:10555000A0E0B0E084839583A683B78380E592E0E2
:10556000918380838DEC90E0958784878CEC90E02C
:105570009787868788EC90E0918B808B89EC90E010
:10558000938B828B8AEC90E0958B848B8EEC90E0F1
:10559000978B868B118E128E138E148E0895505811
:1055A000BB27AA270E94E72A0C945A2C0E944C2C55
:1055B00038F00E94532C20F039F49F3F19F426F460
:1055C0000C94492C0EF4E095E7FB0C94432CE92F46
:1055D0000E946B2C58F3BA1762077307840795076C
:1055E00020F079F4A6F50C948D2C0EF4E0950B2E9A
:1055F000BA2FA02D0B01B90190010C01CA01A00125
:105600001124FF27591B99F0593F50F4503E68F17F
:105610001A16F040A22F232F342F4427585FF3CFC0
:10562000469537952795A795F0405395C9F77EF491
:105630001F16BA0B620B730B840BBAF09150A1F0DA
:10564000FF0FBB1F661F771F881FC2F70EC0BA0F60
:10565000621F731F841F48F4879577956795B795E8
:10566000F7959E3F08F0B0CF9395880F08F09927E3
:10567000EE0F9795879508950E941F2C08F481E0FE
:1056800008950E94552B0C945A2C0E94532C58F0CC
:105690000E944C2C40F029F45F3F29F00C94432CDD
:1056A00051110C948E2C0C94492C0E946B2C68F395
:1056B0009923B1F3552391F3951B550BBB27AA27CB
:1056C00062177307840738F09F5F5F4F220F331F05
:1056D000441FAA1FA9F335D00E2E3AF0E0E832D0CD
:1056E00091505040E695001CCAF72BD0FE2F29D0D0
:1056F000660F771F881FBB1F261737074807AB07A2
:10570000B0E809F0BB0B802DBF01FF2793585F4F16
:105710003AF09E3F510578F00C94432C0C948E2C5B
:105720005F3FE4F3983ED4F3869577956795B795F8
:10573000F7959F5FC9F7880F911D9695879597F903
:105740000895E1E0660F771F881FBB1F621773077C
:105750008407BA0720F0621B730B840BBA0BEE1F91
:1057600088F7E09508950E94732C88F09F5798F071
:10577000B92F9927B751B0F0E1F0660F771F881F56
:10578000991F1AF0BA95C9F714C0B13091F00E9470
:105790008D2CB1E008950C948D2C672F782F8827DD
:1057A000B85F39F0B93FCCF3869577956795B39597
:1057B000D9F73EF490958095709561957F4F8F4F06
:1057C0009F4F0895E89409C097FB3EF4909580950B
:1057D000709561957F4F8F4F9F4F9923A9F0F92FB7
:1057E00096E9BB279395F695879577956795B79535
:1057F000F111F8CFFAF4BB0F11F460FF1BC06F5F1B
:105800007F4F8F4F9F4F16C0882311F096E911C02C
:10581000772321F09EE8872F762F05C0662371F04D
:1058200096E8862F70E060E02AF09A95660F771F61
:10583000881FDAF7880F9695879597F90895990F3D
:105840000008550FAA0BE0E8FEEF16161706E8074A
:10585000F907C0F012161306E407F50798F0621B6B
:10586000730B840B950B39F40A2661F0232B242B40
:10587000252B21F408950A2609F4A140A6958FEF5F
:10588000811D811D089597F99F6780E870E060E0B1
:1058900008959FEF80EC089500240A9416161706C9
:1058A00018060906089500240A9412161306140611
:1058B00005060895092E0394000C11F4882352F074
:1058C000BB0F40F4BF2B11F460FF04C06F5F7F4F2C
:1058D0008F4F9F4F089557FD9058440F551F59F013
:1058E0005F3F71F04795880F97FB991F61F09F3FCD
:1058F00079F087950895121613061406551FF2CFF6
:105900004695F1DF08C0161617061806991FF1CF45
:1059100086957105610508940895E894BB2766276C
:105920007727CB0197F908950E941F2C08F48FEF79
:1059300008950E94AC2C0C945A2C0E944C2C38F0E8
:105940000E94532C20F0952311F00C94432C0C94BE
:10595000492C11240C948E2C0E946B2C70F3959F73
:10596000C1F3950F50E0551F629FF001729FBB2756
:10597000F00DB11D639FAA27F00DB11DAA1F649FF2
:105980006627B00DA11D661F829F2227B00DA11DA5
:10599000621F739FB00DA11D621F839FA00D611D2B
:1059A000221F749F3327A00D611D231F849F600D4C
:1059B000211D822F762F6A2F11249F5750409AF075
:1059C000F1F088234AF0EE0FFF1FBB1F661F771F01
:1059D000881F91505040A9F79E3F510580F00C94CC
:1059E000432C0C948E2C5F3FE4F3983ED4F38695C1
:1059F00077956795B795F795E7959F5FC1F7FE2B6C
:105A0000880F911D9695879597F908950E941F2CF0
:105A1000880B990B089597FB072E16F4009407D076
:105A200077FD09D00E94612D07FC05D03EF49095CA
:105A300081959F4F0895709561957F4F0895A1E2DC
:105A40001A2EAA1BBB1BFD010DC0AA1FBB1FEE1FF8
:105A5000FF1FA217B307E407F50720F0A21BB30B43
:105A6000E40BF50B661F771F881F991F1A9469F7BF
:105A700060957095809590959B01AC01BD01CF011B
:105A80000895EE0FFF1F0590F491E02D0994A29F59
:105A9000B001B39FC001A39F700D811D1124911D02
:105AA000B29F700D811D1124911D08950E94472DF4
:105AB000A59F900DB49F900DA49F800D911D112462
:105AC0000895AA1BBB1B51E107C0AA1FBB1FA61745
:105AD000B70710F0A61BB70B881F991F5A95A9F797
